:020000040800F2
:10000000D8640024590400081B650008A962000890
:1000100019650008BD160008018A000800000000EC
:10002000000000000000000000000000990300082C
:10003000811B000800000000F5030008336C000875
:1000400073040008730400087304000873040008B4
:1000500073040008730400087304000873040008A4
:100060007304000873040008730400083D170008B7
:100070007304000873040008730400087304000884
:100080007304000873040008730400087304000874
:100090007304000873040008730400087304000864
:1000A0007304000873040008730400087304000854
:1000B0007304000873040008730400087304000844
:1000C0007304000873040008730400087304000834
:1000D0007304000873040008730400087304000824
:1000E0007304000873040008000000007304000893
:1000F0007304000873040008730400087304000804
:1001000073040008730400087304000873040008F3
:1001100073040008730400087304000873040008E3
:1001200073040008730400087304000873040008D3
:1001300073040008730400087304000873040008C3
:1001400000000000000000000000000000000000AF
:1001500073040008730400087304000873040008A3
:100160007304000873040008730400087304000893
:100170007304000873040008730400080000000002
:100180007304000873040008730400087304000873
:10019000756A0008730400087304000873040008FB
:1001A0007304000873040008730400087304000853
:1001B0007304000873040008730400087304000843
:1001C0007304000873040008730400087304000833
:1001D000730400081D650008730400087304000818
:1001E0007304000873040008730400087304000813
:1001F0007304000873040008730400087304000803
:1002000073040008730400087304000873040008F2
:1002100073040008730400087304000873040008E2
:100220007304000873040008730400080000000051
:100230007304000873040008000000007304000841
:1002400073040008730400087304000873040008B2
:1002500073040008730400087304000873040008A2
:100260007304000873040008730400087304000892
:100270007304000873040008730400080000000001
:1002800073040008730400087304000800000000F1
:10029000000000007304000800F002F800F06CF8A1
:1002A0000AA090E8000C82448344AAF10107DA45D1
:1002B00001D100F061F8AFF2090EBAE80F0013F0B7
:1002C000010F18BFFB1A43F00103184768940000A0
:1002D000889400000A444FF0000C10F8013B13F022
:1002E000070408BF10F8014B1D1108BF10F8015B8F
:1002F000641E05D010F8016B641E01F8016BF9D182
:1003000013F0080F1EBF10F8014BAD1C0C1B09D1D8
:100310006D1E58BF01F801CBFAD505E014F8016B4A
:1003200001F8016B6D1EF9D59142D6D370470000DC
:100330000023002400250026103A28BF78C1FBD8EE
:10034000520728BF30C148BF0B607047662909F0CB
:100350006481782900F0E480002070471FB509F01F
:1003600057F900F08DFC04000020002109F03AF953
:10037000E0601FBD10B510BD00F07EFD1146FFF717
:10038000EDFF08F06EFB00F09CFD03B4FFF7F2FFF9
:1003900003BC00F0D1FD00002C4B19680868B0E8E0
:1003A000F04F80F30988BFF36F8F4FF0000080F3A8
:1003B000118870470000000008480068006880F35A
:1003C00008884FF0000080F3148862B661B6BFF36E
:1003D0004F8FBFF36F8F00DF00BF00BF08ED00E05D
:1003E000DFF80C00016841F470010160704700BF44
:1003F00088ED00E0EFF30980BFF36F8F134B1A68AD
:100400001EF0100F08BF20ED108A20E9F04F106099
:1004100009B44FF0500080F31188BFF34F8FBFF342
:100420006F8F08F0F3FE4FF0000080F3118809BCD5
:1004300019680868B0E8F04F1EF0100F08BFB0EC64
:10044000108A80F30988BFF36F8F7047380000244B
:10045000EFF30580704700000948804709480047CE
:10046000FEE7FEE7FEE7FEE7FEE7FEE7FEE7FEE764
:10047000FEE7FEE704480549054A064B70470000C1
:10048000316D000899020008D85E0024D864002469
:10049000D8600024D86000240FB47CB50C0009AAF1
:1004A000009001D02044401E084B7B4469460190D7
:1004B000089800F0C4FB05461CB10020694600F016
:1004C000D1FB28467CBC5DF814FB0000C10700008E
:1004D00070B5044685690068C10601D5302600E084
:1004E0002026C00707D070BDD4E9012130469047CF
:1004F000206A401C20626D1EF6D570BD70B50446A2
:1005000085690078C00707D170BDD4E9012120209A
:100510009047206A401C20626D1EF6D570BD000019
:1005200070B504460D4621461068AFF3008021885F
:10053000090502D50F4A7A4402E00E4A7A440E3287
:10054000002104F1240305E000F00F060009965D88
:100550005E54491C0028F7D120780023000704D5F9
:10056000702D02D009B1022311322046BDE870403F
:1005700000F0FAB81A9100002DE9F05F89460446B0
:100580004FF0000ADFF824B1FB44C0F820A0204659
:10059000E168884700287DD0252806D0D4E90121CC
:1005A0009047206A401C2062F1E700255F46204604
:1005B000E16888472028064607DB312E05D2B819A6
:1005C00010F8200C08B10543F1E7A80701D525F084
:1005D0000405C4F81CA00027C4F818A02A2E09D0CE
:1005E000304608F037FA38B304EB8708303EC8F8D5
:1005F000186019E059F8041B204604EB870291614A
:10060000E1688847012F064618D1E069002820DA02
:1006100025F020051DE0D8F8180000EB800006EB5F
:1006200040003038C8F818002046E1688847064680
:1006300008F010FA0028EED1012F0AD02E2E08D192
:100640002046E16888477F1C0646022F45F02005BA
:10065000C4DBA069002803DA404245F00105A0612F
:10066000E80701D025F01005A6B1A6F14100192830
:1006700002D8203645F400654A46314620462560BA
:100680004D46FFF763FE60B1012807D0ED1D25F050
:10069000070000E007E000F1080978E705F1040928
:1006A00075E730467AE7206ABDE8F09FF0900000D9
:1006B00010B5203AC0F00B80B1E81850203AA0E8FD
:1006C0001850B1E81850A0E81850BFF4F5AF5FEA31
:1006D000027C24BFB1E81850A0E8185044BF18C9E4
:1006E00018C0BDE810405FEA827C24BF51F8043B8B
:1006F00040F8043B08BF7047D20728BF31F8023BDF
:1007000048BF11F8012B28BF20F8023B48BF00F872
:10071000012B70474FF0000200B5134694469646F1
:10072000203922BFA0E80C50A0E80C50B1F1200104
:10073000BFF4F7AF090728BFA0E80C5048BF0CC0B2
:100740005DF804EB890028BF40F8042B08BF704710
:1007500048BF20F8022B11F0804F18BF00F8012B82
:1007600070477047704770472DE9F0470D4699462E
:100770009246044600F124080168880604D5E06921
:1007800021F01001216000E00120A84201DD471B9B
:1007900000E00027A1697A1902EB0900081AA0619C
:1007A0002078C00602D42046FFF792FE002608E01B
:1007B000D4E901211AF806009047206A401C761CF3
:1007C00020624E45F4DB2078C0060AD52046FFF7AC
:1007D0007FFE06E0D4E9012130209047206A401CCA
:1007E0002062381EA7F10107F4DC07E0D4E90121FB
:1007F00018F805009047206A401C2062281EA5F1C9
:100800000105F3DC2046FFF779FE2078000602D5CB
:100810000220BDE8F0870120FBE770472DE9FF4F7C
:100820000C461E464FF0FF378BB0D2E90001DDF8D1
:1008300060800A908A46C1F30A5505B93D460021F9
:1008400008464FF00000BAF1000F00F4400005DA4E
:1008500000EB80004FF4400101EA50004FEA90594C
:10086000B9F1010F00DDB9460A9850EA4A000ED0EE
:1008700044F61050A5F2FF3545432F14B8F1000F90
:100880001ED07542291E1EDDC9F100021CE0B8F120
:10089000010F4FF0000001D0302103E0F24305E0EA
:1008A0002154401CB042FBDB304600220021215481
:1008B0000B99C1F80880C1E900200FB0BDE8F08FA6
:1008C000BD1B6D1CDEE74A4600DA694206A800F04F
:1008D00061FA06AB93E8070003AB83E807005046D4
:1008E0000A9900F030FB8DE80700A0F500501F3892
:1008F00000900398002D09DD42F21F014A4608448A
:1009000003A90390684600F08FFD08E0A0F50050B1
:100910004A461F3803A90390684600F099FD8DE808
:1009200007000004000C03D04FF0FF30410800E046
:100930001046B8F1000F03D00022009215461EE0C9
:10094000751E05D400F0A0F9303262556D1EF9D540
:10095000B3460122084302D000227F1C04E0207825
:10096000302801D100227F1E002A099786D01DE081
:10097000112D07DA00F088F9303262556D1C50EA0B
:100980000102F5D1084302D00098C8B10EE0002161
:10099000681E05E0235C625C63542254401E491CBF
:1009A0008142F7DBAB46A81B401E0990002004F8EB
:1009B0000B000B98099AC0F80880C0E9002B7CE76F
:1009C00011264FF0000859E72DE9F04F88460446FC
:1009D000D21D22F0070191B0D1E90001CDE90A0151
:1009E00008F00FF802460B98C00F01D02D2007E049
:1009F0002068810701D52B2002E0202101EAC000F8
:100A0000032A099001D0072A05DB03464146204608
:100A100000F080F90BE12078800601D5E06900E064
:100A20000620B8F1650F814606D0B8F1660F18D0E0
:100A3000B8F1670F70D131E00020B9F1110F0090CB
:100A400001DB112301E009F101030AAA01A90CA8A5
:100A5000FFF7E4FEDDE90C70002609F1010583468D
:100A600047E001204B4600904FF000470AAA01A939
:100A70000CA8FFF7D3FEDDE90DB00C995D4600260A
:100A800010B909F101000D18B9EB050003D4C0F14C
:100A9000FF3609F10105A5EB09002BE0B9F1010FC3
:100AA00001DA4FF001090020B9F1110F009048461A
:100AB00001DD112300E003460AAA01A90CA8FFF7F3
:100AC000ADFEDDE90C704D46002683462078000718
:100AD0000AD4AB4500DA5D4601A8012D04DD4119B9
:100AE00011F8011C302907D04F4502DA17F1040F25
:100AF00004DA012082460FE06D1EEEE7002F02DCD3
:100B0000ED1B3E4403E0781CA84200DD7D1CB81BB1
:100B100000F1010A4FF000472078000703D4AA45EE
:100B200001DB4FF0FF3A0021B7F1004F0DF1430810
:100B30008DF8431024D002202B23002F01DA7F42AE
:100B40002D230A21021EA0F1010000DC5FB197FBFA
:100B5000F1FC97FBF1F201FB1C7C17460CF1300C09
:100B600008F801CDEEE7A8F101000370218809051E
:100B700001D5452100E06521A0F1010800F8011C24
:100B800009980FA9A1EB0807FF1D00B10120411929
:100B900001EBEA70A1693844081A401EA061207870
:100BA000C00602D42046FFF793FC099828B1D4E987
:100BB00001219047206A401C20622078C00622D57F
:100BC0002046FFF785FC1EE0002E04DBB34502DD66
:100BD00001A8805D00E03020D4E901219047206A1F
:100BE000401C2062761CAAF101005FEA000A0AD1CB
:100BF00000F046F8C0680168405CD4E901219047E4
:100C0000206A401C2062281EA5F10105DCDC07E0FB
:100C1000D4E9012118F8010B9047206A401C20629A
:100C2000381EA7F10107F3DC2046FFF767FC03201D
:100C300011B043E601694A1C02610878704700B5AB
:100C40008FB0CDE901310021059105497944CDE905
:100C5000031011466846FFF78FFC0FB000BD00007F
:100C6000E5FFFFFF0A6802F8010B0A607047D1E94F
:100C700000239A4202D2531C0B6010707047000090
:100C800000487047985E002430B5B0F10A024FEA80
:100C9000900E71F100034EEA817EB0EB0E0061EB25
:100CA00091014FEA101E4EEA017E10EB0E0041EB5F
:100CB00011114FEA102E4EEA016E10EB0E0041EBBF
:100CC00011214FEA104E4EEA014E10EB0E0041EB9F
:100CD0001141401841F100014FEAD00040EA417053
:100CE0004FEAD10110EB80054FEA810444EA907489
:100CF00044EB01046D1944EB0404521BA3414FF073
:100D0000000348BF0A3200D530BD401C41F100014C
:100D100030BD00002DE9F0411F460446032601685E
:100D2000072A01F4006004DB08B116A505E016A54A
:100D300003E008B115A500E015A521F01000206022
:100D4000A069C01EA0610FB1401EA0612046FFF740
:100D5000BFFB4FB1D4E9012138469047206A401CBF
:100D60002062C01C206206E0206AFAE7D4E9012173
:100D700015F8010B9047761EF8D22046FFF7BEFB10
:100D8000BDE8F0814E414E006E616E00494E460056
:100D9000696E66002DE9F047814616468AB03348F1
:100DA00078440DC88DE80D0030487844801C03ACB1
:100DB0000DC884E80D0041F69B300844372190FBB4
:100DC000F1F290FBF1F5A5F1800501FB12041B3C4B
:100DD00002D56442012000E00020DFF890A08046A8
:100DE0000027FA44AAF1BE0A0DE0E00709D0324616
:100DF000684607EB47010AEB810100F029FB8DE80B
:100E0000070064107F1C002CEFD1184F7F44AC3FCB
:100E100018E0E80714D007EB04100DF1180A90E869
:100E20000E008AE80E00C068F04201D198190890BF
:100E3000324606A903A800F00BFB03AB83E80700CA
:100E40006D10641C002DE4D132466946B8F1000FE4
:100E500003A802D000F0E8FA01E000F0F9FAC9E9CD
:100E60000001C9F808200AB0BDE8F08768890000D1
:100E700000487047785E00247546FFF7F9FFAE46DC
:100E800005006946534620F00700854618B020B596
:100E9000FFF7F0FABDE820404FF000064FF00007E2
:100EA0004FF000084FF0000B21F00701AC46ACE812
:100EB000C009ACE8C009ACE8C009ACE8C0098D467F
:100EC00070470446AFF300802046FFF75EFA00004B
:100ED0004FF0013C50F8042B51F8043B9A4215D1D5
:100EE000A2EB0C03934313EACC130BD150F8042B61
:100EF00051F8043B9A4209D1A2EB0C03934313EA45
:100F0000CC13E7D04FF00000704700BFD01A01BAF1
:100F1000B1FA81F101F0180122FA01F0CB40C1F1E0
:100F20002001DBB2C0B2C01A2CFA01F3D11A9143EE
:100F300011EAC311E6D1704701491820ABBEFEE7A4
:100F40002600020070475FEA400C08BF91F0000FD6
:100F50004FEA8C234FEAC12243EA51514FEA1C5019
:100F600018BF00F5F0404FEA300018BF41F00041D3
:100F70005FEA6C5C00F02980BCF1FF3F08BF40F0E5
:100F800080407047130C06BF12044FF0100C4FF056
:100F9000000C130E04BF12020CF1080C130F04BF57
:100FA00012010CF1040C930F04BF92000CF1020C1F
:100FB000D30F04BF52000CF1010C11464FF0000298
:100FC000A0F11F00A0EB0C00704711F0004F08BF0C
:100FD000704731F000413FF4D5AF0B0C06BF090458
:100FE0004FF0100C4FF0000C0B0E04BF09020CF177
:100FF000080C0B0F04BF09010CF1040C8B0F04BF8C
:1010000089000CF1020CCB0F04BF49000CF1010C5C
:10101000CCF12003A0EB0C0022FA03F302FA0CF24D
:1010200041EA030100F10100704720F07F4C80EAA3
:10103000030023F07F47ACEB070303F57C5300F07C
:10104000004003F1FF032DE980494FEA154B09B435
:101050004FEA144325EA0B4E24EA03480FF2042614
:1010600006EB132749083E785FEA320203FB066766
:10107000C7F5000707FB06F64FEA54374FEAD64696
:1010800006F1020607FB066CCCF1005C4FEA1C4738
:101090002CEA074C07FB06F40CFB06F504EB15469F
:1010A0004FEA961634BF00204FF000404FEAD13788
:1010B00006FB07FC4FEA1C4C0CFB0BF7D21B03FB97
:1010C0000CF761EB07010CFB0EF7B0EB074072EB7E
:1010D00017420CFB08F734BFA2EB0742B2EB074202
:1010E00061EB17414FEA0C444FEA910706FB07FCFE
:1010F0004FEA1C4C0CFB0BF7B0EBC74072EB5732BE
:1011000003FB0CF734BFA2EBC742B2EBC74261EB63
:1011100057310CFB0EF7B0EBC70072EB57720CFBAC
:1011200008F734BFA2EBC702B2EBC70261EB5771FD
:10113000039F4FEA816141EA921104EBCC044FEA2C
:10114000D1374FEA826206FB07FC42EA90124FEA6F
:1011500080604FEA1C4C0CFB0BF7D21B03FB0CF717
:1011600061EB07010CFB0EF7B0EB074072EB174287
:101170000CFB08F734BFA2EB0742B2EB074261EB6E
:1011800017414FEA8C554FEA910704EB9C2406FB6C
:1011900007FC4FEA1C4C0CFB0BF7B0EBC74072EBA3
:1011A000573203FB0CF734BFA2EBC742B2EBC74286
:1011B00061EB57310CFB0EF7B0EBC70072EB5772C7
:1011C0000CFB08F734BFA2EBC702B2EBC70261EB1E
:1011D000577115EB4C254FEA816141EA92114FEAB4
:1011E00082624FEAD13742EA901206FB07FC44F1D3
:1011F00000044FEA80604FEA1C4C0CFB0BF7D21B3B
:1012000003FB0CF761EB07010CFB0EF7B0EB07409B
:1012100072EB17420CFB08F734BFA2EB0742B2EBAC
:10122000074261EB174115EB1C154FEA813141EA8A
:1012300092414FEA823242EA90424FEA80304FEACE
:101240000C7644F1000448EA03434EEA0B484FF0A1
:10125000000EB2EB080C71EB030724BF624639465F
:101260004EEB0E0E4FF0000B0018524149414BEB74
:101270000B0BB2EB080C71EB03077BF1000B24BFE7
:10128000624639464EEB0E0E4FF0000B00185241ED
:1012900049414BEB0B0BB2EB080C71EB03077BF1F5
:1012A000000B24BF624639464EEB0E0E51EA020790
:1012B00018BF46F0010616EB0E7655F1000254F108
:1012C000000103D5BDE88901BDE80088BDE88901BA
:1012D000BDE80048B619524141EB0101A3F10103F9
:1012E000704780807F7E7D7C7B7A79787776767593
:1012F0007473727171706F6E6E6D6C6C6B6A6A690B
:101300006868676666656464636362616160605FA4
:101310005F5E5E5D5D5C5C5B5B5A5A59595858571D
:101320005756565555555454535352525251515085
:1013300050504F4F4F4E4E4D4D4D4C4C4C4B4B4BD8
:101340004A4A4A494949484848474747474646461E
:101350004545454444444443434343424242424159
:101360004141002B26D4770021D01CB54FEA370726
:1013700003B44FF010004FF010014FF000000FBC0D
:10138000BDE810400BF1010BBBF1010F08BF5FEA94
:10139000170722BF12F1010211F101014FF00041C4
:1013A00043F1000300F0004043EA00007047F9D326
:1013B0005708DAE746EA064613F1400F4FEA1646A9
:1013C0001FDD13F1200FDFBF16430A460021203333
:1013D0005B42C8D0C3F1200746EA064602FA07F787
:1013E0004FEA164646EA0706C3F1200722FA03F23F
:1013F00001FA07F721FA03F14FF0000342EA07026E
:10140000B1E746EA020646EA06464FEA164646EACB
:101410000106BCBF46EA0646360C4FF000034FF00B
:1014200000024FF000019EE72DE9C048934630B41A
:1014300091E8380007C831EA400C48BF34EA430C51
:1014400003D5FFF7F2FDFFF78CFFF0BCBDE8008885
:101450002DE9C048934630B491E8380007C810F031
:10146000804F08BF13F0804F03D100F005F8FFF75D
:1014700078FFF0BCBDE8008820F07F4780EA0300D9
:1014800023F07F4C07EB0C03A3F57C5300F00040E6
:10149000A3F1FE0392F0000F00F0B38095F0000F6F
:1014A00000F077802DE901494FEA11404FEA1446D8
:1014B00021EA004800FB06FC24EA064708FB06F682
:1014C00007FB08F800FB07F718EB06484CEB164C37
:1014D0004FEA124B18EB07484FEA15464CEB174002
:1014E00022EA0B4E0BFB06FC25EA06470EFB06F62E
:1014F00007FB0EFE0BFB07F71EEB064E4CEB164CE4
:101500004FF000061EEB074E4CEB174B18EB0B0889
:1015100040F1000018EB0E0B58EB000840F1000002
:101520008F1A4FF000013CBFC943661B14BFB5EBD7
:10153000040C00213CBFC943F61B4FEA17444EEA96
:101540008E0E27EA04454FEA1C4704FB07622CEA8B
:10155000074C05FB07F70CFB05F604FB0CFC16EB30
:10156000074642EB174216EB0C4642EB1C421BEBC4
:10157000060658EB0202414146EA9E0601D5BDE847
:101580000189B619524141EB0101A3F10103BDE804
:1015900001894FEA14454FEA114724EA054621EA3A
:1015A000074C05FB07F406FB07F70CFB06F105FBF0
:1015B0000CFC11EB074144EB17444FEA124711EBC7
:1015C0000C4144EB1C4422EA074C05FB07F206FBE6
:1015D00007F70CFB06F605FB0CFC16EB074642EB87
:1015E000174216EB0C4642EB1C456A1854F10001F9
:1015F00048BF7047B619524141EB0101A3F1010305
:10160000704795F0000F37D04FEA11424FEA144768
:1016100021EA024624EA074C02FB07F106FB07F722
:101620000CFB06F402FB0CFC14EB074441EB1741E6
:101630004FEA154714EB0C4441EB1C4125EA074CDB
:1016400002FB07F506FB07F70CFB06F602FB0CFC9A
:1016500016EB074645EB174516EB0C4645EB1C42CF
:10166000121951F1000148BF7047B619524141EBC0
:101670000101A3F1010370474FEA14454FEA1147F6
:1016800024EA054621EA074C05FB07F106FB07F7AC
:101690000CFB06F24FF0000605FB0CFC12EB0742B8
:1016A00041EB174112EB0C4251EB1C4148BF704714
:1016B000921841EB0101A3F101037047FEE70020FE
:1016C000704700207047000005490022054810B50A
:1016D00005F082FD0449034805F071FD002010BDAE
:1016E000F44E002418420024F446002410B506F0FD
:1016F0003BFC0449044805F062FD034805F038FD51
:10170000002010BDF4460024184200240020704739
:10171000094A10B5D2F8BC22D2F814220AB101202D
:1017200010BD0A460146044805F056FDBDE81040CC
:10173000014805F0C7BD000018420024014801F02F
:1017400057B90000B0040024294A016891423AD0F8
:10175000274A1832914236D0254A3032914232D04F
:10176000234A483291422ED0214A603291422AD0F7
:101770001F4A7832914226D01D4A9032914222D09F
:101780001B4AA83291421ED01A4A91421BD0194AD4
:101790001832914217D0174A3032914213D0154A6D
:1017A000483291420FD0134A603291420BD0114A15
:1017B0007832914207D00F4A9032914203D00D4ABD
:1017C000A832914211D1CAB21823103AB2FBF3F2F7
:1017D0006FF30901032A02F00703074AD25CC265CE
:1017E00000D9091D81650846704721F0FF01F9E71E
:1017F00010000240100402403C96000830B5224A16
:10180000012301689142CAB21BD01F4C1434A1427B
:1018100017D01D4C2834A14213D01B4C3C34A1429C
:101820000FD0194C5034A1420BD0174C6434A14254
:1018300007D0154C7834A14203D0134C8C34A1420C
:101840000CD11421114C083AB2FBF1F10F4A80324D
:1018500001F01F0504EB8101AB4010E00C4D182492
:10186000103A0D44B2FBF4F1A82D00D80831094A12
:1018700001F01F0402EB8101064AA3408032603070
:1018800080E80E0030BD000008540258005802588D
:10189000F0FBFDBF0008024010B50279531E072B74
:1018A0002DD8174C0168A1421BD0154C1434A1420D
:1018B00017D0134C2834A14213D0114C3C34A14210
:1018C0000FD00F4C5034A1420BD00D4C6434A142C8
:1018D00007D00B4C7834A14203D0094C8C34A14280
:1018E00003D10849074C443102E00749064C443112
:1018F00004EB8202C0E91B2101219940416710BD20
:1019000008540258FC580258FC08024010B583697C
:101910004FF0C074826A0146002053B1B3F5005FF6
:1019200015D072B1012A0CD0022A0AD0032A09D19B
:1019300004E01AB1012A06D0022A03D1C96AC901FA
:1019400000D5012010BDC96AA142FAD010BD002AFD
:10195000F7D0012AF2D0022AF3D0032AF3D010BD27
:101960002DE9F04F804E804FDFF8FC911836DFF8FC
:10197000F8A148370468856D0AF1300ADFF8ECB148
:101980004C45DFF8ECC1DFF8ECE16DD0B4426BD030
:10199000544569D0BC4267D0DFF8D081A8F118085F
:1019A000444561D05C455FD064455DD074455BD0F3
:1019B000DFF8C481444557D0DFF8BC8108F118082E
:1019C000444551D0DFF8B08108F1300844454BD090
:1019D000DFF8A48108F14808444545D0DFF8988134
:1019E00008F1600844453FD0DFF88C8108F17808A1
:1019F000444539D0DFF8808108F19008444533D060
:101A0000DFF8748108F1A80844452DD0DFF86C8117
:101A1000444529D0DFF8648108F11408444523D0F7
:101A2000DFF8588108F1280844451DD0DFF84C81C3
:101A300008F13C08444517D0DFF8408108F1500810
:101A4000444511D0DFF8348108F1640844450BD0D7
:101A5000DFF8288108F17808444505D0DFF81C81BB
:101A600008F18C08444509D1D0E91948C4F804802C
:101A7000C46E1CB1D0E91C48C4F8048004684C450D
:101A80002ED0B4422CD054452AD0BC4228D0374E58
:101A9000183EB44224D05C4522D0644520D0744521
:101AA0001ED0354EB4421BD0334E1836B44217D038
:101AB000314E3036B44213D02F4E4836B4420FD098
:101AC0002D4E6036B4420BD02B4E7836B44207D040
:101AD000294E9036B44203D0274EA836B44215D1D1
:101AE00090F85C603F2406F01F06B440AC600468C8
:101AF000256825F4802525602EE09A600068C16085
:101B0000BDE8F08F99600068C260F9E71B4EB442EF
:101B10001BD01A4E1436B44217D0184E2836B44291
:101B200013D0164E3C36B4420FD0144E5036B44249
:101B30000BD0124E6436B44207D0104E7836B44201
:101B400003D00E4E8C36B442DAD190F85C6001249A
:101B500006F01F06B4406C60046863608368402B25
:101B60000368CFD1C9E7000010000240880002409E
:101B7000A0000240B800024010040240085402587D
:101B8000704772B6FEE7F0B5D1E90843CD690A683F
:101B9000C2B10268254322F4F84213431D43056095
:101BA000D1E90125D1E903364C692A43456833431D
:101BB00089691A43EB0B2243DB030A431A43426051
:101BC0000020F0BDD1E9012ED1E9036CD1E9057106
:101BD00042EA0E0246EA0C0632433A430A430168DF
:101BE0002A4322431A436FF30E010A430260E7E7D8
:101BF000426943F6FE739A4342EA41014161002083
:101C0000704770B591E81C00C9686FF01F05066940
:101C10001A4305EB441444EA41210A4306EA4543CA
:101C20001A430261002070BD2DE9F04F8B8A6FF0DE
:101C30000F05264C4FF07F4BD1F80C9004EB03536B
:101C40006FF0FF044FEA042A1AB386684FEA09329C
:101C50001F4FA2F580521A433E4032438260D1E9C1
:101C600000278E68521E05EB07150F8A2A43C568A8
:101C700004EB06240E7E0AEB074322431A430BEBC8
:101C800006610A4305F070431A43C2600020BDE8B4
:101C9000F08F91E804110F4E521E0F8A05EB0815C4
:101CA0002A4304EB0C2C06EB09350E7E42EA0C02AB
:101CB0002A4385680AEB074422431A430BEB06616B
:101CC0000A4305F070431A438260DFE70000F0FF2B
:101CD000FF0F0FFF00F0FFFF90B004F019FB04F0BE
:101CE00003FE04F0F9FD04F0EDFBC82006F0F9FE58
:101CF0006148802152A2FEF7CFFB604C81B2606048
:101D00005D48FFF705FD5E48012208214FF00009FC
:101D1000C4F8049001F0B3FEDFF868B1EA46DFF8DA
:101D20006881606840B181B25348FFF7F1FC05203B
:101D3000C4F8049006F0D5FE544E307803282ED116
:101D4000DBED000A9FED520A4B488021F8EE600A55
:101D500050A260EE800A20EE800AB7EEC00A8DED38
:101D6000000BFEF799FB606081B24348FFF7D0FC9F
:101D70000A204D46C4F8049006F0B3FE3E48802188
:101D800052A2FEF789FB606081B23B48FFF7C0FCBE
:101D900065600120357060700A2006F0A2FE98F898
:101DA0000000012845D1242153A0FFF7B1FCDBF846
:101DB0000000232828D95A4F40216846FEF7AAFC84
:101DC0004021564657A25046FEF766FB0546B246EE
:101DD0001E26C5F140010AEB0500BB5D57A2FEF7C8
:101DE0005BFB761C232E0544F3DDC5F140010AEBB5
:101DF000050040A2FEF750FB284481B26846FFF779
:101E000087FC0A2006F06DFEDBF8000000F02CF9DC
:101E10004FF01E0188B14BA0FFF77AFC0A2006F0B4
:101E200060FE154880214FA288F80090FEF734FB31
:101E300060600A2006F055FE73E754A0ECE700004E
:101E40005B494E49545D20555342202B2053445248
:101E5000414D205265616479212053656E642030C4
:101E600078354120746F20737461727420726563D9
:101E7000762062696E0D0A00F85D00249801002446
:101E80000010025814000024010000241000002457
:101E90000000803A5B494E464F5D2042696E204605
:101EA000696C65205265637620436F6D706C657454
:101EB000652120546F74616C2053697A653A20253E
:101EC0002E3266204D420D0A000000005B52454153
:101ED00044595D2053656E6420307866303066204A
:101EE000746F207374617274204650474120636F91
:101EF0006E6669670D0A00005B465047415D2053DE
:101F000074617274204650474120636F6E66696742
:101F100075726174696F6E2E2E2E0D0A000000001E
:101F20000000A0C05B534452414D20436865636B81
:101F30005D2033302D33353A2000000025303258F3
:101F4000200000005B465047415D20436F6E66698C
:101F50006775726174696F6E206661696C65642172
:101F60000D0A00005B52454144595D205761697478
:101F7000206E65787420737461727420636D6420C0
:101F80002830783541290D0A000000005B46504793
:101F9000415D20436F6E66696775726174696F6E2B
:101FA0002073756363657373210D0A002DE9F04199
:101FB000154B002501262A46DC1F19E0A77917B129
:101FC000012F06D012E0875CF02F0FD11F70A67191
:101FD0000DE0875C4FF0020C5F7084F806C093F848
:101FE00000C0BCF1F00F01D10F2F05D0A571521C1C
:101FF0008A42E3D3BDE8F0812021667003A0FFF799
:1020000087FBA571F6E70000070000245B465047F8
:10201000415D20537461727420636F6E666967203E
:10202000636D642072656365697665640D0A0000FE
:1020300070B50B4C01200B4D002208212070284662
:1020400001F01DFD0A2006F04CFD01222846082162
:1020500001F015FD0A2006F044FD0220207070BD3D
:1020600000000024001002582DE9F04F050099B03F
:1020700002D0B5F5002F04D918215AA0FFF748FB6C
:1020800074E0FFF7D5FF12215DA0FFF741FB04F0DC
:10209000E9F9012006F025FD5F4C0220DFF87C9174
:1020A00042F21077060331462070484601F0E2FC08
:1020B000A07008215A4801F0DDFCB0464FF0030B38
:1020C0000626E07004E0012006F00BFD7F1E0FD015
:1020D0004146484601F0CEFC0028F4D0C2464146B5
:1020E000484601F0C7FC01280BD026214DA03AE05C
:1020F0001821267056A0FFF70BFB0A2006F0F1FC12
:102100005DE0142158A0FFF703FB012006F0E9FC75
:10211000302184F800B05AA0FFF7FAFA0A2006F03E
:10212000E0FCDFF890814FF48057E06830E05146E2
:10213000484601F09FFCA0B1E168681AB84200D996
:10214000384682B283465C48414403F0DBFFB0B1BD
:1021500024215AA0FFF7DCFA5748267003F006FD49
:1021600004E02C215FA0FFF7D3FA2670012019B0FC
:10217000BDE8F08F5146484601F07CFC08B34E485C
:1021800003F087FD0128F5D1E16801EB0B00E06069
:10219000A842CCD364216846FEF7BCFA46486422C4
:1021A000694603F0AFFF444803F073FD0128FAD1FC
:1021B00000F0DEF858B1162155A0FFF7A9FA032068
:1021C000D5E73D4803F0D2FC302157A0CBE70520EE
:1021D000207018215FA0FFF79BFA0A2006F081FC0F
:1021E0000020C4E75B465047415D20496E76616C34
:1021F00069642062696E2073697A650D0A000000C7
:102200005B465047415D204650474120526573650B
:1022100074204F4B0D0A00000000002400080258F3
:10222000001002585B465047415D20494E49545FBB
:10223000422061626E6F726D616C206166746572BE
:1022400020726561647920636865636B0D0A000024
:102250005B465047415D20494E49545F42207469B6
:102260006D656F75740D0A005B465047415D2049EE
:102270004E49545F422072656164790D0A00000086
:102280005B465047415D2053656E64696E6720620E
:10229000696E206461746120766961205350492B16
:1022A000444D4120286F6E652D73686F74292E2E62
:1022B0002E0D0A000000A0C0280400245B465047F1
:1022C000415D204552524F523A20444D4120747294
:1022D000616E736D6974206661696C6564210D0AB5
:1022E000000000005B465047415D204552524F526E
:1022F0003A20494E49545F422064726F70706564A1
:10230000206265666F72652073656E64210D0A0038
:102310005B465047415D20444F4E452074696D65D2
:102320006F75740D0A0000005B465047415D204503
:1023300052524F523A20494E49545F422064726FC4
:10234000707065642028444D412061626F72742969
:10235000210D0A005B465047415D20436F6E666960
:102360006720636F6D706C6574650D0A0000000076
:102370002DE9F041164C0420164E4FF4FA65070380
:1023800039462070304601F075FB4FF4005820713B
:1023900009E0012006F0A5FB6D1E0DD04146304638
:1023A00001F068FB60B13946304601F063FB00285C
:1023B000EFD00020BDE8F081062020700320F9E76F
:1023C00007F0AEF8302104A0FFF7A2F90120F1E7F1
:1023D00000000024000802585B465047415D20433E
:1023E0005243204572726F722120494E49545F4218
:1023F0002064726F7070656420285761697420448E
:102400004F4E45290D0A00002DE9F84F044601F012
:1024100041FB00903CB194F83500022806D08021A1
:1024200061650020E4E00120BDE8F88FC74DC74E8C
:10243000C649183520683036DFF81483DFF8149366
:102440008842DFF814A3DFF814B32ED0A8422CD0B2
:10245000B0422AD0404528D0484526D0504524D007
:10246000584522D0BD4A183290421ED0BC4A9042F4
:102470001BD0BB4A1832904217D0B94A3032904232
:1024800013D0B74A483290420FD0B54A60329042DA
:102490000BD0B34A7832904207D0B14A9032904282
:1024A00003D0AF4AA832904209D1026822F01E023E
:1024B00002602068426922F08002426103E0026803
:1024C00022F00E02026027688F4238464DD0A842A3
:1024D0004BD0B04249D0404547D0484545D0504503
:1024E00043D0584541D09D4A183290423DD09C4A35
:1024F00090423AD09A4A1832904236D0984A3032B6
:10250000904232D0964A483290422ED0944A60325D
:1025100090422AD0924A7832904226D0904A903205
:10252000904222D08E4AA83290421ED08D4A9042CC
:102530001BD08C4A1432904217D08A4A28329042DB
:1025400013D0884A3C3290420FD0864A5032904293
:102550000BD0844A6432904207D0824A783290424B
:1025600003D0804A8C32974204D1206E026822F454
:102570008072026075492068884228D0A84226D01F
:10258000B04224D0404522D0484520D050451ED0EE
:1025900058451CD071491831884218D0704988427A
:1025A00015D06F491831884211D06D4930318842B9
:1025B0000DD06B494831884209D069496031884261
:1025C00005D067497831884201D06549903101686A
:1025D00021F0010101600EE001F05CFA0099401A5F
:1025E000052808D9202262650321002084F83510CF
:1025F00084F8340017E73868C007EDD1534A012149
:10260000206890422ED0A8422CD0B0422AD040451B
:1026100028D0484526D0504524D0584522D04F4B8D
:10262000183398421ED04E4B98421BD04C4B183357
:10263000984217D04A4B3033984213D0484B483316
:1026400098420FD0464B603398420BD0444B7833BE
:10265000984207D0424B9033984203D0404BA83366
:10266000984208D194F85C703F23A06D07F01F07D3
:10267000BB40836007E094F85C30A06D03F01F035B
:1026800001FA03F34360206890424DD0A8424BD03A
:10269000B04249D0404547D0484545D0504543D049
:1026A000584541D02D4A183290423DD02C4A904294
:1026B0003AD02B4A1832904236D0294A30329042D2
:1026C00032D0274A483290422ED0254A603290427A
:1026D0002AD0234A7832904226D0214A9032904222
:1026E00022D01F4AA83290421ED01E4A90421BD0D0
:1026F0001C4A1432904217D01A4A2832904213D002
:10270000184A3C3290420FD0164A503290420BD0B9
:10271000144A6432904207D0124A7832904203D071
:10272000104A8C3290420BD1D4E919024260E06E1B
:1027300030B1026822F480720260D4E91C02426067
:10274000002084F8351084F834006DE61000024053
:10275000580002407000024088000240A000024081
:1027600010040240085402582DE9F05F28B190F897
:102770003510022904D0802141650120BDE8F09F79
:10278000904C904B0168183C18338E4ADFF83C920D
:10279000A1428D4CDFF838E28E4FDFF83CB2DFF813
:1027A0003CA28F4D8F4E31D091422FD099422DD0E7
:1027B000A1422BD0494529D0714527D0B94225D017
:1027C000DFF810C20CF1180C61451FD0DFF808C209
:1027D000ACF1600C614519D0DFF8FCC1ACF1480CDC
:1027E000614513D0DFF8F0C1ACF1300C61450DD07C
:1027F000DFF8E4C1ACF1180C614507D0594505D0AC
:10280000514503D0A94201D0B1422CD1DFF8B4C167
:102810004FF0040880F83580ACF1180C61451DD0EC
:1028200091421BD0994219D0A14217D0494515D0E9
:10283000714513D0B94211D06648183081420DD08D
:1028400065486038814209D063484838814205D0E4
:1028500061483038814201D05F481838086820F05C
:1028600001000860ABE0D1F800C02CF00E08DFF8E2
:1028700054C1C1F80080ACF1180C0168614527D043
:10288000914225D0994223D0A14221D049451FD061
:1028900071451DD0B9421BD0DFF838C10CF1180CBE
:1028A000614515D0DFF830C1ACF1600C61450FD047
:1028B000DFF824C1ACF1480C614509D0DFF818C13C
:1028C000ACF1300C614503D0DFF80CC1ACF1180C51
:1028D000D1F800C02CF0010CC1F800C0DFF8E48092
:1028E0004FF0010C0168A8F11808414546D091420B
:1028F00044D0994242D0A14240D049453ED0714592
:102900003CD0B9423AD0334A1832914236D0324A9A
:10291000603A914232D0304A483A91422ED02E4A03
:10292000303A91422AD02C4A183A914226D0594541
:1029300024D0514522D0A94220D0B1421ED02A4AEB
:1029400091421BD0284A1432914217D0264A28328D
:10295000914213D0244A3C3291420FD0224A503245
:1029600091420BD0204A6432914207D01E4A7832FD
:10297000914203D01C4A8C32914218D1016E0A68F0
:1029800022F480720A6090F85C20816D02F01F02D0
:102990000CFA02F24A60D0E919124A60C16E31B1F4
:1029A0000A6822F480720A60D0E91C124A60002290
:1029B000016D80F835C080F8342001B188470020CF
:1029C000DCE600002800024058000240700002408F
:1029D00088000240A00002407004024088040240C7
:1029E000A0040240B804024008540258406D7047E9
:1029F0002DE9FC5F0446F74E0020DFF8D8830090F5
:102A00004FF41652F44808F11808A56DDFF8C49386
:102A1000DFF8C0A3016809F1300920680AF1480A0B
:102A2000B1FBF2F1B04201912F68D5F800C0DFF898
:102A3000ACB335D04146884232D0484530D05045BD
:102A40002ED058452CD0E5491831884228D0E3498A
:102A50003031884224D0E1494831884220D0E049D1
:102A600088421DD0DE491831884219D0DC49303106
:102A7000884215D0DA494831884211D0DFF860E346
:102A80000EF1600E70450BD0D54A7832904207D0D7
:102A9000D34B9033984203D0D149A83188427DD19D
:102AA00094F85C20082102F01F0201FA02F23A4277
:102AB0004AD0B04232D0404530D048452ED0504563
:102AC0002CD058452AD0C54A1832904226D0C34A45
:102AD0003032904222D0C14A483290421ED0C04A81
:102AE00090421BD0BE4A1832904217D0BC4A3032B6
:102AF000904213D0BA4A483290420FD0B84A60325E
:102B000090420BD0B64A7832904207D0B44A903205
:102B1000904203D0B24AA832904203D1026802F038
:102B2000040202E0026802F008026AB1026822F0C0
:102B30000402026094F85C0000F01F008140A9606C
:102B4000606D40F00100606594F85C00012100F0C8
:102B50001F008140394240D02068B04234D0404507
:102B600032D0484530D050452ED058452CD09B4AC5
:102B70001832904228D0994A3032904224D0974A55
:102B80004832904220D0964A90421DD0944A183242
:102B9000904219D0924A3032904200E0AFE113D017
:102BA0008F4A483290420FD08D4A603290420BD00B
:102BB0008B4A7832904207D0894A9032904203D0B3
:102BC000874AA83290427DD1406910F0800F04D02E
:102BD000A960606D40F00200606594F85C0004211B
:102BE00000F01F00814039423ED02068B04232D010
:102BF000404530D048452ED050452CD058452AD09D
:102C0000764A1832904226D0744A3032904222D00E
:102C1000724A483290421ED0714A90421BD0704A8C
:102C20001832904217D06E4A3032904213D06C4A1C
:102C3000483290420FD06A4A603290420BD0684AC4
:102C40007832904207D0664A9032904203D0644A6C
:102C5000A83290424ED1006810F0020F04D0A96053
:102C6000606D40F00400606594F85C00102100F095
:102C70001F008140394258D02068B04234D04045CE
:102C800032D0484530D050452ED058452CD0534AEC
:102C90001832904228D0514A3032904224D04F4AC4
:102CA0004832904220D04E4A90421DD04C4A1832B1
:102CB000904219D04A4A3032904215D0484A4832A0
:102CC000904200E014E00FD0454A603290420BD0B1
:102CD000434A7832904207D0414A9032904203D022
:102CE0003F4AA832904207D1006800F0080006E091
:102CF000006872E70068B7E7006800F00400A0B160
:102D0000A96020680168490304D50068000308D55C
:102D1000A16C07E00168C90503D4016821F008012E
:102D20000160216C09B12046884794F85C0020219D
:102D300000F01F008140394279D02068B04232D083
:102D4000404530D048452ED050452CD058452AD04B
:102D5000224A1832904226D0204A3032904222D065
:102D60001E4A483290421ED01D4A90421BD01C4A37
:102D70001832904217D01A4A3032904213D0184A73
:102D8000483290420FD0164A603290420BD0144A1B
:102D90007832904207D0124A9032904203D0104AC3
:102DA000A832904203D1006800F0100002E00068F1
:102DB00000F00200B0B3A96094F835000428206840
:102DC00001680FD049037ED5006800032BD4616CE5
:102DD0002AE0000010000240300000247000024091
:102DE0001004024021F0160101602068416921F0C1
:102DF00080014161206C08B9A06C20B12068016895
:102E000021F00801016094F85C303F21012003F0BB
:102E10001F0300229940A96084F8350084F834200B
:102E2000216D65E003E0E16B09B120468847606DE4
:102E300000287DD0606DC00759D02068042184F837
:102E40003510B0422BD0404529D0484527D05045B9
:102E500025D0584523D09D49884220D09B49183120
:102E600088421CD099493031884218D0984988420C
:102E700015D097491831884211D095493031884290
:102E80000DD093494831884209D091496031884238
:102E900005D08F497831884201D08D499031016841
:102EA00021F00101016020680099019A491C0091FC
:102EB000914202D80168C907F6D10068C00710D056
:102EC00003200FE0FFE70168C905ACD403680121C6
:102ED000002223F01003036084F8351084F83420B6
:102EE000A1E7012084F83500002084F83400E16C6B
:102EF00000291DD002B02046BDE8F05F08477549A3
:102F000088421DD073491431884219D07149283143
:102F1000884215D06F493C31884211D06D495031FB
:102F200088420DD06B496431884209D0694900E07C
:102F300084E07831884203D066498C3188427DD163
:102F400094F85C800427016808F01F0807FA08F766
:102F500017EA0C0F009746D04F0744D500980F048E
:102F6000686003D5C8033CD4A16CC1E7880638D497
:102F70002068B0422DD055496039884229D0484553
:102F800027D0504525D0584523D05049884220D0DD
:102F90004E49183188421CD04C493031884218D0F3
:102FA0004B49884215D04A491831884211D04849C6
:102FB000303188420DD046494831884209D07045A9
:102FC00007D0904205D0984203D04149A8318842A9
:102FD00003D1016821F0080102E0016821F0040139
:102FE0000160216C84E7022707FA08F717EA0C0F43
:102FF00000974ED08F074CD500980F04686003D51A
:10300000C80344D4616C73E7880640D42068B0429A
:103010002FD02E49603988422BD0484529D05045C1
:1030200027D0584525D02949884222D02749183130
:1030300088421ED025493031884200E044E018D053
:103040002349884215D022491831884211D020499D
:10305000303188420DD01E494831884209D0704530
:1030600007D0904205D0984203D01949A831884230
:1030700003D1016821F0140102E0016821F00A0186
:103080000160012184F83510002084F83400E16BE0
:103090002EE7082202FA08F212EA0C0F14D00907F0
:1030A00012D5016821F00E01016094F85C10012036
:1030B000002201F01F0100FA01F16960606584F8E7
:1030C000350084F8342012E7BDE8FC9F88000240F8
:1030D00010040240085402582DE9F05F044600F045
:1030E000D9FC002C07467DD0E34E022120684FF02A
:1030F0000308DFF888934FF00005DFF884A3B0429F
:10310000DFF880B334D0DC4A1832904230D04845E2
:103110002ED050452CD058452AD0DA4A1832904249
:1031200026D0D84A3032904222D0D64A48329042F5
:103130001ED0D54A90421BD0D34A1832904217D0A5
:10314000D14A3032904213D0CF4A483290420FD009
:10315000CD4A603290420BD0CB4A7832904207D0B1
:10316000C94A9032904203D0C74AA83290427DD1DA
:1031700084F83510B04284F834502ED0BE4918314E
:1031800088422AD0484528D0504526D0584524D0DA
:10319000BC491831884220D0BA49303188421CD00D
:1031A000B8494831884218D0B749884215D0B64945
:1031B0001831884211D0B449303188420DD0B2491B
:1031C0004831884209D0B0496031884205D0AE49C3
:1031D0007831884201D0AC499031016821F0010179
:1031E000016008E027E100BF00F054FCC01B052887
:1031F00001D920211CE120680068C007F4D104F146
:1032000008002168D4E9053C8E4685C8096810434A
:10321000D4E907281F43636A38439C4F40EA0C00F7
:103220001043394040EA0800042B40EA010003D172
:10323000D4E90B1211430843954909686FF30F0154
:10324000B1F1005F0FD36168A1F12902052A08D905
:10325000163A032A05D9083A012A02D94F39032917
:1032600001D840F48010CEF8000000E023E0206890
:10327000676A4069042F20F0070047EA00070DD174
:10328000D4E90A01074349B12046FEF73FFB28B1C4
:1032900040206065012184F83510CCE0206847614A
:1032A0002046FEF751FA94F85C203F2102F01F02FD
:1032B0009140816054E0774A90421BD0754B1433A3
:1032C000984217D0734B2833984213D0714B3C333C
:1032D00098420FD06F4B503398420BD06D4B6433F4
:1032E000984207D06B4B7833984203D0694B8C33AC
:1032F00098427DD184F8351084F83450664B0168CB
:10330000A26801EA030E402A73D0802A72D00022FC
:10331000D4E90378D4E9053142EAD70242EAD80871
:103320005C4AD4E9077C48EAD30848EAD10141EA7B
:10333000D701524241EA1C11142341EA0E010160F7
:1033400020681044B0FBF3F08000E0652046FEF7F3
:10335000FBF994F85C20012102F01F0291404160CA
:103360002068B04257D044491831884253D048456C
:1033700051D050454FD058454DD042491831884220
:1033800049D040493031884245D03E494831884291
:1033900041D03D4988423ED03B49183188423AD01D
:1033A00039493031884236D037494831884232D0A5
:1033B0003549603188422ED03349783188422AD04D
:1033C00031499031884226D02F49A831884222D0F5
:1033D000304988421FD02F49143188421BD02D49D3
:1033E0002831884217D02B493C31884213D002E063
:1033F0001DE017E018E02749503188420BD02549DD
:103400006431884207D023497831884203D021496A
:103410008C31884229D12046FEF7F0F9A068802837
:103420000CD00CE0102273E74FF4804270E740218B
:10343000616584F835800120BDE8F09F6560216EEC
:1034400020790860D4E9190141606068401E0728AE
:1034500008D82046FEF720FAE06E0560D4E91C018A
:10346000416002E0E566256765670120656584F8CF
:1034700035000020E0E7000010000240400002405C
:103480005800024070000240100402403F8010FECD
:103490000010005C085402580F00FEFF2DE9F84FA1
:1034A00004008C464FF00000009014D094F83400D3
:1034B000012812D094F835500120002184F83400FE
:1034C000012D0CD0C00260650120009084F83410FA
:1034D0000098BDE8F88F0120FBE70220F9E78C4D4A
:1034E0000226206884F83560A8428A4D61658A4EBC
:1034F0008A4FDFF82C82DFF82C92DFF82CA2DFF85D
:103500002CB226D0A84224D0B04222D0B84220D03B
:1035100040451ED048451CD050451AD0584518D0BB
:103520008349884215D082491831884211D0804998
:10353000303188420DD07E494831884209D07C49DB
:103540006031884205D07A497831884201D0784983
:103550009031016821F00101016061462046FEF7CB
:10356000FFF96B49206888422CD0A8422AD0B0428B
:1035700028D0B84226D0404524D0484522D05045D6
:1035800020D058451ED06A4A90421BD0684A183253
:10359000904217D0664A3032904213D0644A483283
:1035A00090420FD0624A603290420BD0604A78322B
:1035B000904207D05E4A9032904203D05C4AA832D3
:1035C00090420CD1026822F01E0242F01602026004
:1035D000206C88B12068026842F008020BE00268A3
:1035E00022F00E0242F00A020260206C20B1206834
:1035F000026842F004020260206888424BD0A84270
:1036000049D0B04247D0B84245D0404543D0484564
:1036100041D050453FD058453DD0454A90423AD0E0
:10362000434A1832904236D0414A3032904232D02A
:103630003F4A483290422ED03D4A603290422AD0D2
:103640003B4A7832904226D0394A9032904222D07A
:10365000374AA83290421ED0364A90421BD0354A93
:103660001432904217D0334A2832904213D0314A54
:103670003C3290420FD02F4A503290420BD02D4A0C
:103680006432904207D02B4A7832904203D0294AC4
:103690008C3290420DD1206E0268D20303D50268AD
:1036A00042F480720260E06E18B1026842F48072E7
:1036B00002602068884226D0A84224D0B04222D09E
:1036C000B84220D040451ED048451CD050451AD0A5
:1036D000584518D01649884215D0154918318842E6
:1036E00011D01349303188420DD0114948318842F8
:1036F00009D00F496031884205D00D4978318842A0
:1037000001D00B499031016841F001010160DFE611
:1037100010000240280002404000024058000240D1
:103720007000024088000240A0000240B800024041
:10373000100402400854025870B5044600F0AAF97B
:103740000546601C02D004480078044400F0A2F949
:10375000401BA042FAD370BD24000024F0B5B7B0DE
:10376000142130A8FCF7D6FF3048016800295BD14E
:1037700001210160C0216846FCF7CCFF0021022531
:103780000C46052250234FF080708DE82F008026D4
:103790000891684605951295CDE9065601F000F8A6
:1037A00008B1FEF7EEF92248016841F4805101604A
:1037B000006832AA032600F4805035904FF63F008F
:1037C000CDE930050C271B4882E8D00030A900F075
:1037D0003BF82C2032AACDE93005174830A982E801
:1037E000D00000F031F832AA48F23710CDE93005A8
:1037F000124830A982E8D00000F026F832AA4FF62D
:103800008370CDE930050E4830A982E8D00000F081
:103810001BF832AA4CF20370CDE93005094830A9F3
:1038200082E8D00000F010F837B0F0BD1C00002492
:10383000D444025800140258001C025800180258C0
:1038400000100258000C02582DE9F84F03247D4D5A
:1038500000234FF001094FF0B04B4FF00F0AE9E0A1
:1038600009FA03F73A4076D00E7906F00306012EE6
:1038700001D0022E18D1D0F808C04FEA430ECE680E
:1038800004FA0EF82CEA080C06FA0EF646EA0C06C4
:103890008660D0F804C00E792CEA070CC6F3001637
:1038A0009E4046EA0C0646600E79F643B6070BD0FA
:1038B000C6684FEA43088F6804FA08FC26EA0C063B
:1038C00007FA08F73743C7600E7906F00306022EA1
:1038D00012D1DE080F694FEA437C00EB8606B6463C
:1038E000366A4FEADC6C0AFA0CF807FA0CF726EA9B
:1038F00008063743CEF820700F7906684FEA430870
:1039000007F0030704FA08FC07FA08F726EA0C0692
:10391000374307604E6816F4403F1CD04A4E376864
:1039200047F00207376036689F0706F002060096E8
:1039300023F0030606F1B046B6463F0FD6F80864FA
:10394000DFF808810AFA07FC404526EA0C0603D195
:103950004FF0000C41E06CE0DFF8F4C0604502D1AC
:103960004FF0010C39E0DFF8ECC0604502D14FF0B8
:10397000020C32E0DFF8E0C0604502D14FF0030CEA
:103980002BE0DFF8D8C0604502D14FF0040C24E0F2
:10399000DFF8CCC0604502D14FF0050C1DE0DFF828
:1039A000C4C0604502D14FF0060C16E0DFF8B8C085
:1039B000604502D14FF0070C0FE0DFF8B0C0604562
:1039C00002D14FF0080C08E0DFF8A4C0604502D136
:1039D0004FF0090C01E04FF00A0C0CFA07FC4CEA1E
:1039E000060CCEF808C44F68DBF80060FF0226EA38
:1039F000020600D516435F46CBF80060D1F804C03C
:103A0000DBF804605FEA8C2C26EA020600D5164338
:103A10007E606E684F6826EA0206BF0300D5164333
:103A20006E602E684F6826EA0206FF0300D5164333
:103A30002E605B1C0A6832FA03F67FF411AFBDE812
:103A4000F88F000080000058F4440258000002582B
:103A50000004025800080258000C025800100258D6
:103A60000014025800180258001C02580020025886
:103A7000002402580069084000D0012070470AB1B4
:103A8000816170470904FBE701480068000C70473A
:103A90000010005C0148806870470000240000248A
:103AA0000248816802781144816070472400002434
:103AB000032010B500F0D8F801F098FC0F4A104927
:103AC00014681368C4F3032203F00F038A5CC95C13
:103AD00002F01F0201F01F01D0400A4A20FA01F152
:103AE0001160094908600F2000F010F808B10120AA
:103AF00010BD00F079F8002010BD000018440258F5
:103B000044960008340000243000002470B50D4DA8
:103B100004462878A0B14FF47A71B1FBF0F00A495D
:103B20000968B1FBF0F002F0ACFB48B9102C07D2E9
:103B300000222146501E00F077F800206C6070BD16
:103B4000012070BD2400002430000024154BF0B586
:103B5000083B427813491A600B680A1F23F00103DF
:103B60000B6043681360057BC67A827A437B2D071E
:103B7000847B45EA0665C77B90F809C0067A90F811
:103B800000E045EAC24040EA834040EA444040EA5F
:103B9000074040EA0C2040EA460040EA0E00086078
:103BA000F0BD0000A0ED00E0BFF35F8F04480021EE
:103BB0000368034A23F48033036070321160704756
:103BC00024ED00E0074A40F0010006497032106021
:103BD000086840F480300860BFF34F8FBFF36F8FE9
:103BE0007047000024ED00E0074882B0016841F012
:103BF00002010160006800220F2100F00200009025
:103C0000901E02B000F010B8F4440258002809DBFE
:103C1000410900F01F028900012001F1E0219040DC
:103C2000C1F80001704700000E4BF0B41B680D4650
:103C3000C3F30223C3F10706042E00D90426191D7D
:103C4000072901D2002300E0DB1E012404FA06F15B
:103C50009C40491E2940641E994014402143F0BCF9
:103C600004F0E7BE0CED00E0064900F0070210B5D5
:103C70004FF6FF040868044B204040EA0220184336
:103C8000086010BD0CED00E00000FA05016801239A
:103C9000C0F8D834002280F8CC248869044A40F067
:103CA00000608861486D104348650020704700003F
:103CB0000300001070470068416200207047F0B5B3
:103CC00003685D6A39B19F6A4C1E00204FF482760A
:103CD00005EB17450BE045EA0240986210E0471CEF
:103CE00006EB800053F800C0F8B205EB1C45A0427B
:103CF000F5D34FF4807000EB810045EA02421A5080
:103D00000020F0BDD0F8E00403F07DBD01EBC1025E
:103D100000EB8202D0F8E004126A03F0D0BC01EBA1
:103D2000C10200EB8202D0F8E004D2F8602203F076
:103D300022BDD0F8E00403F068BD0A0601F00F01CF
:103D400001EBC10100EB810101D5143101E001F566
:103D50001571006804F0A0BC01F00F020B0670B5ED
:103D600002EBC20104464FF001004FF0000504EBE6
:103D7000810102D54875143103E081F8555201F5EF
:103D800015710A7094F89424012A08D084F89404D8
:103D9000206804F0A1F9002084F8945470BD02203A
:103DA00070BD70B50279044601F00F00904201D950
:103DB000012070BD01F00F024FF000050B0602EB71
:103DC000C2014FF0010204EB810102D54A751431A2
:103DD00003E081F8555201F515718D70087094F863
:103DE0009404012808D084F89424206804F0DEFAB2
:103DF000002084F8945470BD022070BD01F00F01C2
:103E000001EBC10100EB8100D0F8680270472DE999
:103E1000F04101F00F0604460D064FF0010006EBDD
:103E2000C6014FF0000504EB810102D5487514313D
:103E300003E081F8555201F515714F788A600B71D6
:103E40000E7007B14E83022B00D14D7194F894246B
:103E5000012A09D084F89404206804F037F8284631
:103E600084F89454BDE8F0810220FBE770B501F0BE
:103E70000F05002405EBC50100EB810101F5187168
:103E800081E81C0001F80B4C01F80C5D8379012BD3
:103E900000D1CA618279006804F0E0FA002070BDA8
:103EA00070B50D460179044605F00F00884201D92E
:103EB000012070BD29064FF000064FF0010206D523
:103EC00000EBC00104EB81014A75143107E005EBFA
:103ED000C50104EB810181F8556201F515718A7005
:103EE000087094F89404012807D084F8942420687A
:103EF00004F088FA280702D007E0022070BDA179FB
:103F000004F29C42206804F025FA002084F89464AE
:103F100070BD70B501F00F04002504EBC40101264B
:103F200000EB8101203181E82C0001F80B6C01F8D5
:103F30000C4D8379012B00D1CA618279006804F0AD
:103F40008DFA002070BD00002DE9FC5F0568044675
:103F5000284604F03DFC00287ED1206804F064FC73
:103F6000002879D0D5F80808C0F30D20C4F8D4048F
:103F7000206804F059FC800704D52068416901F0ED
:103F800002014161206804F04FFCC10604F29C402C
:103F9000009035D52068816921F0100181612F6A78
:103FA00007F00F01C7F3434001EBC101022804EB06
:103FB000810606F5157602D0062812D01BE047F6DA
:103FC000F070074217D0C7F30A12F1681746284667
:103FD00004F02EFC7169F068394471613844F06076
:103FE00009E000990822284604F022FC7069C7F312
:103FF0000A11084470612068816941F010018161F3
:10400000206804F011FC00034FF0080B4FF0000A89
:104010004FF001097CD52068002604F0E4FB074638
:1040200074E0F80770D02068F1B204F0F5FB804628
:10403000C00707D005EB4611C1F8089B3146204662
:1040400002F072FA5FEA087024D505EB4611C1F858
:1040500008BBFA49206800E03EE2026C00EB461023
:1040600001928A42D0F8081B05D9090403D54FF400
:104070000041C0F8081B204600F01FFBEF490198E3
:10408000884207D9A079012804D120680121009A2B
:1040900004F060F95FEAC86004D505EB4611102012
:1040A000C1F8080B5FEA88701DD56869000605D560
:1040B000D5F8040840F48061C5F8041806EBC60082
:1040C00004EB800090F8571200F51570012905D116
:1040D00080F803A02046F1B200F004FA05EB461187
:1040E0000220C1F8080B5FEA886004D505EB461191
:1040F0002020C1F8080B5FEA884005D505EB461182
:104100004FF40050C1F8080B7F08761C002F88D1AF
:10411000206804F089FB40036ED5206804F05CFB46
:104120000026074666E0F80762D02068F1B204F086
:1041300061FB8046C00723D0D5F8342806F00F0174
:1041400005EB461309FA01F18A43C5F83428C3F890
:104150000899A07901280FD106EBC60004EB800076
:10416000D0E907211144016236B9606A20B920689C
:104170000121009A04F0EEF82046F1B2FFF7C6FDE7
:104180005FEA087003D505EB4611C1F808B95FEA8C
:10419000C86004D505EB46111020C1F808095FEA94
:1041A000486004D505EB46114020C1F808095FEAD4
:1041B000887016D53146284604F0DFFA06EBC600B3
:1041C00004EB8000C17D1430012905D180F803A0E3
:1041D0002046F1B200F082F905EB46110220C1F849
:1041E00008095FEA086003D53146204602F002FA6A
:1041F0007F08761C002F96D1206804F015FB00285C
:1042000011DAD5F8040820F00101C5F8041894F873
:10421000CC0401283BD0204600F034FA20684169E4
:1042200001F000414161206804F0FEFA00050BD561
:10423000D5F80808C00702D0204600F067FA2068C9
:10424000416901F400614161206804F0EDFA000168
:104250000AD52068416901F00061416194F8CC04FD
:10426000E0B1204600F052FA206804F0DDFAC00404
:1042700072D5D5F8040820F00101C5F804182068AB
:10428000102104F07AFA00214FF67F322DE0002150
:10429000204684F8CCA4FFF70DFDBFE784F8CC944A
:1042A0002068406D0121C0F38300C4F8D00420468B
:1042B000FFF700FDD8E700BF05EB4110C0F8082963
:1042C000D0F8003923F40013C0F80039C0F8082BE7
:1042D000D0F8003B23F40013C0F8003BD0F8003BBB
:1042E00043F00063C0F8003B491C20798842E3D8C2
:1042F000D5F81C0840F00111C5F81C18E07B68B126
:10430000D5F8840840F00B01C5F88418D5F84408A6
:1043100040F00B012846C5F844180DE0D5F8140804
:1043200042F22B010843C5F81408D5F8100840F0F4
:104330000B012846C5F81018D0F8000820F4FE61DB
:10434000C5F80018A1792068009A04F003F82068E5
:10435000416901F480514161206804F065FA8004EC
:1043600015D5206803F0F2FD206804F024FAE0710E
:1043700001F01AF8E2790146206804F0B9FA204603
:1043800000F06AF92068416901F400514161206838
:1043900004F04AFA000707D5204600F077F92068B4
:1043A000416901F008014161206804F03DFA00060E
:1043B00016D5A869012620F08001A9610DE000BF93
:1043C00006EBC60004EB800090F85702012803D1E9
:1043D0002046F1B2FFF7B1FC761C2079B042EFD84D
:1043E000206804F021FAC0021FD501264F4614E0D0
:1043F00006EBC60105EB461004EB8101D0F800097D
:104400000A7E012A08D1002806DAF0B2CF7540F002
:1044100080012046FFF791FC761C2079B042E7D856
:104420002068416901F480114161206804F0FCF9C1
:10443000800234D501204B4629E000000A30544F59
:1044400000EBC00205EB401104EB8202D1F8001B27
:1044500092F85862012E19D1002917DA94F8D46421
:1044600001F4803106F00106B1420FD182F85732D3
:10447000A96941F08002AA616969090606D4D5F8E4
:10448000040840F40070C5F8040803E0401C2179DA
:104490008142D5D82068416901F40011416120684A
:1044A00004F0C2F9400007D52046FFF72BFC206836
:1044B000416901F080414161206804F0B5F940078D
:1044C0000AD520684568680702D52046FFF731FC09
:1044D0002068416829434160BDE8FC9FD0F8E004B2
:1044E00003F0E9B9D0F8E00403F0F9B9F8B5040035
:1044F00004D094F89504002510B106E00120F8BD21
:10450000204684F8945400F057F8032084F895046A
:10451000206803F019FF207C8DF8000094E80F005C
:1045200003F070FD0226B0BB2068002104F0A0F962
:1045300088BB002001270CE000EBC001421C04EB0B
:1045400081014F750D76CD610D624D620875C8858C
:10455000D0B221798142EFD8002011E000EBC001F8
:10456000421C04EB810181F8555281F85852C1F880
:104570005C52C1F86052C1F8645281F85402D0B262
:1045800021798142EAD8207C8DF8000094E80F0060
:1045900003F024FE10B184F89564AFE7207B6574C6
:1045A00084F89574012802D12046FFF76FFB20683C
:1045B00003F006FE0020F8BD10B5B6B00446142185
:1045C00030A8FCF7A7F8C0216846FCF7A3F81F49FC
:1045D0002068884238D100204FF480214FF44012E7
:1045E0002292CDE90010684600F0DAF808B1FDF734
:1045F000C8FA00F0CDF81648016841F001010160E9
:1046000000680A23022200F00100359000204FF4D8
:10461000C051309130A9CDE93120CDE933030D48A7
:10462000FFF712F90A480838016841F0006101609B
:1046300000680022052100F0006035906520FFF73A
:10464000F3FA6520FFF7E2FA36B010BD000008402B
:10465000E04402580000025870B50446C0790125B4
:1046600070B1022801D0FDF78CFAD4F8E004294695
:1046700003F0A4F9D4F8E004BDE8704003F058B9A1
:104680000025F2E7D0F8E00403F081B9D0F8E004A7
:1046900003F087B910B5044690F8940401280AD0B5
:1046A0000120617484F89404206804F010F900205B
:1046B00084F8940410BD022010BDD0F8E02400F26C
:1046C0009C41104603F086B910B590F89414044646
:1046D0000068012909D0012184F89414C1684906B1
:1046E00009D5617B012902D005E0022010BD816B54
:1046F00041F480318163206804F01DF8206803F0E4
:1047000051FD002084F8940410BD000010B504464B
:10471000D0F8E00403F0A0F92068D0F8001E41F0C2
:104720000101C0F8001EE07A002804D002480168A8
:1047300041F00601016010BD10ED00E0134970B5B5
:104740000A68D243520705D5096801F00701814282
:1047500013D118E00A6822F0070202430A60FFF74B
:1047600099F90A4D4FF47A760446083D07E000BFF8
:10477000FFF790F9001BB04201D9012070BD2868F5
:10478000C0438004F4D4002070BD00000C480258DF
:104790000248016841F08071016070470C4802587E
:1047A0002DE9FE4F0546DFF8E48350F8081B00248E
:1047B000F64FC943019005F12800264608F1240868
:1047C000009008011DD4A86E50B1B0F5801F0CD028
:1047D000B0F5001F0ED0B0F5401F1ED001240FE031
:1047E000386840F40030386017E00198022101F089
:1047F00053FF03E00098022101F0DEFF04000CD01B
:1048000026462888C043C00523D4A86D05281ED29B
:10481000DFE800F00C11161B1B00AA6ED8F8001080
:1048200021F440111143C8F80010EAE7386840F459
:104830000030386009E00198002101F02DFF03E00D
:104840000098002101F0B8FF044674B100E0012493
:1048500026462888C043800528D4E86D80281ED0CD
:104860000CDC90B140280ED114E0AA6DD8F80010ED
:1048700021F007011143C8F80010EAE7C02813D05F
:10488000B0F5807F10D001240FE0386840F400308C
:10489000386009E00198002101F0FEFE03E0009875
:1048A000002101F089FF04469CB126462888DFF8E4
:1048B000DC92C04309F12C0940052CD4D5F8A8009E
:1048C000B0F5800F20D00DDCA0B1B0F5001F0FD1E6
:1048D00015E0EA6DD8F8001021F4E0711143C8F832
:1048E0000010E3E7B0F5C00F13D0B0F5000F10D003
:1048F00001240FE0386840F40030386009E0019886
:10490000002101F0C9FE03E00098002101F054FFEE
:1049100004467CB126462888C04300052DD4D5F82E
:10492000AC00B0F1007F21D00EDCA8B1B0F1807FE7
:1049300010D116E0D5F8A820D9F8001021F46001B4
:104940001143C9F80010E6E7B0F1407F13D0B0F191
:10495000806F10D001240FE0386840F400303860D8
:1049600009E00198002101F097FE03E00098002182
:1049700001F022FF044674B126462868C043800136
:104980001FD4E86CD8B110280FD0202812D03028BE
:1049900015D0012414E0D5F8AC20D9F8001021F08E
:1049A000E0611143C9F80010E7E7386840F40030CF
:1049B000386004E00198022101F06EFE044674B1F3
:1049C00026462888C043C0042BD4286EB0F5005F6B
:1049D00020D00DDCA0B1B0F5805F0FD115E06B48A1
:1049E000EA6C2030016821F0300111430160E8E7F2
:1049F000B0F5405F13D0B0F5804F10D001240FE028
:104A0000386840F40030386009E00198002101F076
:104A100043FE03E00098002101F0CEFE04468CB175
:104A200026462888C043800429D4686EB0F5403FEC
:104A300023D010DC08B3B0F5803F14D0B0F5003FB0
:104A40000FD115E02A6ED8F8001021F4E04111438F
:104A5000C8F80010E5E7B0F5802F0ED0B0F5A02F14
:104A60000BD001240AE00198012101F015FE03E0BA
:104A70000098012101F0A0FE044694B12646288842
:104A8000C04340042AD4D5F8B000B0F1405F23D031
:104A900010DC08B3B0F1805F14D0B0F1005F0FD12B
:104AA00015E06A6ED8F8001021F4E0211143C8F82F
:104AB0000010E4E7B0F1804F0ED0B0F1A04F0BD062
:104AC00001240AE00198012101F0E6FD03E00098CD
:104AD000012101F071FE044674B126462888C043C6
:104AE00000041FD4286FD8B1B0F1805F0ED0B0F1B0
:104AF000005F10D0012414E0D5F8B020D9F80010E0
:104B000021F0E0411143C9F80010E7E7386840F4AC
:104B10000030386004E00198012101F0BDFD044639
:104B200074B126462868C043C0011ED4A86CD0B119
:104B300001280ED0022811D0032814D0012413E03C
:104B40002A6FD8F8001021F040511143C8F8001026
:104B5000E8E7386840F40030386004E0019802214A
:104B600001F09AFD0446ACB126462868DFF81CB077
:104B7000C043ABF11C0B400252D40548016841F41C
:104B800080710160FEF786FF824611E02C440258D6
:104B900000480258FA48AA6C016821F00301114349
:104BA0000160E2E7FEF776FFA0EB0A00642835D843
:104BB000F4480068C005F5D58CBBDFF8C4A3B5F890
:104BC000B4100AF1240ADAF8000001F4407100F48C
:104BD0004070884211D0DAF80010DAF8002021F491
:104BE000407142F48032CAF80020DAF8002022F442
:104BF0008032CAF80020CAF80010D5F8B400B0F529
:104C0000807F1AD1FEF746FF029012E0FEF742FFC6
:104C10000299411A41F2883081420AD9032426467A
:104C20002878DFF85CA3C0430AF1080AC00721D046
:104C30003CE0DAF800008007E8D5D5F8B410C1F3FD
:104C40000120032858460DD0016821F47C510160F1
:104C5000B5F8B420DAF80010C2F30B021143CAF819
:104C60000010DDE7C84A036802EA111223F47C5100
:104C70001143ECE7E86F182816D005DCA0B108282E
:104C800008D0102804D10AE020280DD028280BD005
:104C900001240AE00198012101F0FEFC03E00098E4
:104CA000012101F089FD044664B126462878C043FD
:104CB00080071ED4A86F062819D2DFE800F0160C72
:104CC00011161616EA6FDAF8001021F038011143B8
:104CD000CAF80010EAE70198012101F0DDFC03E0C9
:104CE0000098012101F068FD04467CB100E0012438
:104CF00026462878C04340071FD4D5F894000628DC
:104D000019D2DFE800F0160C11161616AA6FDAF8A1
:104D1000001021F007011143CAF80010E9E70198DB
:104D2000012101F0B9FC03E00098012101F044FDEC
:104D30000446A4B100E0012426462878C04380063A
:104D40002BD4D5F89000B0F1405F24D011DC10B323
:104D5000B0F1805F15D0B0F1005F10D116E0D5F84A
:104D60009420D9F8001021F007011143C9F8001070
:104D7000E3E7B0F1804F0ED0B0F1A04F0BD001248B
:104D80000AE00198002101F087FC03E0009802216D
:104D900001F012FD044694B126462878C04340062F
:104DA0002BD4D5F89C00B0F5406F24D011DC10B3A3
:104DB000B0F5806F15D0B0F5006F10D116E0D5F8C2
:104DC0009020DAF8001021F0E0411143CAF80010F9
:104DD000E3E7B0F5805F0ED0B0F5A05F0BD0012403
:104DE0000AE00198002101F057FC03E0009802213D
:104DF00001F0E2FC044694B126462878C043000640
:104E00002BD4D5F8A000B0F5C04F24D011DC10B3DE
:104E1000B0F5005F15D0B0F5804F10D116E0D5F891
:104E20009C20D9F8001021F4E0511143C9F800107A
:104E3000E3E7B0F5004F0ED0B0F5204F0BD00124C2
:104E40000AE00198002101F027FC03E0009802210C
:104E500001F0B2FC044654B126462878C04300074E
:104E60001ED4D5F88400B0F5805F0AD00FE0D5F8E5
:104E7000A020D9F8001021F460411143C9F80010B6
:104E8000EBE70098022101F097FC00B10126D5F86C
:104E90008420DAF8001021F440511143CAF80010C0
:104EA0002878C043C00613D4D5F89800B0F5807FA9
:104EB00005D10098022101F07FFC00B10126D5F850
:104EC0009820D9F8001021F440711143C9F800105E
:104ED0002868C043000316D4D5F8A40038B1B0F553
:104EE000803F09D0B0F5003F0BD001240AE00198C3
:104EF000002101F0D1FB03E00098022101F05CFCED
:104F000004468CB126462868C043400322D4D5F815
:104F10008800B0F5801F11D0B0F5001F13D0B0F598
:104F2000401F15D0012414E0D5F8A420D9F80010B2
:104F300021F440311143C9F80010E4E7386840F427
:104F40000030386004E00098012101F035FC04468F
:104F50005CB126462868C043C00323D4286DA8B19D
:104F6000B0F5803F17D001241BE0D5F88820DAF88F
:104F7000001021F440111143CAF80010EAE70000C4
:104F80004C44025800480258CFFFFF00386840F4F4
:104F90000030386004E00198022101F07DFB0446F6
:104FA000E4B126462868C043800005D40098022159
:104FB00001F002FC00B101262868C04380031BD425
:104FC000D5F88000B0B1B0F5807F0FD0B0F5007F8C
:104FD00010D0B0F5407F0DD001240CE05A482A6D66
:104FE000016821F4803111430160DBE7386840F447
:104FF00000303860ECB326462868C043C00207D4AE
:105000006A6FD8F8001021F000411143C8F8001071
:105010002868C043C00008D4D5F8B820DBF80010D9
:1050200021F480411143CBF800102868C04380026E
:1050300007D4EA6ED8F8001021F080711143C8F847
:1050400000102868C04340000CD4DBF8001021F4A5
:105050000041CBF80010DBF80010D5F8BC2011435C
:10506000CBF800102868C04308D437486A6D01683F
:1050700000E018E021F04051114301602868C0436E
:10508000000208D4D5F88C20DAF8001021F4400191
:105090001143CAF8001028790024C04300F0010031
:1050A00020430AD00FE0D5F88020DAF8001021F470
:1050B00040711143CAF800109EE70198002101F0E9
:1050C000EBFA00B106462879C04300F00200204305
:1050D00005D10198012101F0DFFA00B106462879D7
:1050E000C04300F00400204305D10198022101F0E3
:1050F000D3FA00B106462879C04300F008002043E7
:1051000005D10098002101F057FB00B1064628792F
:10511000C04300F01000204305D10098012101F0A8
:105120004BFB00B106462879C04300F02000044341
:1051300004D10098022101F03FFB00B916B1012013
:10514000BDE8FE8F0020FBE74C4402582DE9F05FDC
:1051500004000F467ED0DFF83882D8F8000000F057
:105160000F00B8420CD2D8F8001021F00F013943DB
:10517000C8F80010D8F8000000F00F00B84269D15C
:105180002078844D40070AD52069296801F0700114
:10519000884204D9296821F07001014329602078F0
:1051A0007C4E361D00070AD56069316801F0700138
:1051B000884204D9316821F07001014331602078C0
:1051C000C0060AD5A069316801F4E061884204D9BB
:1051D000316821F4E061014331602078DFF8B4B137
:1051E00080060BF1080B0CD5E1695846DBF800206E
:1051F00002F07002914204D9026822F070020A4360
:105200000260207880070AD5E068296801F00F0164
:10521000884204D9296821F00F01014329602078D0
:10522000C0073ED05B49A2682868183920F4706036
:10523000104328606068022818D0032819D0096834
:10524000012819D0490700294ADADFF848A1AAF154
:10525000080A00E044E0DAF8002022F007020243E6
:10526000CAF80020FEF716FC814612E0096889039F
:10527000E9E709688901E6E7C905E4E7FEF70AFC02
:10528000A0EB090141F28830814202D90320BDE838
:10529000F09F6168DAF8000000F03800B0EBC10F51
:1052A000ECD1207880070AD5E068296801F00F0169
:1052B000884204D2296821F00F0101432960D8F8FF
:1052C0000010404601F00F01B9420BD9016821F0EE
:1052D0000F0139430160006800F00F00B84201D0AF
:1052E0000120D4E7207840070AD52069296801F019
:1052F0007001884204D2296821F0700101432960BD
:10530000207800070AD56069316801F07001884291
:1053100004D2316821F07001014331602078C00669
:105320000AD5A069316801F4E061884204D231688D
:1053300021F4E06101433160207880060CD5E169F9
:105340005846DBF8002002F07002914204D2026855
:1053500022F070020A43026000F048F80E492A6801
:105360002B68C2F3032203F00F038A5CC95C02F0CE
:105370001F0201F01F01D040084A20FA01F111601C
:105380000749086007480068BDE8F05FFEF7BEBB4C
:1053900000200052184402584496000834000024AB
:1053A000300000242800002430B500F01FF80B4A1C
:1053B0000B490C4B15681468C5F3032204F00F0465
:1053C0008A5C095D02F01F0201F01F01D040064A0D
:1053D00020FA01F119601060084630BD18440258E7
:1053E000449600083400002430000024454970B57C
:1053F00045480968434B103B11F0380208D00111B1
:10540000082A03D0102A0BD0182A0BD0084670BDEA
:1054100019688906FBD51968C1F3C101C84070BD80
:105420003A4870BD3749374D18310C1D24350A688C
:10543000096826682D6802F0030406F00102C1F332
:105440000511C5F3CC0515FB02F200EE102AB8EEEB
:10545000400AE9B32F4ADFED2E0AB7EE001A6CB10D
:10546000DFED2D1A012C01D0022C43D002EE101AD0
:105470001068F8EE422A81EEA22A1EE01C68A406FB
:1054800011D51B6801EE901A1168C3F3C103F8EE41
:10549000612AD84001EE900AC1F30800F8EE611AC3
:1054A00081EEA22A0BE001EE901ADFED1C2A00BF6C
:1054B000F8EE611A106882EEA12AC0F3080001EE2E
:1054C000900AF8EE611A40EE201A31EE810A00E0EF
:1054D00015E022EE000A1068C0F34620401C00EEE2
:1054E000900AF8EE600A80EE201ABCEEC10A10EEB7
:1054F000100A70BD01EE901ADFED092AD8E70020EE
:1055000070BD0000104402580090D00340787D0127
:1055100000000039304402580024744A0024744CBE
:1055200020BCBE4B2DE9F05F04007DD0FF4F2078FA
:10553000FE4D1837DFF8F493103DC00748D0D9F876
:105540000000396800F03800102815D0182803D161
:1055500001F0030002280FD06068B0F5803F12D040
:1055600010B1B0F5A02F18D0286820F48030286042
:10557000286820F4802009E02868800328D5606826
:105580000028D2D024E0286840F480302860606889
:1055900088B1FEF77FFA064609E0286840F48020CB
:1055A0002860F0E7FEF776FA801B64286FD8286839
:1055B0008003F7D50CE0FEF76DFA064605E000BF64
:1055C000FEF768FA801B6428F0D828688003F7D4B7
:1055D000207841F20308D54E0C3E800769D5D9F8F2
:1055E0000000396810F038000ED0182801D1880763
:1055F0000AD0E06890B3296821F0190101432960BD
:10560000FEF748FA824631E02868400702D5E06894
:1056100000288AD0E168286820F019000843286033
:10562000FEF738FA824607E0DFE000BFFEF732FA05
:10563000A0EB0A000228B9D828684007F6D500BFB9
:10564000FEF722FA40451BD82069402812D0316865
:1056500021F47C3141EA003030602AE018E000BFDC
:10566000FEF718FAA0EB0A0002289FD82868400726
:10567000F6D5E5E7306820F47C3040F40030EBE705
:10568000207C316821F0FE4141EA0060E4E70DE151
:10569000286820F001002860FEF7FCF9824605E04A
:1056A000FEF7F8F9A0EB0A0002288DD82868400719
:1056B000F6D42078C0065DD5D9F80000DFF86CB2CA
:1056C000396800F03800ABF1040B082810D0182816
:1056D00003D101F0030001280AD0E06900282868FE
:1056E00038D040F080002860FEF7D4F9824623E0ED
:1056F0002868C00523D5E069802876D11FE0206A9C
:10570000202821D0316821F0F84141EA80603060E2
:1057100030E000BF94F82010DBF8002022F07C522B
:1057200042EA0161CBF8001024E000BFFEF7B2F9B5
:10573000A0EB0A00022898D82868C005F6D5FEF725
:10574000A3F94045E6D8DAE7306820F0F84040F0A9
:105750008040DCE720F080002860FEF79BF90646D9
:1057600005E000BFFEF796F9801B02289DD8286847
:10577000C005F7D42078000729D56C4861696430EA
:1057800000298046016811D041F001010160FEF757
:1057900081F9064605E000BFFEF77CF9801B022870
:1057A000C9D8D8F800008007F6D510E021F0010133
:1057B0000160FEF76FF9064605E000BFFEF76AF9E3
:1057C000801B022872D8D8F800008007F6D4207811
:1057D000800623D5A0690028286810D040F48050A6
:1057E0002860FEF757F9064605E036E1FEF752F964
:1057F000801B02285AD828688004F7D50EE020F4D0
:1058000080502860FEF746F9064604E0FEF742F9AC
:10581000801B02284AD828688004F7D420784007E3
:105820004FD5DFF80C81D8F8001041F48071C8F82A
:105830000010FEF72FF9064605E000BFFEF72AF933
:10584000801B642832D8D8F80000C005F6D5374E42
:10585000A068603601280AD008B1052813D0306846
:1058600020F001003060306820F0040002E0306871
:1058700040F001003060A06841F2883A90B1FEF734
:1058800009F980460AE0306840F004003060EEE735
:10589000FEF700F9A0EB0801514507D830688007F2
:1058A000F6D50EE0FEF7F6F8804607E084E000BF8C
:1058B000FEF7F0F8A0EB080151457DD8306880076D
:1058C000F6D4606AB0B3DFF86480D9F8001008F14C
:1058D00020084FF6F87B08F10409C1F3C20103293F
:1058E000A8F1040A69D00228286820F08070286096
:1058F00003D0FEF7CFF8044684E0FEF7CBF8064667
:1059000005E000BFFEF7C6F8801B022877D828689C
:105910008001F7D4E26A40F2F331386854F8283F46
:10592000884340EA02101843386004E010440258EB
:1059300000480258B5E0217B434622894FF4FE0C13
:10594000208A4FF0FE474902267D521E401EA1F5D7
:105950000071C2F308088AB2761E0CEA004042EADF
:1059600008020243504607EA06610A431A60DAF861
:10597000002022F00102CAF80020D9F80020266A8F
:1059800022EA0B0242EAC602C9F80020DAF8001047
:10599000A26921F00C011143CAF800100168E26904
:1059A00021F0020111430160016841F4803101607E
:1059B000016841F4003101E021E027E00160016865
:1059C00041F480210160016841F001010160286813
:1059D00040F080702860FEF75DF8044605E000BFE7
:1059E000FEF758F8001B022809D828688001F7D56F
:1059F00057E000BFFEF74EF8001B022802D9032033
:105A0000BDE8F09F28688001F4D44AE03968012895
:105A1000D8F8000021D0A26A01F0030393421CD100
:105A2000E26AC1F305118A4217D1216BC0F3080263
:105A3000491E8A4211D1616BC0F34622491E914230
:105A40000BD1A16BC0F30642491E914205D1E16B17
:105A5000C0F30660491E814201D00120D0E7A16C4D
:105A60004E46D9F80000C0F3CC00814219D0DAF8D4
:105A70000000554620F00100CAF80000FEF70AF8C1
:105A80004FEA0007FEF706F8B842FBD0A26C306878
:105A900020EA0B0040EAC2003060286840F00100B4
:105AA00028600020ACE790F82C00704770B5040027
:105AB0000D4603D094F82C0010B107E0012070BD12
:105AC000002084F82D00204600F018F8022084F809
:105AD0002C002068211DFCF756F8D4E90002294665
