:020000040800F2
:10000000F0F80124B1040008C56A0108DB430108C7
:10001000ED66010881C20008CDA1010800000000C2
:10002000000000000000000000000000BD03000808
:1000300091CC000800000000190400088D7601082A
:10004000CB040008CB040008CB040008CB04000854
:10005000CB040008CB040008CB040008CB04000844
:10006000CB040008CB040008CB0400089DC30008A3
:10007000CB040008CB040008CB040008CB04000824
:10008000CB040008CB040008CB040008CB04000814
:10009000CB040008CB040008CB040008CB04000804
:1000A000CB040008CB040008CB040008CB040008F4
:1000B000CB040008CB040008CB040008CB040008E4
:1000C000CB040008CB040008CB040008CB040008D4
:1000D000CB040008CB040008CB040008CB040008C4
:1000E000CB040008CB04000800000000CB0400088B
:1000F000CB040008CB040008CB040008CB040008A4
:10010000CB040008CB040008CB040008CB04000893
:10011000CB040008CB040008CB040008CB04000883
:10012000CB040008CB040008CB040008CB04000873
:10013000CB040008CB040008CB040008CB04000863
:1001400000000000000000000000000000000000AF
:10015000CB040008CB040008CB040008CB04000843
:10016000CB040008CB040008CB040008CB04000833
:10017000CB040008C96A0108CB0400080000000095
:10018000CB040008CB040008CB040008CB04000813
:10019000B9730108CB040008CB040008CB040008A5
:1001A00091540108CB040008A9C30008CB0400083F
:1001B000CB040008CB040008CB040008CB040008E3
:1001C000CB040008CB040008CB040008CB040008D3
:1001D000CB040008CB040008CB040008CB040008C3
:1001E000CB040008CB040008CB040008CB040008B3
:1001F000CB040008CB040008CB040008CB040008A3
:10020000CB040008CB040008CB040008CB04000892
:10021000CB040008CB040008CB040008CB04000882
:10022000CB040008CB040008CB0400080000000049
:10023000CB040008CB04000800000000CB04000839
:10024000CB040008CB040008CB040008CB04000852
:10025000CB040008CB040008CB040008CB04000842
:10026000CB040008CB040008CB040008CB04000832
:10027000CB040008CB040008CB04000800000000F9
:10028000CB040008CB040008CB04000800000000E9
:1002900000000000CB04000800F002F800F07FF836
:1002A0000AA090E8000C82448344AAF10107DA45D1
:1002B00001D100F074F8AFF2090EBAE80F0013F0A4
:1002C000010F18BFFB1A43F001031847145E0A0020
:1002D000345E0A000A444FF0000C10F8013B13F0A2
:1002E000070408BF10F8014B1D1108BF10F8015B8F
:1002F000641E05D010F8016B641E01F8016BF9D182
:1003000013F0080F1EBF10F8014BAD1C0C1B09D1D8
:100310006D1E58BF01F801CBFAD505E014F8016B4A
:1003200001F8016B6D1EF9D59142D6D370470000DC
:100330000023002400250026103A28BF78C1FBD8EE
:10034000520728BF30C148BF0B60704766292CF0A8
:100350000884642900F05A81752900F057817829B2
:1003600000F09081732900F00487002070471FB5CA
:100370002CF0F2FB9DE8030001F03CFB00F087FA53
:1003800000F052FC0400002000212CF0CFFBE060C4
:1003900001F040F81FBD10B501F0A5F810BD01F047
:1003A00008F91146FFF7E3FF1EF0A0FB01F0F8FA91
:1003B00003B4FFF7F0FF03BC01F096FC2C4B196867
:1003C0000868B0E8F04F80F30988BFF36F8F4FF0F3
:1003D000000080F3118870470000000008480068A2
:1003E000006880F308884FF0000080F3148862B63C
:1003F00061B6BFF34F8FBFF36F8F00DF00BF00BF49
:1004000008ED00E0DFF80C00016841F470010160C4
:10041000704700BF88ED00E0EFF30980BFF36F8FF6
:10042000134B1A681EF0100F08BF20ED108A20E948
:10043000F04F106009B44FF0500080F31188BFF303
:100440004F8FBFF36F8F2BF0A5FC4FF0000080F3B0
:10045000118809BC19680868B0E8F04F1EF0100F49
:1004600008BFB0EC108A80F30988BFF36F8F704724
:10047000C8490024EFF30580704700000B49D1F80C
:1004800000C04A685CF8043B1068184442F8040B4A
:100490008C4528BFA1F1DC0C8A4228BFA1F1DC0207
:1004A000C1F800C04A6020F0004070478CF0012481
:1004B0000948804709480047FEE7FEE7FEE7FEE7F8
:1004C000FEE7FEE7FEE7FEE7FEE7FEE70448054934
:1004D000054A064B7047000055770108990200084D
:1004E000E8F20124F0F80124E8F40124F0F40124F6
:1004F0000FB4044910B503AA029800F03FFE10BCE7
:100500005DF814FBE8F001240FB41CB5084B06AAF3
:100510007B4469460090059800F0F9FD04460020F0
:10052000694600F007FE20461CBC5DF814FB000085
:10053000210C00000FB47CB50C0009AA009001D07A
:100540002044401E084B7B4469460190089800F007
:10055000DEFD05461CB10020694600F0EBFD284693
:100560007CBC5DF814FB0000F50B000070B5044680
:1005700085690068C10601D5302600E02026C00745
:1005800007D070BDD4E9012130469047206A401C55
:1005900020626D1EF6D570BD70B504468569007881
:1005A000C00707D170BDD4E9012120209047206AFF
:1005B000401C20626D1EF6D570BD70B50C46054618
:1005C000012A05D02878800600D5EA69002302E0D8
:1005D000012305E05B1C934202D2E05C0028F9D1C4
:1005E000A869E618C01AA861286A18442862284633
:1005F000FFF7BCFF04E0D5E9012114F8010B904797
:10060000B442F8D32846FFF7C7FF70BD2DE9F0418B
:100610000646002410687529314616A510D0AFF3A0
:100620000080002802DA404213A507E031688A07FB
:1006300001D512A502E0490704D511A5012401E066
:10064000AFF3008000210A2206F1240709E0B0FB85
:10065000F2FCB0FBF2F302FB1C0030307854184679
:10066000491C0028F3D123462A463046BDE8F04114
:1006700000F0E2BA000000002D0000002B00000096
:100680002000000070B504460D4621461068AFF307
:1006900000802188090502D50F4A7A4402E00E4AFB
:1006A0007A440E32002104F1240305E000F00F0625
:1006B0000009965D5E54491C0028F7D1207800237C
:1006C000000704D5702D02D009B102231132204653
:1006D000BDE8704000F0B0BA7A2D0A002DE9F05F55
:1006E000894604464FF0000ADFF874B1FB44C0F8B5
:1006F00020A02046E1688847002874D0252806D02D
:10070000D4E901219047206A401C2062F1E70026CD
:100710005F462046E16888472028054607DB312DE3
:1007200005D2781910F8200C08B10643F1E7B0079C
:1007300001D526F00406C4F81CA00027C4F818A0B0
:100740002A2D09D028461AF098F938B304EB870807
:10075000303DC8F8185019E059F8041B204604EB46
:1007600087029161E1688847012F054618D1E06949
:10077000002820DA26F020061DE0D8F8180000EB4B
:10078000800005EB40003038C8F818002046E168CA
:10079000884705461AF071F90028EED1012F0AD0DA
:1007A0002E2D08D12046E16888477F1C0546022F80
:1007B00046F02006C4DBA069002803DA404246F078
:1007C0000106A061F00701D026F010066C2D0BD0B9
:1007D000682D09D04C2D39D06A2D35D0742D35D0E7
:1007E0007A2D33D016E038E0E1682F46204688475E
:1007F000B842054609D16C2F26D04FF48060E168DD
:10080000064320468847054604E06C2F1AD04FF473
:10081000807006430DB3A5F14100192802D8203598
:1008200046F400664A462946204626604E46FFF7B3
:100830008DFD80B101280BD0F61D26F0070000F1D8
:10084000080956E74020E4E78020D8E70020D6E7F3
:1008500006F104094DE7284652E7206ABDE8F09FFB
:10086000502D0A000B4910B5A1F17C020A4CC2E9D7
:100870003712372106E000EB104342F82130074BD6
:1008800000FB03400B1EA1F10101F4DC10BD0120AF
:10089000E8E700002CF00124E119D666CD0D010037
:1008A00040EA010310B59B070FD1042A0DD310C8ED
:1008B00008C9121F9C42F8D020BA19BA884201D93F
:1008C000012010BD4FF0FF3010BD1AB1D30703D087
:1008D000521C07E0002010BD10F8013B11F8014B3D
:1008E0001B1B07D110F8013B11F8014B1B1B01D159
:1008F000921EF1D1184610BD10B5431C02E010F84D
:10090000011B71B18107FAD14FF0013202C88C1A74
:100910008C4314EAC211F9D0C01A0A0603D0C01ED3
:1009200010BDC01A10BD0A0401D0801E10BD0902FE
:10093000FCD0401E10BD032A40F2308010F0030CA2
:1009400000F0158011F8013BBCF1020F624498BF22
:1009500011F801CB00F8013B38BF11F8013BA2F1BF
:10096000040298BF00F801CB38BF00F8013B11F03A
:10097000030300F06F80083AC0F0088051F8043B90
:10098000083A51F804CBA0E80810F5E7121D5CBF47
:1009900051F8043B40F8043BAFF30080D20724BF7A
:1009A00011F8013B11F801CB48BF11F8012B24BF0E
:1009B00000F8013B00F801CB48BF00F8012B70475D
:1009C000431A28BF9A427FF6B6AF032A1044114457
:1009D00040F2268010F0030F1EBF11F8013D521E99
:1009E00000F8013D10F0030F7FF4F6AF11F00303A0
:1009F00000F0E983083AC0F00B8051F8043D083A52
:100A000051F804CD40F8043D40F804CDFFF7F3BFA2
:100A1000121D5CBF51F8043D40F8043DAFF3008067
:100A2000D20724BF11F8013D11F801CD48BF11F8DC
:100A3000012C24BF00F8013D00F801CD48BF00F8AB
:100A4000012C704701B5FFF776FF01BD01B5FFF737
:100A5000B7FF01BD10B5203AC0F00B80B1E81850C7
:100A6000203AA0E81850B1E81850A0E81850BFF498
:100A7000F5AF5FEA027C24BFB1E81850A0E8185037
:100A800044BF18C918C0BDE810405FEA827C24BF8B
:100A900051F8043B40F8043B08BF7047D20728BF19
:100AA00031F8023B48BF11F8012B28BF20F8023B68
:100AB00048BF00F8012B704701F0FF03114601B554
:100AC00043EA032242EA024200F003F801BD4FF07C
:100AD00000020429C0F0128010F0030C00F01B800B
:100AE000CCF1040CBCF1020F18BF00F8012BA8BF19
:100AF00020F8022BA1EB0C0100F00DB85FEAC17CDD
:100B000024BF00F8012B00F8012B48BF00F8012B8F
:100B100070474FF0000200B51346944696462039C0
:100B200022BFA0E80C50A0E80C50B1F12001BFF4A6
:100B3000F7AF090728BFA0E80C5048BF0CC05DF80C
:100B400004EB890028BF40F8042B08BF704748BF5A
:100B500020F8022B11F0804F18BF00F8012B7047CE
:100B600010B5044610F0030F08BF11F0030F40F05A
:100B700015804FF0013E121FC0F20E8051F8043B69
:100B8000A3EB0E0C2CEA030C1CEACE1C08BF40F8A9
:100B9000043BF0D0A1F1040102F10402521E08DB73
:100BA00011F8013B002B00F8013BF7D11146FFF78C
:100BB0008EFF204610BD00004FF0013C50F8042B82
:100BC00051F8043B9A4215D1A2EB0C03934313EA6C
:100BD000CC130BD150F8042B51F8043B9A4209D1A5
:100BE000A2EB0C03934313EACC13E7D04FF00000C1
:100BF000704700BFD01A01BAB1FA81F101F01801B3
:100C000022FA01F0CB40C1F12001DBB2C0B2C01A20
:100C10002CFA01F3D11A914311EAC311E6D17047BE
:100C2000704770477047000000487047B0F10124DA
:100C30000048704790F101242DE9F0470D46994690
:100C40009246044600F124080168880604D5E0694C
:100C500021F01001216000E00120A84201DD471BC6
:100C600000E00027A1697A1902EB0900081AA061C7
:100C70002078C00602D42046FFF778FC002608E062
:100C8000D4E901211AF806009047206A401C761C1E
:100C900020624E45F4DB2078C0060AD52046FFF7D7
:100CA00065FC06E0D4E9012130209047206A401C11
:100CB0002062381EA7F10107F4DC07E0D4E9012126
:100CC00018F805009047206A401C2062281EA5F1F4
:100CD0000105F3DC2046FFF75FFC2078000602D513
:100CE0000220BDE8F0870120FBE770472DE9FF4FA8
:100CF0000C461E464FF0FF378BB0D2E90001DDF8FD
:100D000060800A908A46C1F30A5505B93D46002124
:100D100008464FF00000BAF1000F00F4400005DA79
:100D200000EB80004FF4400101EA50004FEA905977
:100D3000B9F1010F00DDB9460A9850EA4A000ED019
:100D400044F61050A5F2FF3545432F14B8F1000FBB
:100D50001ED07542291E1EDDC9F100021CE0B8F14B
:100D6000010F4FF0000001D0302103E0F24305E015
:100D70002154401CB042FBDB3046002200212154AC
:100D80000B99C1F80880C1E900200FB0BDE8F08FD1
:100D9000BD1B6D1CDEE74A4600DA694206A800F07A
:100DA000C7FA06AB93E8070003AB83E80700504699
:100DB0000A990AF035FC8DE80700A0F500501F38AD
:100DC00000900398002D09DD42F21F014A460844B5
:100DD00003A9039068460AF094FE08E0A0F50050CD
:100DE0004A461F3803A9039068460AF09EFE8DE824
:100DF00007000004000C03D04FF0FF30410800E072
:100E00001046B8F1000F03D00022009215461EE0F4
:100E1000751E05D400F006FA303262556D1EF9D504
:100E2000B3460122084302D000227F1C04E0207850
:100E3000302801D100227F1E002A099786D01DE0AC
:100E4000112D07DA00F0EEF9303262556D1C50EAD0
:100E50000102F5D1084302D00098C8B10EE000218C
:100E6000681E05E0235C625C63542254401E491CEA
:100E70008142F7DBAB46A81B401E0990002004F816
:100E80000B000B98099AC0F80880C0E9002B7CE79A
:100E900011264FF0000859E72DE9F04F8846044627
:100EA000D21D22F0070191B0D1E90001CDE90A017C
:100EB00019F0BAFD02460B98C00F01D02D2007E0B3
:100EC0002068810701D52B2002E0202101EAC00023
:100ED000032A099001D0072A05DB03464146204634
:100EE00000F0E6F90BE12078800601D5E06900E02A
:100EF0000620B8F1650F814606D0B8F1660F18D00C
:100F0000B8F1670F70D131E00020B9F1110F0090F6
:100F100001DB112301E009F101030AAA01A90CA8D0
:100F2000FFF7E4FEDDE90C70002609F101058346B8
:100F300047E001204B4600904FF000470AAA01A964
:100F40000CA8FFF7D3FEDDE90DB00C995D46002635
:100F500010B909F101000D18B9EB050003D4C0F177
:100F6000FF3609F10105A5EB09002BE0B9F1010FEE
:100F700001DA4FF001090020B9F1110F0090484645
:100F800001DD112300E003460AAA01A90CA8FFF71E
:100F9000ADFEDDE90C704D46002683462078000743
:100FA0000AD4AB4500DA5D4601A8012D04DD4119E4
:100FB00011F8011C302907D04F4502DA17F1040F50
:100FC00004DA012082460FE06D1EEEE7002F02DCFE
:100FD000ED1B3E4403E0781CA84200DD7D1CB81BDD
:100FE00000F1010A4FF000472078000703D4AA451A
:100FF00001DB4FF0FF3A0021B7F1004F0DF143083C
:101000008DF8431024D002202B23002F01DA7F42D9
:101010002D230A21021EA0F1010000DC5FB197FB25
:10102000F1FC97FBF1F201FB1C7C17460CF1300C34
:1010300008F801CDEEE7A8F1010003702188090549
:1010400001D5452100E06521A0F1010800F8011C4F
:1010500009980FA9A1EB0807FF1D00B10120411954
:1010600001EBEA70A1693844081A401EA06120789B
:10107000C00602D42046FFF779FA099828B1D4E9CE
:1010800001219047206A401C20622078C00622D5AA
:101090002046FFF76BFA1EE0002E04DBB34502DDAD
:1010A00001A8805D00E03020D4E901219047206A4A
:1010B000401C2062761CAAF101005FEA000A0AD1F6
:1010C000FFF7B2FDC0680168405CD4E90121904798
:1010D000206A401C2062281EA5F10105DCDC07E027
:1010E000D4E9012118F8010B9047206A401C2062C6
:1010F000381EA7F10107F3DC2046FFF74DFA032065
:1011000011B043E601694A1C02610878704700B5D6
:101110008FB0CDE901310021059105497944CDE930
:10112000031011466846FFF7D9FA0FB000BD000062
:10113000E5FFFFFF0A6802F8010B0A607047D1E97A
:1011400000239A4202D2531C0B601070704710B5F6
:10115000436913B1AFF3008001E0FFF72EFA0120DD
:1011600010BD127800F124010A7000224A70012299
:10117000EDE711684FF0FF32E9E70000074B70B56B
:101180000D467B44FFF7C3FF0446284600F03EF9B6
:1011900010B14FF0FF3070BD204670BD1BB501008F
:1011A000431A28BF9A427FF655AC104410F0030F43
:1011B00011441EBF11F8013D521E00F8013D10F010
:1011C000030F7FF4F6AF103AC0F00A8010B531E992
:1011D0001850103A20E91850BFF4F9AFBDE810409C
:1011E000530724BF31E9081020E9081044BF51F823
:1011F000043D40F8043D12F0030F08BF7047D207CA
:1012000028BF31F8023D48BF11F8012C28BF20F853
:10121000023D48BF00F8012C7047000000487047AD
:1012200090F1012430B5B0F10A024FEA900E71F14D
:1012300000034EEA817EB0EB0E0061EB91014FEAB4
:10124000101E4EEA017E10EB0E0041EB11114FEA29
:10125000102E4EEA016E10EB0E0041EB11214FEA09
:10126000104E4EEA014E10EB0E0041EB11414018BA
:1012700041F100014FEAD00040EA41704FEAD1014C
:1012800010EB80054FEA810444EA907444EB0104BA
:101290006D1944EB0404521BA3414FF0000348BFF7
:1012A0000A3200D530BD401C41F1000130BD0000C4
:1012B0002DE9F0411F46044603260168072A01F480
:1012C000006004DB08B116A505E016A503E008B12F
:1012D00015A500E015A521F010002060A069C01E32
:1012E000A0610FB1401EA0612046FFF73FF94FB14A
:1012F000D4E9012138469047206A401C2062C01C76
:10130000206206E0206AFAE7D4E9012115F8010B12
:101310009047761EF8D22046FFF73EF9BDE8F081EF
:101320004E414E006E616E00494E4600696E660089
:101330002DE9F047814616468AB0334878440DC8F7
:101340008DE80D0030487844801C03AC0DC884E85B
:101350000D0041F69B300844372190FBF1F290FBE1
:10136000F1F5A5F1800501FB12041B3C02D5644296
:10137000012000E00020DFF890A080460027FA441A
:10138000AAF1BE0A0DE0E00709D03246684607EB35
:1013900047010AEB81010AF0C8FB8DE807006410E1
:1013A0007F1C002CEFD1184F7F44AC3F18E0E807BA
:1013B00014D007EB04100DF1180A90E80E008AE82B
:1013C0000E00C068F04201D198190890324606A973
:1013D00003A80AF0AAFB03AB83E807006D10641CA6
:1013E000002DE4D132466946B8F1000F03A802D0BF
:1013F0000AF087FB01E00AF098FBC9E90001C9F88F
:1014000008200AB0BDE8F08790210A00007B00F0B8
:101410008000704710B542485421FFF77AFB4148DD
:101420005421FFF776FB40485421FFF772FB3F49F8
:101430003B483C4A3F4B08603D490A603A491960C5
:10144000531C0365481C1065012008653B48344A5D
:1014500039A1784400F008FA20B9384878440A38AD
:1014600000F0A4FA37482F4A35A1784400F0FCF97F
:1014700020B9344878440A3800F098FA32482A4AA9
:101480002FA1784400F0F0F920B92F4878440A38A9
:1014900000F08CFA40232248DC000021224600F0B4
:1014A000BFF920B125487844543800F07FFA1D4830
:1014B00022464023002100F0B3F920B121487844AE
:1014C000543800F073FA184822461023002100F027
:1014D000A7F9002806D01C487844BDE810405638CB
:1014E00000F064BA10BD104870B5006D20F0010422
:1014F0000B4800F02FFA0B4800F02CFA0A4800F0D5
:1015000029FA09E0206D20F00105204600F022FABA
:10151000204600F073F82C46002CF3D170BD00007B
:1015200094F00124E8F001243CF10124B44E00249D
:10153000B84E0024BC4E00247200000092200A0025
:10154000770000007E200A006A200A000EB5CDE96F
:101550000001FFF7D1F9029069460120ABBE0EBD34
:1015600008B5694600900220ABBE08BD1FB58DE8E6
:10157000070069460520ABBE04B010BD1FB58DE85D
:101580000F0069460620ABBEF6E708B56946009035
:101590000920ABBE08BD1CB5CDE9000169460A2093
:1015A000ABBE1CBD704708B5694600900C20ABBEB1
:1015B00008BD7546FFF732FEAE4605006946534644
:1015C00020F00700854618B020B5FEF77FFFBDE884
:1015D00020404FF000064FF000074FF000084FF09A
:1015E000000B21F00701AC46ACE8C009ACE8C0092B
:1015F000ACE8C009ACE8C0098D46704770B5044638
:10160000051F00F0DBF90068002C14BF446870BDB2
:10161000002C18BFAC423CBF20466468F8D3016878
:101620000A18AA4218BF456003D12A68054611442A
:10163000016028684119A1421CBF6C6070BD6168DF
:10164000696021680844286070BD2DE9F0470546AF
:101650000C46C86820F4201040F48000C860800662
:1016600002D5084600F0F7FAE06841F282014FF037
:10167000FF390140022903D0204600F095FAB5E079
:1016800000F42041B1F5004F0FD1C00306D56168C9
:10169000E06A884200D80846606006E02069E0629F
:1016A00060606069FFF77FFFA061A0680022EEB272
:1016B00000280DDAE1688B050AD4C043A06041F42C
:1016C00090302260E0606068411C61600670A5E0B7
:1016D000E0689046226040F40050E060206968BBFA
:1016E0006069FFF752FF012704F12405A0B1A0892A
:1016F00010F4407F08D0E06900F0ABF9206118B128
:10170000E06840F4006016E0E7612561E06820F4DD
:10171000407040F480600EE0E06900F09AF9002823
:101720002061F1D0E06840F4006010F4407FE06098
:1017300002D140F48070E06020696060E068256953
:101740006FF0010AC1051FD56168E06A884200D8C0
:101750000846411B04D02246284600F02FFAF0BB71
:10176000E068010203D5E562C4E9015854E0691C50
:10177000E1626160E16940F48030491EC4E9021011
:1017800030462E70BDE8F087010202D500F48032A9
:101790000AE06068411C61600670E0680A2E40F44F
:1017A0008030E06006D00022E16A6068814203D99F
:1017B0000B4602E00122F7E70346A7895B1B7F0582
:1017C00003D4E7699F4200DDE2B1814200D80146BF
:1017D000E5620F1AC4E90158002B09DD00E005E0BD
:1017E00022461946284600F0E9F908B14846C9E7FB
:1017F00047B1A069E5626560C01BA061E06840F088
:101800001000E060E068000208D56168A069E56248
:10181000491B08446560A0615046B3E73046B1E714
:1018200070B5C468A50713D0650211D4B2F5807FE6
:1018300009D0B2F5007F06D0B2F5806F08D1012340
:1018400000F1240106E05D1E6FF07F46B54201D332
:10185000012070BD0161C361416024F470611143D6
:10186000C160002070BD00002DE9F0410C46074624
:101870001646104600F06EF82078611C61280AD0E8
:10188000722802D077283CD102E00125002405E02F
:101890000225042402E0082448F2020511F8010B95
:1018A0002B2806D0622809D011F8010C74280AD020
:1018B0000BE045F0030544F00204EFE745F00405B2
:1018C00044F00104EAE744F0100438462146FFF7EB
:1018D0003DFE411C15D00021316171604FF4007153
:1018E000F560F1617061200704D5304602220021C5
:1018F00000F0DEF8306D40F0010030653046BDE8A4
:10190000F0810020FBE72DE9F0410D460646104C22
:10191000206DC10704D0410804D020F00104F7E78E
:1019200022460EE0542000F094F807000ED0206DFF
:1019300047F001010843542120653846FFF7E9F8D4
:101940003A4629463046BDE8F0418DE70020D6E70B
:1019500094F001242DE9F04704464FF000094FF0C0
:10196000FF37C568D4E90486A80707D0204600F0F1
:101970004FF93046FFF7F4FD002802DA3846BDE89B
:10198000F087280502D54046FFF738FE4C21204657
:10199000FFF7BFF8206D20F0010020654846EEE714
:1019A0000446AFF300802046FEF702FD10B500F0BC
:1019B00079F9BDE8104000F06FB9704700487047F2
:1019C00098F10124704770477047704738B5044656
:1019D0000A4600206946AFF30080002808BF38BDE2
:1019E00002460099204600F08CF9012038BD012004
:1019F00000F072B9F8B5AFF30080054600200C4640
:101A0000102000BF0646A819A0420DD932466946EB
:101A10000020AFF30080070008BF00F05DF90098D8
:101A2000A04218BF0546C419FFF7C8FF0560074666
:101A3000F01D20F007004619284600F05BF9B4427B
:101A400008BFF8BDA21B31463868BDE8F84000F079
:101A500058B970B50646FFF7B1FF056806F10B00EF
:101A600020F00704B4429CBF002070BD2B466A687A
:101A7000BAB11068A04210D304F1080188423CBFFB
:101A80005068586007D35168101941601168091BEC
:101A9000016058601460101D70BD13465268002A22
:101AA000E7D121462846FFF791FF0028DED170BD1F
:101AB0002DE9F041044616460D464769007B800734
:101AC0002ED03846FFF761FD50BB3EB3012E02D049
:101AD000022E25D104E0204600F02DF905441DE03A
:101AE0003846FFF760FDE168002841F01001E16031
:101AF00005DA204600F058F80120BDE8F081C9035E
:101B00000BD56268E16A914200D81146A26911447E
:101B10002269891A814200DD08460544002D01DA58
:101B20000220EAE7E16A6068E268814206D2910336
:101B3000E06203D522F4003141F01002A6690027CB
:101B4000AE4213DCE16A814201D90B4600E0034654
:101B500003EB060C2369ACEB030CAC4506DD8142BC
:101B600001D98C4600E084469C4505D1A7602760DA
:101B700042F02000A5620DE0AD1BE669AE1B81427C
:101B8000A66000D90846C01A281A2060581960605B
:101B900022F0200003490840E060002084F84870EB
:101BA000ABE70000BFCFD7FFC16821F4001141F0BF
:101BB0008001C16000218160016070472DE9F0471C
:101BC000814614460E464FF0FF383248D5685769B3
:101BD000054209D03846A169FFF7DDFC002811DB7A
:101BE0002C48C0430540E5602B46324649463846FE
:101BF000FFF7BCFCA16920F00042B21A1144002892
:101C0000A16103D02046FFF7CFFF4046BDE8F08733
:101C100070B504460569C06A6168884200D8084604
:101C2000E16821F42011E160C90312D5A84208D06F
:101C30002246411B2846FFF7C1FF10B14FF0FF308D
:101C400070BD0020E562C4E90150E06820F48030F6
:101C5000E060002070BD10B50446C06820F0200090
:101C6000E060A16AA06988420DD02046FFF7D0FF4E
:101C7000E06820F4405040F01000E060A06AA061ED
:101C80002069E062606044F24001E0688843E060FF
:101C900010BD000010000200002801D000F024B8A0
:101CA0007047000010B5014602A000F065F8012061
:101CB00010BD000053494752545245443A205265E2
:101CC0006469726563743A2063616E2774206F7073
:101CD000656E3A200000000010B500F067F8BDE81E
:101CE0001040FFF7D9BF000001491820ABBEFEE746
:101CF0002600020000210160C0E901107047102099
:101D00007047034640688C46002818BF88423CBF95
:101D100003464068F8D318681844884207D00CF18D
:101D2000030020F00700001D411A521A0146081D49
:101D30000A60FFF763BC10B50146C268900703D084
:101D4000900607D5886A0AE0FEF772FF012101605C
:101D5000881E10BD8B69486818440B69C01A91F839
:101D600048301BB191F84910401A10BD1103FCD541
:101D70000028FADD401E10BD70B505460C460A204D
:101D800000E06D1C00F03AF835B128780028F8D151
:101D900002E0641C00F032F814B120780028F8D179
:101DA000BDE870400A2000F029B8000010B50128F5
:101DB00005D0002103A0FFF7DFFF012010BD09A11E
:101DC000F8E7000053494752544D454D3A204F75AE
:101DD00074206F662068656170206D656D6F727923
:101DE000000000003A2048656170206D656D6F72DB
:101DF0007920636F727275707465640008B5694606
:101E00008DF800000320ABBE08BD00002DE9F04FA7
:101E100040F2C323924689B06D4A03FB0AF3804621
:101E20000491BAF1000F82FB03124FEAE373B4BFCF
:101E30000AF101005046C3EBA2130AFB0AF6654DF6
:101E40000133049C05930AEB080321460AEB040BBB
:101E50001F4606EB6003069338462B68B9465B6E57
:101E60005B6898472B682146CAEB08005B6E5B688D
:101E700098472B68594640465B6E5B6898472B68CD
:101E8000CAEB040140465B6E5B689847059B002BDC
:101E900040F39B803346012456462F46C246C8462F
:101EA00046E0C4EB0A0304EB0A090193049B1A19E8
:101EB0001B1B029203932B68594648465B6E5B6876
:101EC00098472B68594601985B6E5B6898472B686A
:101ED000029940465B6E5B6898472B6803994046C1
:101EE0005B6E5B689847EEB13B684846049AC6EB68
:101EF0000A095B6E921B5B681146079298473B6824
:101F0000079A5B6E114601985B6898473B68029997
:101F100048465B6E5B6898473B68484603995B6E32
:101F20005B6898470134059BA3424EDB06FB06F332
:101F300004FB0433069A9A42B3DAC4EB0A022B6814
:101F400004EB0A0959460192049A48465B6EA218AE
:101F50005B68029298472B685946049A5B6E121B85
:101F600001985B68039298472B68404602995B6E24
:101F70005B6898472B68404603995B6E5B6898479F
:101F8000E6B1049A48463B68C6EB0A0BC6EB02086A
:101F90005B6E41465B6898473B68414601985B6EC3
:101FA0005B6898473B68584602995B6E5B68984748
:101FB0003B68584603995B6E5B689847013E049BFB
:101FC00006EB0A0806EB030B75E709B0BDE8F08FD6
:101FD000D34D62108C4E00242DE9F04F161A5D1A75
:101FE00085B09E4656EA0503DDF838B079D086EA1A
:101FF000E673074685EAE5748946A3EBE673A4EB2E
:10200000E5749C422FDC1C460023A642019338D085
:1020100039464FF0FF336D42174674420A46F14687
:102020000393DBF8001095BBDFF80C830846019B97
:10203000D8F800E0002B00F0D1809EF81A30002B79
:1020400000F0C481002CC0F2C881AA46B64E724688
:10205000013B451C032B00F23481DFE813F04C01F7
:102060004101580121013B4630462E4611464F465C
:102070009946A6424FF00103724605468E460193EB
:10208000C6D10123DBF800100393002DCCD0002C27
:10209000DFF8A4822646D8F80000B8BF661C002DE1
:1020A0004FEA6606827EB8BF7642FAB9002C15DB8D
:1020B000019B002B00F051819246034601E0D8F8C5
:1020C00000305B6E0AEB07010AF1010A5B6896FBC0
:1020D000F4F048442E4498475445F0DA05B0BDE882
:1020E000F08F05B0BDE8F04F00F07AB95A1C00F04F
:1020F0002C81002C51DBCDF808904FF0000AC1462E
:1021000098464144CBF80010827E013A032A15D844
:10211000DFE802F055492B02844B4FEAE17E83FB56
:102120000132CEEBA20202EB4202A1EBC2020B2A69
:1021300012DD22F00402103A012A0DD9029B426EF0
:1021400096FBF4F11944019B002B40F0F7803846D0
:1021500052689047DBF800100AF1010A01372E445B
:10216000544515DBD9F80000CBE76F4B4FEAE17E11
:1021700083FB0132CEEBE20202EB8202A1EB820290
:102180000B2AD8DC0AF1010A01372E445445E9DA5A
:10219000039A4346013200F0DE80CB1ACBF80030C0
:1021A00005B0BDE8F08F624A0A40002AC0F2E7801D
:1021B000012ACCBF00220122002ACDD1BEE701F1C5
:1021C000060E5C4A0EEA0202002AC0F2DD800B2AEB
:1021D000CCBF00220122002ABED1AFE79EF81A3000
:1021E000002B00F0EA80002CC0F2F780DDF804A09C
:1021F00072464E4E013B451C032B13D8DFE803F01B
:102200004337210286FB0031C317C3EBA10303EB65
:102210004303A0EBC3030B2B0ADD23F00403103BA5
:10222000012B05D9536E494607EB0A005B689847B6
:102230000AF1010A544514DBD8F800202846937EA1
:10224000D8E7394B83FB0031C317C3EBE10303EB42
:102250008303A0EB83030B2BE1DC0AF1010A544555
:10226000EADA691ECBF8001005B0BDE8F08F304BFC
:102270000340002BC0F29780012BCCBF0023012329
:10228000002BD5D1CEE7691D2A4B0B40002BC0F2A5
:102290008F800B2BCCBF00230123002BC8D1C1E7BB
:1022A000224B83FB0031C317C3EBA10303EB4303B2
:1022B000A0EBC3030B2B0ADD23F00403103B012B1F
:1022C00005D9536E0AEB070148465B6898470AF147
:1022D000010A5445C5DBD8F800202846937EB7E6AE
:1022E000134B0340002B54DB012BCCBF00230123F5
:1022F000002BECD1E5E7691D0E4B0B40002B4DDBAD
:102300000B2BCCBF00230123002BE0D1D9E786FBA8
:102310000031C317C3EBE10303EB8303A0EB83039B
:102320000B2BCBDCD3E700BF67666666ABAAAA2A95
:10233000030000800F0000808C4E00240846526885
:1023400039469047DBF8001006E72144002CCBF813
:102350000010BFF6D0AE21441FE79A4601E0D8F83E
:102360000000436E0AEB07000AF1010A5B6896FB66
:10237000F4F149442E4498475445F0DAAEE6013A68
:1023800062F00302013213E7013A62F00F020132F8
:102390001DE7013B63F003030133A5E7013B63F055
:1023A0000F030133ACE7013B63F00303013363E741
:1023B000013B63F00F0301336BE7DEF864304946FD
:1023C00038461B6805B0BDE8F04F18473946484607
:1023D00005B0BDE8F04F03F06BBD0D4641E700BF0F
:1023E000064B1A68137E012B05D05A1E48BF1A46A9
:1023F000521000F005B8536E5B6818478C4E0024ED
:102400002DE9F04F40F2C3231546344A85B003FB53
:1024100005F3DFF8CCA00190002D82FB03284FEAE2
:10242000E373B4BF6C1C2C46C3EBA818019B05FBDF
:1024300005FB8946EE185F1BDAF8003008F1010849
:102440000BEB640432465B6E384600941B68984779
:10245000B8F1000F3FDD019B01241A19013B0292E4
:1024600003931AE0013D019BEE185F1BDAF8003080
:1024700009EB0401324638465B6E05FB05FB1B6821
:102480009847DAF80030C4EB090101345B6E32463C
:1024900038461B689847A0451DDB04FB04BB009B26
:1024A0005B45E3DAA845DDDA029A09EB0501DAF8C3
:1024B0000030161B039A5B6E171930461B683A46AC
:1024C0009847DAF800303A4630465B6EC5EB0901B2
:1024D0001B689847C6E705B0BDE8F08FD34D621082
:1024E0008C4E002400292DE9F04F87B040F3E482A0
:1024F0001E4C054600EB810E274643F6FF74B5F9E6
:1025000002600435B442A8BF3446B742B8BF37466C
:10251000AE45F4D10497164D2D686D6975B1B5F9C6
:102520000660049FF61AB5F90250B742A5EB030501
:10253000A8BF3746AC42B8BF2C460497049DAC42B6
:1025400000F36982934606464D1EDFF828908A46BE
:1025500005930022074B92451A6040F35782059B72
:10256000CDF80CB023440293EBE000BF01C0FFFFA5
:102570008C4E0024CCEE0124A64500F0DE8001DB69
:10258000A04205DDA042C0F2D880A64500F3D58068
:10259000704500F34382A645C0F2CF80A04200F30D
:1025A000CC8036F922B0BCF90030CBEB0302C8EB8B
:1025B0000403C8EB0E0E03FB02F3002B40F358821A
:1025C00003EB6E01DF4B1B680B2B00F3B680002B77
:1025D00091FBFEF101EB0B02019240F33682581E93
:1025E0001146420009EB020EBEF904C0614500F33A
:1025F0004F8209EB4308A8F804C0002800F02582A8
:10260000981E4FEA400B09EB0B0CBCF904804145C6
:1026100000F38C80AEF80480002800F01682D81EEB
:10262000420009EB0208B8F904E0714500F32E827C
:10263000ACF804E0002800F00882A3F1040C4FEA93
:102640004C0E09EB0E00B0F9040081426EDCA8F8D4
:102650000400BCF1000F00F0F881581FB949420096
:1026600001EB02080199B8F904B0594500F318824A
:10267000CE44AEF804B0002800F0E781981F4FEA7E
:10268000400B09EB0B0EBEF904C061454EDCA8F807
:1026900004C0002800F0D981D81F420009EB020CC9
:1026A000BCF90480414500F3F181AEF804800028B4
:1026B00000F0CB81A3F108004FEA400809EB080EB7
:1026C000BEF904B0594531DCACF804B0002800F084
:1026D000BC81A3F10900420009EB020CBCF904C063
:1026E000614500F3DB81AEF804C0002800F0AD8145
:1026F000A3F10A0093494FEA400C01EB0C0E01993B
:10270000BEF90480414511DC4A44A2F80480002847
:1027100000F09B81A3F10B00420009EB0200B0F92D
:102720000400814200F3B881AEF80400854801330B
:10273000BDF80410024403609180BA453A4640F364
:10274000EF80AA4202F1010706EB82011346ACBFFB
:102750004FF0000C4FEA870CB1F90200B444A042DC
:102760008046BCF902E07FF407AFA64500F06F8118
:10277000002DE2DD00215BB1013B013106EB83005E
:10278000B0F90200A0420BD1A942D6D0002BF3D160
:102790002B46013106EB8300B0F90200A042F3D0D2
:1027A000001BC4EB0E0E36F9222090EA0E0F40F10A
:1027B0004281644B1B680B2BBFDC002B40F35D8117
:1027C000581E410009EB010CBCF904E0724500F30E
:1027D0006A8109EB4308A8F804E0002800F04D8165
:1027E000981E4FEA400809EB080EBEF904B05A459E
:1027F00000F38D80ACF804B0002800F03E81D81EB4
:10280000410009EB010CBCF904C0624500F35281A0
:10281000AEF804C0002800F03081A3F10408494854
:102820004FEA480B00EB0B0EBEF904C062456EDCAC
:102830004944A1F804C0B8F1000F00F01E81581FF0
:10284000410009EB010CBCF90480424500F32281F0
:10285000AEF80480002800F01081981F4FEA400B6A
:1028600009EB0B0EBEF90480424550DCACF8048045
:10287000002800F00281D81F410009EB0108B8F9D7
:1028800004C0624500F30681AEF804C0002800F0E1
:10289000F480A3F1080C4FEA4C0E09EB0E00B0F9DE
:1028A0000400824233DCA8F80400BCF1000F00F001
:1028B000E480A3F1090041000190224800EB0108E7
:1028C000B8F904B05A4500F3F080CE440198AEF850
:1028D00004B0002800F0D180A3F10A004FEA400CB8
:1028E00009EB0C0EBEF904B05A4510DCA8F804B090
:1028F000002800F0C280A3F10B01490009EB0100A0
:10290000B0F90400824200F3D380AEF804000D4811
:102910000133BA45014403608A803A463FF711AF5C
:10292000084BDDF80CB01B68002B6FDD012BB9F9EB
:1029300004006BD0044B5844B9F906201B68029F71
:1029400004E000BFCCEE01248C4E00245A445B6EA0
:1029500039461B689847D9F80030022B56DD032B07
:10296000B9F9080052D0574B5844B9F90A203946F2
:102970001B685A445B6E1B689847D9F80030042BDB
:1029800044DD052BB9F90C0040D04E4B5844B9F941
:102990000E2039461B685A445B6E1B689847D9F86D
:1029A0000030062B32DD072BB9F910002ED0454B35
:1029B0005844B9F9122039461B685A445B6E1B68AB
:1029C0009847D9F80030082B20DD3F4A092BB2F98F
:1029D00014001BD03B4B5844B9F9162039461B68EC
:1029E0005A445B6E1B689847D9F800300A2B0DDDFE
:1029F0000B2BB9F9180009D0324B3946B9F91A2016
:102A000058441B685A445B6E1B6898470134049B0A
:102A1000A342BFF69EAD07B0BDE8F08FA042FFF61F
:102A20008CAEA6453FF789AEF046BCF900B036F94A
:102A300022308646B9E5234B03991B680A44029964
:102A40005B6E10461B68984777E600226EE6BCF97D
:102A50000030039836F9221001441818194B8142AE
:102A60001B680CDB5B6E0A4602991B68984764E69C
:102A70004FEA6E010139591AA4E5002147E75B6E60
:102A80000246084602991B68984756E65A464DE6A4
:102A90005A004BE659463AE7624647E6424645E663
:102AA0004FEA4C0242E6590031E74FEA4C012EE76B
:102AB00061462CE741462AE7044C049443F6FF7430
:102AC00029E500BF8C4E0024CCEE012401C0FFFF9D
:102AD000014B83E803007047A0ED0124014B83E81C
:102AE00003007047A8ED0124014B83E80300704701
:102AF000B0ED0124704700BF704700BF2DE9F04FD3
:102B00005C4E8DB03368DA69B3F92250D469B4F8F9
:102B10000CB0834500F29780E1898142C0F0938038
:102B20002168CBEB000B08914FF0FF310A91BBF10C
:102B3000FF3F00F0828092F81880A27CB3F92A103F
:102B4000B3F9249018FB02F3084607911F4694F846
:102B500010A003F0D9FCD6F800E008994346DEF84F
:102B600038C05246099007FB0B10DEF81CE00B97AB
:102B7000012704904946CDF814C0284694F812C0A5
:102B80000297CDF80CC09EF81BC0DFF8E8B0CDF876
:102B900004C09EF81AE0CDF800E002F0A9FF0A9FF9
:102BA0007B1C25D0079941F0020003F0ADFCDBF857
:102BB00000100B9A43460898D1F838C002FB070072
:102BC000D1F81CE00127CDF814C00490524694F8C7
:102BD00012C0494602972846CDF80CC09EF81BC08B
:102BE000CDF804C09EF81AE0CDF800E002F080FFB6
:102BF0003368DFF88080DB695A7E1B7E9A4215D9E4
:102C0000079B022B12D083F0040003F07DFCD8F860
:102C100000302846DB691F7ED97E9A7E5B7E07FBEB
:102C200001910AFB02524B4403F06AF99DF824001B
:102C300003F06AFC3368B3F92250627C15445D846A
:102C40000DB0BDE8F08FA1680029F6D00F88B8421A
:102C5000F3D3B1F802E08645EFD3C01B496867683B
:102C600080B2089701EB800731F920B0B7F9021064
:102C70000A915CE78C4E0024044B1B68DB69DB691E
:102C800009B11A7C0A60587C704700BF8C4E002442
:102C900002230B80704700BFC3699A898A4202D819
:102CA000DA898A4211D2986818B10388994201D210
:102CB0000020704742888A42FAD3C91A436833F821
:102CC0002100C043C0F3C03070470120704700BFEF
:102CD0002DE9F04F3A4D89B02B68DA69B3F92A90A3
:102CE000D36943B11A88904202D35988814205D2F0
:102CF0009B68002BF6D109B0BDE8F08F841AD3F899
:102D00000480484608EBC40696F802B003F0FCFBCA
:102D10008246286818F834204FF0010EC769D0F8B1
:102D200038C0B0F92410B0F922003B7E0790CDF8EE
:102D300014C07068CDF80CB00490CDF808E097F896
:102D40001BE00798CDF804E0BF7E009702F0D0FEAC
:102D50002B68DA69537E177EBB4223D9B9F1020F83
:102D600007931FD092F81BB001F024F9814601F0BF
:102D7000EFF802F039F9124B18F834E01868079BA5
:102D8000C169B0F92240CA7EB0F9241020460EFB7A
:102D900002420BFB03130BFB071103F0B1F848468B
:102DA00002F022F9504603F0AFFB2B687178D86926
:102DB0005A8C807E00FB01225A8409B0BDE8F08F56
:102DC0008C4E0024114B1B6870B4DD69EB6943B174
:102DD0001A88904202D35C88844205D29B68002BFB
:102DE000F6D1184670BC7047821A5E68AC7E06EB5E
:102DF000C2035B7813FB04F00029F3D016F83230DD
:102E000014FB03F370BC0B60704700BF8C4E0024B2
:102E100001230B80704700BFC06950B103888B420B
:102E200002D843888B4203D280680028F6D17047CD
:102E3000012070472DE9F047244F3D68002D3FDD0C
:102E4000234EC5EB4515DFF88C804FF0000A34683F
:102E5000D8F8009004EB85050C340C35A4F1080378
:102E6000742249461846FDF7EDFD221F2063A0633A
:102E700044F80CAC6263E4607C34A542EED10024DB
:102E8000254603E082B13A68954213DA0BF092FDD1
:102E9000336801351A5919197C349042F2D1043142
:102EA000C8F80010BDE8F08708600431C8F80010C9
:102EB000BDE8F08719460431C8F80010BDE8F08776
:102EC000034BDFF810801968E9E700BFA04E00242B
:102ED00048EF01248C4E0024F8B5184F184B3846A3
:102EE000184E40F80C3F02F097FC3468C4EB4414D1
:102EF000A400204600F0ACF8134B224600211B68CA
:102F0000386098474FF0FF3373600BF057FD33681C
:102F1000002B0FDD0024254603E062B133689D429B
:102F200008DA0BF047FD3B6801351A5923447C341D
:102F30009042F2D1F8BD1860F8BD00BF48EF0124FF
:102F400089AA0008A04E0024AC4E002400B97047A6
:102F500010B5044601F088F9204605F057F80446FC
:102F600002F01CF9204610BDF8B5054601F07CF9C9
:102F700025B9002402F012F92046F8BD01F074F9D9
:102F8000284605F043F8044602F008F9002CF0D07A
:102F9000144E2A46144F0021F069736B013003EB85
:102FA000C405F06113F83400013003F834006D6893
:102FB0003B6805F1080098472968726B12F83130B8
:102FC000012B01D9F06930B9013B02F8313002F030
:102FD000E5F82046F8BD0138013BF06102F83130D8
:102FE000F5E700BFF0F10124AC4E002421F003010D
:102FF000014B83E803007047B8ED012400B9704726
:1030000070B50D4C054601F02FF9EE00636B3344AB
:103010005968486804F04CFE6368626B0021606A7E
:10302000013316446360706002F835106562BDE8D4
:10303000704002F0B3B800BFF0F1012428B1034A98
:10304000D36B036003B15860D0637047F0F1012483
:10305000F8B58B4E044696F82830002B2FD0033459
:10306000356CF26B24F003040434A54238BF2546C6
:1030700062B152F8043C14469D4204D114E054F865
:10308000043C9D4210D02468002CF8D1F368B46B46
:103090001C4454F8041C611A0B68002B68D14B685F
:1030A0009D426FDD002408E023680BB16168596020
:1030B000616801B10B60A24256D02046F8BD714B49
:1030C00001219A6886F8281058680AB982089A601F
:1030D0005A27102220254FF0400E37628027326495
:1030E0004FF48072B5644FF400751968C6F850E06B
:1030F0004FF4806EB7654FF4006732664FF480522C
:10310000B5664FF40055A1F11403C6F870E0B76737
:103110004FF4804EC6F880204FF40047C6F8885020
:103120004FF480324FF400350344C6F890E04FF47A
:10313000802EC6F898704FF40027C6F8A02002220F
:10314000C6F8A8500125B1637363C6F8B0E03261D8
:10315000F060C6F8B8705D607562756004F0A8FD37
:1031600006F09EFC35637AE723682046F363F8BDDA
:10317000002007F047FD54F8041C611A0B68002B6F
:1031800090D18CE7581BD6F8B8703D4A041DBB425D
:103190000C4472D2D2F8B070BB426CD2D2F8A87094
:1031A000BB4266D2D2F8A070BB4260D2D2F898700F
:1031B0009F425AD9D2F89070BB4254D2D2F888704C
:1031C000BB424ED2D2F88070BB4248D2926F93423B
:1031D00043D2376F2A4ABB423DD2976EBB4238D2A8
:1031E000176EBB4233D2976DBB422ED2176DBB42D6
:1031F00029D2976CBB4224D2126C93420CD2F26853
:103200007369521B2B44F260736110B944F8045C7B
:1032100053E704F04DFDF9E700223768D1F808E0E4
:10322000FF1ACB683760BEF1000F01D0CEF8043032
:1032300013B1C3F800E0E2E706EBC202C2F844E0D3
:10324000DDE70122E9E70222E7E70322E5E70422BE
:10325000E3E70522E1E70622DFE70722DDE70822B0
:10326000DBE70922D9E70A22D7E70B22D5E70C22B0
:10327000D3E70D22D1E70E22CFE70F22CDE700BF23
:10328000F0F10124B8ED0124084AD169536B0131F2
:1032900010B4D16103EBC00413F83020013203F8FD
:1032A000302060685DF8044B08307047F0F101246D
:1032B000102807D9054B5A685208904228BF10467B
:1032C000986070471020014B98607047B8ED01245A
:1032D00003680B4A30B4044653F8085C506B10F88E
:1032E0003530012B03D9D16909B10139D1610022EF
:1032F000013B00F835301046226030BC704700BFFB
:10330000F0F10124034B5B6B03EBC0004068083015
:10331000704700BFF0F10124C3B2CAB29A1A92B248
:1033200010B414B2002C1EDBC1F30722C0F3072334
:103330009B1A9BB21AB2002A12DB090C02FB02F2A2
:10334000C1EB104104FB042089B20CB2002C01DA5D
:1033500049420CB2A1B25DF8044B01FB0100704779
:103360005B421AB2E9E7524214B2DDE700212DE9CF
:10337000F041084682B000F0A1FE184F00F074FF43
:10338000042003F0C1F8164B43F6FF763D461B6957
:10339000804634466846DA6C1B6D174416441D445B
:1033A0001C44ADF80070ADF80460ADF80250ADF803
:1033B000064004F009F948B123463246294638460A
:1033C00002F09EFD03F0BCFF0028F5D1404603F05B
:1033D0009BF801F0E3FE02B0BDE8F08101C0FFFF01
:1033E0007C4E002480B582B000AF7860054B1B682E
:1033F000002B03D0034B1B687868984700BF083741
:10340000BD4680BDB0F20124012B3BDC2DE9F84321
:1034100081461C2090460F461E46FFF719FE0546C2
:1034200000287FD0414A002F31D00023DFF804E18B
:1034300052F8264003609EF8001007618E428661B4
:10344000A0F81480C0F80C904360836002DB731C0A
:103450008EF80030002C5DD021464C68002CFBD14A
:10346000D9F80000CB681B6883422CDD096800296D
:10347000F8D148B92E4B163628461A6842F826501D
:10348000BDE8F883002070472846BDE8F88352F86D
:103490002610002930D0084600E018460368002BAB
:1034A000FBD10069DFF88CE02B6028619EF80000FA
:1034B000AE618642A5F81480C5F80C906B60AB60D5
:1034C000CBDB0C46C3E70AD04B6843B31D606B608F
:1034D0008D4214BF0B4600234D602B60C9E7B8F145
:1034E000010FF1D104E0DC68194623688342EBDB6D
:1034F0000B68002BF7D1E7E7DFF838E001609EF8B2
:10350000003086619E42A0F81480C0F80C904160A3
:103510008160D6DA42F82650D9F80000A9E742F8CF
:103520002650D5E70020BDE8F88300BFC4F201248F
:103530008C4E0024BBF20124FFF780BD00284DD043
:103540002DE9F041DFF89CE0254F9EF80060BC4675
:1035500001E028463DB384690568012CF9DCB442DA
:1035600001DB661CF6B257F824300BB933E0134682
:103570005A68002AFBD1C268116802E01B68002B60
:10358000E7D0DA6812688A42F8DC10D05A68A2B133
:1035900010604260984214BF1A46002258600260D0
:1035A0002846002DD7D18EF80060BDE8F081828AD0
:1035B000012A0CD05A68002AEAD147F82400E9E72A
:1035C000D2F80C801346D8F800208A42DEDB1A6855
:1035D000002AF5D1DAE74CF82400BAE7704700BFBB
:1035E000C4F20124BBF201240F4A816952F8213050
:1035F00098420AD042680AB103681360036803B1B5
:103600005A600023036043607047036842F821302A
:103610002BB100225A604268002AEED1F0E74268DE
:10362000002AEAD1EDE700BFC4F201240020704770
:1036300001280EDC084B53F8200058B1C3681B6802
:103640001BB908E0C3681B6823B100680028F9D1E2
:103650007047002070477047C4F201242DE9F04FF5
:103660004A4D83B0044600F0FFFD00F0BBFC2B6820
:103670000646B3F9228000F0EDFC2B681FFA80F9B2
:103680009A8CC9EB020212B29A84217800294FD099
:10369000B6B22F4647F6FF71204601F041FF0146C2
:1036A0008346204601F0FCFE29688B8D03F003035E
:1036B000012B5AD0022B5CD01FFA80FA4FF0000E7B
:1036C0004B8C0AF1FF3CB1F92420CEEB0303ADF89B
:1036D0000220013A9BB2B0186A460FFA83FE634497
:1036E000ADF806002046A1F822E05946ADF800E00A
:1036F000ADF8043001F072FE2B682046BDF80220C0
:1037000059469A8401F00AFD235C04440A2B1BD01D
:103710000D2B19D0BDF800003B688244A3F822A00D
:1037200022781AB162780134002AB3D1B3F9242087
:10373000998D914421F00302A3F824909A8501F019
:103740002DFD03B0BDE8F08F2B689A8D02F00302C7
:10375000013A012A16D8A3F8228022780A2AE0D159
:103760009A8C32449A842278DBE71FFA80FEF24674
:10377000A6E7002803461FFA80FAB8BF431CC3F32C
:103780004F0E9DE71A8C5A84E7E700BF8C4E002449
:1037900070B50E461546044600F066FD054B1B68E5
:1037A0005E849D8414B12046FFF758FFBDE8704049
:1037B00001F0F4BC8C4E0024F0B583B005460C46F5
:1037C000164600F051FD134BB7B268461B68DA6C21
:1037D0001B6D15441C44AAB2A3B2C7EB020E3A44B7
:1037E000D91B3B44ADF800E0ADF80420ADF8021061
:1037F000ADF8063003F0E8FE40B1324621462846D7
:10380000FEF704FB03F09CFD0028F6D101F0C6FC96
:1038100003B0F0BD8C4E0024F0B5144F83B00646C3
:103820000D46144600F020FD3B686846196DDA6CC1
:103830000E441544144433B2ADF80050ADF80440C2
:10384000ADF80230ADF8063003F0BEFE50B13B6873
:103850002246314628465B6E1B68984703F070FD90
:103860000028F4D101F09AFC03B0F0BD8C4E002486
:103870002DE9F04FB64E8FB080468A4617469946DE
:1038800000F0F2FC34680020E56C246D03F09CFE2F
:10389000002800F0218104EB090204EB0A0305EB88
:1038A0000801E81903939B1AC0EB010902910793E1
:1038B00019465B420592049049EA010813EA210384
:1038C00038BF0B46A34F069304E003F039FD0028F0
:1038D00000F0028132680023117E0993012900F073
:1038E0002F81B8F1000FF0D0B9F1000F01F1FF31D5
:1038F000C0F221814C460222079833EA200328BFF8
:1039000013460698844280F2F08043F00403224676
:103910000446DBB2601000EB822292FBF4F29411B9
:10392000C2F3830207EB4400C2F11005B0F9240092
:10393000102D05FB00F006D0864D05EB4404B4F9CC
:10394000264002FB040010F1080448BF00F11704F0
:1039500058074FEA241448BFC4F58064DA0748BF0B
:10396000C4F500649B0748BFC4F5805404F50063A8
:1039700004F58064C3F30B03B3F5006F40F3B38029
:10398000A3F500630122B3F5806FC8BFC3F50063E0
:1039900003F03F059B11C5F1400537F81300ADB2A8
:1039A000402D05FB00F008D0102B06D00133C5F1E7
:1039B000400537F8133005FB03002030800902B1C1
:1039C0004042C4F30B0400FB01F0B4F5006F40F378
:1039D0008880A4F500640122B4F5806FC8BFC4F5E7
:1039E000006404F03F05A411C5F1400537F8143018
:1039F000ADB2402D05FB03F308D0102C06D00134E6
:103A0000C5F1400537F8144005FB043320339B090A
:103A100002B15B42002803FB01F17EDB00F5007080
:103A200000294FEAA020C0F2818001F500718912BF
:103A300000285CDD451C00294FEA60004FEA65055F
:103A400061DD4C1C49106410BDF808A0ADB280B215
:103A5000BDF810B00AEB050E89B2BDF80CC0C0EB82
:103A60000A0AA4B2ADF828E0BDF814E00023C0EBC8
:103A70000B005D44ADF82CA00CEB040BC1EB0E0A5F
:103A8000C1EB0C0CA6441A46ADF8300004210AA87C
:103A9000ADF82AB0ADF82EC0ADF83450ADF832A074
:103AA000ADF836E0FEF71EFD33685B7E002B7FF439
:103AB0000CAF03990298FEF793FC254B1B685B7EC5
:103AC000002B7FF402AF05990498FEF789FC03F000
:103AD00037FC00287FF4FEAE01F060FB0FB0BDE8BC
:103AE000F08F002278E700224DE7024612E70546F4
:103AF000B8BF451C431E4FEA650548BF0346002971
:103B00004FEA63009DDC0C46B8BF4C1C4B1E4FEACD
:103B1000640448BF0B46591096E7C0F500700029B1
:103B20004FEAA020C0F10000BFF67FAFC1F50071E1
:103B3000891249427CE7C9F1000403220123DBE634
:103B400009A803A90EC900900298FEF745FABCE641
:103B50008C4E0024FC390A082DE9F04782B0044657
:103B600089469246984600F07FFB1E4B68461F68C8
:103B70003E7EFD6C013E3F6D2C445544B2B2B944CB
:103B8000B844A61A5119C2EB09034244ADF80060CB
:103B9000ADF80410ADF80230ADF8062003F014FDC6
:103BA000D8B109F1010708F1FF362A4649462046F7
:103BB00002F024F92A464146204602F01FF9324617
:103BC0003946204602F074F932463946284602F05A
:103BD0006FF903F0B5FB0028E7D101F0DFFA02B07E
:103BE000BDE8F0878C4E00242DE9F04F91B081465E
:103BF0001E460F46904600F037FB5C4B0EA81C6833
:103C0000E56C246D05EB090305EB0802E11934446A
:103C10000B930C9206910994ADF83830ADF83C2026
:103C2000ADF83A10ADF83E4003F0CEFC002800F0AD
:103C300098800C980B9C06991A9D031B099A0133D6
:103C4000521A29440A936D004B1C013202910D93C4
:103C50001A9B079203FB03F31A9A089505931A9B84
:103C6000E3180393831A0493079B089A1946914219
:103C700073DB0A9B194691426FDB069B029A9342C3
:103C80004BDC1D461A9E099B4FF0FF349B1B019392
:103C90001AE0C4EB0904424602F0B0F84A46013487
:103CA0002946204602F0AAF842465146584602F0FC
:103CB000A5F84A465146204602F0A0F80135029B7D
:103CC000013E3C469D422CDC059B06FB1630019BC9
:103CD00003EB060A01F028FE039B041B0746294656
:103CE000C0EB030B012C049B0BEB040800EB030956
:103CF000584608F1FF38CCDC2946584602F0A6F8B1
:103D00002946484602F0A2F85146584602F09EF86D
:103D10005146484602F09AF8D0E7099B1A9A9B1A36
:103D20000193039B06995C1C049B5D1E019B20462E
:103D30002A4603F1FF3B02F061F820462A46099922
:103D400002F05CF80D9C5A460B98214602F0B0F840
:103D50005A4621460C9802F0ABF803F0F1FA00281D
:103D600082D101F01BFA11B0BDE8F08F8C4E002417
:103D700070B582B0064614460D4600F075FA104B39
:103D800068461A68D36C126D1E441544144433B24D
:103D9000ADF80250ADF80640ADF80030ADF8043093
:103DA00003F012FC40B122462946304602F080F86A
:103DB00003F0C6FA0028F6D101F0F0F902B070BDA8
:103DC0008C4E00242DE9F04104460D46164600F0C5
:103DD0004BFA0C4B00201B68DF6CD3F8508003F0CB
:103DE000F3FB50B145443C44324629462046FEF799
:103DF00007FB03F0A5FA0028F6D1BDE8F04101F079
:103E0000CDB900BF8C4E0024F0B583B007461646EE
:103E10001C460D4600F028FA104B68461B68DA6C09
:103E20001B6D174416441D441C44ADF80070ADF8DA
:103E30000460ADF80250ADF8064003F0C5FB48B190
:103E4000234632462946384602F05AF803F078FAFB
:103E50000028F5D101F0A2F903B0F0BD8C4E00248A
:103E60002DE9F04F8BB0814690461C460E4600F07F
:103E7000FBF9314B08A81D68EB6C2F6D03EB0902B1
:103E80004344B9192744069207930591ADF82020C1
:103E9000ADF82430ADF82210ADF8267003F094FB95
:103EA000002843D005990798069C7A1A149D031B95
:103EB00001327F1B6D0001330392149A0493149B0B
:103EC00001EB020804EB020A029503FB03FB831AD1
:103ED0000193029A039913468A4223DC049A93427F
:103EE00020DC059E464517DC149D05FB15B001F04E
:103EF0001BFD019BC0EB0A093146C4180136484638
:103F0000224601F07BFF79192246484601F076FFF0
:103F1000464505F1FF35E8DD31467B1E079A0698D8
:103F200001F0EEFF03F00CFA0028D2D101F036F9CF
:103F30000BB0BDE8F08F00BF8C4E0024034B08216E
:103F400053F82000C3689B6A184700BFC4F20124DD
:103F500010B500F089F902F013F802F06FF9044689
:103F600001F01CF9204610BD10B5044600F07CF9A4
:103F7000054B002120461B68DB695B6898470446B7
:103F800001F00CF9204610BD8C4E002438B50446D3
:103F90000D4600F069F9064B294620461B68DB698F
:103FA0005B689847044601F0F9F8204638BD00BF29
:103FB0008C4E002410B500F057F901F0E9FF02F033
:103FC0003DF9044601F0EAF8204610BD10B500F0B6
:103FD0004BF9034B1B681C7C01F0E0F8204610BD38
:103FE0008C4E002410B500F03FF9044B1B68DB69D0
:103FF0005C7E01F0D3F8204610BD00BF8C4E00243B
:1040000070B504460E46154600F02EF9204631469E
:104010002A4602F035F8044610B1002333602B60C5
:1040200001F0BCF8204670BD10B5044601F0A0FABE
:1040300001462046BDE8104001F032BA044B34225C
:10404000352061219A70187018461971DA7070471E
:10405000744E002410B500F007F90F4B1A68938DC9
:1040600003F00C03082B08D00C2B06D0042B0BD02C
:10407000002401F093F8204610BDD3691C7E01F0A6
:104080008DF86408204610BDD3691C7E01F086F8C7
:10409000013C204610BD00BF8C4E0024024B53F85B
:1040A00020301B6918687047C4F20124024B53F892
:1040B00020301B6958687047C4F2012438B50546A2
:1040C0000C4600F0D1F8044B1B685D849C8401F021
:1040D00065F8002038BD00BF8C4E002490B583B039
:1040E00000AF544A534B1B6823F001031360524B3B
:1040F0001B68C3F30A0340F2494293420CBF0123F9
:104100000023DAB24C4B1B68C3F30A0340F251415F
:104110008B420CBF01230023DBB21343DBB21946F1
:10412000454B1B68C3F30A0340F2524293420CBF53
:1041300001230023DBB20B43002B10D03F4B0122A5
:104140001A6000BF3D4B1B68002BFBD13C4B3D4A26
:104150001A603B4B1B683C4A934218D0FEE73B4B2E
:104160001B68C3F30A03B3F58A6F10D1384B0122E1
:104170001A6000BF364B1B68002BFBD1354B314A10
:104180001A60344B1B68304A934200D0FEE701F0BE
:10419000E3F8314B2E221A700AF00EFC2F4806F07D
:1041A00083FB07F0B5F9786001F094FF0346002B1C
:1041B0000CBF01230023DCB201F0ACFF0346002B4F
:1041C0000CBF01230023DBB22343DBB2002B09D059
:1041D00001F086FF044601F0A3FF0346194620467E
:1041E00002F08CF90021002000F044FF02F0ECFC0A
:1041F000FEF720FE1A4B1B68002B12D00DE0184B67
:104200001B681B68002B03D0154B1B681B68984765
:10421000134B1B685B68124A1360114B1B68002B21
:10422000EDD1104B01221A707B6818460C37BD4641
:1042300090BD00BF002000E0002004E008300240F4
:1042400000300240C2A507F4CDB5E8B50010005C0F
:10425000084C0258004C0258B4F20124CCED012461
:1042600044EE0124BAF201242DE9F041224D6B689D
:1042700023B10AF09FFBAB68984204D00AF0C8FB58
:104280000AF098FBA8606B680133012B6B6001D0CA
:10429000BDE8F081194F3B68002B28DD002426463D
:1042A00005E03AB301363B687C349E421FDA0AF0DF
:1042B00081FB2B681A5923449042F2D17B68B342A8
:1042C000E6D0002B10DBC3EB43132A6802EB830814
:1042D000FFF7ACF92A680A4B1444C8F87800221D8D
:1042E000A06F1A60FFF72AF97E60BDE8F081002414
:1042F0002646E3E71860E1E748EF0124A04E0024DA
:104300008C4E002400B9704710B582B00446FFF708
:10431000ABFF104B1B681B6E9C4217D02046FEF76C
:10432000B3FF4369019063B90068FFF705F901A87D
:10433000FEF7CEFF2046FEF761FE00F02FFF02B031
:1043400010BD184600F010FF0198EDE700F006FEE2
:10435000E4E700BF8C4E002430B5044683B098B12A
:10436000FFF782FF2046FEF78FFF036802AD1B694F
:1043700045F8040D9B68984702F052FA0446284617
:10438000FEF7A6FF00F00AFF204603B030BD00BFD5
:10439000A0B110B5044682B0FFF766FF2046FEF7D5
:1043A00073FF02AB00F1180443F8040D1846FEF742
:1043B0008FFF00F0F3FE204602B010BD704700BF33
:1043C000014B1860704700BFC8EE012400B9704768
:1043D0002DE9F04FA3B08B4692460446FEF754FFFA
:1043E00022AB456943F81C0D1846FEF771FF2046C5
:1043F000FFF7B2FF0828814640DD002D3ED1204660
:10440000FEF742FF22AA0346B0F9081042F8100D49
:1044100010460D92B3F90A200A9109921968DA68D8
:104420000E690B930E92FEF753FF92489249006873
:10443000D6F80480407C51F820100D692B680C934D
:10444000FFF77CFD08280B9B14D910288BBF202276
:104450001022042702270B92AE4200F0F882B9F135
:10446000200F00F0B381B9F1100F00F0458123B0A7
:10447000BDE8F08F082201270B92EDE70021012310
:1044800020467C4E20910DF188080B9121930A93D0
:10449000FEF7FAFE074630683A68FB68B7F908107D
:1044A0001269139314913B69B7F90A10407C099380
:1044B000169148F8147D5568D7F81490FFF73EFD23
:1044C00032680E90507CFFF7F1FD07464046FEF73C
:1044D000FFFE099A0A9B082A0B9940F29D80102A38
:1044E00013460A918CBF042302230C93BD4200F0B3
:1044F000C1813368587CFFF7D1FD149B06469800B4
:10450000FEF724FD10900028B1D02046FFF740FFB1
:104510000446B9F1000F00F088804846FEF7B4FE6B
:10452000169B1E90002B40F3A1810023DDF83880FC
:10453000CDF834A00B93139BCDF848B0E318159336
:104540001FAB19460F93836800225B691F920B9A79
:104550009847159B139A04469B1A0E93149B83420B
:1045600000F0F680099B012B00F08880002842D0E3
:104570001CAB11931098FEF787FE099B07461C9011
:10458000082B1F9A65D90C9BA3460E99824602FB05
:10459000031939F8020BA847B047BBF1010B4AF8E1
:1045A000040BF6D1B8F11F0F04D838464246214615
:1045B00000F0FEFD0A9901231F98224605911299E9
:1045C0001C9F08440021019300930391CDF80880BB
:1045D0000D99049701F08CFA1198FEF779FE1F9B54
:1045E0001E981C440B9A83680F991F945B69984727
:1045F00004460028BED1159A13990B9B0A44013337
:1046000015920D9A0B9301320D92169A9A4200F070
:104610002D811E980F9996E7012A03D120AB0C92A9
:104620000A9363E70C930A9160E701250A9B139AAA
:104630000999059304905846039202915146169B9E
:10464000149A0195009501F053FA1098FEF7D6FCE4
:104650000DE70C9BA2460E99814602FB031B1BF83B
:10466000010BA847B047BAF1010A49F8040BF6D18B
:1046700098E700BF8C4E0024C4F201240028BAD071
:10468000CDF8608019960B9F0A9EDDF83880DDF822
:104690003490DDF848A0DDF83CB017951192DDF8B4
:1046A0007CE02246119D01230EF007004946039548
:1046B000012506900AEB0E00BEF1000F059602954B
:1046C000B8BF0EF1070E0195009508EBEE0ECDF880
:1046D00010E001F097FF1F9B1E983A461C44594674
:1046E00083681F945B69984704460028D7D1179DBB
:1046F000DDF86080199E7EE70A9B03FB07F0FEF75A
:1047000025FC109000283FF4B2AEFEF7BDFD2090CE
:104710002046FEF7B9FD00F118031E900E932B6999
:10472000002B00F0A6817369002B00F0A281B0F984
:1047300008008000FEF70AFC1190002840F0BA81C2
:104740001F900D98FEF7C4FD20A8FEF7C1FD7CE781
:104750001098FEF799FD099B81461C90082B149F29
:104760000446DDF838A028D93AF8020BA847B0472C
:10477000013F44F8040BF7D1B8F11F0F04D84846A5
:104780004246149900F014FD22AB12980D991A4676
:104790000A9B059300230393012352F818EDCDF8EB
:1047A000088017460193149A0093CDF810E001F0A9
:1047B0009FF93846FEF78CFD1DE71AF8010BA84754
:1047C000B047013F44F8040BF7D1D5E70A9B07FB3C
:1047D00003F0FEF7BBFB0E9000283FF448AEFEF757
:1047E00053FD20902046FEF74FFD1E902C6900F1EE
:1047F0001808002C00F0EB800A9A5C4601260A9506
:104800004FEA82099346CDF83090DDF8249017E006
:10481000042F21D0012F15D00B9B0020209D514645
:104820000293012305905A460390204601969A442C
:104830000096049501F05CF9B9F1010900F0E880F7
:10484000022FE5D10C9D40463B465A46A8440A9D9E
:1048500020992D69A847DFE70C9B40460A9D5A46E0
:10486000984420993B462D69A847D5E71EA8FEF736
:104870002FFDEAE62046FFF78BFD8046B9F1000FD9
:1048800000F0D4804846FEF7FFFC169B1E90002BDC
:1048900040F3C88000261FABCDF834A00125B146F7
:1048A000DA461F4683683246CDF87C9039465B690C
:1048B0009847149B0446834231D0099B012B57D063
:1048C00020B30D9B0B9603EB060B1F9801230C994D
:1048D0000A9A01FB008E099E1399504405922246C4
:1048E00003915946CDF810E002960195009501F02C
:1048F000FFF81F9B1E9839461C440B9A83681F942F
:104900005B69984704460028DFD10B9E139B013654
:104910009844169BB34240F385801E98C2E7CDF8B9
:104920002C80B346984600E0A3461E980BF1010484
:104930003946836822465B6998478045F4D00A9AD5
:10494000C6EB0B03DDF82C805046059201330D9A1F
:10495000CDF810809119139E099A03960292019541
:10496000149A06FB03880095264601F0C1F8D0E7AB
:104970000028CBD00D9B0B9603EB060BDDF87CE0FB
:1049800022460A9E01230EF007005946059606901E
:104990000AEB0E00BEF1000F139E0295B8BF0EF198
:1049A000070E0396019508EBEE0E0095CDF810E08A
:1049B00001F028FE1F9B1E9839461C440B9A836801
:1049C0001F945B69984704460028D7D19DE7A1460C
:1049D0000125099E0123022F51460A9A58460AEBE7
:1049E000030E00F0A981042F00F07D819F4200F0AA
:1049F00052810B9CF246CDF814900294209CCDF885
:104A00000C9001950095049401F072F8013EE1D1FB
:104A10000D98FEF75DFC20A8FEF75AFC0E98FEF7F5
:104A2000EDFA24E51EA8FEF753FC20E501240A9BBD
:104A3000139A09990593049058460392029151469E
:104A4000169B149A0194009401F052F80FE50E9A07
:104A50000124183300250392514604935846099BBC
:104A6000CDF808900A9A05950194009401F040F859
:104A7000FDE40125DDF82890099E0123022F51460F
:104A80004A4658460AEB030E00F0D480042F00F08B
:104A9000A0809F426DD0002401950095F2460594B8
:104AA00003940B9C0294209C049401F021F8013E95
:104AB000E3D146E6FEF7E8FB1F9000283FF441AE45
:104AC0000A9A0124CDF828B04FEA420990460C9585
:104AD000CDF83C90B146DDF838B017E0042F2ED069
:104AE000012F28D00B9B0020209D514602930123CB
:104AF0000590424603909A44019400940A980495C4
:104B000000F0F6FF099B013B09932BD0022FE5D162
:104B1000209B1E463B4642461F995846D9F81450E2
:104B2000A8470F9D31463B46AB440C9D42461F981B
:104B30002D69A847D6E7209B1E460223EBE7209B62
:104B400042460F9E58461D461F990223B344D9F88A
:104B50001460B04729460C9D3B4642461F982D697C
:104B6000A847BFE71FA8FEF7B3FB1198FEF746FA68
:104B7000E7E50A9B444609965D000C9E0C95209D36
:104B8000DDF83880DDF8289038F8020BA047B047F0
:104B9000B9F1010905F8010BF6D10E9D01230B981F
:104BA0005146AE460C9D02905846AE44209DCDF82D
:104BB00014909A440A9ACDF80C90019700970495A6
:104BC000CDF838E000F094FF099B013B0993D6D162
:104BD000B7E50A9B0125099644465E000C9F0C969A
:104BE000209EDDF83880DDF8289038F8020BA047C9
:104BF000B847B9F1010946F8040BF6D10E9E01231E
:104C00000B985146B6460C9E02905846B644209EDC
:104C1000CDF814909A440A9ACDF80C90019500951D
:104C20000496CDF838E000F063FF099B013B09933F
:104C3000D6D186E50A9B0125099644465E000C9F65
:104C40000C96209EDDF83880DDF8289038F8020BAD
:104C5000A047B847B9F1010926F8020BF6D10E9E1C
:104C600001230B985146B6460C9E02905846B64416
:104C7000209ECDF814909A440A9ACDF80C90019594
:104C800000950496CDF838E000F032FF099B013B17
:104C90000993D6D155E595000C9C09960C95209D5D
:104CA0004646DDF8289056F8040BA047B9F10109F3
:104CB00005F8010BF7D10B980123209E5146029075
:104CC0005846CDF814909A440A9ACDF80C90019762
:104CD000009704960C9D00F00BFF099BA844013B34
:104CE0000993DCD194E60996012596000C9C0C965C
:104CF000209E4746DDF8289057F8040BA047B9F1ED
:104D0000010946F8040BF7D10B980123209F514667
:104D100002905846CDF814909A440A9ACDF80C9017
:104D20000195009504970C9E00F0E2FE099BB044AB
:104D3000013B0993DCD16BE60996012596000C9C9A
:104D40000C96209E4746DDF8289057F8040BA047A4
:104D5000B9F1010926F8020BF7D10B980123209F26
:104D6000514602905846CDF814909A440A9ACDF8CC
:104D70000C900195009504970C9E00F0B9FE099BDC
:104D8000B044013B0993DCD142E600BF1B4B1C4AF7
:104D90001968136AF0B5002B487C1A4B83B00CBF1E
:104DA000044600241D57012D26DD02EB84010B690A
:104DB0005E1C0E6103BB8E681F4652F824203346EA
:104DC00003E0A2428C60134607D15C1CAC42F8D1D0
:104DD00000248F601346A242F7D0FEF729FC019011
:104DE00050B1C368212101A85B6A9847034618B1F6
:104DF000224631460198984703B0F0BD8C4E0024FE
:104E000068EE0124C0F20124094B1A6A002A18BF77
:104E1000002003EB800210B49469002C04DB4FF0F7
:104E2000FF3443F8201094615DF8044B704700BFD5
:104E300068EE0124174A184B11681A6A70B5002AE7
:104E40004D7C164A82B00CBF2C4600241257012A12
:104E500005DD03EB84042369013B23610BB102B040
:104E600070BD0120A840FEF7BDFAA6682846A661DD
:104E7000FEF7DEFB01900028F1D0C368222101A8D3
:104E80005B6A984703460028E9D031460198984765
:104E900002B070BD8C4E002468EE0124C0F20124E3
:104EA00058B311B30AB3B1F90030F0B5B2F90050FC
:104EB000B2F902E0B1F902409D42B2F90470B2F9D0
:104EC0000660A8BF1D46B1F904207445B1F906304B
:104ED000A8BF7446BA420580B8BF3A46B342448080
:104EE000B8BF33468280C380F0BD002908BF114699
:104EF0000A684B68026043607047704778B189B2B6
:104F0000C38892B270B40688448885880E441444DD
:104F10001A442944068044808180C28070BC704756
:104F2000B0F90220B1F906309A4214DCB1F902203E
:104F3000B0F906309A420EDCB0F90020B1F9043025
:104F40009A4208DCB0F90400B1F900308342CCBFCA
:104F50000020012070470020704700BF08B5FFF710
:104F600083F901F043FA01F03BFB01F08DFCBDE851
:104F7000084000F013B900BF70B50D4D04462B6812
:104F80005E7CFFF771F9012C03D900F007F9304678
:104F900070BD2046FEF74CFB0028F6D02B685C74F1
:104FA000FFF7DCFF034B1C6000F0F8F8304670BDE3
:104FB0008C4E002408F9012410B50446FFF754F97B
:104FC000204601F035FABDE8104000F0E7B800BF18
:104FD00010B50446FFF748F9204602F0E3F804460E
:104FE00000F0DCF8204610BD10B50446FFF73CF990
:104FF000204601F057FABDE8104000F0CFB800BFDE
:1050000038B50446FFF730F9044B1B68DD6904B17D
:10501000DC6100F0C3F8284638BD00BF8C4E002488
:10502000024BDA69D8611046704700BF94EE012444
:1050300010B418B111B10346002002E00021012094
:105040000B46034C034A216013605DF8044B704724
:10505000CCF20124D0F20124014B1860704700BF4C
:105060007C4E0024024B5A6858601046704700BFBF
:10507000904E002470B505460C46FFF7F5F8094A36
:10508000094B294610682246084E407C358053F86B
:105090002000074DC3682C801B6A9847BDE870400C
:1050A00000F07CB88C4E0024C4F20124B6F2012436
:1050B000B8F2012438B50546FFF7D6F8044B1B6853
:1050C000B3F92A405D8500F069F8204638BD00BF7D
:1050D0008C4E0024024B1B6803B11847704700BF79
:1050E0005CEF0124024B1A6802B91860FFF7F2BFA7
:1050F000E8EE0124F8B5084E0546046833682046FA
:105100001B6898473368074620465B689847044405
:1051100038462C60F8BD00BFD8F20124F8B569B15B
:1051200005460C460026064F3B6828465B689847B4
:10513000013C05440644F7D13046F8BD0E46FBE776
:10514000D8F201242DE9F843089C05468946984683
:10515000A96843462846561C4F684946B847013C53
:105160003246F5D1BDE8F88330B5054683B0FFF788
:105170007BF82846FEF788F8034602A89C8940F889
:10518000043D013C24B29C81FEF7A2F814B92846E4
:10519000FDF734FF00F002F803B030BD034A536856
:1051A000013B536003B1704709F042BC48EF012452
:1051B000082A10B40EDD102A1CDC00EB4101034666
:1051C00050F8042B23F8022B9942F9D101205DF805
:1051D000044B7047022A11D0042A00F09A80012A59
:1051E0003FD00144034650F8042B03F8012B9942A9
:1051F000F9D1EBE700205DF8044B704700F1100295
:1052000052F8103C01294FEA8313DBB226D052F842
:105210000C4C02294FEA041404F0300443EA04035E
:105220001CD052F8084C03294FEA840404F00C0403
:1052300043EA040312D052F8044C043902F110027C
:1052400004F0030443EA040300F8013BBED052F823
:10525000103C01294FEA8313DBB2D8D1037001203F
:10526000B5E700F1200252F8203C01294FEAC313B0
:10527000DBB2F3D052F81C4C02294FEA841404F03C
:10528000400443EA0403E9D052F8184C03294FEADA
:10529000441404F0200443EA0403DFD052F8144C11
:1052A00004294FEA041404F0100443EA0403D5D09F
:1052B00052F8104C05294FEAC40404F0080443EAEC
:1052C0000403CBD052F80C4C06294FEA840404F0B6
:1052D000040443EA0403C1D052F8084C073902F130
:1052E00020024FEA440404F0020443EA0403B5D068
:1052F00052F8244C012904F0010443EA040300F8A5
:10530000013B52F8203C4FEAC313DBB2B2D1037029
:10531000A5E700F1080454F8083C01294FEA0313FB
:10532000DBB213D054F8042C023904F1080402F063
:105330000F0243EA020300F8013B3FF447AF54F881
:10534000083C01294FEA0313DBB2EBD10370084696
:105350005DF8044B704700BFF0B51C4E85B0F36F8D
:105360000BB105B0F0BD1A4B6F4604AD4FF0010E06
:1053700006F18004C6F87CE00FCB07C7190C15F8BE
:10538000102D27F8023B397004F8012B15F8012F76
:10539000002AF9D1FEF752FE234610F8012B1946D8
:1053A00003F8012B0278002AF7D14A7009F0F0FACD
:1053B000FDF792FD0FF006FF064B0748C6F8943044
:1053C00005B0BDE8F04000F027BA00BFCCED0124E5
:1053D000EC390A0829AA000860EE01242E4B1B684C
:1053E0002DE9F041044682B00D4683B1002002F061
:1053F000EBF848B16E4632462946204603F0C2F922
:1054000001F09EFF0028F6D102B0BDE8F081DFF880
:105410008C806B4610686E46D8F800705168B7F8FB
:105420004CC0B7F850E003C3BDF800706846BDF843
:105430000410BDF802206744BDF806306144724490
:10544000ADF800707344ADF80410ADF80220ADF86B
:10545000063002F0B9F860B9D8F80030598C9A8C4F
:10546000DC6C186D091B121A59849A8402B0BDE8CD
:10547000F081D8F800303246BDF802002946BDF868
:105480000070988420465F8403F07CF901F058FF97
:105490000028EED1E0E700BFD4F201248C4E0024B6
:1054A00070B584B01C4A04AB019043F8101D194636
:1054B00013689847019050B3184B1B68DB695B6910
:1054C0002BB11B681BB10099984704B070BD009BBD
:1054D000013B002B00931CDB002401A8FFF70AFE10
:1054E0000546FEF741FD009B0444013B002B009361
:1054F000F3DA002604A9284641F8046DFEF746FDBC
:10550000039B9842B8BF1E1A301904B070BD04B096
:1055100070BD00252C46ECE79C4E00248C4E0024E8
:1055200030B583B00190E0B1104B0D461B68DB69CC
:105530005B6923B15B6813B1984703B030BD002DA0
:1055400011DD002401A8FFF7D5FD38B10A2805D0E8
:105550000134A542F6D1284603B030BD204603B041
:1055600030BD03B030BD0020E7E700BF8C4E002403
:10557000F8B5044688B10026094D00E001362B68D5
:1055800020461B6898472B68074620465B6898476B
:105590000444002FF2D13046F8BD06463046F8BD2F
:1055A000D8F20124B1F90030B0F900209A42B0F9E4
:1055B0000220B8BF0380B1F902309A42B0F904204A
:1055C000B8BF4380B1F904309A42B0F90620C8BF91
:1055D0008380B1F906309A42C8BFC380704700BFCC
:1055E000B2F90030F0B5B1F90040B1F90250B2F9AA
:1055F00002E0A342B2F90470B8BF2346AE45744638
:10560000B2F90660B8BF2C46B1F90450B1F90620D2
:105610003946AF4203804480A8BF2946B242A8BFA2
:10562000324681809442D8BF8B42C280CCBF0123D6
:10563000002383F00100F0BD3A4B1B682DE9F041D7
:105640005D7C82B0012D03DD012002B0BDE8F08158
:10565000354E0446736813B1014628469847012C1D
:1056600027D0022C0FD0002CEED1AC00DFF8B88090
:105670003719BB68012B3AD001202644002B18BFF4
:10568000013BB360E1E72846FDF7D2FF0190002817
:10569000DAD0C3680D2101A85B6A98470446002848
:1056A000D2D0336803B1984702210198A047002067
:1056B000CBE706EB8506B7681FB101372046B76018
:1056C000C3E72846FDF7B4FF01900028BCD0C368AB
:1056D0000D2101A85B6A984703460028B4D02146F3
:1056E00001989847B36838460133B360ADE7284660
:1056F000FDF79EFF019088B1C3680D2101A85B6A88
:105700009847054650B1D8F8003003B198470021BA
:105710000198A847331900209B68AEE7BB680120B9
:10572000ABE700BF8C4E002494EF01240B0E4FEA30
:105730001063F0B408BF20F07F41114C02FB03F26C
:1057400000F0FF160D0A01F0FF13A4FB0212C0F3D4
:10575000072005F0FF15D20940F08074C2F1FF0761
:1057600002FB06F107FB05F007FB031102FB040037
:10577000090A00F0FF2001F0FF11F0BC0843704758
:10578000818080802DE9F04F87B09246139A019076
:105790000291109B9DF85090002A35D0129A00215A
:1057A000DFF86CB09200DFF86C80039102EB8303AA
:1057B00005920493129C5746029E019D55F8040BD6
:1057C000DBF80030020E56F8041B40F07F4009FB66
:1057D00002F2A8FB02E2C2F3C7129847013C40F074
:1057E0007F4047F8040BE9D1019A05991046029AC7
:1057F0008A44039B0844049901330A4401900393AB
:105800000292139A9A42D5D107B0BDE8F08F00BF3B
:10581000904E00248180808080B483B000AF786097
:10582000064B1A687B685A60044A7B68136000BFA5
:105830000C37BD465DF8047B704700BF40EE012485
:10584000F8B506464AB18407C9B208D001E083071B
:1058500005D0013A00F8011BF9D13046F8BD970890
:105860003B464FB301EB0124032F02F0030204EB8C
:10587000044415D900F110033D46043D43F8104C93
:1058800043F80C4C1033032D43F8184C43F8144CD8
:10589000F3DC043FBB085D1CA7EB830300EB0510A2
:1058A00043B1012B046003D0022B446018BF846015
:1058B00000EB8300002AD0D0FBF7FEF83046F8BD9D
:1058C00070B4840702D50180013A023056080DD029
:1058D000032E334601EB01440DD8012B046003D0A5
:1058E000022B446018BF846000EB8300D30770BCB8
:1058F00048BF0180704700F110033546043D43F86E
:10590000104C43F80C4C1033032D43F8184C43F85B
:10591000144CF3DC043EB3085D1CB6EB830300EBD0
:105920000510DAD1E2E700BFB0F1804F2BBF4FF096
:10593000004300234FF0804200225B08801A03F1ED
:10594000805203F1005190422CBF0B4600225B08AD
:10595000821A03F1806103F100608A422CBF034682
:1059600000215B08501A03F1807203F1007190422C
:105970002CBF0B4600225B08811A03F5800203F559
:10598000000091422CBF034600225B088A1A03F5EF
:10599000801103F500108A422CBF034600215B08EA
:1059A000501A03F5802203F5002190422CBF0B46CC
:1059B00000225B08811A03F5803203F50030914222
:1059C0002CBF034600225B088A1A03F5804103F5C9
:1059D00000408A422CBF034600215B08501A03F5A1
:1059E000805203F5005190422CBF0B4600225B0809
:1059F000811A03F5806203F5006091422CBF0346D3
:105A000000225B088A1A03F5807103F500708A4250
:105A10002CBF034600215B08501A03F1400203F13A
:105A2000800190422CBF0B4600225B08811A03F1D3
:105A3000100203F1200091422CBF034600225B08B4
:105A40008A1A191D03F108008A422CBF034600215F
:105A50005B08521A581C991C904294BF084618467D
:105A600040087047044A054B1268527C53F82230B4
:105A70001B691B68184700BF8C4E0024C4F2012428
:105A8000C0F30721C0F30743C0B2994210B40AD152
:105A9000884208D1083314485DF8044BA0FB03305A
:105AA00000097830704700EB8000104C03EB830254
:105AB0007F3001EB81017F32A4FB00307F31A4FBFA
:105AC0000232A4FB0131C009D2095DF8044B00EB9E
:105AD000C000C90902EB800301EB410003EB400069
