:020000040800F2
:100000000867002441040008832E0008C92C00085A
:10001000812E000813090008C94F000800000000E5
:100020000000000000000000000000008103000844
:100030007509000800000000DD0300084B320008CD
:100040005B0400085B0400085B0400085B04000814
:100050005B0400085B0400085B0400085B04000804
:100060005B0400085B0400085B0400085B040008F4
:100070005B0400085B0400085B0400085B040008E4
:100080005B0400085B0400085B0400085B040008D4
:100090005B0400085B0400085B0400085B040008C4
:1000A0005B0400085B0400085B0400085B040008B4
:1000B0005B0400085B0400085B0400085B040008A4
:1000C0005B0400085B0400085B0400085B04000894
:1000D0005B0400085B0400085B0400085B04000884
:1000E0005B0400085B040008000000005B040008DB
:1000F0005B0400085B0400085B0400085B04000864
:100100005B0400085B0400085B0400085B04000853
:100110005B0400085B0400085B0400085B04000843
:100120005B0400085B0400085B0400085B04000833
:100130005B0400085B0400085B0400085B04000823
:1001400000000000000000000000000000000000AF
:100150005B0400085B0400085B0400085B04000803
:100160005B0400085B0400085B0400085B040008F3
:100170005B0400085B0400085B040008000000004A
:100180005B0400085B0400085B0400085B040008D3
:100190005B0400085B0400085B0400085B040008C3
:1001A0005B0400085B0400085B0400085B040008B3
:1001B0005B0400085B0400085B0400085B040008A3
:1001C0005B0400085B0400085B0400085B04000893
:1001D0005B040008852E00085B0400085B0400082F
:1001E0005B0400085B0400085B0400085B04000873
:1001F0005B0400085B0400085B0400085B04000863
:100200005B0400085B0400085B0400085B04000852
:100210005B0400085B0400085B0400085B04000842
:100220005B0400085B0400085B0400080000000099
:100230005B0400085B040008000000005B04000889
:100240005B0400085B0400085B0400085B04000812
:100250005B0400085B0400085B0400085B04000802
:100260005B0400085B0400085B0400085B040008F2
:100270005B0400085B0400085B0400080000000049
:100280005B0400085B0400085B0400080000000039
:10029000000000005B04000800F002F800F061F8C4
:1002A0000AA090E8000C82448344AAF10107DA45D1
:1002B00001D100F056F8AFF2090EBAE80F0013F0C2
:1002C000010F18BFFB1A43F001031847D85800006C
:1002D000F85800000A444FF0000C10F8013B13F0EE
:1002E000070408BF10F8014B1D1108BF10F8015B8F
:1002F000641E05D010F8016B641E01F8016BF9D182
:1003000013F0080F1EBF10F8014BAD1C0C1B09D1D8
:100310006D1E58BF01F801CBFAD505E014F8016B4A
:1003200001F8016B6D1EF9D59142D6D370470000DC
:100330000023002400250026103A28BF78C1FBD8EE
:10034000520728BF30C148BF0B607047752900F0C5
:10035000B180002070471FB505F000FC1FBD10B52F
:1003600010BD00F0A0FA1146FFF7F5FF04F03EFEC5
:1003700000F0BEFA03B4FFF7F2FF03BC00F0C2FACC
:100380002C4B19680868B0E8F04F80F30988BFF378
:100390006F8F4FF0000080F311887047000000005D
:1003A00008480068006880F308884FF0000080F378
:1003B000148862B661B6BFF34F8FBFF36F8F00DF53
:1003C00000BF00BF08ED00E0DFF80C00016841F459
:1003D00070010160704700BF88ED00E0EFF3098015
:1003E000BFF36F8F134B1A681EF0100F08BF20ED7C
:1003F000108A20E9F04F106009B44FF0500080F3EC
:100400001188BFF34F8FBFF36F8F05F0BBF94FF02B
:10041000000080F3118809BC19680868B0E8F04F43
:100420001EF0100F08BFB0EC108A80F30988BFF3EC
:100430006F8F704718000024EFF3058070470000AD
:100440000948804709480047FEE7FEE7FEE7FEE768
:10045000FEE7FEE7FEE7FEE7FEE7FEE704480549A4
:10046000054A064B7047000049330008990200080E
:10047000086100240867002408630024086300243E
:100480000FB41CB50C0007AA009001D02044401EF8
:10049000074B7B4469460190069800F0E4F9002C74
:1004A00003D06946002000F0F1F91CBC5DF814FB94
:1004B000010400002DE9F04106460024106875296A
:1004C000314616A510D0AFF30080002802DA404272
:1004D00013A507E031688A0701D512A502E0490794
:1004E00004D511A5012401E0AFF3008000210A2208
:1004F00006F1240709E0B0FBF2FCB0FBF2F302FBCB
:100500001C00303078541846491C0028F3D123468B
:100510002A463046BDE8F04100F046B90000000030
:100520002D0000002B000000200000002DE9F0410C
:100530000F460546002028622846E968884770B3C0
:10054000252805D0D5E901219047286A401CF2E70B
:10055000E9682846002688476C2804460AD0682C9B
:1005600008D04C2C35D06A2C31D0742C31D07A2C58
:100570002FD016E0E968064628468847B042044670
:1005800008D16C2E23D04FF480662846E96888474E
:10059000044606E06C2E03D04FF4807601E01EE0A6
:1005A0004026E4B1A4F14100192802D8203446F4D1
:1005B00000663A46214628462E60FFF7C7FE60B126
:1005C000012808D0FF1D27F007070837B4E7802669
:1005D000DBE70026D9E73F1DAEE72046B2E7286AF1
:1005E000BDE8F08110B5431C02E010F8011B71B1A9
:1005F0008107FAD14FF0013202C88C1A8C4314EAF9
:10060000C211F9D0C01A0A0603D0C01E10BDC01A0C
:1006100010BD0A0401D0801E10BD0902FCD0401E8E
:1006200010BD032A40F2308010F0030C00F015805A
:1006300011F8013BBCF1020F624498BF11F801CBE5
:1006400000F8013B38BF11F8013BA2F1040298BF4A
:1006500000F801CB38BF00F8013B11F0030300F0B4
:100660002580083AC0F0088051F8043B083A51F858
:1006700004CBA0E80810F5E7121D5CBF51F8043B5D
:1006800040F8043BAFF30080D20724BF11F8013BD0
:1006900011F801CB48BF11F8012B24BF00F8013B32
:1006A00000F801CB48BF00F8012B704710B5203A85
:1006B000C0F00B80B1E81850203AA0E81850B1E81B
:1006C0001850A0E81850BFF4F5AF5FEA027C24BFD1
:1006D000B1E81850A0E8185044BF18C918C0BDE8C8
:1006E00010405FEA827C24BF51F8043B40F8043B91
:1006F00008BF7047D20728BF31F8023B48BF11F846
:10070000012B28BF20F8023B48BF00F8012B70479F
:100710004FF000020429C0F0128010F0030C00F02A
:100720001B80CCF1040CBCF1020F18BF00F8012BA8
:10073000A8BF20F8022BA1EB0C0100F00DB85FEA76
:10074000C17C24BF00F8012B00F8012B48BF00F842
:10075000012B70474FF0000200B5134694469646B1
:10076000203922BFA0E80C50A0E80C50B1F12001C4
:10077000BFF4F7AF090728BFA0E80C5048BF0CC072
:100780005DF804EB890028BF40F8042B08BF7047D0
:1007900048BF20F8022B11F0804F18BF00F8012B42
:1007A00070477047704770472DE9F0470D469946EE
:1007B0009246044600F124080168880604D5E069E1
:1007C00021F01001216000E00120A84201DD471B5B
:1007D00000E00027A1697A1902EB0900081AA0615C
:1007E0002078C00602D42046AFF30080002608E03F
:1007F000D4E901211AF806009047206A401C761CB3
:1008000020624E45F4DB2078C0060AD52046AFF3BF
:10081000008006E0D4E9012130209047206A401C86
:100820002062381EA7F10107F4DC07E0D4E90121BA
:1008300018F805009047206A401C2062281EA5F188
:100840000105F3DC2046AFF300802078000602D5D6
:100850000220BDE8F0870120FBE7000001694A1C87
:1008600002610878704700B58FB0CDE901310021F1
:10087000059105497944CDE9031011466846FFF713
:1008800055FE0FB000BD0000E5FFFFFF0A6802F84B
:10089000010B0A607047D1E900239A4202D2531C2F
:1008A0000B6010707047754600F028F8AE460500E2
:1008B0006946534620F00700854618B020B5FFF77B
:1008C000CDFDBDE820404FF000064FF000074FF08F
:1008D00000084FF0000B21F00701AC46ACE8C0095E
:1008E000ACE8C009ACE8C009ACE8C0098D46704767
:1008F0000446AFF300802046FFF73CFD00487047F8
:10090000A460002401491820ABBEFEE726000200C7
:100910007047FEE70020704700207047064900221C
:1009200010B501F5006002F063FF044901F5805045
:1009300002F051FF002010BDC44A0024C44200242C
:1009400003F01EBE00207047094A10B5D2F8BC2241
:10095000D2F814220AB1012010BD0A46014604480B
:1009600002F046FFBDE81040014802F0B7BF0000AA
:10097000C4520024704772B6FEE700009AB002F03D
:1009800055FA642004F06AFB282214A110A8FFF78E
:100990008DFE10A8FFF726FE81B210A8FFF7D4FF46
:1009A000184C00254FF4FA762078012811D1402107
:1009B0006846FFF7CFFE6368402113A26846FFF741
:1009C0005FFD6846FFF70EFE81B26846FFF7BCFF89
:1009D0002570304604F042FBE6E700005B555342C9
:1009E0002052656164795D2053656E642064617492
:1009F0006120746F207465737420726563762E2E87
:100A00002E0D0A007801002444656275673A205271
:100A10006563762064617461206C656E203D2025DD
:100A20006C750D0A0000000070B5044600F030F946
:100A30000546601C02D004480078044400F028F900
:100A4000401BA042FAD370BD040000242DE9F84FEA
:100A500003247D4D00234FF001094FF0B04B4FF0C0
:100A60000F0AE9E009FA03F73A4076D00E7906F06A
:100A70000306012E01D0022E18D1D0F808C04FEA8B
:100A8000430ECE6804FA0EF82CEA080C06FA0EF6AD
:100A900046EA0C068660D0F804C00E792CEA070CF2
:100AA000C6F300169E4046EA0C0646600E79F643F1
:100AB000B6070BD0C6684FEA43088F6804FA08FCF3
:100AC00026EA0C0607FA08F73743C7600E7906F0E6
:100AD0000306022E12D1DE080F694FEA437C00EBB9
:100AE0008606B646366A4FEADC6C0AFA0CF807FA54
:100AF0000CF726EA08063743CEF820700F7906680F
:100B00004FEA430807F0030704FA08FC07FA08F75E
:100B100026EA0C06374307604E6816F4403F1CD0A7
:100B20004A4E376847F00207376036689F0706F07D
:100B30000206009623F0030606F1B046B6463F0FC4
:100B4000D6F80864DFF808810AFA07FC404526EA6F
:100B50000C0603D14FF0000C41E06CE0DFF8F4C06C
:100B6000604502D14FF0010C39E0DFF8ECC0604580
:100B700002D14FF0020C32E0DFF8E0C0604502D154
:100B80004FF0030C2BE0DFF8D8C0604502D14FF0E6
:100B9000040C24E0DFF8CCC0604502D14FF0050C16
:100BA0001DE0DFF8C4C0604502D14FF0060C16E02E
:100BB000DFF8B8C0604502D14FF0070C0FE0DFF856
:100BC000B0C0604502D14FF0080C08E0DFF8A4C0C7
:100BD000604502D14FF0090C01E04FF00A0C0CFA0D
:100BE00007FC4CEA060CCEF808C44F68DBF800603E
:100BF000FF0226EA020600D516435F46CBF80060E6
:100C0000D1F804C0DBF804605FEA8C2C26EA020607
:100C100000D516437E606E684F6826EA0206BF0361
:100C200000D516436E602E684F6826EA0206FF0361
:100C300000D516432E605B1C0A6832FA03F67FF477
:100C400011AFBDE8F88F000080000058F44402584E
:100C5000000002580004025800080258000C025814
:100C6000001002580014025800180258001C0258C4
:100C700000200258002402580AB18161704709041B
:100C8000FBE7000001480068000C70470010005CA2
:100C90000148806870470000040000240248816811
:100CA000027811448160704704000024032010B5CD
:100CB00000F0D8F801F098FC0F4A10491468136846
:100CC000C4F3032203F00F038A5CC95C02F01F0225
:100CD00001F01F01D0400A4A20FA01F111600949D0
:100CE00008600F2000F010F808B1012010BD00F0DE
:100CF00079F8002010BD000018440258845B0008F9
:100D0000140000241000002470B50D4D044628780E
:100D1000A0B14FF47A71B1FBF0F00A490968B1FB58
:100D2000F0F001F0BEFF48B9102C07D20022214696
:100D3000501E00F077F800206C6070BD012070BD7F
:100D40000400002410000024154BF0B5083B427845
:100D500013491A600B680A1F23F001030B604368F4
:100D60001360057BC67A827A437B2D07847B45EA34
:100D70000665C77B90F809C0067A90F800E045EA5E
:100D8000C24040EA834040EA444040EA074040EA2B
:100D90000C2040EA460040EA0E000860F0BD00006A
:100DA000A0ED00E0BFF35F8F044800210368034A11
:100DB00023F48033036070321160704724ED00E04B
:100DC000074A40F00100064970321060086840F49C
:100DD00080300860BFF34F8FBFF36F8F7047000004
:100DE00024ED00E0074882B0016841F00201016093
:100DF000006800220F2100F002000090901E02B057
:100E000000F010B8F4440258002809DB410900F052
:100E10001F028900012001F1E0219040C1F800018A
:100E2000704700000E4BF0B41B680D46C3F302235D
:100E3000C3F10706042E00D90426191D072901D283
:100E4000002300E0DB1E012404FA06F19C40491E49
:100E50002940641E994014402143F0BC04F0B5B809
:100E60000CED00E0064900F0070210B54FF6FF0454
:100E70000868044B204040EA02201843086010BD77
:100E80000CED00E00000FA0501680123C0F8D83439
:100E9000002280F8CC248869044A40F00060886110
:100EA000486D1043486500207047000003000010A3
:100EB00070470068416200207047F0B503685D6AC2
:100EC00039B19F6A4C1E00204FF4827605EB17451E
:100ED0000BE045EA0240986210E0471C06EB8000F8
:100EE00053F800C0F8B205EB1C45A042F5D34FF40F
:100EF000807000EB810045EA02421A500020F0BDEC
:100F0000D0F8E00402F08BBF01EBC10200EB8202DB
:100F1000D0F8E004126A02F0DEBE01EBC10200EB81
:100F20008202D0F8E004D2F8602202F030BFD0F89C
:100F3000E00402F076BF0A0601F00F0101EBC101E7
:100F400000EB810101D5143101E001F51571006854
:100F500003F086BE01F00F020B0670B502EBC20172
:100F600004464FF001004FF0000504EB810102D56B
:100F70004875143103E081F8555201F515710A7076
:100F800094F89424012A08D084F89404206803F08B
:100F900087FB002084F8945470BD022070BD70B5AA
:100FA0000279044601F00F00904201D9012070BD82
:100FB00001F00F024FF000050B0602EBC2014FF0EB
:100FC000010204EB810102D54A75143103E081F876
:100FD000555201F515718D70087094F8940401282C
:100FE00008D084F89424206803F0C4FC002084F81E
:100FF000945470BD022070BD01F00F0101EBC101DE
:1010000000EB8100D0F8680270472DE9F04101F053
:101010000F0604460D064FF0010006EBC6014FF027
:10102000000504EB810102D54875143103E081F815
:10103000555201F515714F788A600B710E7007B12A
:101040004E83022B00D14D7194F89424012A09D0CB
:1010500084F89404206803F045FA284684F89454F0
:10106000BDE8F0810220FBE770B501F00F05002418
:1010700005EBC50100EB810101F5187181E81C0049
:1010800001F80B4C01F80C5D8379012B00D1CA618A
:101090008279006803F0C6FC002070BD70B50D4673
:1010A0000179044605F00F00884201D9012070BD86
:1010B00029064FF000064FF0010206D500EBC001F3
:1010C00004EB81014A75143107E005EBC50104EB1F
:1010D000810181F8556201F515718A70087094F8E4
:1010E0009404012807D084F89424206803F06EFC4F
:1010F000280702D007E0022070BDA17904F29C42CB
:10110000206803F00BFC002084F8946470BD70B577
:1011100001F00F04002504EBC401012600EB81015E
:10112000203181E82C0001F80B6C01F80C4D83791B
:10113000012B00D1CA618279006803F073FC0020A2
:1011400070BD00002DE9FC5F05680446284603F0E9
:1011500023FE00287ED1206803F04AFE002879D0C3
:10116000D5F80808C0F30D20C4F8D404206803F0B3
:101170003FFE800704D52068416901F0020141610A
:10118000206803F035FEC10604F29C40009035D57E
:101190002068816921F0100181612F6A07F00F0139
:1011A000C7F3434001EBC101022804EB810606F5B9
:1011B000157602D0062812D01BE047F6F0700742E1
:1011C00017D0C7F30A12F1681746284603F014FE39
:1011D0007169F068394471613844F06009E0009940
:1011E0000822284603F008FE7069C7F30A11084474
:1011F00070612068816941F010018161206803F00D
:10120000F7FD00034FF0080B4FF0000A4FF0010903
:101210007CD52068002603F0CAFD074674E0F80775
:1012200070D02068F1B203F0DBFD8046C00707D024
:1012300005EB4611C1F8089B3146204601F028FE17
:101240005FEA087024D505EB4611C1F808BBFA49DE
:10125000206800E03EE2026C00EB461001928A42F8
:10126000D0F8081B05D9090403D54FF40041C0F894
:10127000081B204600F01FFBEF490198884207D960
:10128000A079012804D120680121009A03F046FBCF
:101290005FEAC86004D505EB46111020C1F8080BC1
:1012A0005FEA88701DD56869000605D5D5F8040881
:1012B00040F48061C5F8041806EBC60004EB80001A
:1012C00090F8571200F51570012905D180F803A098
:1012D0002046F1B200F004FA05EB46110220C1F8F5
:1012E000080B5FEA886004D505EB46112020C1F8A1
:1012F000080B5FEA884005D505EB46114FF4005016
:10130000C1F8080B7F08761C002F88D1206803F0F5
:101310006FFD40036ED5206803F042FD00260746AE
:1013200066E0F80762D02068F1B203F047FD80461E
:10133000C00723D0D5F8342806F00F0105EB46137B
:1013400009FA01F18A43C5F83428C3F80899A0794D
:1013500001280FD106EBC60004EB8000D0E907217D
:101360001144016236B9606A20B920680121009AEF
:1013700003F0D4FA2046F1B2FFF7C6FD5FEA087029
:1013800003D505EB4611C1F808B95FEAC86004D57A
:1013900005EB46111020C1F808095FEA486004D542
:1013A00005EB46114020C1F808095FEA887016D5A0
:1013B0003146284603F0C5FC06EBC60004EB80006E
:1013C000C17D1430012905D180F803A02046F1B277
:1013D00000F082F905EB46110220C1F808095FEA26
:1013E000086003D53146204601F0B8FD7F08761C21
:1013F000002F96D1206803F0FBFC002811DAD5F805
:10140000040820F00101C5F8041894F8CC04012860
:101410003BD0204600F034FA2068416901F00041D9
:101420004161206803F0E4FC00050BD5D5F80808FD
:10143000C00702D0204600F067FA2068416901F435
:1014400000614161206803F0D3FC00010AD52068E7
:10145000416901F00061416194F8CC04E0B120469B
:1014600000F052FA206803F0C3FCC00472D5D5F82E
:10147000040820F00101C5F804182068102103F0C9
:1014800060FC00214FF67F322DE00021204684F8D9
:10149000CCA4FFF70DFDBFE784F8CC942068406D25
:1014A0000121C0F38300C4F8D0042046FFF700FDFB
:1014B000D8E700BF05EB4110C0F80829D0F8003983
:1014C00023F40013C0F80039C0F8082BD0F8003B13
:1014D00023F40013C0F8003BD0F8003B43F0006356
:1014E000C0F8003B491C20798842E3D8D5F81C0895
:1014F00040F00111C5F81C18E07B68B1D5F88408EC
:1015000040F00B01C5F88418D5F8440840F00B01F1
:101510002846C5F844180DE0D5F8140842F22B010E
:101520000843C5F81408D5F8100840F00B01284608
:10153000C5F81018D0F8000820F4FE61C5F80018AE
:10154000A1792068009A03F0E9F92068416901F463
:1015500080514161206803F04BFC800415D5206860
:1015600003F000F8206803F00AFCE07101F01AF8BB
:10157000E2790146206803F09FFC204600F06AF9FA
:101580002068416901F400514161206803F030FC9A
:10159000000707D5204600F077F92068416901F07F
:1015A00008014161206803F023FC000616D5A869F4
:1015B000012620F08001A9610DE000BF06EBC60006
:1015C00004EB800090F85702012803D12046F1B2C5
:1015D000FFF7B1FC761C2079B042EFD8206803F009
:1015E00007FCC0021FD501264F4614E006EBC601DA
:1015F00005EB461004EB8101D0F800090A7E012AB0
:1016000008D1002806DAF0B2CF7540F080012046FC
:10161000FFF791FC761C2079B042E7D82068416939
:1016200001F480114161206803F0E2FB800234D5AF
:1016300001204B4629E000000A30544F00EBC00265
:1016400005EB401104EB8202D1F8001B92F85862BE
:10165000012E19D1002917DA94F8D46401F48031ED
:1016600006F00106B1420FD182F85732A96941F064
:101670008002AA616969090606D4D5F8040840F415
:101680000070C5F8040803E0401C21798142D5D8D8
:101690002068416901F400114161206803F0A8FB52
:1016A000400007D52046FFF72BFC2068416901F078
:1016B00080414161206803F09BFB40070AD5206808
:1016C0004568680702D52046FFF731FC206841686D
:1016D00029434160BDE8FC9FD0F8E00402F0F7BB6D
:1016E000D0F8E00402F007BCF8B5040004D094F888
:1016F0009504002510B106E00120F8BD204684F8CD
:10170000945400F057F8032084F89504206803F0FF
:10171000FFF8207C8DF8000094E80F0002F056FFDF
:101720000226B0BB2068002103F086FB88BB0020A6
:1017300001270CE000EBC001421C04EB81014F7556
:101740000D76CD610D624D620875C885D0B22179E4
:101750008142EFD8002011E000EBC001421C04EBF5
:10176000810181F8555281F85852C1F85C52C1F894
:101770006052C1F8645281F85402D0B2217981429A
:10178000EAD8207C8DF8000094E80F0003F00AF8F6
:1017900010B184F89564AFE7207B657484F8957484
:1017A000012802D12046FFF76FFB206802F0ECFF12
:1017B0000020F8BD10B5B6B00446142130A8FEF7DD
:1017C000C9FFC0216846FEF7C5FF1F49206888424F
:1017D00038D100204FF480214FF440122292CDE9FD
:1017E0000010684600F0DAF808B1FFF7C4F800F01E
:1017F000CDF81648016841F00101016000680A2334
:10180000022200F00100359000204FF4C0513091C9
:1018100030A9CDE93120CDE933030D48FFF716F9A2
:101820000A480838016841F0006101600068002240
:10183000052100F0006035906520FFF7F3FA652080
:10184000FFF7E2FA36B010BD00000840E04402584D
:101850000000025870B50446C079012570B1022815
:1018600001D0FFF788F8D4F8E004294602F0B2FB73
:10187000D4F8E004BDE8704002F066BB0025F2E752
:10188000D0F8E00402F08FBBD0F8E00402F095BB82
:1018900010B5044690F8940401280AD00120617420
:1018A00084F89404206803F0F6FA002084F8940485
:1018B00010BD022010BDD0F8E02400F29C4110467B
:1018C00002F094BB10B590F8941404460068012906
:1018D00009D0012184F89414C168490609D5617BB7
:1018E000012902D005E0022010BD816B41F4803156
:1018F0008163206803F003FA206802F037FF0020BC
:1019000084F8940410BD000010B50446D0F8E0043B
:1019100002F0AEFB2068D0F8001E41F00101C0F8D3
:10192000001EE07A002804D00248016841F0060158
:10193000016010BD10ED00E0134970B50A68D24394
:10194000520705D5096801F00701814213D118E05B
:101950000A6822F0070202430A60FFF799F90A4D6C
:101960004FF47A760446083D07E000BFFFF790F990
:10197000001BB04201D9012070BD2868C04380041B
:10198000F4D4002070BD00000C48025802480168E1
:1019900041F08071016070470C4802582DE9FE4FFC
:1019A0000546DFF8E48350F8081B0024F64FC943CE
:1019B000019005F12800264608F12408009008014E
:1019C0001DD4A86E50B1B0F5801F0CD0B0F5001F2B
:1019D0000ED0B0F5401F1ED001240FE0386840F44F
:1019E0000030386017E00198022101F009FB03E0A4
:1019F0000098022101F094FB04000CD026462888B0
:101A0000C043C00523D4A86D05281ED2DFE800F02E
:101A10000C11161B1B00AA6ED8F8001021F44011FF
:101A20001143C8F80010EAE7386840F40030386025
:101A300009E00198002101F0E3FA03E00098002199
:101A400001F06EFB044674B100E0012426462888AC
:101A5000C043800528D4E86D80281ED00CDC90B1EE
:101A600040280ED114E0AA6DD8F8001021F007012B
:101A70001143C8F80010EAE7C02813D0B0F5807F02
:101A800010D001240FE0386840F40030386009E0DD
:101A90000198002101F0B4FA03E00098002101F060
:101AA0003FFB04469CB126462888DFF8DC92C04301
:101AB00009F12C0940052CD4D5F8A800B0F5800F09
:101AC00020D00DDCA0B1B0F5001F0FD115E0EA6DFC
:101AD000D8F8001021F4E0711143C8F80010E3E7D2
:101AE000B0F5C00F13D0B0F5000F10D001240FE0F7
:101AF000386840F40030386009E00198002101F0B6
:101B00007FFA03E00098002101F00AFB04467CB153
:101B100026462888C04300052DD4D5F8AC00B0F186
:101B2000007F21D00EDCA8B1B0F1807F10D116E08B
:101B3000D5F8A820D9F8001021F460011143C9F8A4
:101B40000010E6E7B0F1407F13D0B0F1806F10D005
:101B500001240FE0386840F40030386009E0019853
:101B6000002101F04DFA03E00098002101F0D8FABD
:101B7000044674B126462868C04380011FD4E86C2F
:101B8000D8B110280FD0202812D0302815D0012429
:101B900014E0D5F8AC20D9F8001021F0E061114331
:101BA000C9F80010E7E7386840F40030386004E016
:101BB0000198022101F024FA044674B126462888CF
:101BC000C043C0042BD4286EB0F5005F20D00DDCDC
:101BD000A0B1B0F5805F0FD115E06B48EA6C203002
:101BE000016821F0300111430160E8E7B0F5405F82
:101BF00013D0B0F5804F10D001240FE0386840F4C6
:101C00000030386009E00198002101F0F9F903E0A3
:101C10000098002101F084FA04468CB126462888F9
:101C2000C043800429D4686EB0F5403F23D010DC57
:101C300008B3B0F5803F14D0B0F5003F0FD115E0E8
:101C40002A6ED8F8001021F4E0411143C8F80010C2
:101C5000E5E7B0F5802F0ED0B0F5A02F0BD0012412
:101C60000AE00198012101F0CBF903E0009801217D
:101C700001F056FA044694B126462888C043400431
:101C80002AD4D5F8B000B0F1405F23D010DC08B3FF
:101C9000B0F1805F14D0B0F1005F0FD115E06A6E33
:101CA000D8F8001021F4E0211143C8F80010E4E74F
:101CB000B0F1804F0ED0B0F1A04F0BD001240AE05C
:101CC0000198012101F09CF903E00098012101F045
:101CD00027FA044674B126462888C04300041FD45E
:101CE000286FD8B1B0F1805F0ED0B0F1005F10D096
:101CF000012414E0D5F8B020D9F8001021F0E0411B
:101D00001143C9F80010E7E7386840F40030386044
:101D100004E00198012101F073F9044674B12646EC
:101D20002868C043C0011ED4A86CD0B101280ED0D1
:101D3000022811D0032814D0012413E02A6FD8F808
:101D4000001021F040511143C8F80010E8E738684E
:101D500040F40030386004E00198022101F050F9AD
:101D60000446ACB126462868DFF81CB0C043ABF18E
:101D70001C0B400252D40548016841F48071016097
:101D8000FEF786FF824611E02C44025800480258B4
:101D9000FA48AA6C016821F0030111430160E2E7EF
:101DA000FEF776FFA0EB0A00642835D8F4480068F7
:101DB000C005F5D58CBBDFF8C4A3B5F8B4100AF1A3
:101DC000240ADAF8000001F4407100F440708842FF
:101DD00011D0DAF80010DAF8002021F4407142F452
:101DE0008032CAF80020DAF8002022F48032CAF8E3
:101DF0000020CAF80010D5F8B400B0F5807F1AD1E1
:101E0000FEF746FF029012E0FEF742FF0299411AE8
:101E100041F2883081420AD9032426462878DFF827
:101E20005CA3C0430AF1080AC00721D03CE0DAF8FD
:101E300000008007E8D5D5F8B410C1F301200328CD
:101E400058460DD0016821F47C510160B5F8B420EA
:101E5000DAF80010C2F30B021143CAF80010DDE7F4
:101E6000C84A036802EA111223F47C511143ECE7DB
:101E7000E86F182816D005DCA0B1082808D0102873
:101E800004D10AE020280DD028280BD001240AE034
:101E90000198012101F0B4F803E00098012101F05C
:101EA0003FF9044664B126462878C04380071ED413
:101EB000A86F062819D2DFE800F0160C11161616C6
:101EC000EA6FDAF8001021F038011143CAF8001067
:101ED000EAE70198012101F093F803E0009801215D
:101EE00001F01EF904467CB100E001242646287862
:101EF000C04340071FD4D5F89400062819D2DFE864
:101F000000F0160C11161616AA6FDAF8001021F060
:101F100007011143CAF80010E9E70198012101F017
:101F20006FF803E00098012101F0FAF80446A4B12B
:101F300000E0012426462878C04380062BD4D5F83B
:101F40009000B0F1405F24D011DC10B3B0F1805F9D
:101F500015D0B0F1005F10D116E0D5F89420D9F873
:101F6000001021F007011143C9F80010E3E7B0F1B8
:101F7000804F0ED0B0F1A04F0BD001240AE00198A1
:101F8000002101F03DF803E00098022101F0C8F8BB
:101F9000044694B126462878C04340062BD4D5F891
:101FA0009C00B0F5406F24D011DC10B3B0F5806F09
:101FB00015D0B0F5006F10D116E0D5F89020DAF802
:101FC000001021F0E0411143CAF80010E3E7B0F53A
:101FD000805F0ED0B0F5A05F0BD001240AE001981D
:101FE000002101F00DF803E00098022101F098F8BB
:101FF000044694B126462878C04300062BD4D5F871
:10200000A000B0F5C04F24D011DC10B3B0F5005FD4
:1020100015D0B0F5804F10D116E0D5F89C20D9F836
:10202000001021F4E0511143C9F80010E3E7B0F5C6
:10203000004F0ED0B0F5204F0BD001240AE00198DC
:10204000002100F0DDFF03E00098022101F068F8B4
:10205000044654B126462878C04300071ED4D5F85C
:102060008400B0F5805F0AD00FE0D5F8A020D9F841
:10207000001021F460411143C9F80010EBE700980B
:10208000022101F04DF800B10126D5F88420DAF8DC
:10209000001021F440511143CAF800102878C043C1
:1020A000C00613D4D5F89800B0F5807F05D100980C
:1020B000022101F035F800B10126D5F89820D9F8B1
:1020C000001021F440711143C9F800102868C04382
:1020D000000316D4D5F8A40038B1B0F5803F09D07C
:1020E000B0F5003F0BD001240AE00198002100F078
:1020F00087FF03E00098022101F012F804468CB13A
:1021000026462868C043400322D4D5F88800B0F59D
:10211000801F11D0B0F5001F13D0B0F5401F15D0AF
:10212000012414E0D5F8A420D9F8001021F440319E
:102130001143C9F80010E4E7386840F40030386013
:1021400004E00098012100F0EBFF04465CB1264654
:102150002868C043C00323D4286DA8B1B0F5803FE0
:1021600017D001241BE0D5F88820DAF8001021F4FC
:1021700040111143CAF80010EAE700004C4402582D
:1021800000480258CFFFFF00386840F40030386044
:1021900004E00198022100F033FF0446E4B1264632
:1021A0002868C043800005D40098022100F0B8FFE1
:1021B00000B101262868C04380031BD4D5F88000F5
:1021C000B0B1B0F5807F0FD0B0F5007F10D0B0F582
:1021D000407F0DD001240CE05A482A6D016821F49B
:1021E000803111430160DBE7386840F4003038602B
:1021F000ECB326462868C043C00207D46A6FD8F8FB
:10220000001021F000411143C8F800102868C043B5
:10221000C00008D4D5F8B820DBF8001021F48041C4
:102220001143CBF800102868C043800207D4EA6E3F
:10223000D8F8001021F080711143C8F80010286808
:10224000C04340000CD4DBF8001021F40041CBF86F
:102250000010DBF80010D5F8BC201143CBF80010BB
:102260002868C04308D437486A6D016800E018E068
:1022700021F04051114301602868C043000208D496
:10228000D5F88C20DAF8001021F440011143CAF887
:10229000001028790024C04300F0010020430AD038
:1022A0000FE0D5F88020DAF8001021F440711143D6
:1022B000CAF800109EE70198002100F0A1FE00B1CD
:1022C00006462879C04300F00200204305D101985A
:1022D000012100F095FE00B106462879C04300F0C8
:1022E0000400204305D10198022100F089FE00B1CD
:1022F00006462879C04300F00800204305D1009825
:10230000002100F00DFF00B106462879C04300F01F
:102310001000204305D10098012100F001FF00B119
:1023200006462879C04300F02000044304D10098F9
:10233000022100F0F5FE00B916B10120BDE8FE8FC4
:102340000020FBE74C4402582DE9F05F04000F46E3
:102350007ED0DFF83882D8F8000000F00F00B842D5
:102360000CD2D8F8001021F00F013943C8F8001042
:10237000D8F8000000F00F00B84269D12078844DF1
:1023800040070AD52069296801F07001884204D904
:10239000296821F070010143296020787C4E361DA8
:1023A00000070AD56069316801F07001884204D9DC
:1023B000316821F07001014331602078C0060AD5F0
:1023C000A069316801F4E061884204D9316821F4E0
:1023D000E061014331602078DFF8B4B180060BF191
:1023E000080B0CD5E1695846DBF8002002F07002BA
:1023F000914204D9026822F070020A4302602078F8
:1024000080070AD5E068296801F00F01884204D9E5
:10241000296821F00F01014329602078C0073ED0D0
:102420005B49A2682868183920F47060104328605E
:102430006068022818D0032819D00968012819D02B
:10244000490700294ADADFF848A1AAF1080A00E0A2
:1024500044E0DAF8002022F007020243CAF8002024
:10246000FEF716FC814612E009688903E9E709686E
:102470008901E6E7C905E4E7FEF70AFCA0EB0901DC
:1024800041F28830814202D90320BDE8F09F6168A3
:10249000DAF8000000F03800B0EBC10FECD1207882
:1024A00080070AD5E068296801F00F01884204D24C
:1024B000296821F00F0101432960D8F80010404637
:1024C00001F00F01B9420BD9016821F00F01394326
:1024D0000160006800F00F00B84201D00120D4E78D
:1024E000207840070AD52069296801F070018842E8
:1024F00004D2296821F07001014329602078000787
:102500000AD56069316801F07001884204D23168EF
:1025100021F07001014331602078C0060AD5A0691E
:10252000316801F4E061884204D2316821F4E0614D
:1025300001433160207880060CD5E1695846DBF80C
:10254000002002F07002914204D2026822F0700270
:102550000A43026000F048F80E492A682B68C2F36B
:10256000032203F00F038A5CC95C02F01F0201F032
:102570001F01D040084A20FA01F1116007490860A4
:1025800007480068BDE8F05FFEF7BEBB00200052C0
:1025900018440258845B0008140000241000002432
:1025A0000800002430B500F01FF80B4A0B490C4B13
:1025B00015681468C5F3032204F00F048A5C095DF2
:1025C00002F01F0201F01F01D040064A20FA01F17B
:1025D00019601060084630BD18440258845B00083A
:1025E0001400002410000024454970B545480968CE
:1025F000434B103B11F0380208D00111082A03D0D8
:10260000102A0BD0182A0BD0084670BD196889060D
:10261000FBD51968C1F3C101C84070BD3A4870BD0F
:102620003749374D18310C1D24350A68096826686A
:102630002D6802F0030406F00102C1F30511C5F391
:10264000CC0515FB02F200EE102AB8EE400AE9B301
:102650002F4ADFED2E0AB7EE001A6CB1DFED2D1A0E
:10266000012C01D0022C43D002EE101A1068F8EEB3
:10267000422A81EEA22A1EE01C68A40611D51B681E
:1026800001EE901A1168C3F3C103F8EE612AD84035
:1026900001EE900AC1F30800F8EE611A81EEA22A59
:1026A0000BE001EE901ADFED1C2A00BFF8EE611A74
:1026B000106882EEA12AC0F3080001EE900AF8EE3D
:1026C000611A40EE201A31EE810A00E015E022EE98
:1026D000000A1068C0F34620401C00EE900AF8EE95
:1026E000600A80EE201ABCEEC10A10EE100A70BD1E
:1026F00001EE901ADFED092AD8E7002070BD000036
:10270000104402580090D00340787D010000003949
:10271000304402580024744A0024744C20BCBE4B40
:102720002DE9F05F04007DD0FF4F2078FE4D183773
:10273000DFF8F493103DC00748D0D9F8000039689D
:1027400000F03800102815D0182803D101F003003C
:1027500002280FD06068B0F5803F12D010B1B0F5FC
:10276000A02F18D0286820F480302860286820F432
:10277000802009E02868800328D560680028D2D02E
:1027800024E0286840F480302860606888B1FEF753
:102790007FFA064609E0286840F480202860F0E7C8
:1027A000FEF776FA801B64286FD828688003F7D577
:1027B0000CE0FEF76DFA064605E000BFFEF768FA8A
:1027C000801B6428F0D828688003F7D4207841F271
:1027D0000308D54E0C3E800769D5D9F8000039684A
:1027E00010F038000ED0182801D188070AD0E06810
:1027F00090B3296821F0190101432960FEF748FAD6
:10280000824631E02868400702D5E06800288AD077
:10281000E168286820F0190008432860FEF738FABC
:10282000824607E0DFE000BFFEF732FAA0EB0A00C5
:102830000228B9D828684007F6D500BFFEF722FA6B
:1028400040451BD82069402812D0316821F47C31E2
:1028500041EA003030602AE018E000BFFEF718FAC5
:10286000A0EB0A0002289FD828684007F6D5E5E7C4
:10287000306820F47C3040F40030EBE7207C316895
:1028800021F0FE4141EA0060E4E70DE1286820F014
:1028900001002860FEF7FCF9824605E0FEF7F8F932
:1028A000A0EB0A0002288DD828684007F6D42078CB
:1028B000C0065DD5D9F80000DFF86CB2396800F0C9
:1028C0003800ABF1040B082810D0182803D101F010
:1028D000030001280AD0E0690028286838D040F0B9
:1028E00080002860FEF7D4F9824623E02868C005FE
:1028F00023D5E069802876D11FE0206A202821D0E6
:10290000316821F0F84141EA8060306030E000BF7A
:1029100094F82010DBF8002022F07C5242EA01619A
:10292000CBF8001024E000BFFEF7B2F9A0EB0A00DC
:10293000022898D82868C005F6D5FEF7A3F94045C7
:10294000E6D8DAE7306820F0F84040F08040DCE775
:1029500020F080002860FEF79BF9064605E000BFE6
:10296000FEF796F9801B02289DD82868C005F7D489
:102970002078000729D56C486169643000298046B9
:10298000016811D041F001010160FEF781F90646AE
:1029900005E000BFFEF77CF9801B0228C9D8D8F8F3
:1029A00000008007F6D510E021F001010160FEF77C
:1029B0006FF9064605E000BFFEF76AF9801B0228A2
:1029C00072D8D8F800008007F6D42078800623D586
:1029D000A0690028286810D040F480502860FEF7D5
:1029E00057F9064605E036E1FEF752F9801B02284A
:1029F0005AD828688004F7D50EE020F4805028606B
:102A0000FEF746F9064604E0FEF742F9801B02286D
:102A10004AD828688004F7D4207840074FD5DFF8DB
:102A20000C81D8F8001041F48071C8F80010FEF74E
:102A30002FF9064605E000BFFEF72AF9801B64283F
:102A400032D8D8F80000C005F6D5374EA0686036F9
:102A500001280AD008B1052813D0306820F0010001
:102A60003060306820F0040002E0306840F001007F
:102A70003060A06841F2883A90B1FEF709F98046CB
:102A80000AE0306840F004003060EEE7FEF700F93D
:102A9000A0EB0801514507D830688007F6D50EE055
:102AA000FEF7F6F8804607E084E000BFFEF7F0F896
:102AB000A0EB080151457DD830688007F6D4606AE4
:102AC000B0B3DFF86480D9F8001008F120084FF6A1
:102AD000F87B08F10409C1F3C2010329A8F1040A33
:102AE00069D00228286820F08070286003D0FEF7A3
:102AF000CFF8044684E0FEF7CBF8064605E000BFB9
:102B0000FEF7C6F8801B022877D828688001F7D422
:102B1000E26A40F2F331386854F8283F884340EACB
:102B200002101843386004E010440258004802586C
:102B3000B5E0217B434622894FF4FE0C208A4FF0FA
:102B4000FE474902267D521E401EA1F50071C2F3C8
:102B500008088AB2761E0CEA004042EA08020243E4
:102B6000504607EA06610A431A60DAF8002022F0AC
:102B70000102CAF80020D9F80020266A22EA0B02D6
:102B800042EAC602C9F80020DAF80010A26921F072
:102B90000C011143CAF800100168E26921F002013A
:102BA00011430160016841F480310160016841F422
:102BB000003101E021E027E00160016841F480215B
:102BC0000160016841F001010160286840F08070F7
:102BD0002860FEF75DF8044605E000BFFEF758F8F0
:102BE000001B022809D828688001F7D557E000BFEC
:102BF000FEF74EF8001B022802D90320BDE8F09F23
:102C000028688001F4D44AE039680128D8F8000027
:102C100021D0A26A01F0030393421CD1E26AC1F3FE
:102C200005118A4217D1216BC0F30802491E8A425E
:102C300011D1616BC0F34622491E91420BD1A16BA9
:102C4000C0F30642491E914205D1E16BC0F3066014
:102C5000491E814201D00120D0E7A16C4E46D9F82F
:102C60000000C0F3CC00814219D0DAF800005546CC
:102C700020F00100CAF80000FEF70AF84FEA00074A
:102C8000FEF706F8B842FBD0A26C306820EA0B00D1
:102C900040EAC2003060286840F00100286000204F
:102CA000ACE7401EB0F1807F10B501D3012010BD0C
:102CB0004FF0E02460610F21601702F086F90020D8
:102CC000A0610721216110BDFEE70000F0B50023DF
:102CD0000A251C463026372711E000BFB5EB107FD0
:102CE00002D906EB107C01E007EB107C01F813C061
:102CF00001EB430C00015B1C8CF80140DBB29342FA
:102D0000ECD3F0BD00B587B006491C226846FDF73C
:102D1000CDFC0021684602F0ADF90349086007B018
:102D200000BD0000685B0008000000242DE9F047AA
:102D300086B014216846FDF70DFD3748016841F063
:102D400010010160016801F010010591016841F472
:102D500080710160016801F480710591016841F0A2
:102D600004010160016801F004010591016841F06E
:102D700080010160016801F080010591016841F066
:102D800001010160016801F001010591016841F054
:102D90004001016000680022DFF88080082100F017
:102DA000400005904046FDF767FFDFF874904FF450
:102DB0008076002231464846FDF75EFFDFF864A0CA
:102DC0003701002239465046FDF756FF0024694678
:102DD000012508200090CDE9015440460394FDF7F9
:102DE00035FE00966946CDE9015448460394FDF747
:102DF0002DFE4FF4C04069468DE831000A48FDF7CA
:102E000025FE00976946CDE9015450460394FDF72D
:102E10001DFE06B0BDE8F087E044025800100258DD
:102E200000200258001802580008025810490022D9
:102E3000104810B500F02AFF08B1FDF79CFD0E49BF
:102E40000C4801F040F908B1FDF795FD0B49094820
:102E500000F0B6FC08B1FDF78EFD064801F0B8F9A8
:102E600008B1FDF788FDBDE81040FEF78FBD0000FA
:102E700080000024C452002440010024D400002417
:102E8000FEE7FEE70148FEF75DB90000C0570024E9
:102E90002DE9F041044680790D462027236801285A
:102EA0004FF4004604F29C4203EB4511D3F840C0B6
:102EB000D1F8080B09D0DFF89CE0F4453AD10204C0
:102EC00033D500BFC1F8086B40E0234B5FEA007EBA
:102ED00004D59C453AD90004F4D437E05FEA806E0B
:102EE00002D5C1F8087B31E010F0280F2ED19C45A7
:102EF00001D90004E6D4D1F8101B05EBC50004EBA2
:102F00008000C1F31201D0F87432A3EB0101C0F8C4
:102F1000681200F51570ADB903691BB1C2681144A0
:102F2000C1600FE0206801210AE080060AD5C1F8DF
:102F3000087B07E035B9D4F8640218B900211846B7
:102F400001F0ECFC2046E9B2FDF7E7FF0020BDE808
:102F5000F08100000A31544F0A30544F2DE9F84FE8
:102F60000E460568814601EBC60100EB8104D4E9F9
:102F700009201434904202D90120BDE8F88FA168DD
:102F8000101A814200D20846C01C05EB461887087B
:102F90001BE000BFA268A0EB010A524500D2924696
:102FA00099F806100AF1030000911FFA8AF3E1680C
:102FB00087082846F2B201F0F3FFE16801EB0A004E
:102FC000E060616901EB0A006061D8F8180980B21D
:102FD000B84205D3D4E90401814201D20028D9D1F5
:102FE000D4E90401884208D8D5F83418012006F045
:102FF0000F0290408143C5F834180020BDE700005F
:103000002DE9F047454D044689464FF0000A2868EF
:10301000C04380070AD0414E283E306820F08060CF
:103020003060FDF735FE0746B04608E00120BDE8F8
:10303000F08700BFFDF72CFEC01B022867D8D8F828
:1030400000000001F6D4206829684FF4FE0721F43F
:103050007C313E0241EA00302860207AA389B4F82E
:1030600004C040022D4D2D495B1E227CACF1010CA9
:103070001035091DA0F5007080B2521ECCF3080C6B
:1030800007EA034340EA0C00184306EA02621043D1
:1030900028600868626920F0C000104308600A6870
:1030A000A06922F0200202430A60281D0A6822F06B
:1030B00010020A6002684FF6F873E4699A4342EA24
:1030C000C40202600868B9F1000F40F010020A6003
:1030D00011D00868B9F1010F11D040F40010086058
:1030E000D8F80000444640F08060C8F80000FDF7C2
:1030F000CFFD05460DE0086840F40020EFE740F4FE
:103100008010ECE7FDF7C4FD401B022801D9032025
:103110008DE720680001F5D5504688E7284402581D
:103120002DE9F047454D044689464FF0000A2868CE
:10313000C04380070AD0414E283E306820F08050BE
:103140003060FDF7A5FD0746B04608E00120BDE868
:10315000F08700BFFDF79CFDC01B022867D8D8F898
:1031600000008000F6D4208829684FF4FE0721F083
:103170007C713E0241EA00502860207AA389B4F8AD
:1031800004C040022D4D2D495B1E227CACF1010C88
:103190001835091DA0F5007080B2521ECCF3080C42
:1031A00007EA034340EA0C00184306EA02621043B0
:1031B00028600868626920F44060104308600A686B
:1031C000A06922F4007202430A60281D0A6822F4F2
:1031D00080720A6002684FF6F873E4699A4342EA23
:1031E000C40202600868B9F1000F40F480720A60FE
:1031F00011D00868B9F1010F11D040F0807008605B
:10320000D8F80000444640F08050C8F80000FDF7B0
:103210003FFD05460DE0086840F48000EFE740F40C
:103220000000ECE7FDF734FD401B022801D9032024
:103230008DE720688000F5D5504688E7284402587D
:103240000178407841EA0020704710B5FDF726FD6F
:1032500002F0AEFB012803D0BDE8104002F03ABBFB
:1032600010BD0000F0B59DB04C216846FDF772FA24
:10327000202113A8FDF76EFA0220FEF75DFB2F490F
:1032800000242F480A6822F001020A600A680268D6
:1032900042F440420260026802F440421B9202681B
:1032A000D2439204FBD4274A136843F0020313600D
:1032B000126802F002021B92026842F4404202606D
:1032C00002680A6842F001020A60096801F001011F
:1032D0001B910168C9438904FBD40DF1280C02201D
:1032E0000990012306930526C0278CE8C100C2037C
:1032F0000F9008250D9021210E90CDE91054CDE9B5
:10330000001268461294FFF70BFA08B172B6FEE796
:1033100040201A903F210301CDE916500322CDE948
:10332000180313AB13A883E816000421FFF70CF869
:10333000002801D072B6FEE71DB0F0BD2C04005885
:1033400018480258F44402582C48F0B52C4A016839
:1033500041F470010160106800F00F00072804D2EA
:10336000106820F00F00C01D106026490020254C79
:1033700010340B68244D43F001030B6020600B6890
:103380002B400B60136803F00F03072B04D913685D
:1033900023F00F03DB1D13601A4C1C4A18341C4B1E
:1033A000261D371D2060174C1A4D28343060261D0D
:1033B0003860371D23603B1D35601C1D3A60251D9C
:1033C0002E1D1860331D22602860326018600A6864
:1033D0000C4B114C22F4802260330A601860206884
:1033E0006FF30F00B0F1005F03D20C490120C1F868
:1033F000080143F2D2000A490860F0BD88ED00E000
:1034000000200052004402587FEDF6EA80020101DC
:10341000000202020000FF010010005C0080005169
:10342000004000522DE9F0410C46D0F8D412D0F8FB
:10343000C83200EB8101D1F8C01229B304F00F02A9
:10344000002702EB820500EB8506B5694DB102EB62
:10345000C20203EB8202D269B5FBF2F302FB135204
:10346000A2B1C1F81472D0F8D42200EB8200D0F8D7
:10347000C40203692BB1D1F8080201F50471224698
:1034800098470020BDE8F0810320FBE70023214698
:103490001A46B76100F0F9FDF3E770B50546D0F8BC
:1034A000D40205EB8000D0F8C04294B1284600F069
:1034B000C8FCC4F80C02D5F8D40205EB8000D0F8A3
:1034C000C412D4F80402CA6804F5037190470020BE
:1034D00070BD032070BD000070B5224D04462978F0
:1034E00000F0F0FB2878002600F00F0000EB8000D1
:1034F00004EB800086842046697800F0E3FB68785E
:1035000000F00F0000EB800004EB8000A0F8646185
:103510002046A97800F0D6FBA87800F00F0000EB59
:10352000800004EB80008684C684D4F8D40204EBC7
:103530008000D0F8C01299B1D0F8C402406880472A
:10354000D4F8D40204EB8000D0F8C00200F0C5FF2C
:10355000D4F8D40204EB8000C0F8C062C4F8BC62A6
:10356000002070BDEC00002410B5D0F8D41200EBA0
:103570008100D0F8C04284B1D0F8C41259B194F897
:103580000002FF2807D08B68214694F80122984753
:10359000FF2084F80002002010BD032010BD0000B1
:1035A0000A21018000487047F000002470B5822194
:1035B00006460D4800F009FB012105460A4800F0C7
:1035C00004FB81210446084800F0FFFA0DB11021E8
:1035D000A9714FF0400104B1A18000B18180432066
:1035E0003080014870BD0000FC00002470B58221CD
:1035F00006460D4800F0E9FA012105460A4800F0A8
:10360000E4FA81210446084800F0DFFA0DB11021E8
:10361000A9714FF4007104B1A18000B181804320F1
:103620003080014870BD0000FC00002470B582218C
:1036300006460D4800F0C9FA012105460A4800F087
:10364000C4FA81210446084800F0BFFA0DB11021E8
:10365000A9714FF0400104B1A18000B181804320E5
:103660003080014870BD0000FC0000242DE9F047C7
:103670004FF407750446284600F030FF06004FF06F
:10368000000965D02946FDF765F8D4F8D402012772
:103690003C4D4FF4007A4FF0100804EB8000C0F866
:1036A000C062C4F8BC62207CF0B3297840230222B7
:1036B000204600F034FC2878402300F00F0000EB97
:1036C000800004EB8000878402226978204600F0A5
:1036D00026FC697808230322204601F00F0101EB44
:1036E000810104EB8101A1F86471A97801F00F0157
:1036F00001EB810104EB8101A1F82680A97800F09B
:103700000EFCA978C84601F00F0101EB810104EB22
:1037100081018F84C6F80492D4F8D40204EB8000AF
:10372000D0F8C402006800E01AE006F50176804790
:10373000C6F81080C6F8148032687AB1207CF8B1DF
:1037400040236978204600F0F6FB0020BDE8F087B2
:10375000D4F8D41204EB8101C1F8C0920220F5E73D
:10376000297802225346204600F0D9FB2878534698
:1037700000F00F0000EB800004EB80008784A3E7DB
:103780005346DEE7EC00002410B5D0F8D41200EB6D
:103790008101D1F8C01259B1027C084C002AD1F83D
:1037A000042207D04023617800F0C5FB002010BD43
:1037B000032010BD4FF40073F5E70000EC00002477
:1037C00039B1D0F8D42200EB8200C0F8C412002036
:1037D000704703207047D0F8D42200EB8200D0F865
:1037E000C00218B1C0F804120020704703207047CF
:1037F000D0F8D43200EB8300D0F8C00228B1C0F872
:103800001022C0F8081200207047032070472DE9ED
:10381000FC410646D0F8D4020C46002106EB80009D
:103820000D46D0F8C0728DF80010ADF8041037B115
:10383000217811F060022CD0202A48D102E0032028
:10384000BDE8FC81E288E2B109060BD5D0F8C402DC
:103850003946836860789847E288072A00D90722AA
:1038600039462CE0607887F80002E088402800D3D1
:1038700040203946C2B2304687F8012200F07FF876
:103880002AE0D0F8C4020022214683686078984775
:1038900022E0607830B101281ED00A2809D00B2818
:1038A00015D110E096F89C02032810D1022201A93C
:1038B00005E096F89C02032809D1012269463046AA
:1038C00000F077F808E096F89C02032804D021461F
:1038D000304600F049F803252846B1E710B5D0F886
:1038E000D41200EB81020121D2F8C0221AB1D2F821
:1038F000143213B116E0032010BD0B490123C2F8A6
:103900001432D2F81032097801F00F0404EB840469
:1039100000EB8404A361D2F81032D2F8082200F040
:10392000B4FB0021084610BDEC00002410B5D0F80F
:10393000B82200245268904700B10324204610BDED
:10394000002070470020704713460A46002110B53A
:1039500000F0F1FA002010BD13460A46002110B510
:1039600000F093FB002010BD10B58021044600F04C
:103970006DFB2046BDE81040002100F067BB10B58C
:10398000C0F858210323C0F89432C0F85C211346D4
:103990000A46002100F0CFFA002010BD10B5052125
:1039A000C0F8941200231A46194600F0C4FA002009
:1039B00010BD10B582610223C0F89432C261134673
:1039C0000A46002100F061FB002010BD10B5042163
:1039D000C0F8941200231A46194600F056FB002046
:1039E00010BD000004A00A46024910B500F01BF902
:1039F000004810BDC440002443444320436F6E661A
:103A0000696700001220088000487047A400002465
:103A100004A00A46024910B500F005F9004810BD9F
:103A2000C440002443444320496E74657266616358
:103A3000650000000420088000487047A0000024B2
:103A400004A00A46024910B500F0EDF8004810BD88
:103A5000C440002453544D6963726F656C65637490
:103A6000726F6E696373000004A00A46024910B5C4
:103A700000F0D9F8004810BDC440002453544D3321
:103A800032205669727475616C20436F6D506F728D
:103A90007400000010B51A2008800B480A4908304D
:103AA000021F096800681468081809D0074908222D
:103AB000FFF70CF90549042220461031FFF706F9FB
:103AC0000248801E10BD000000E8F11FBA0000246B
:103AD000F8B504460D460020ADF800004888010AFC
:103AE000062947D006DC01290FD0022912D003296C
:103AF00062D11DE0072946D00F295DD1D4F8B40268
:103B0000C26920E0694690473BE0D4F8B412207CBB
:103B10000A68F7E7207C02260028D4F8B80205D00E
:103B2000C16A684688470146467036E0816AF8E710
:103B3000C0B2062840D2DFE800F003090D111519C4
:103B4000D4F8B4024268B2B3207CDBE7D4F8B40204
:103B50008268F8E7D4F8B402C268F4E7D4F8B40293
:103B60000269F0E7D4F8B4024269ECE7D4F8B40291
:103B70008269E8E7207CF0B9D4F8B802416B684666
:103B80008847014609E0207CA8B9D4F8B802016B47
:103B900068468847014607204870EA888AB1BDF820
:103BA000000040B1824200D902462046ADF8002014
:103BB000FFF7FFFEF8BDFFE729462046FFF7D4FEDA
:103BC000F8E72046FFF702FFF4E778B542880D4694
:103BD0000178002604468A4212D9ADF800100AE0A6
:103BE000694600F019F84178052904D18178064624
:103BF000A94205D000266188BDF800209142EFD887
:103C0000304678BD002102E0491C401CC9B2027850
:103C1000002AF9D1084670470A8803781A440A80B6
:103C200001780844704770B5002816460D4620D02C
:103C30000446FFF7E7FF02220146100202EB4101B2
:103C4000814204D82046FFF7DDFF4000801C308011
:103C50003378032102202B700022697006E0431C98
:103C60002954D8B2411C641C2A54C8B221780029B6
:103C7000F5D170BD01004FF0000004D0012901D042
:103C8000022901D0032070470120704778B100233A
:103C9000C0F8B832C0F8C432C0F8D03209B1C0F8A8
:103CA000B4120121027080F89C1200F0CFB80320FA
:103CB000704710B5D0F8C802FDF771F9BDE81040A3
:103CC000FFF7D8BF10B5D0F8C802FDF743F9BDE83B
:103CD0001040FFF7CFBF2DE9F041174604464FF0E3
:103CE000000521B194F89C02032842D04CE0D4F89E
:103CF000941204F11400022935D1D0E902639E42E6
:103D000006D9F21A394682602046FFF725FE0FE0F9
:103D1000B34214D14068984211D3D4F89812884223
:103D20000DD2002220461146FFF716FEC4F8985225
:103D300000231A461946204600F0FDF813E094F8D7
:103D40009C02032808D1D4F8B802C16821B1C4F894
:103D5000D452C168204688478021204600F076F979
:103D60002046FFF71BFE94F8A00268B184F8A05229
:103D70000AE0D4F8B802426932B1C4F8D4524269B8
:103D800020469047002800D10020BDE8F08170B5A2
:103D9000134604464FF0000221B194F89C02032818
:103DA00030D03AE0D4F8941204F5AA70032934D143
:103DB000D0E902518D420AD96A1A826008468242CD
:103DC00000D3024619462046FFF7BEFD25E094F8D1
:103DD000AA0210F01F0003D0012802D0022800D050
:103DE000002294F89C02032808D1D4F8B802016993
:103DF00021B1C4F8D4220169204688472046FFF744
:103E0000E5FD0AE0D4F8B802836933B1C4F8D422DE
:103E1000826920469047002800D1002070BD002014
:103E2000704710B5D0F8B812012280F89C22002407
:103E300029B103794A68D9B2904700B103242046DA
:103E400010BDD0F8C802FDF7D7B8000070B50178F2
:103E500039BB15490925154C02230022C1F8E0049D
:103E6000C0F8C81208460C600D71CB718A714B7294
:103E70008A72CA720A734A738A73CA73FDF734FC72
:103E800008B1FCF778FD08488021FDF712F80648D4
:103E900040220021FDF711F8034880220121FDF79F
:103EA0000CF8002070BD0000C0570024000008403E
:103EB000D0F8C82201F07F000B0600EBC00002EB37
:103EC000800001D5807D704790F85602704710B58C
:103ED000D0F8D42200EB8202D2F8B82222B190F8B6
:103EE0009C32032B02D004E0032010BD126A02B101
:103EF0009047002010BD10B5D0F8D42200EB82020C
:103F0000D2F8B82222B190F89C32032B02D004E000
:103F1000032010BD526A02B19047002010BD10B5B9
:103F20001C46D0F8C80213462246FDF76EF8BDE8DD
:103F30001040FFF79FBE10B5D0F8C802FDF794F807
:103F4000BDE81040FFF796BE2DE9F041044601257B
:103F50000020D4F8B812064684F89C52C4F89402A3
:103F60006060C4F8A40284F8A00231B14A6822B1AA
:103F700000212046904700B103262046002240231E
:103F80001146FFF7CCFF4027A4F8645100223B46BE
:103F900080212046C4F86071FFF7C1FFA584304638
:103FA0002762BDE8F08190F89C12042903D190F8B3
:103FB0009D1280F89C120020704710B590F89C125A
:103FC000032905D1D0F8B81211B1C96901B18847E8
:103FD000002010BD01740020704710B5D0F8C80251
:103FE000FDF756FCBDE81040FFF744BE70B504462F
:103FF00000F2AA20054600F051F894F8AA02012325
:10400000B4F8B01210F01F02C4F89432C4F8981239
:104010000AD0012A0ED0022A12D000F080012046D8
:10402000BDE8704000F012B829462046BDE8704057
:1040300000F0D0B829462046BDE8704000F013BA21
:1040400029462046BDE8704000F05BB910B5D0F8B5
:10405000C802FDF723F8BDE81040FFF70BBE10B50E
:10406000D0F8C802FDF72EFCBDE81040FFF702BEF5
:1040700090F89C12042903D090F89C1280F89D12AD
:10408000042180F89C120020704710B5D0F8C802B7
:10409000FDF73DF8BDE81040FFF7ECBD70B50546F3
:1040A00008788C1C2870487868702046FFF7C8F89C
:1040B000A41C68802046FFF7C3F8A880A01CFFF767
:1040C000BFF8E88070BD38B504460020ADF80000A8
:1040D000A1B1C4F8B812D4F8D40204EB8000D0F82F
:1040E000B802C16A19B168468847C4F8D002D4F84A
:1040F000D802401CC4F8D802002038BD032038BDC7
:10410000D0F8B83202460020002B02D01B681046BF
:10411000184770472DE9F0412C4E04468878002559
:104120008846C1B20129317006D941462046FFF7C1
:104130001BFC0320BDE8F08194F89C0202270228B2
:104140000CD003281DD041462046FFF70DFC3178E6
:104150002046FFF7EBFB03252846EBE789B3204613
:104160006160FFF7CDFF050004D041462046FFF710
:10417000FBFB1DE02046FFF729FC032084F89C028E
:10418000EAE7C1B1606888421BD0C1B22046FFF7A0
:10419000CDFB317820466160FFF7B2FF050010D0FB
:1041A00041462046FFF7E0FB21792046FFF7BEFBA2
:1041B00084F89C72D0E7616084F89C722046FFF717
:1041C000B5FB2046FFF702FCC6E70000E80000242C
:1041D000FFF745BF2DE9F0410A784FF0000512F0D6
:1041E00060020CD0202A01D0402A7DD1D0F8D42200
:1041F00000EB8202D2F8B8229268904731E04B7807
:10420000002201260A2B6FD2DFE803F041666E58C8
:104210006E08056E2D29FFF75BFC67E00446888871
:10422000D8B9C888C8B94888802816D294F89C2282
:1042300000F07F07032A10D03946204684F89E728A
:10424000FFF7CBFE2046FFF7C1FB1FB1022084F829
:104250009C024BE084F89C6248E0204644E0FFF773
:1042600059FF054642E0CB88012B3DD190F89C32A6
:10427000012B04D0022B02D0032B35D104E000F136
:1042800008018260012216E00122011D13E090F86E
:104290009C22012A03D0022A01D0032A24D1CA88F1
:1042A000022A21D1D0F8A412C66009B10321C1604D
:1042B000022200F10C01FFF77CFB17E04A88012A7B
:1042C00002D0022A03D00FE0C0F8A46216E0898869
:1042D000090A80F8A01211E090F89C32012B08D056
:1042E000022B06D0032B04D0FFF73EFB2846BDE887
:1042F000F08149880129F9D1C0F8A422FFF766FBB3
:10430000F4E72DE9F0410A780E460979054612F0E6
:1043100060004FF00008CCB20BD0202801D040281C
:104320006AD121462846FFF70BFBFF2800D0D8B3FF
:1043300096E07078C8B3012824D003285CD195F8A2
:104340009C02022802D0032856D10CE0002C53D046
:10435000802C51D021462846FFF778FE8021284640
:10436000FFF774FE7CE0708840B93CB1802C05D02A
:10437000F08818B921462846FFF768FE2846FFF75F
:1043800025FB6DE095F89C020228DFD0032863D15D
:10439000708880BB600603D021462846FFF789FC61
:1043A0002846FFF713FBBCE700E00AE0C5F8D4029B
:1043B000D5F8B8028268F2B1314628469047804667
:1043C0004EE095F89C020027022802D0032843D132
:1043D00013E00CB1802C3FD1200604F07F0000EBED
:1043E000800005EB800101D5143101E001F5AA71CF
:1043F00002220F602CE033E02EE0200604F00F00D4
:1044000000EB800005EB800009D5808C20B304F020
:104410007F0000EB800005EB800614360AE0B0F860
:104420006401C8B104F07F0000EB800005EB80065A
:1044300006F5AA764CB1802C07D021462846FFF716
:1044400037FD10B10120306000E0376002223146B4
:104450002846FFF7AEFA03E031462846FFF784FA14
:104460004046BDE8F08170B5054608780E464FF02D
:10447000000410F0600003D0202801D0402827D18C
:1044800095F89C02012803D0022801D003281FD1EF
:10449000B088C1B201291AD8C1B22846FFF752FA32
:1044A000FF280CD058B9D5F8B8128A683AB1C5F8C7
:1044B000D40228468A6831469047044600E0032427
:1044C000F088204307D12846FFF780FA03E0314601
:1044D0002846FFF749FA204670BD704700487047EC
:1044E000A055002470B54D7801230A78012D1C4C8D
:1044F00002F00F0503FA05F3D0F81C5817D000EBB3
:10450000421245EA0343C0F81C38D2F8000B0004FD
:104510000BD40B890979D2F8000BC3F30A031843B3
:1045200044EA81410843C2F8000B002070BD9EB2EE
:104530003543C0F81C5800EB4213D3F800090004BF
:10454000F3D40D890979D3F80009C5F30A05890464
:10455000284341EA825108432043C3F80009E4E7B5
:1045600000800010D0F800196FF30A01C0F800199C
:10457000D0F8041841F48071C0F804180020704786
:1045800070B54FF480640D4606460D482146FCF791
:10459000BFF828680B4DA04201D96C6000E068604C
:1045A000314607486A68FCF73CF801202870064845
:1045B0003146FFF710F90448FFF7E6F8002070BD18
:1045C000A45C002478010024C452002470B50D4678
:1045D0000446C2F307211E460498012922D0E06850
:1045E00040F04000E060204600F03CF8C6F30721B0
:1045F0000029A16B2ED021F48031A163C5F30741BE
:1046000001290ED1E16D154A89B2E165E16D1143D1
:10461000E165A16841F00601A160A16841F02001B7
:10462000A16070BDA26BC3B20D49012B22F4803092
:10463000A063E06800EA0100E060E06820F4401058
:10464000E06003D1E06840F48010E060204600F0B4
:1046500009F8D3E741F48031CFE700000000EE0312
:10466000BFFFBDFF08B500214FF070620091009BB5
:104670005B1C009393420CD80369002BF7DA00917E
:10468000016941F0010101610099491C00919142C9
:1046900001D9032008BD0169C907F5D1002008BD73
:1046A00070B50A7801234C78012C00EB42122CD013
:1046B000D2F8004B002C0BDAD2F8004B44F0006427
:1046C000C2F8004BD2F8004B44F08044C2F8004BD3
:1046D0000C78D0F83C5804F00F0403FA04F425EAEF
:1046E0000444C0F83C480978D0F81C4801F00F0198
:1046F0008B401C4924EA0343C0F81C38D2F8000B55
:104700000840C2F8000B002070BDD2F80049002C10
:104710000BDAD2F8004944F00064C2F80049D2F83C
:10472000004944F08044C2F800490D78D0F83C4874
:1047300005F00F050C4E03FA05F5ADB2AC43C0F819
:104740003C48D0F81C48097801F00F018B4099B221
:104750008C43C0F81C48D2F800093040C2F8000968
:10476000D1E700000078F3EF007833ECD0F8001EBA
:1047700021F00301C0F8001ED0F8041821F0020156
:10478000C0F8041800207047D0F8001E21F0030183
:10479000C0F8001ED0F8041841F00201C0F8041857
:1047A000002070472DE9F04F00250F469046044643
:1047B0002E46284604EB8001C1F80451401C0F2806
:1047C000F8D3C3F307405FEA0009204610D0806B9E
:1047D00040F40011C4F83810C8F30720C4F8005E94
:1047E0000128204617D0D0F8001841F0030119E045
:1047F000D0F8040840F00201C4F80418A06B20F4BB
:104800000011A163206840F040012160206840F061
:1048100080012160E0E7D4F80018380E204601D06E
:1048200041F00101C0F80018102100F08AFA00B12F
:104830000126204600F069FA00B101264FF67F3AC2
:104840004FF0006CC4F810584FF0904BC4F8145857
:10485000C4F81C580020FAB214E000BF04EB401169
:10486000D1F80039002B06DA10B1C1F800B904E024
:10487000C4F800C901E0C1F80059C1F81059C1F8E5
:1048800008A9401C8242E9D8002013E004EB401143
:10489000D1F8003B002B06DA10B1C1F800BB04E0F0
:1048A000C4F800CB01E0C1F8005BC1F8105BC1F8AF
:1048B00008AB401C8242E9D8D4F81008C7F307427D
:1048C000002A6FF0804120F48072C4F81028A5619E
:1048D000616103D1A06940F01000A061A069C8F334
:1048E0000741094A1043A06119B1A06940F00800CE
:1048F000A061B9F1010F03D1A06904490843A06187
:104900003046BDE8F08F000000383C8004000040D5
:10491000816821F0010181600020704710B5144CBE
:10492000036CA34203D9D0F8003B002B1EDB00230D
:10493000C0F8103B0129D0F8101B41F40021C0F849
:10494000101BD0F8101B41F01801C0F8101BD0F854
:10495000101B41F0C041C0F8101B07D1C0F8142B48
:10496000D0F8001B41F08021C0F8001B002010BDD2
:104970000A30544F0B784A78012A00EB43100BD0D1
:10498000D0F8002B22F40012C0F8002B097903297B
:1049900014D0022912D017E0D0F8002922F4001216
:1049A000C0F800290979032901D002290CD1D0F8D7
:1049B000001941F08051C0F8001905E0D0F8001B43
:1049C00041F08051C0F8001B002070470A784B78F6
:1049D000D1B2012B00EB421012D0D0F8002B002AEC
:1049E00006DB29B1D0F8001B21F08041C0F8001B84
:1049F000D0F8001B41F40011C0F8001B00207047E4
:104A0000D0F80029002A06DB29B1D0F8001921F0DE
:104A10008041C0F80019D0F8001941F40011C0F825
:104A20000019EBE7F8B50B786FF060464F788B4DC7
:104A3000DCB2012F00EB43132DD0D3F8107B002CF8
:104A40004FEAD7444FEAC444C3F8104BD3F8104B95
:104A500004EA0504C3F8104B7ED00D69002D7CD00C
:104A60008C6825446D1EB5FBF4F5ADB26C430C6249
:104A700006EAC545D3F8104B2C43C3F8104BD3F8C6
:104A8000104B0D6AC5F3120554EA0504C3F8104B28
:104A9000012A6ED0C9E00F6937B3D3F810796FF3EC
:104AA0001207C3F81079D3F8107907EA0507C3F89D
:104AB00010794CB30F698D68D3F810C92F447F1E4D
:104AC000B7FBF5F506EAC54545EA0C05C3F81059EC
:104AD0000E69D3F81059C6F312063543C3F81059BE
:104AE0000D79012D1CD027E0D3F810692E40C3F8B2
:104AF0001069D3F8105945F40025C3F81059D3F8BC
:104B000010596FF3120515E00E698D68AE4200D999
:104B10000D61D0F8106946F40026C0F81069D7E797
:104B2000D3F8105925F0C045C3F81059D3F81059DF
:104B300045F00055C3F81059012A1BD000EB44136F
:104B4000D3F8004944F00444C3F800490C79012C1F
:104B500031D00A6972B301E042E055E00B78D0F839
:104B60003418012203F00F039A401143C0F834189F
:104B700071E056E0CA691AB100EB4413C3F8142976
:104B8000097901290ED1D0F80818C90500EB4411A4
:104B9000D1F8002902D442F0005201E042F08052E4
:104BA000C1F8002900EB4410D0F8001941F004418D
:104BB000C0F800194FE0D0F80848E405D3F80049E0
:104BC00002D444F0005401E044F08054C3F800499A
:104BD00000920B8A0A78C9689BB200F0E1F93AE0CA
:104BE0000C690CB18C680C618C680C62C4F3120502
:104BF000D0F8104B2C43C0F8104BD0F8104B44F4B5
:104C00000024C0F8104B43E78D68D3F8104BC5F370
:104C100012052C43C3F8104BD3F8104B44F4002476
:104C200034E7CA680AB1C3F8142B097901290CD1F9
:104C3000D0F80808C005D3F8000B02D440F00050AB
:104C400001E040F08050C3F8000BD3F8000B40F0B7
:104C50000440C3F8000B0020F8BD0000FFFF07E090
:104C600038B5002242F21074002300920A784D7881
:104C7000012D00EB421219D0D2F8005B002D3CDA76
:104C8000D2F8005B45F00065C2F8005B0A7800EBE3
:104C90004212D2F8005B45F08045C2F8005B009AF2
:104CA000521C0092A24221D9012326E0D2F80059D9
:104CB000002D22DAD2F8005945F00065C2F80059FB
:104CC0000A7800EB4212D2F8005945F08045C2F84C
:104CD0000059009A521C0092A242E5D80A7800EBD3
:104CE0004212D2F80029002AF3DB06E00A7800EB32
:104CF0004212D2F8002B002AD1DB184638BD816859
:104D000041F0010181600020704708B500214FF09B
:104D100070620091009B5B1C009393420AD8036968
:104D2000002BF7DA0091102303610099491C0091D0
:104D3000914201D9032008BD0169C906F5D40020BC
:104D400008BD18B500224FF070630092009C641CEF
:104D500000949C420CD80469002CF7DA20240092BD
:104D600044EA811101610099491C0091994201D9DD
:104D7000032018BD01698906F5D4002018BDD0F8BC
:104D8000080810F0060004D0022803D0062801D03D
:104D90000F20704702207047406900F00100704703
:104DA000D0F81818D0F81C08084080B27047D0F826
:104DB0001818D0F81C080840000C704710B5D0F83F
:104DC000102801F00F0300EB4114D0F83418D4F888
:104DD0000809D94001F0010142EAC111084010BDA3
:104DE00000EB4111D1F8081BD0F8140808407047B7
:104DF00041698069084070470346084630B5940809
:104E000002F00301002203F5805303E01D68521CE9
:104E100040F8045BA242F9D300290CD01C6800239F
:104E2000491EDD00090403F10103090C24FA05F20F
:104E300000F8012BF4D130BD70B50446C0680129DB
:104E40004FF0000520F0C040E06001D079B120E0D3
:104E5000E06840F00050E0600A20FBF7E5FD606983
:104E60000A3510F0010F10D1C82DF5D30DE0E06820
:104E700040F08040E0600A20FBF7D6FD60690A350B
:104E800010F0010F01D0C82DF5D3C82D01D000209E
:104E900070BD012070BDD0F800284FF4FE6303EA16
:104EA000011322F4FE62C0F80028D0F8001819435C
:104EB000C0F8001800207047022A3ED1264A274B2E
:104EC0000A449A4201D20F2138E0254A254B0A4470
:104ED0009A4201D20E2131E0234A244B0A449A42DD
:104EE00001D20D212AE0224A224B0A449A4201D2E1
:104EF0000C2123E0204B214A0B44934201D20B2189
:104F00001CE01F4B1F4A0B44934201D20A2115E0BB
:104F10001D4B1E4A0B4493420FD31D4B1D4A0B449D
:104F2000934201D2082109E01B4B1C4A19449142CB
:104F300001D2072102E0062100E00921C2684FF4F6
:104F4000705322F47052C26003EA8123C16819438E
:104F5000C160002070470000405327FF00350C005F
:104F6000401E1BFF40420F0000DC0BFF804F120071
:104F7000808CF9FE20D6130060B6E5FE60E31600D3
:104F800000D3CEFE40771B00C05BB3FEC091210072
:104F900000CA91FE20753800E05459FEE09C4100A3
:104FA00010B5029C74B900EB0232DB1C00209B0898
:104FB00002F5805204E000BF51F8044B1460401C1D
:104FC0009842F9D3002010BDFEE7090700284FEAF8
:104FD000116104DB00F1E02080F80014704700F05C
:104FE0000F0000F1E02080F8141D70471FB5002469
:104FF0000094019402940394FBF7D4FE01208DF8F1
:105000000C001F218DF8081087228DF809208DF8DB
:105010000D008DF8000068468DF80A408DF80E40AE
:105020008DF8014001948DF80B408DF80F40FBF78F
:105030008BFE0420FBF7C4FEFBF738FEFEF712F9E7
:10504000FDF774FEFDF75EFE00F00FF8FEE7842822
:1050500001464FF0000000D0C81C704710B500B9E1
:10506000012000F02BFB002010BD10B500F04CFB20
:10507000002010BD7FB50D4641690446B0F9080017
:1050800081B1A16971B1FFF7E2FFD4E905122B46A6
:105090008DE807002269D4E9001000F05EFC03905F
:1050A00004B070BDFFF7D3FF03A92B46CDE9000183
:1050B000228AD4E9001092B200F022FC012801D02B
:1050C0000020EDE70398EBE72DE9F041184C0F467F
:1050D0000546E6682068001D00F026FA38B9226807
:1050E0000121206992F82C20914088432061681C9E
:1050F00007D137B12168BDE8F0410E48091D00F025
:1051000059BA20683544B5424560216805D2A06B84
:10511000091DBDE8F04100F035BA606B091D00F0D3
:1051200031FAA06A854200D2A562BDE8F081000094
:1051300018000024B00400242DE9F041054600F0D9
:1051400045FA2E4C2E4FA068401CA060206810B17C
:10515000606940B32DE02560A068012829D10026B0
:1051600006EB860007EB800000F0FEF9761C072EA8
:10517000F6D323488C3000F0F7F92148A03000F036
:10518000F3F91F48B43000F0EFF91D48C83000F0C3
:10519000EBF91B48DC3000F0E7F919488C3060630C
:1051A0001430A06305E0E86A2168C96A814200D82A
:1051B00025600120616A491C6162E96A22698840B0
:1051C0001043206101EB8100291D07EB800000F0F6
:1051D000F1F900F01BFA606900280CD02068E96A38
:1051E000C06A884207D207494FF080500860BFF379
:1051F0004F8FBFF36F8FBDE8F081000018000024CF
:10520000D403002404ED00E010B5044690F85100EA
:1052100058B101280CD002280FD0502080F31188FB
:10522000BFF34F8FBFF36F8FFEE7206B00F002FAE2
:105230002046BDE8104000F0FDB910BD11484FF404
:10524000705110B5420706D00E49C01D20F007006E
:10525000411AC1F570510C4C002301440839A4F1E6
:10526000180221F00701C4E900030C1A11604B6019
:105270000B60C0E9001494604FF00041546051612C
:1052800010BD0000C40400246C000024144E4FF034
:105290008058144CDFF85090A6F1C80712E000BF08
:1052A00000F094F9F068C568281D00F03DF9A06889
:1052B000401EA0606068401E606000F0A7F92846AC
:1052C000FFF7A2FF60680028EAD138680128F9D901
:1052D000C9F80080BFF34F8FBFF36F8FF2E7000074
:1052E0009C0400241800002404ED00E02DE9F047A0
:1052F0009A4681466FF00303DDE9098403EB8202DD
:10530000089E206B104420F00707780707D0502034
:1053100080F31188BFF34F8FBFF36F8FFEE74FF01D
:10532000000561B1002023180A5C83F834200A5C70
:1053300012B1401C1028F6D384F8435001E084F8E1
:105340003450072E00D30626E662201DC4E91165FD
:1053500000F015F904F1180000F011F9E564C6F148
:105360000700A06184F850505246246149463846EF
:10537000646200F0C1F8B8F1000F206001D0C8F8F5
:105380000040BDE8F087000030B5114900E011464B
:105390000A688242FBD34B685C18844203D144689C
:1053A000084623444B6043681D18954209D1084CB8
:1053B000183C2468A24209D052681A4442600A6824
:1053C00012680260814200D0086030BD0460F9E7D5
:1053D0006C0000240648416B096829B1416BC9681B
:1053E000C9684968816270474FF0FF31FAE70000F1
:1053F0001800002408484068401C4FF0500080F31B
:10540000118804D0BFF34F8FBFF36F8FFEE7BFF358
:105410004F8FBFF36F8FFEE7740000242DE9F0413A
:105420000027044600F0A6F9324E306808B9FFF7AD
:1054300005FF706904424ED1C4B3083460070ED032
:1054400004F00700C0F108000444600707D05020B2
:1054500080F31188BFF34F8FBFF36F8FFEE72CB33C
:105460007068844237D82348183001460D6801E03F
:1054700028460D466968A14202D229680029F7D161
:1054800031688D4227D0076829680160083768684D
:10549000011B10290FD92819420708D0502080F38A
:1054A0001188BFF34F8FBFF36F8FFEE713E04160AA
:1054B0006C60FFF769FF69687068401A7060B268D5
:1054C000904200D2B060002072691143C5E900012A
:1054D000F068401CF06000F0DFFA780707D0502039
:1054E00080F31188BFF34F8FBFF36F8FFEE738460D
:1054F000BDE8F0815400002470B5041F094E231F3D
:105500004FF0807521F0010125601C1F1960A0F18A
:1055100020010B1F266044380A606FF002051D60F1
:1055200070BD0000F5530008D0E9013201699A60AE
:10553000D0E901235A604A68824201D182684A60F8
:10554000002202610868401E086008687047000079
:1055500010B5044C8023046004F15400086013600B
:1055600010BD0000800100244FF0FF3300F108015E
:105570000022C0E901130260C1600161704700218F
:105580000161704730B50B685A1C02D000F1080267
:1055900002E0026904E02246546825689D42FAD977
:1055A00053684B6099608A60516008610168491CCA
:1055B000016030BD42684A6093688B6093685960AF
:1055C000916008610168491C01607047502080F3B8
:1055D0001188BFF34F8FBFF36F8F0A494868401C93
:1055E000486001280CD10848006810F0FF0F07D070
:1055F000502080F31188BFF34F8FBFF36F8FFEE70A
:10560000704700007400002404ED00E00849486879
:1056100028B1401E486001D180F3118870475020A6
:1056200080F31188BFF34F8FBFF36F8FFEE7000049
:105630007400002470B500282AD0164DA0F108048B
:1056400061686869014207D1502080F31188BFF377
:105650004F8FBFF36F8FFEE722683AB1502080F37F
:105660001188BFF34F8FBFF36F8FFEE781436160F7
:1056700000F080F860686968084468602046FFF7B9
:1056800083FE2869401C2861BDE8704000F004BA20
:1056900070BD0000540000244FF0E02000210161A3
:1056A0004FF47A728161072303490968B1FBF2F173
:1056B000491E41610361704710000024020010B5CB
:1056C00014D00F48006B38B1502080F31188BFF31D
:1056D0004F8FBFF36F8FFEE700F04CF800211046AC
:1056E000FFF7F2FC00F0D8F9002807D105494FF088
:1056F00080500860BFF34F8FBFF36F8F10BD000065
:105700001800002404ED00E010B586B0002405AABE
:1057100004A9039403A80494FFF71AFFDDE9030129
:1057200000940023CDE9011010480EA1059A00F065
:1057300014F90F490028C86211D0502080F3118855
:10574000BFF34F8FBFF36F8F01224FF0FF3088629E
:105750004A61CC6006B0BDE8104000F041B806B028
:1057600010BD000049444C45000000008D52000867
:10577000180000240248016B491C016370470000B7
:10578000180000241448016B11B10121C161704758
:105790000021C16111490269B2FA82F2C2F11F020D
:1057A00002EB820251F822306BB101EB820101F170
:1057B00008034A6852684A609A4201D152684A60B6
:1057C000D16801607047502080F31188BFF34F8F7C
:1057D000BFF36F8FFEE7000018000024D4030024FD
:1057E00037481CB5374902688A4207D1502080F3F8
:1057F0001188BFF34F8FBFF36F8FFEE73149006809
:10580000491E884207D1502080F31188BFF34F8F83
:10581000BFF36F8FFEE72C49FF200A7801920870D2
:1058200008788DF800009DF800209DF8000002F037
:10583000F002824207D0502080F31188BFF34F8FCF
:10584000BFF36F8FFEE79DF8002007201F4C02F08A
:1058500050022270A06005E09DF8002052008DF8F3
:105860000020401E9DF800201206F5D40328A060F9
:1058700007D0502080F31188BFF34F8FBFF36F8F95
:10588000FEE74FF44070A060019808700C4820308B
:10589000016841F470010160016841F070410160EC
:1058A000FFF7FAFE00206060FAF78EFD08480168F5
:1058B00041F040410160FAF773FD00201CBD00007B
:1058C00000ED00E071C20F4100E400E0740000242C
:1058D00034EF00E0502010B580F31188BFF34F8FF4
:1058E000BFF36F8F00F072F818B104494FF0805089
:1058F0000860002080F3118810BD000004ED00E076
:105900002DE9FF5F994616468A4683469000DDE9F9
:105910000E87FFF783FD05001CD05420FFF77EFDA6
:10592000040014D00020256384F851004B46CDE9D3
:105930000087CDE90240324651465846FFF7D6FC73
:105940002046FFF7F9FB012004B0BDE8F09F284690
:10595000FFF770FE4FF0FF30F6E7F0B585B0DDE9F8
:105960000B740A9DA7B1DCB154262763022684F884
:105970005160002703970DF1100C0095CDE901C48B
:10598000FFF7B4FC2046FFF7D7FB049805B0F0BD45
:10599000502080F31188BFF34F8FBFF36F8FFEE766
:1059A000502080F31188BFF34F8FBFF36F8FFEE756
:1059B0000548416919B1006B18B1002070470120FA
:1059C0007047022070470000180000242DE9F041C4
:1059D0002F4C206B002728B1A069401CA0613846DD
:1059E000BDE8F081E668761CE66013D1606B006864
:1059F00038B1502080F31188BFF34F8FBFF36F8F02
:105A0000FEE7606BA16B6163A063206A401C2062AB
:105A1000FFF7E0FCDFF87C80A06A864209D3606B68
:105A20000068A0B1606BC068C5686868864211D222
:105A3000A0622068C06A00EB800158F821000128AC
:105A400000D90127E0690028C9D00127C7E74FF036
:105A5000FF30EDE7281DFFF767FDA86A18B105F1D3
:105A60001800FFF761FDE96A0120226988401043B0
:105A7000206101EB810108EB8100291DFFF79AFDF0
:105A80002068E96AC06A8142C9D30127C7E70000DC
:105A900018000024D40300242DE9F0472C4D286B76
:105AA0000024264638B1FFF791FD286B401E28637D
:105AB000286B40B147E0502080F31188BFF34F8F2F
:105AC000BFF36F8FFEE7234F0120A968D9B3A7F179
:105AD000B40980463868E8B1F868C46804F1180071
