:020000040800F2
:10000000D863002465040008BF4800087B46000848
:10001000BD480008C1180008E56C00080000000099
:10002000000000000000000000000000A503000820
:10003000411900080000000001040008174F0008E3
:100040007F0400087F0400087F0400087F04000884
:100050007F0400087F0400087F0400087F04000874
:100060007F0400087F0400087F0400087F04000864
:100070007F0400087F0400087F0400087F04000854
:100080007F0400087F0400087F0400087F04000844
:100090007F0400087F0400087F0400087F04000834
:1000A0007F0400087F0400087F0400087F04000824
:1000B0007F0400087F0400087F0400087F04000814
:1000C0007F0400087F0400087F0400087F04000804
:1000D0007F0400087F0400087F0400087F040008F4
:1000E0007F0400087F040008000000007F0400086F
:1000F0007F0400087F0400087F0400087F040008D4
:100100007F0400087F0400087F0400087F040008C3
:100110007F0400087F0400087F0400087F040008B3
:100120007F0400087F0400087F0400087F040008A3
:100130007F0400087F0400087F0400087F04000893
:1001400000000000000000000000000000000000AF
:100150007F0400087F0400087F0400087F04000873
:100160007F0400087F0400087F0400087F04000863
:100170007F0400087F0400087F04000800000000DE
:100180007F0400087F0400087F0400087F04000843
:100190007F0400087F0400087F0400087F04000833
:1001A0007F0400087F0400087F0400087F04000823
:1001B0007F0400087F0400087F0400087F04000813
:1001C0007F0400087F0400087F0400087F04000803
:1001D0007F040008C14800087F0400087F0400086D
:1001E0007F0400087F0400087F0400087F040008E3
:1001F0007F0400087F0400087F0400087F040008D3
:100200007F0400087F0400087F0400087F040008C2
:100210007F0400087F0400087F0400087F040008B2
:100220007F0400087F0400087F040008000000002D
:100230007F0400087F040008000000007F0400081D
:100240007F0400087F0400087F0400087F04000882
:100250007F0400087F0400087F0400087F04000872
:100260007F0400087F0400087F0400087F04000862
:100270007F0400087F0400087F04000800000000DD
:100280007F0400087F0400087F04000800000000CD
:10029000000000007F04000800F002F800F072F88F
:1002A0000AA090E8000C82448344AAF10107DA45D1
:1002B00001D100F067F8AFF2090EBAE80F0013F0B1
:1002C000010F18BFFB1A43F0010318473C770000E9
:1002D0005C7700000A444FF0000C10F8013B13F06B
:1002E000070408BF10F8014B1D1108BF10F8015B8F
:1002F000641E05D010F8016B641E01F8016BF9D182
:1003000013F0080F1EBF10F8014BAD1C0C1B09D1D8
:100310006D1E58BF01F801CBFAD505E014F8016B4A
:1003200001F8016B6D1EF9D59142D6D370470000DC
:100330000023002400250026103A28BF78C1FBD8EE
:10034000520728BF30C148BF0B607047662907F0CD
:10035000D282642900F06281752900F05F817829DA
:1003600000F09881002070471FB507F0BFFA00F039
:1003700089FD04000020002107F0A2FAE0601FBD03
:1003800010B510BD00F07AFE1146FFF7EDFF06F044
:10039000DAFC00F098FE03B4FFF7F2FF03BC00F0B4
:1003A000CDFE00002C4B19680868B0E8F04F80F3D0
:1003B0000988BFF36F8F4FF0000080F311887047FA
:1003C0000000000008480068006880F308884FF0CB
:1003D000000080F3148862B661B6BFF34F8FBFF39D
:1003E0006F8F00DF00BF00BF08ED00E0DFF80C00FA
:1003F000016841F470010160704700BF88ED00E0C2
:10040000EFF30980BFF36F8F134B1A681EF0100FC4
:1004100008BF20ED108A20E9F04F106009B44FF0BA
:10042000500080F31188BFF34F8FBFF36F8F07F039
:100430005BF84FF0000080F3118809BC1968086868
:10044000B0E8F04F1EF0100F08BFB0EC108A80F338
:100450000988BFF36F8F704734000024EFF30580E5
:10046000704700000948804709480047FEE7FEE75B
:10047000FEE7FEE7FEE7FEE7FEE7FEE7FEE7FEE754
:1004800004480549054A064B70470000155000080E
:1004900099020008D85D0024D8630024D85F0024A6
:1004A000D85F002453EA020C00F069802DE9F04B7C
:1004B0004FF00006002B1FBFB3FA83F503FA05F4D3
:1004C00024FA05F65E4012BF1643B2FA82F502FA2C
:1004D00005F4C5F120051EBF22FA05FC44EA0C0410
:1004E000203556EA044C4FEA144418BF641C4FF000
:1004F00000084FF00009904271EB030C39D300293A
:1005000019BFB1FA81F701FA07F6B0FA80F700FADD
:1005100007F6C7F120071EBF20FA07FC46EA0C06C3
:100520002037B6FBF4FCA7EB0507103F07F01F0BC5
:10053000CBF120060CFA0BFB2CFA06F644BFB346AF
:100540000026202FA4BF5E464FF0000B5BEA060C8E
:1005500008BF4FF0010B19EB0B09ABFB027C48EB1A
:100560000608C01B06FB02CC0BFB03CC71EB0C0195
:10057000C1E70B46024641464846BDE8F08B13B53D
:100580004FF000004FF00001AFF30080BDE81C40C9
:10059000704700000FB47CB50C0009AA009001D090
:1005A0002044401E084B7B4469460190089800F0A7
:1005B00048FC05461CB10020694600F055FC284661
:1005C0007CBC5DF814FB0000C908000070B504464F
:1005D00085690068C10601D5302600E02026C007E5
:1005E00007D070BDD4E9012130469047206A401CF5
:1005F00020626D1EF6D570BD70B504468569007821
:10060000C00707D170BDD4E9012120209047206A9E
:10061000401C20626D1EF6D570BD00002DE9F04132
:100620000646002410687529314616A510D0AFF390
:100630000080002802DA404213A507E031688A07EB
:1006400001D512A502E0490704D511A5012401E056
:10065000AFF3008000210A2206F1240709E0B0FB75
:10066000F2FCB0FBF2F302FB1C0030307854184669
:10067000491C0028F3D123462A463046BDE8F04104
:1006800000F073B9000000002D0000002B000000F6
:100690002000000070B504460D4621461068AFF3F7
:1006A00000802188090502D50F4A7A4402E00E4AEB
:1006B0007A440E32002104F1240305E000F00F0615
:1006C0000009965D5E54491C0028F7D1207800236C
:1006D000000704D5702D02D009B102231132204643
:1006E000BDE8704000F041B97A7200002DE9F05F7A
:1006F000894604464FF0000ADFF874B1FB44C0F8A5
:1007000020A02046E1688847002874D0252806D01C
:10071000D4E901219047206A401C2062F1E70026BD
:100720005F462046E16888472028054607DB312DD3
:1007300005D2781910F8200C08B10643F1E7B0078C
:1007400001D526F00406C4F81CA00027C4F818A0A0
:100750002A2D09D0284606F0EFFA38B304EB8708B3
:10076000303DC8F8185019E059F8041B204604EB36
:1007700087029161E1688847012F054618D1E06939
:10078000002820DA26F020061DE0D8F8180000EB3B
:10079000800005EB40003038C8F818002046E168BA
:1007A0008847054606F0C8FA0028EED1012F0AD086
:1007B0002E2D08D12046E16888477F1C0546022F70
:1007C00046F02006C4DBA069002803DA404246F068
:1007D0000106A061F00701D026F010066C2D0BD0A9
:1007E000682D09D04C2D39D06A2D35D0742D35D0D7
:1007F0007A2D33D016E038E0E1682F46204688474E
:10080000B842054609D16C2F26D04FF48060E168CC
:10081000064320468847054604E06C2F1AD04FF463
:10082000807006430DB3A5F14100192802D8203588
:1008300046F400664A462946204626604E46FFF7A3
:1008400085FD80B101280BD0F61D26F0070000F1D0
:10085000080956E74020E4E78020D8E70020D6E7E3
:1008600006F104094DE7284652E7206ABDE8F09FEB
:100870005072000010B5431C02E010F8011B71B16A
:100880008107FAD14FF0013202C88C1A8C4314EA66
:10089000C211F9D0C01A0A0603D0C01E10BDC01A7A
:1008A00010BD0A0401D0801E10BD0902FCD0401EFC
:1008B00010BD10B5203AC0F00B80B1E81850203AB6
:1008C000A0E81850B1E81850A0E81850BFF4F5AFF0
:1008D0005FEA027C24BFB1E81850A0E8185044BF7A
:1008E00018C918C0BDE810405FEA827C24BF51F8E7
:1008F000043B40F8043B08BF7047D20728BF31F8DB
:10090000023B48BF11F8012B28BF20F8023B48BF2B
:1009100000F8012B70474FF0000200B513469446D3
:100920009646203922BFA0E80C50A0E80C50B1F147
:100930002001BFF4F7AF090728BFA0E80C5048BF5B
:100940000CC05DF804EB890028BF40F8042B08BFF9
:10095000704748BF20F8022B11F0804F18BF00F8F5
:10096000012B70477047704770472DE9F0470D46DF
:1009700099469246044600F124080168880604D589
:10098000E06921F01001216000E00120A84201DDB2
:10099000471B00E00027A1697A1902EB0900081A39
:1009A000A0612078C00602D42046FFF70FFE002683
:1009B00008E0D4E901211AF806009047206A401C9B
:1009C000761C20624E45F4DB2078C0060AD520460E
:1009D000FFF7FCFD06E0D4E9012130209047206AB2
:1009E000401C2062381EA7F10107F4DC07E0D4E9BF
:1009F000012118F805009047206A401C2062281E3B
:100A0000A5F10105F3DC2046FFF7F6FD207800068E
:100A100002D50220BDE8F0870120FBE770472DE9F1
:100A2000FF4F0C461E464FF0FF378BB0D2E9000156
:100A3000DDF860800A908A46C1F30A5505B93D4643
:100A4000002108464FF00000BAF1000F00F440000A
:100A500005DA00EB80004FF4400101EA50004FEA54
:100A60009059B9F1010F00DDB9460A9850EA4A00E1
:100A70000ED044F61050A5F2FF3545432F14B8F1BF
:100A8000000F1ED07542291E1EDDC9F100021CE0B8
:100A9000B8F1010F4FF0000001D0302103E0F24324
:100AA00005E02154401CB042FBDB3046002200210F
:100AB00021540B99C1F80880C1E900200FB0BDE8AE
:100AC000F08FBD1B6D1CDEE74A4600DA694206A8BE
:100AD00000F062FA06AB93E8070003AB83E8070077
:100AE00050460A9900F031FB8DE80700A0F5005050
:100AF0001F3800900398002D09DD42F21F014A467D
:100B0000084403A90390684600F090FD08E0A0F5B2
:100B100000504A461F3803A90390684600F09AFD2A
:100B20008DE807000004000C03D04FF0FF304108AF
:100B300000E01046B8F1000F03D0002200921546E5
:100B40001EE0751E05D400F0A1F9303262556D1E0D
:100B5000F9D5B3460122084302D000227F1C04E0ED
:100B60002078302801D100227F1E002A099786D0E4
:100B70001DE0112D07DA00F089F9303262556D1C45
:100B800050EA0102F5D1084302D00098C8B10EE046
:100B90000021681E05E0235C625C63542254401E01
:100BA000491C8142F7DBAB46A81B401E0990002080
:100BB00004F80B000B98099AC0F80880C0E9002BD4
:100BC0007CE711264FF0000859E72DE9F04F8846E1
:100BD0000446D21D22F0070191B0D1E90001CDE910
:100BE0000A0106F080F802460B98C00F01D02D20B4
:100BF00007E02068810701D52B2002E0202101EACF
:100C0000C000032A099001D0072A05DB03464146AC
:100C1000204600F081F90BE12078800601D5E069DB
:100C200000E00620B8F1650F814606D0B8F1660FE6
:100C300018D0B8F1670F70D131E00020B9F1110F71
:100C4000009001DB112301E009F101030AAA01A9C7
:100C50000CA8FFF7E4FEDDE90C70002609F10105A0
:100C6000834647E001204B4600904FF000470AAA18
:100C700001A90CA8FFF7D3FEDDE90DB00C995D4684
:100C8000002610B909F101000D18B9EB050003D4D5
:100C9000C0F1FF3609F10105A5EB09002BE0B9F120
:100CA000010F01DA4FF001090020B9F1110F009096
:100CB000484601DD112300E003460AAA01A90CA859
:100CC000FFF7ADFEDDE90C704D4600268346207827
:100CD00000070AD4AB4500DA5D4601A8012D04DD0A
:100CE000411911F8011C302907D04F4502DA17F1DC
:100CF000040F04DA012082460FE06D1EEEE7002F9C
:100D000002DCED1B3E4403E0781CA84200DD7D1CA4
:100D1000B81B00F1010A4FF000472078000703D408
:100D2000AA4501DB4FF0FF3A0021B7F1004F0DF16A
:100D300043088DF8431024D002202B23002F01DA22
:100D40007F422D230A21021EA0F1010000DC5FB1C9
:100D500097FBF1FC97FBF1F201FB1C7C17460CF1B1
:100D6000300C08F801CDEEE7A8F1010003702188EE
:100D7000090501D5452100E06521A0F1010800F831
:100D8000011C09980FA9A1EB0807FF1D00B1012064
:100D9000411901EBEA70A1693844081A401EA061AC
:100DA0002078C00602D42046FFF710FC099828B12D
:100DB000D4E901219047206A401C20622078C006B7
:100DC00022D52046FFF702FC1EE0002E04DBB345CF
:100DD00002DD01A8805D00E03020D4E901219047C8
:100DE000206A401C2062761CAAF101005FEA000A1A
:100DF0000AD100F047F8C0680168405CD4E90121DD
:100E00009047206A401C2062281EA5F10105DCDC09
:100E100007E0D4E9012118F8010B9047206A401C33
:100E20002062381EA7F10107F3DC2046FFF7E4FB40
:100E3000032011B043E6000001694A1C02610878F2
:100E4000704700B58FB0CDE901310021059105490A
:100E50007944CDE9031011466846FFF747FC0FB00F
:100E600000BD0000E5FFFFFF0A6802F8010B0A6001
:100E70007047D1E900239A4202D2531C0B601070D4
:100E80007047000000487047945D002430B5B0F111
:100E90000A024FEA900E71F100034EEA817EB0EB38
:100EA0000E0061EB91014FEA101E4EEA017E10EB3D
:100EB0000E0041EB11114FEA102E4EEA016E10EBBD
:100EC0000E0041EB11214FEA104E4EEA014E10EB9D
:100ED0000E0041EB1141401841F100014FEAD000F2
:100EE00040EA41704FEAD10110EB80054FEA8104DE
:100EF00044EA907444EB01046D1944EB0404521B62
:100F0000A3414FF0000348BF0A3200D530BD401C5A
:100F100041F1000130BD00002DE9F0411F460446BB
:100F200003260168072A01F4006004DB08B116A556
:100F300005E016A503E008B115A500E015A521F010
:100F400010002060A069C01EA0610FB1401EA0610A
:100F50002046FFF73BFB4FB1D4E9012138469047CB
:100F6000206A401C2062C01C206206E0206AFAE76A
:100F7000D4E9012115F8010B9047761EF8D22046DE
:100F8000FFF73AFBBDE8F0814E414E006E616E0006
:100F9000494E4600696E66002DE9F04781461646C7
:100FA0008AB0334878440DC88DE80D003048784445
:100FB000801C03AC0DC884E80D0041F69B3008444A
:100FC000372190FBF1F290FBF1F5A5F1800501FBD3
:100FD00012041B3C02D56442012000E00020DFF82F
:100FE00090A080460027FA44AAF1BE0A0DE0E0076F
:100FF00009D03246684607EB47010AEB810100F051
:1010000029FB8DE8070064107F1C002CEFD1184FDE
:101010007F44AC3F18E0E80714D007EB04100DF153
:10102000180A90E80E008AE80E00C068F04201D16C
:1010300098190890324606A903A800F00BFB03ABF1
:1010400083E807006D10641C002DE4D13246694628
:10105000B8F1000F03A802D000F0E8FA01E000F0B8
:10106000F9FAC9E90001C9F808200AB0BDE8F0871B
:10107000386A000000487047745D00247546FFF729
:10108000F9FFAE4605006946534620F00700854645
:1010900018B020B5FFF7F4F9BDE820404FF0000686
:1010A0004FF000074FF000084FF0000B21F0070150
:1010B000AC46ACE8C009ACE8C009ACE8C009ACE893
:1010C000C0098D4670470446AFF300802046FFF705
:1010D00062F900004FF0013C50F8042B51F8043B3A
:1010E0009A4215D1A2EB0C03934313EACC130BD114
:1010F00050F8042B51F8043B9A4209D1A2EB0C039F
:10110000934313EACC13E7D04FF00000704700BFC1
:10111000D01A01BAB1FA81F101F0180122FA01F0F6
:10112000CB40C1F12001DBB2C0B2C01A2CFA01F3EE
:10113000D11A914311EAC311E6D170470149182031
:10114000ABBEFEE72600020070475FEA400C08BF16
:1011500091F0000F4FEA8C234FEAC12243EA51512C
:101160004FEA1C5018BF00F5F0404FEA300018BF9E
:1011700041F000415FEA6C5C00F02980BCF1FF3F68
:1011800008BF40F080407047130C06BF12044FF0B8
:10119000100C4FF0000C130E04BF12020CF1080CDF
:1011A000130F04BF12010CF1040C930F04BF920043
:1011B0000CF1020CD30F04BF52000CF1010C1146CC
:1011C0004FF00002A0F11F00A0EB0C00704711F0DF
:1011D000004F08BF704731F000413FF4D5AF0B0C12
:1011E00006BF09044FF0100C4FF0000C0B0E04BFAB
:1011F00009020CF1080C0B0F04BF09010CF1040CDF
:101200008B0F04BF89000CF1020CCB0F04BF490007
:101210000CF1010CCCF12003A0EB0C0022FA03F33B
:1012200002FA0CF241EA030100F10100704720F0DC
:101230007F4C80EA030023F07F47ACEB070303F504
:101240007C5300F0004003F1FF032DE980494FEA91
:10125000154B09B44FEA144325EA0B4E24EA034820
:101260000FF2042606EB132749083E785FEA3202A4
:1012700003FB0667C7F5000707FB06F64FEA54377E
:101280004FEAD64606F1020607FB066CCCF1005C7D
:101290004FEA1C472CEA074C07FB06F40CFB06F54B
:1012A00004EB15464FEA961634BF00204FF000407D
:1012B0004FEAD13706FB07FC4FEA1C4C0CFB0BF73F
:1012C000D21B03FB0CF761EB07010CFB0EF7B0EB35
:1012D000074072EB17420CFB08F734BFA2EB074242
:1012E000B2EB074261EB17414FEA0C444FEA91071A
:1012F00006FB07FC4FEA1C4C0CFB0BF7B0EBC7409E
:1013000072EB573203FB0CF734BFA2EBC742B2EBD0
:10131000C74261EB57310CFB0EF7B0EBC70072EB25
:1013200057720CFB08F734BFA2EBC702B2EBC7023F
:1013300061EB5771039F4FEA816141EA921104EB1F
:10134000CC044FEAD1374FEA826206FB07FC42EA3F
:1013500090124FEA80604FEA1C4C0CFB0BF7D21B3B
:1013600003FB0CF761EB07010CFB0EF7B0EB07403A
:1013700072EB17420CFB08F734BFA2EB0742B2EB4B
:10138000074261EB17414FEA8C554FEA910704EB96
:101390009C2406FB07FC4FEA1C4C0CFB0BF7B0EB44
:1013A000C74072EB573203FB0CF734BFA2EBC742C6
:1013B000B2EBC74261EB57310CFB0EF7B0EBC70045
:1013C00072EB57720CFB08F734BFA2EBC702B2EB0B
:1013D000C70261EB577115EB4C254FEA816141EA79
:1013E00092114FEA82624FEAD13742EA901206FB2D
:1013F00007FC44F100044FEA80604FEA1C4C0CFBF0
:101400000BF7D21B03FB0CF761EB07010CFB0EF78C
:10141000B0EB074072EB17420CFB08F734BFA2EBAE
:101420000742B2EB074261EB174115EB1C154FEA7F
:10143000813141EA92414FEA823242EA90424FEAD8
:1014400080304FEA0C7644F1000448EA03434EEA48
:101450000B484FF0000EB2EB080C71EB030724BFF2
:10146000624639464EEB0E0E4FF0000B001852410B
:1014700049414BEB0B0BB2EB080C71EB03077BF113
:10148000000B24BF624639464EEB0E0E4FF0000BA8
:101490000018524149414BEB0B0BB2EB080C71EBBE
:1014A00003077BF1000B24BF624639464EEB0E0E5C
:1014B00051EA020718BF46F0010616EB0E7655F109
:1014C000000254F1000103D5BDE88901BDE80088A0
:1014D000BDE88901BDE80048B619524141EB010160
:1014E000A3F10103704780807F7E7D7C7B7A7978D1
:1014F000777676757473727171706F6E6E6D6C6CD9
:101500006B6A6A696868676666656464636362617A
:101510006160605F5F5E5E5D5D5C5C5B5B5A5A59FB
:101520005958585757565655555554545353525267
:101530005251515050504F4F4F4E4E4D4D4D4C4CBF
:101540004C4B4B4B4A4A4A49494948484847474708
:101550004746464645454544444444434343434245
:10156000424242414141002B26D4770021D01CB594
:101570004FEA370703B44FF010004FF010014FF05F
:1015800000000FBCBDE810400BF1010BBBF1010FD7
:1015900008BF5FEA170722BF12F1010211F1010132
:1015A0004FF0004143F1000300F0004043EA000027
:1015B0007047F9D35708DAE746EA064613F1400FB9
:1015C0004FEA16461FDD13F1200FDFBF16430A4610
:1015D000002120335B42C8D0C3F1200746EA06460B
:1015E00002FA07F74FEA164646EA0706C3F1200754
:1015F00022FA03F201FA07F721FA03F14FF0000390
:1016000042EA0702B1E746EA020646EA06464FEA20
:10161000164646EA0106BCBF46EA0646360C4FF0BF
:1016200000034FF000024FF000019EE72DE9C04893
:10163000934630B491E8380007C831EA400C48BFFF
:1016400034EA430C03D5FFF7F2FDFFF78CFFF0BC43
:10165000BDE800882DE9C048934630B491E83800D1
:1016600007C810F0804F08BF13F0804F03D100F07F
:1016700005F8FFF778FFF0BCBDE8008820F07F4751
:1016800080EA030023F07F4C07EB0C03A3F57C53A7
:1016900000F00040A3F1FE0392F0000F00F0B380D1
:1016A00095F0000F00F077802DE901494FEA1140D5
:1016B0004FEA144621EA004800FB06FC24EA0647EC
:1016C00008FB06F607FB08F800FB07F718EB0648CF
:1016D0004CEB164C4FEA124B18EB07484FEA1546F5
:1016E0004CEB174022EA0B4E0BFB06FC25EA0647A3
:1016F0000EFB06F607FB0EFE0BFB07F71EEB064E76
:101700004CEB164C4FF000061EEB074E4CEB174B04
:1017100018EB0B0840F1000018EB0E0B58EB00081B
:1017200040F100008F1A4FF000013CBFC943661B17
:1017300014BFB5EB040C00213CBFC943F61B4FEAB4
:1017400017444EEA8E0E27EA04454FEA1C4704FB75
:1017500007622CEA074C05FB07F70CFB05F604FBB8
:101760000CFC16EB074642EB174216EB0C4642EB1D
:101770001C421BEB060658EB0202414146EA9E065C
:1017800001D5BDE80189B619524141EB0101A3F130
:101790000103BDE801894FEA14454FEA114724EAE5
:1017A000054621EA074C05FB07F406FB07F70CFB8F
:1017B00006F105FB0CFC11EB074144EB17444FEA23
:1017C000124711EB0C4144EB1C4422EA074C05FB89
:1017D00007F206FB07F70CFB06F605FB0CFC16EB05
:1017E000074642EB174216EB0C4642EB1C456A18C3
:1017F00054F1000148BF7047B619524141EB010155
:10180000A3F10103704795F0000F37D04FEA114262
:101810004FEA144721EA024624EA074C02FB07F18B
:1018200006FB07F70CFB06F402FB0CFC14EB074469
:1018300041EB17414FEA154714EB0C4441EB1C41B7
:1018400025EA074C02FB07F506FB07F70CFB06F63B
:1018500002FB0CFC16EB074645EB174516EB0C4656
:1018600045EB1C42121951F1000148BF7047B619EF
:10187000524141EB0101A3F1010370474FEA1445C6
:101880004FEA114724EA054621EA074C05FB07F118
:1018900006FB07F70CFB06F24FF0000605FB0CFCFD
:1018A00012EB074241EB174112EB0C4251EB1C418A
:1018B00048BF7047921841EB0101A3F10103704743
:1018C000FEE7002070470020704700000549002215
:1018D000054810B503F0F2FD0449034803F0E1FDAB
:1018E000002010BDF04D002414410024F0450024D8
:1018F00010B504F0ABFC0449044803F0D2FD0348E2
:1019000003F0A8FD002010BDF04500241441002480
:1019100000207047094A10B5D2F8BC22D2F8142230
:101920000AB1012010BD0A460146044803F0C6FD75
:10193000BDE81040014803F037BE00001441002408
:10194000704772B6FEE7F0B5D1E90843CD690A6881
:10195000C2B10268254322F4F84213431D430560D7
:10196000D1E90125D1E903364C692A43456833435F
:1019700089691A43EB0B2243DB030A431A43426093
:101980000020F0BDD1E9012ED1E9036CD1E9057148
:1019900042EA0E0246EA0C0632433A430A43016821
:1019A0002A4322431A436FF30E010A430260E7E71A
:1019B000426943F6FE739A4342EA410141610020C5
:1019C000704770B591E81C00C9686FF01F05066983
:1019D0001A4305EB441444EA41210A4306EA45430D
:1019E0001A430261002070BD2DE9F04F8B8A6FF021
:1019F0000F05264C4FF07F4BD1F80C9004EB0353AE
:101A00006FF0FF044FEA042A1AB386684FEA0932DE
:101A10001F4FA2F580521A433E4032438260D1E903
:101A200000278E68521E05EB07150F8A2A43C568EA
:101A300004EB06240E7E0AEB074322431A430BEB0A
:101A400006610A4305F070431A43C2600020BDE8F6
:101A5000F08F91E804110F4E521E0F8A05EB081506
:101A60002A4304EB0C2C06EB09350E7E42EA0C02ED
:101A70002A4385680AEB074422431A430BEB0661AD
:101A80000A4305F070431A438260DFE70000F0FF6D
:101A9000FF0F0FFF00F0FFFF1CB502F00BFE03F07D
:101AA000F5F803F0EBF802F0DFFEC82005F087F947
:101AB0004B4880213CA2FEF76DFD4A4C81B260602C
:101AC0004748FFF727FF002547484FF480512A4633
:101AD000656000F048FD454800224FF4807100F039
:101AE00042FD43480122082100F03DFD414EDFF850
:101AF0000881424F606838B181B23948FFF70AFF68
:101B00000520656005F05BF9307803282AD1D8ED0F
:101B1000000A9FED3B0A32488021F8EE600A39A2A4
:101B200060EE800A20EE800AB7EEC00A8DED000B51
:101B3000FEF730FD606081B22948FFF7EBFE0A2016
:101B4000656005F03CF9264880213CA2FEF722FDA5
:101B5000606081B22248FFF7DDFE65600A203570C3
:101B600005F02DF93878012818D124213EA0FFF77F
:101B7000D1FED8F8000000F04FF94FF01E0188B1F7
:101B800043A000BFFFF7C6FE0A2005F018F914486D
:101B9000802147A23D70FEF7FDFC60600A2005F041
:101BA0000EF9A7E74CA0EDE75B494E49545D20557F
:101BB0005342202B20534452414D20526561647999
:101BC000212053656E64203078354120746F207376
:101BD0007461727420726563762062696E0D0A000A
:101BE000F45C0024940100240018025800200258DC
:101BF000001002580C0000241000002401000024F2
:101C00000000803A5B494E464F5D2042696E204697
:101C1000696C65205265637620436F6D706C6574E6
:101C2000652120546F74616C2053697A653A2025D0
:101C30002E3266204D420D0A000000005B524541E5
:101C400044595D2053656E642030786630306620DC
:101C5000746F207374617274204650474120636F23
:101C60006E6669670D0A00005B465047415D205370
:101C700074617274204650474120636F6E666967D5
:101C800075726174696F6E2E2E2E0D0A00000000B1
:101C90005B465047415D20436F6E666967757261B0
:101CA00074696F6E206661696C6564210D0A0000BD
:101CB0005B52454144595D2057616974206E6578D7
:101CC0007420737461727420636D642028307835D9
:101CD00041290D0A000000005B465047415D20434A
:101CE0006F6E66696775726174696F6E2073756374
:101CF00063657373210D0A002DE9F041154B002532
:101D000001262A46DC1F19E0A77917B1012F06D05A
:101D100012E0875CF02F0FD11F70A6710DE0875C79
:101D20004FF0020C5F7084F806C093F800C0BCF15D
:101D3000F00F01D10F2F05D0A571521C8A42E3D3B9
:101D4000BDE8F0812021667003A0FFF7E3FDA571D7
:101D5000F6E70000070000245B465047415D205332
:101D60007461727420636F6E66696720636D6420AE
:101D700072656365697665640D0A000070B50028B8
:101D800022D01249124C4A7962B9124A13680025CE
:101D900043F08076166001236560226842F00102FC
:101DA00022604B7100230C490C4A0968A0FB010119
:101DB000FEF778FB62686168104400E06168814268
:101DC000FCD861688142FCD370BD00000000002493
:101DD000001000E0FCED00E02C00002400CA9A3B5B
:101DE00070B50B4C01200B4D0022082120702846B5
:101DF00000F0B9FB0A2004F0E2FF01222846082186
:101E000000F0B1FB0A2004F0DAFF0220207070BD60
:101E100000000024001002582DE9F04F050095B095
:101E200002D0B5F5000F07D9182180A0FFF772FD89
:101E3000012015B0BDE8F08FFFF7D2FF122182A07C
:101E4000FFF768FD0A2004F0BAFF854F0220DFF893
:101E5000149242F21076040321463870484600F08E
:101E60007DFBB8700821804800F078FBA2464FF057
:101E700006080324F87004E0012004F0A0FF761E99
:101E800027D05146484600F069FB0028F4D01421C1
:101E900076A0FFF73FFD0A2004F091FF4FF4805B2E
:101EA00078480022594600F05EFBDFF8DCA10022F2
:101EB0004FF48071504600F056FB26213C7073A011
:101EC000FFF728FD0A2004F07AFF00244FF0404677
:101ED00055E0182187F8008076A0FFF71BFD0A2047
:101EE00004F06DFFA0E0305D00F030F941F2883081
:101EF000B4FBF0F100FB114030BB402104A8FEF719
:101F00000AFD00EE104A00EE905AB8EE400AF8EED4
:101F1000600ADFED6E1A402123466DA280EE201A82
:101F200004A821EE210AB7EEC00A8DED020B009540
:101F3000FEF730FB04A8FEF79DFC81B204A8FFF772
:101F4000E9FC0A2004F03BFFA4F12E00072815D875
:101F5000402101A8FEF7DFFC305D402165A2234649
:101F6000009001A8FEF716FB01A8FEF783FC81B2E2
:101F700001A8FFF7CFFC0A2004F021FF641CAC424B
:101F8000B1D3404D00245E46D346002258464FF45C
:101F9000807100F0E8FA1420FFF7F0FE01223146CC
:101FA000284600F0E0FA1E20FFF7E8FE0022314646
:101FB000284600F0D8FA1E20FFF7E0FE641CE4B2C9
:101FC000202CE2D3042038704FF4804A48464FF466
:101FD000FA64514600F0C2FA387104E0012004F0BE
:101FE000EEFE641E1AD05146484600F0B7FA0028AB
:101FF000F4D001223146284600F0B5FA01225846B5
:10200000110200F0B0FA05203870182142A0FFF745
:1020100081FC0A2004F0D3FE00200AE7162187F88D
:10202000008044A0FFF776FC032002E75B465047A0
:10203000415D20496E76616C69642062696E20732F
:10204000697A650D0A0000005B465047415D2046F5
:10205000504741205265736574204F4B0D0A0000B4
:102060000000002400080258001002585B46504748
:10207000415D20494E49545F422072656164790D8B
:102080000A00000000180258002002585B46504722
:10209000415D2053656E64696E672062696E2064DD
:1020A0006174612066726F6D20534452414D2E2E33
:1020B0002E0D0A005B465047415D20494E49545F52
:1020C000422074696D656F75740D0A000000C84286
:1020D0005B465047415D2050726F67726573733A7B
:1020E0002025752F25752028252E31662525290DBB
:1020F0000A0000005B465047412053656E645D2036
:102100004F6666736574203078253034583A203035
:1021100078253032580D0A005B465047415D204318
:102120006F6E66696720636F6D706C6574650D0A0C
:10213000000000005B465047415D20444F4E452063
:1021400074696D656F75740D0A0000002DE9F04F1C
:10215000274D0024274E93B04FF4805881464FF40A
:10216000807BC4F107010120CFB2B84010EA09001A
:10217000824600D001200090B9F1AA0F16D140216B
:1021800002A8FEF7C8FB0098631C40211AA2CDE903
:10219000007002A8FEF7FEF902A8FEF76BFB81B201
:1021A00002A8FFF7B7FB052004F009FE3068BAF17A
:1021B000000F02D040EA0B0001E020EA0B00306083
:1021C0001420FFF7DBFD286840EA080028601E2085
:1021D000FFF7D4FD286820EA080028601E20FFF7DA
:1021E000CDFD641CE4B2082CBBD313B0BDE8F08F66
:1021F00014180258142002585B4650474120426987
:10220000745D20706F733A256420286269742564B8
:1022100029202D2076616C75653A25640D0A000031
:1022200070B5044600F0AAF90546601C02D00448C7
:102230000078044400F0A2F9401BA042FAD370BD1C
:1022400020000024F0B5B7B0142130A8FEF763FBDE
:102250003048016800295BD101210160C021684636
:10226000FEF759FB002102250C46052250234FF0B2
:1022700080708DE82F00802608916846059512959C
:10228000CDE9065601F000F808B1FFF75AFB2248E5
:10229000016841F480510160006832AA032600F40D
:1022A000805035904FF63F00CDE930050C271B4894
:1022B00082E8D00030A900F03BF82C2032AACDE90A
:1022C0003005174830A982E8D00000F031F832AA72
:1022D00048F23710CDE93005124830A982E8D00025
:1022E00000F026F832AA4FF68370CDE930050E488B
:1022F00030A982E8D00000F01BF832AA4CF203703B
:10230000CDE93005094830A982E8D00000F010F886
:1023100037B0F0BD18000024D4440258001402580D
:10232000001C02580018025800100258000C0258F5
:102330002DE9F84F03247D4D00234FF001094FF0A4
:10234000B04B4FF00F0AE9E009FA03F73A4076D0B4
:102350000E7906F00306012E01D0022E18D1D0F816
:1023600008C04FEA430ECE6804FA0EF82CEA080CB7
:1023700006FA0EF646EA0C068660D0F804C00E791E
:102380002CEA070CC6F300169E4046EA0C0646608F
:102390000E79F643B6070BD0C6684FEA43088F683C
:1023A00004FA08FC26EA0C0607FA08F73743C76068
:1023B0000E7906F00306022E12D1DE080F694FEAED
:1023C000437C00EB8606B646366A4FEADC6C0AFAB6
:1023D0000CF807FA0CF726EA08063743CEF8207007
:1023E0000F7906684FEA430807F0030704FA08FC70
:1023F00007FA08F726EA0C06374307604E6816F41A
:10240000403F1CD04A4E376847F0020737603668B5
:102410009F0706F00206009623F0030606F1B04679
:10242000B6463F0FD6F80864DFF808810AFA07FCC1
:10243000404526EA0C0603D14FF0000C41E06CE069
:10244000DFF8F4C0604502D14FF0010C39E0DFF84D
:10245000ECC0604502D14FF0020C32E0DFF8E0C082
:10246000604502D14FF0030C2BE0DFF8D8C0604587
:1024700002D14FF0040C24E0DFF8CCC0604502D15B
:102480004FF0050C1DE0DFF8C4C0604502D14FF0ED
:10249000060C16E0DFF8B8C0604502D14FF0070C1B
:1024A0000FE0DFF8B0C0604502D14FF0080C08E043
:1024B000DFF8A4C0604502D14FF0090C01E04FF0F5
:1024C0000A0C0CFA07FC4CEA060CCEF808C44F685C
:1024D000DBF80060FF0226EA020600D516435F46DD
:1024E000CBF80060D1F804C0DBF804605FEA8C2C04
:1024F00026EA020600D516437E606E684F6826EA1B
:102500000206BF0300D516436E602E684F6826EAA8
:102510000206FF0300D516432E605B1C0A6832FAE0
:1025200003F67FF411AFBDE8F88F0000800000587B
:10253000F4440258000002580004025800080258EF
:10254000000C0258001002580014025800180258DB
:10255000001C02580020025800240258006908405C
:1025600000D0012070470AB1816170470904FBE780
:1025700001480068000C70470010005C014880684A
:10258000704700002000002402488168027811444E
:102590008160704720000024032010B500F0D8F8B7
:1025A00001F098FC0F4A104914681368C4F3032221
:1025B00003F00F038A5CC95C02F01F0201F01F01E7
:1025C000D0400A4A20FA01F11160094908600F2041
:1025D00000F010F808B1012010BD00F079F80020DB
:1025E00010BD00001844025818790008300000247B
:1025F0002C00002470B50D4D04462878A0B14FF48E
:102600007A71B1FBF0F00A490968B1FBF0F002F011
:1026100021F848B9102C07D200222146501E00F0A4
:1026200077F800206C6070BD012070BD2000002490
:102630002C000024154BF0B5083B427813491A6072
:102640000B680A1F23F001030B6043681360057BCE
:10265000C67A827A437B2D07847B45EA0665C77B71
:1026600090F809C0067A90F800E045EAC24040EAD6
:10267000834040EA444040EA074040EA0C2040EAF8
:10268000460040EA0E000860F0BD0000A0ED00E04A
:10269000BFF35F8F044800210368034A23F48033AB
:1026A000036070321160704724ED00E0074A40F08B
:1026B0000100064970321060086840F480300860FC
:1026C000BFF34F8FBFF36F8F7047000024ED00E022
:1026D000074882B0016841F00201016000680022F1
:1026E0000F2100F002000090901E02B000F010B820
:1026F000F4440258002809DB410900F01F02890058
:10270000012001F1E0219040C1F800017047000074
:102710000E4BF0B41B680D46C3F30223C3F107064A
:10272000042E00D90426191D072901D2002300E038
:10273000DB1E012404FA06F19C40491E2940641E58
:10274000994014402143F0BC04F0E5BA0CED00E0E0
:10275000064900F0070210B54FF6FF040868044B65
:10276000204040EA02201843086010BD0CED00E054
:102770000000FA0501680123C0F8D834002280F86F
:10278000CC248869044A40F000608861486D104399
:102790004865002070470000030000107047006883
:1027A000416200207047F0B503685D6A39B19F6AE5
:1027B0004C1E00204FF4827605EB17450BE045EAEE
:1027C0000240986210E0471C06EB800053F800C0FE
:1027D000F8B205EB1C45A042F5D34FF4807000EB36
:1027E000810045EA02421A500020F0BDD0F8E00412
:1027F00003F07BB901EBC10200EB8202D0F8E004E8
:10280000126A03F0CEB801EBC10200EB8202D0F8ED
:10281000E004D2F8602203F020B9D0F8E00403F01D
:1028200066B90A0601F00F0101EBC10100EB81015D
:1028300001D5143101E001F51571006804F09EB86E
:1028400001F00F020B0670B502EBC20104464FF017
:1028500001004FF0000504EB810102D548751431E9
:1028600003E081F8555201F515710A7094F894242B
:10287000012A08D084F89404206803F09FFD00200A
:1028800084F8945470BD022070BD70B5027904467E
:1028900001F00F00904201D9012070BD01F00F023C
:1028A0004FF000050B0602EBC2014FF0010204EBF2
:1028B000810102D54A75143103E081F8555201F5C2
:1028C00015718D70087094F89404012808D084F86C
:1028D0009424206803F0DCFE002084F8945470BD3A
:1028E000022070BD01F00F0101EBC10100EB81007E
:1028F000D0F8680270472DE9F04101F00F06044658
:102900000D064FF0010006EBC6014FF0000504EB89
:10291000810102D54875143103E081F8555201F563
:1029200015714F788A600B710E7007B14E83022BC0
:1029300000D14D7194F89424012A09D084F89404AC
:10294000206803F035FC284684F89454BDE8F081F3
:102950000220FBE770B501F00F05002405EBC5016F
:1029600000EB810101F5187181E81C0001F80B4CA6
:1029700001F80C5D8379012B00D1CA61827900686E
:1029800003F0DEFE002070BD70B50D4601790446EF
:1029900005F00F00884201D9012070BD29064FF0D3
:1029A00000064FF0010206D500EBC00104EB8101E7
:1029B0004A75143107E005EBC50104EB810181F88C
:1029C000556201F515718A70087094F89404012815
:1029D00007D084F89424206803F086FE280702D0EC
:1029E00007E0022070BDA17904F29C42206803F048
:1029F00023FE002084F8946470BD70B501F00F04CC
:102A0000002504EBC401012600EB8101203181E89F
:102A10002C0001F80B6C01F80C4D8379012B00D1CF
:102A2000CA618279006803F08BFE002070BD00004F
:102A30002DE9FC5F05680446284604F03BF80028B1
:102A40007ED1206804F062F8002879D0D5F8080813
:102A5000C0F30D20C4F8D404206804F057F88007B0
:102A600004D52068416901F002014161206804F049
:102A70004DF8C10604F29C40009035D5206881696C
:102A800021F0100181612F6A07F00F01C7F3434065
:102A900001EBC101022804EB810606F5157602D090
:102AA000062812D01BE047F6F070074217D0C7F394
:102AB0000A12F1681746284604F02CF87169F0688C
:102AC000394471613844F06009E0009908222846D1
:102AD00004F020F87069C7F30A1108447061206897
:102AE000816941F010018161206804F00FF8000352
:102AF0004FF0080B4FF0000A4FF001097CD5206819
:102B0000002603F0E2FF074674E0F80770D0206863
:102B1000F1B203F0F3FF8046C00707D005EB461182
:102B2000C1F8089B3146204601F0D0FE5FEA0870EC
:102B300024D505EB4611C1F808BBFA49206800E02E
:102B40003EE2026C00EB461001928A42D0F8081B6C
:102B500005D9090403D54FF40041C0F8081B2046ED
:102B600000F01FFBEF490198884207D9A07901289E
:102B700004D120680121009A03F05EFD5FEAC8607D
:102B800004D505EB46111020C1F8080B5FEA8870E8
:102B90001DD56869000605D5D5F8040840F48061A4
:102BA000C5F8041806EBC60004EB800090F8571235
:102BB00000F51570012905D180F803A02046F1B277
:102BC00000F004FA05EB46110220C1F8080B5FEA99
:102BD000886004D505EB46112020C1F8080B5FEA98
:102BE000884005D505EB46114FF40050C1F8080B9D
:102BF0007F08761C002F88D1206803F087FF4003F0
:102C00006ED5206803F05AFF0026074666E0F807F5
:102C100062D02068F1B203F05FFF8046C00723D086
:102C2000D5F8342806F00F0105EB461309FA01F137
:102C30008A43C5F83428C3F80899A07901280FD130
:102C400006EBC60004EB8000D0E9072111440162C5
:102C500036B9606A20B920680121009A03F0ECFCC3
:102C60002046F1B2FFF7C6FD5FEA087003D505EB19
:102C70004611C1F808B95FEAC86004D505EB4611F2
:102C80001020C1F808095FEA486004D505EB461139
:102C90004020C1F808095FEA887016D531462846F9
:102CA00003F0DDFE06EBC60004EB8000C17D1430AE
:102CB000012905D180F803A02046F1B200F082F985
:102CC00005EB46110220C1F808095FEA086003D548
:102CD0003146204601F060FE7F08761C002F96D119
:102CE000206803F013FF002811DAD5F8040820F05B
:102CF0000101C5F8041894F8CC0401283BD0204603
:102D000000F034FA2068416901F000414161206817
:102D100003F0FCFE00050BD5D5F80808C00702D06B
:102D2000204600F067FA2068416901F400614161C2
:102D3000206803F0EBFE00010AD52068416901F02C
:102D40000061416194F8CC04E0B1204600F052FAF1
:102D5000206803F0DBFEC00472D5D5F8040820F02B
:102D60000101C5F804182068102103F078FE002145
:102D70004FF67F322DE00021204684F8CCA4FFF7E7
:102D80000DFDBFE784F8CC942068406D0121C0F3AD
:102D90008300C4F8D0042046FFF700FDD8E700BF49
:102DA00005EB4110C0F80829D0F8003923F40013CE
:102DB000C0F80039C0F8082BD0F8003B23F400130A
:102DC000C0F8003BD0F8003B43F00063C0F8003B84
:102DD000491C20798842E3D8D5F81C0840F001113D
:102DE000C5F81C18E07B68B1D5F8840840F00B01E9
:102DF000C5F88418D5F8440840F00B012846C5F8FA
:102E000044180DE0D5F8140842F22B010843C5F828
:102E10001408D5F8100840F00B012846C5F8101822
:102E2000D0F8000820F4FE61C5F80018A1792068E8
:102E3000009A03F001FC2068416901F4805141616E
:102E4000206803F063FE800415D5206803F0F0F9D4
:102E5000206803F022FEE07101F01AF8E2790146E1
:102E6000206803F0B7FE204600F06AF92068416947
:102E700001F400514161206803F048FE000707D5C6
:102E8000204600F077F92068416901F008014161AE
:102E9000206803F03BFE000616D5A869012620F045
:102EA0008001A9610DE000BF06EBC60004EB8000C5
:102EB00090F85702012803D12046F1B2FFF7B1FC88
:102EC000761C2079B042EFD8206803F01FFEC002C4
:102ED0001FD501264F4614E006EBC60105EB461050
:102EE00004EB8101D0F800090A7E012A08D10028EC
:102EF00006DAF0B2CF7540F080012046FFF791FC72
:102F0000761C2079B042E7D82068416901F480112D
:102F10004161206803F0FAFD800234D501204B4660
:102F200029E000000A30544F00EBC00205EB4011CD
:102F300004EB8202D1F8001B92F85862012E19D1DD
:102F4000002917DA94F8D46401F4803106F0010600
:102F5000B1420FD182F85732A96941F08002AA61CB
:102F60006969090606D4D5F8040840F40070C5F86C
:102F7000040803E0401C21798142D5D820684169CA
:102F800001F400114161206803F0C0FD400007D545
:102F90002046FFF72BFC2068416901F08041416128
:102FA000206803F0B3FD40070AD52068456868072C
:102FB00002D52046FFF731FC206841682943416073
:102FC000BDE8FC9FD0F8E00402F0E7BDD0F8E004D3
:102FD00002F0F7BDF8B5040004D094F8950400257C
:102FE00010B106E00120F8BD204684F8945400F0AA
:102FF00057F8032084F89504206803F017FB207C21
:103000008DF8000094E80F0003F06EF90226B0BBC3
:103010002068002103F09EFD88BB002001270CE002
:1030200000EBC001421C04EB81014F750D76CD61B0
:103030000D624D620875C885D0B221798142EFD802
:10304000002011E000EBC001421C04EB810181F87B
:10305000555281F85852C1F85C52C1F86052C1F81B
:10306000645281F85402D0B221798142EAD8207C9E
:103070008DF8000094E80F0003F022FA10B184F8F4
:103080009564AFE7207B657484F89574012802D1BC
:103090002046FFF76FFB206803F004FA0020F8BD1C
:1030A00010B5B6B00446142130A8FDF734FCC02199
:1030B0006846FDF730FC1F492068884238D100205F
:1030C0004FF480214FF440122292CDE9001068465F
:1030D00000F0DAF808B1FEF734FC00F0CDF816483D
:1030E000016841F00101016000680A23022200F03A
:1030F0000100359000204FF4C051309130A9CDE946
:103100003120CDE933030D48FFF712F90A4808389A
:10311000016841F00061016000680022052100F0B3
:10312000006035906520FFF7F3FA6520FFF7E2FABB
:1031300036B010BD00000840E044025800000258BC
:1031400070B50446C079012570B1022801D0FEF7A0
:10315000F8FBD4F8E004294602F0A2FDD4F8E0041C
:10316000BDE8704002F056BD0025F2E7D0F8E0045B
:1031700002F07FBDD0F8E00402F085BD10B5044632
:1031800090F8940401280AD00120617484F8940412
:10319000206803F00EFD002084F8940410BD022086
:1031A00010BDD0F8E02400F29C41104602F084BD2E
:1031B00010B590F8941404460068012909D0012143
:1031C00084F89414C168490609D5617B012902D0AD
:1031D00005E0022010BD816B41F4803181632068DD
:1031E00003F01BFC206803F04FF9002084F89404DE
:1031F00010BD000010B50446D0F8E00402F09EFDBA
:103200002068D0F8001E41F00101C0F8001EE07AED
:10321000002804D00248016841F00601016010BD99
:1032200010ED00E0134970B50A68D243520705D586
:10323000096801F00701814213D118E00A6822F001
:10324000070202430A60FFF799F90A4D4FF47A76B4
:103250000446083D07E000BFFFF790F9001BB042AD
:1032600001D9012070BD2868C0438004F4D4002037
:1032700070BD00000C4802580248016841F080719E
:10328000016070470C4802582DE9FE4F0546DFF8F3
:10329000E48350F8081B0024F64FC943019005F160
:1032A0002800264608F12408009008011DD4A86EC5
:1032B00050B1B0F5801F0CD0B0F5001F0ED0B0F5A6
:1032C000401F1ED001240FE0386840F40030386001
:1032D00017E00198022101F0B1FB03E00098022100
:1032E00001F03CFC04000CD026462888C043C005F1
:1032F00023D4A86D05281ED2DFE800F00C11161BA0
:103300001B00AA6ED8F8001021F440111143C8F830
:103310000010EAE7386840F40030386009E00198AE
:10332000002101F08BFB03E00098002101F016FC66
:10333000044674B100E0012426462888C043800575
:1033400028D4E86D80281ED00CDC90B140280ED126
:1033500014E0AA6DD8F8001021F007011143C8F855
:103360000010EAE7C02813D0B0F5807F10D0012408
:103370000FE0386840F40030386009E0019800211F
:1033800001F05CFB03E00098002101F0E7FB04463C
:103390009CB126462888DFF8DC92C04309F12C094D
:1033A00040052CD4D5F8A800B0F5800F20D00DDC56
:1033B000A0B1B0F5001F0FD115E0EA6DD8F80010EC
:1033C00021F4E0711143C8F80010E3E7B0F5C00F35
:1033D00013D0B0F5000F10D001240FE0386840F48E
:1033E0000030386009E00198002101F027FB03E07C
:1033F0000098002101F0B2FB04467CB126462888E3
:10340000C04300052DD4D5F8AC00B0F1007F21D029
:103410000EDCA8B1B0F1807F10D116E0D5F8A8205D
:10342000D9F8001021F460011143C9F80010E6E753
:10343000B0F1407F13D0B0F1806F10D001240FE0C5
:10344000386840F40030386009E00198002101F04C
:10345000F5FA03E00098002101F080FB044674B106
:1034600026462868C04380011FD4E86CD8B11028D4
:103470000FD0202812D0302815D0012414E0D5F820
:10348000AC20D9F8001021F0E0611143C9F8001018
:10349000E7E7386840F40030386004E00198022122
:1034A00001F0CCFA044674B126462888C043C00413
:1034B0002BD4286EB0F5005F20D00DDCA0B1B0F5A4
:1034C000805F0FD115E06B48EA6C2030016821F075
:1034D000300111430160E8E7B0F5405F13D0B0F56B
:1034E000804F10D001240FE0386840F4003038607D
:1034F00009E00198002101F0A1FA03E00098002101
:1035000001F02CFB04468CB126462888C043800479
:1035100029D4686EB0F5403F23D010DC08B3B0F575
:10352000803F14D0B0F5003F0FD115E02A6ED8F8D7
:10353000001021F4E0411143C8F80010E5E7B0F5B0
:10354000802F0ED0B0F5A02F0BD001240AE00198F7
:10355000012101F073FA03E00098012101F0FEFA65
:10356000044694B126462888C04340042AD4D5F89E
:10357000B000B0F1405F23D010DC08B3B0F1805F41
:1035800014D0B0F1005F0FD115E06A6ED8F80010CA
:1035900021F4E0211143C8F80010E4E7B0F1804FB6
:1035A0000ED0B0F1A04F0BD001240AE00198012108
:1035B00001F044FA03E00098012101F0CFFA04463B
:1035C00074B126462888C04300041FD4286FD8B1A0
:1035D000B0F1805F0ED0B0F1005F10D0012414E094
:1035E000D5F8B020D9F8001021F0E0411143C9F816
:1035F0000010E7E7386840F40030386004E00198D4
:10360000012101F01BFA044674B126462868C04324
:10361000C0011ED4A86CD0B101280ED0022811D050
:10362000032814D0012413E02A6FD8F8001021F0E9
:1036300040511143C8F80010E8E7386840F4003002
:10364000386004E00198022101F0F8F90446ACB1B9
:1036500026462868DFF81CB0C043ABF11C0B4002C3
:1036600052D40548016841F480710160FEF786FF7D
:10367000824611E02C44025800480258FA48AA6CCD
:10368000016821F0030111430160E2E7FEF776FFD4
:10369000A0EB0A00642835D8F4480068C005F5D5C9
:1036A0008CBBDFF8C4A3B5F8B4100AF1240ADAF829
:1036B000000001F4407100F44070884211D0DAF843
:1036C0000010DAF8002021F4407142F48032CAF888
:1036D0000020DAF8002022F48032CAF80020CAF86C
:1036E0000010D5F8B400B0F5807F1AD1FEF746FF80
:1036F000029012E0FEF742FF0299411A41F288302F
:1037000081420AD9032426462878DFF85CA3C04307
:103710000AF1080AC00721D03CE0DAF8000080076F
:10372000E8D5D5F8B410C1F30120032858460DD0D0
:10373000016821F47C510160B5F8B420DAF800107A
:10374000C2F30B021143CAF80010DDE7C84A036850
:1037500002EA111223F47C511143ECE7E86F1828B8
:1037600016D005DCA0B1082808D0102804D10AE042
:1037700020280DD028280BD001240AE0019801212F
:1037800001F05CF903E00098012101F0E7F904463B
:1037900064B126462878C04380071ED4A86F062847
:1037A00019D2DFE800F0160C11161616EA6FDAF8D7
:1037B000001021F038011143CAF80010EAE701981F
:1037C000012101F03BF903E00098012101F0C6F965
:1037D00004467CB100E0012426462878C043400717
:1037E0001FD4D5F89400062819D2DFE800F0160C93
:1037F00011161616AA6FDAF8001021F0070111430E
:10380000CAF80010E9E70198012101F017F903E077
:103810000098012101F0A2F90446A4B100E00124BE
:1038200026462878C04380062BD4D5F89000B0F106
:10383000405F24D011DC10B3B0F1805F15D0B0F13F
:10384000005F10D116E0D5F89420D9F8001021F0CF
:1038500007011143C9F80010E3E7B0F1804F0ED023
:10386000B0F1A04F0BD001240AE00198002101F033
:10387000E5F803E00098022101F070F9044694B1E4
:1038800026462878C04340062BD4D5F89C00B0F5D6
:10389000406F24D011DC10B3B0F5806F15D0B0F5B7
:1038A000006F10D116E0D5F89020DAF8001021F062
:1038B000E0411143CAF80010E3E7B0F5805F0ED095
:1038C000B0F5A05F0BD001240AE00198002101F0BF
:1038D000B5F803E00098022101F040F9044694B1E4
:1038E00026462878C04300062BD4D5F8A000B0F5B2
:1038F000C04F24D011DC10B3B0F5005F15D0B0F587
:10390000804F10D116E0D5F89C20D9F8001021F492
:10391000E0511143C9F80010E3E7B0F5004F0ED0B5
:10392000B0F5204F0BD001240AE00198002101F0EE
:1039300085F803E00098022101F010F9044654B123
:1039400026462878C04300071ED4D5F88400B0F579
:10395000805F0AD00FE0D5F8A020D9F8001021F43C
:1039600060411143C9F80010EBE70098022101F013
:10397000F5F800B10126D5F88420DAF8001021F41A
:1039800040511143CAF800102878C043C00613D430
:10399000D5F89800B0F5807F05D10098022101F09C
:1039A000DDF800B10126D5F89820D9F8001021F4EF
:1039B00040711143C9F800102868C043000316D4B1
:1039C000D5F8A40038B1B0F5803F09D0B0F5003F7C
:1039D0000BD001240AE00198002101F02FF803E048
:1039E0000098022101F0BAF804468CB126462868F6
:1039F000C043400322D4D5F88800B0F5801F11D011
:103A0000B0F5001F13D0B0F5401F15D0012414E00D
:103A1000D5F8A420D9F8001021F440311143C9F899
:103A20000010E4E7386840F40030386004E00098A3
:103A3000012101F093F804465CB126462868C04392
:103A4000C00323D4286DA8B1B0F5803F17D001245E
:103A50001BE0D5F88820DAF8001021F4401111435A
:103A6000CAF80010EAE700004C4402580048025827
:103A7000CFFFFF00386840F40030386004E0019860
:103A8000022100F0DBFF0446E4B126462868C0436B
:103A9000800005D40098022101F060F800B10126F1
:103AA0002868C04380031BD4D5F88000B0B1B0F5BE
:103AB000807F0FD0B0F5007F10D0B0F5407F0DD0E3
:103AC00001240CE05A482A6D016821F48031114329
:103AD0000160DBE7386840F400303860ECB326461C
:103AE0002868C043C00207D46A6FD8F8001021F0DC
:103AF00000411143C8F800102868C043C00008D432
:103B0000D5F8B820DBF8001021F480411143CBF840
:103B100000102868C043800207D4EA6ED8F800106D
:103B200021F080711143C8F800102868C04340009C
:103B30000CD4DBF8001021F40041CBF80010DBF8C6
:103B40000010D5F8BC201143CBF800102868C04302
:103B500008D437486A6D016800E018E021F0405150
:103B6000114301602868C043000208D4D5F88C20B6
:103B7000DAF8001021F440011143CAF80010287946
:103B80000024C04300F0010020430AD00FE0D5F824
:103B90008020DAF8001021F440711143CAF80010B7
:103BA0009EE70198002100F049FF00B10646287900
:103BB000C04300F00200204305D10198012100F02C
:103BC0003DFF00B106462879C04300F004002043C1
:103BD00005D10198022100F031FF00B10646287995
:103BE000C04300F00800204305D10098002100F0F8
:103BF000B5FF00B106462879C04300F0100020430D
:103C000005D10098012100F0A9FF00B106462879EE
:103C1000C04300F02000044304D10098022100F0CA
:103C20009DFF00B916B10120BDE8FE8F0020FBE723
:103C30004C4402582DE9F05F04000F467ED0DFF8B7
:103C40003882D8F8000000F00F00B8420CD2D8F843
:103C5000001021F00F013943C8F80010D8F8000017
:103C600000F00F00B84269D12078844D40070AD592
:103C70002069296801F07001884204D9296821F07F
:103C800070010143296020787C4E361D00070AD55B
:103C90006069316801F07001884204D9316821F00F
:103CA0007001014331602078C0060AD5A0693168EF
:103CB00001F4E061884204D9316821F4E0610143F4
:103CC00031602078DFF8B4B180060BF1080B0CD519
:103CD000E1695846DBF8002002F07002914204D9F5
:103CE000026822F070020A430260207880070AD539
:103CF000E068296801F00F01884204D9296821F0A1
:103D00000F01014329602078C0073ED05B49A268BB
:103D10002868183920F47060104328606068022811
:103D200018D0032819D00968012819D0490700299B
:103D30004ADADFF848A1AAF1080A00E044E0DAF81C
:103D4000002022F007020243CAF80020FEF716FC0A
:103D5000814612E009688903E9E709688901E6E715
:103D6000C905E4E7FEF70AFCA0EB090141F288303F
:103D7000814202D90320BDE8F09F6168DAF80000B3
:103D800000F03800B0EBC10FECD1207880070AD5E5
:103D9000E068296801F00F01884204D2296821F007
:103DA0000F0101432960D8F80010404601F00F01CF
:103DB000B9420BD9016821F00F0139430160006855
:103DC00000F00F00B84201D00120D4E7207840076E
:103DD0000AD52069296801F07001884204D2296857
:103DE00021F0700101432960207800070AD560693D
:103DF000316801F07001884204D2316821F070010D
:103E0000014331602078C0060AD5A069316801F409
:103E1000E061884204D2316821F4E06101433160FD
:103E2000207880060CD5E1695846DBF8002002F0C6
:103E30007002914204D2026822F070020A430260CA
:103E400000F048F80E492A682B68C2F3032203F0F9
:103E50000F038A5CC95C02F01F0201F01F01D04011
:103E6000084A20FA01F11160074908600748006814
:103E7000BDE8F05FFEF7BEBB0020005218440258B8
:103E800018790008300000242C00002424000024AD
:103E900030B500F01FF80B4A0B490C4B156814683D
:103EA000C5F3032204F00F048A5C095D02F01F02CF
:103EB00001F01F01D040064A20FA01F1196010609C
:103EC000084630BD18440258187900083000002414
:103ED0002C000024454970B545480968434B103B08
:103EE00011F0380208D00111082A03D0102A0BD093
:103EF000182A0BD0084670BD19688906FBD51968C9
:103F0000C1F3C101C84070BD3A4870BD3749374D53
:103F100018310C1D24350A68096826682D6802F0DE
:103F2000030406F00102C1F30511C5F3CC0515FB2E
:103F300002F200EE102AB8EE400AE9B32F4ADFED94
:103F40002E0AB7EE001A6CB1DFED2D1A012C01D04C
:103F5000022C43D002EE101A1068F8EE422A81EECD
:103F6000A22A1EE01C68A40611D51B6801EE901A57
:103F70001168C3F3C103F8EE612AD84001EE900A3C
:103F8000C1F30800F8EE611A81EEA22A0BE001EEFF
:103F9000901ADFED1C2A00BFF8EE611A106882EE5D
:103FA000A12AC0F3080001EE900AF8EE611A40EE73
:103FB000201A31EE810A00E015E022EE000A1068B6
:103FC000C0F34620401C00EE900AF8EE600A80EE36
:103FD000201ABCEEC10A10EE100A70BD01EE901A54
:103FE000DFED092AD8E7002070BD00001044025818
:103FF0000090D00340787D01000000393044025821
:104000000024744A0024744C20BCBE4B2DE9F05FA0
:1040100004007DD0FF4F2078FE4D1837DFF8F49371
:10402000103DC00748D0D9F80000396800F03800CA
:10403000102815D0182803D101F0030002280FD052
:104040006068B0F5803F12D010B1B0F5A02F18D045
:10405000286820F480302860286820F4802009E057
:104060002868800328D560680028D2D024E028681A
:1040700040F480302860606888B1FEF77FFA064619
:1040800009E0286840F480202860F0E7FEF776FA1F
:10409000801B64286FD828688003F7D50CE0FEF7F2
:1040A0006DFA064605E000BFFEF768FA801B64283B
:1040B000F0D828688003F7D4207841F20308D54E61
:1040C0000C3E800769D5D9F80000396810F0380037
:1040D0000ED0182801D188070AD0E06890B329686B
:1040E00021F0190101432960FEF748FA824631E0C8
:1040F0002868400702D5E06800288AD0E16828686F
:1041000020F0190008432860FEF738FA824607E0DD
:10411000DFE000BFFEF732FAA0EB0A000228B9D8B0
:1041200028684007F6D500BFFEF722FA40451BD8A5
:104130002069402812D0316821F47C3141EA0030F6
:1041400030602AE018E000BFFEF718FAA0EB0A0082
:1041500002289FD828684007F6D5E5E7306820F4A4
:104160007C3040F40030EBE7207C316821F0FE41E8
:1041700041EA0060E4E70DE1286820F001002860D2
:10418000FEF7FCF9824605E0FEF7F8F9A0EB0A001D
:1041900002288DD828684007F6D42078C0065DD55F
:1041A000D9F80000DFF86CB2396800F03800ABF1E4
:1041B000040B082810D0182803D101F003000128AF
:1041C0000AD0E0690028286838D040F080002860D4
:1041D000FEF7D4F9824623E02868C00523D5E069BC
:1041E000802876D11FE0206A202821D0316821F074
:1041F000F84141EA8060306030E000BF94F8201060
:10420000DBF8002022F07C5242EA0161CBF800107A
:1042100024E000BFFEF7B2F9A0EB0A00022898D80C
:104220002868C005F6D5FEF7A3F94045E6D8DAE7D9
:10423000306820F0F84040F08040DCE720F080005B
:104240002860FEF79BF9064605E000BFFEF796F9E9
:10425000801B02289DD82868C005F7D42078000765
:1042600029D56C486169643000298046016811D005
:1042700041F001010160FEF781F9064605E000BF4B
:10428000FEF77CF9801B0228C9D8D8F80000800707
:10429000F6D510E021F001010160FEF76FF9064646
:1042A00005E000BFFEF76AF9801B022872D8D8F833
:1042B00000008007F6D42078800623D5A069002866
:1042C000286810D040F480502860FEF757F9064661
:1042D00005E036E1FEF752F9801B02285AD828681B
:1042E0008004F7D50EE020F480502860FEF746F9F0
:1042F000064604E0FEF742F9801B02284AD82868E7
:104300008004F7D4207840074FD5DFF80C81D8F827
:10431000001041F48071C8F80010FEF72FF906462E
:1043200005E000BFFEF72AF9801B642832D8D8F8D0
:104330000000C005F6D5374EA068603601280AD0C7
:1043400008B1052813D0306820F0010030603068D3
:1043500020F0040002E0306840F001003060A06806
:1043600041F2883A90B1FEF709F980460AE03068D8
:1043700040F004003060EEE7FEF700F9A0EB080122
:10438000514507D830688007F6D50EE0FEF7F6F8FD
:10439000804607E084E000BFFEF7F0F8A0EB0801DC
:1043A00051457DD830688007F6D4606AB0B3DFF835
:1043B0006480D9F8001008F120084FF6F87B08F166
:1043C0000409C1F3C2010329A8F1040A69D0022833
:1043D000286820F08070286003D0FEF7CFF80446EC
:1043E00084E0FEF7CBF8064605E000BFFEF7C6F80E
:1043F000801B022877D828688001F7D4E26A40F24F
:10440000F331386854F8283F884340EA02101843D3
:10441000386004E01044025800480258B5E0217B9F
:10442000434622894FF4FE0C208A4FF0FE47490292
:10443000267D521E401EA1F50071C2F308088AB203
:10444000761E0CEA004042EA08020243504607EAA0
:1044500006610A431A60DAF8002022F00102CAF865
:104460000020D9F80020266A22EA0B0242EAC6029E
:10447000C9F80020DAF80010A26921F00C011143FC
:10448000CAF800100168E26921F0020111430160DD
:10449000016841F480310160016841F4003101E0BC
:1044A00021E027E00160016841F48021016001689A
:1044B00041F001010160286840F080702860FEF73B
:1044C0005DF8044605E000BFFEF758F8001B02281F
:1044D00009D828688001F7D557E000BFFEF74EF8ED
:1044E000001B022802D90320BDE8F09F2868800144
:1044F000F4D44AE039680128D8F8000021D0A26A33
:1045000001F0030393421CD1E26AC1F305118A4210
:1045100017D1216BC0F30802491E8A4211D1616B89
:10452000C0F34622491E91420BD1A16BC0F3064253
:10453000491E914205D1E16BC0F30660491E8142DC
:1045400001D00120D0E7A16C4E46D9F80000C0F39D
:10455000CC00814219D0DAF80000554620F0010065
:10456000CAF80000FEF70AF84FEA0007FEF706F85F
:10457000B842FBD0A26C306820EA0B0040EAC200CF
:104580003060286840F0010028600020ACE790F817
:104590002C00704770B504000D4603D094F82C0031
:1045A00010B107E0012070BD002084F82D002046E6
:1045B00000F018F8022084F82C002068211DFDF777
:1045C000C2F9D4E900022946FDF70EFA0448012198
:1045D000026842F00042026084F82C10002070BD96
:1045E00000400052FDF72EBE10B5044690F82C0096
:1045F000022804D094F82C00012801D0012010BD1D
:10460000022084F82C002068FDF7D2F9012084F8FC
:104610002C00002010BD000070B5044690F82C005E
:104620000D46022804D0012803D0052801D001201E
:1046300070BD022084F82C002068FDF7C2F92868BC
:10464000022805D05FF0010084F82C00002070BD26
:104650000520F9E7401EB0F1807F10B501D301209D
:1046600010BD4FF0E02460610F21601702F053FB92
:104670000020A0610721216110BDFEE7F0B50023F5
:104680000A251C463026372711E000BFB5EB107F06
:1046900002D906EB107C01E007EB107C01F813C097
:1046A00001EB430C00015B1C8CF80140DBB2934230
:1046B000ECD3F0BDF0B587B01C216846FCF72BF9B0
:1046C000164800250822144F01264FF0400E022103
:1046D000C0E90075C0E90262102404610C03C0F84F
:1046E00014E04FF4C07CC0E906C58F020762CE0219
:1046F0000623C0E909648DE80E0004250393CDE983
:10470000045106916946FFF745FF002801D0FDF7E7
:1047100018F907B0F0BD000040410052F00300243A
:1047200000B587B006491C226846FCF7C2F8002194
:10473000684602F050FB0349086007B000BD000066
:10474000FC780008140000242DE9F04786B01421FD
:104750006846FCF7E0F83F48016841F0100101604D
:10476000016801F010010591016841F48071016058
:10477000016801F480710591016841F00401016054
:10478000016801F004010591016841F02001016018
:10479000016801F020010591016841F0800101608C
:1047A000016801F080010591016841F0400101605C
:1047B000016801F040010591016841F008010160C4
:1047C000016801F008010591016841F001010160F3
:1047D00000680022DFF88080082100F001000590C9
:1047E0004046FDF7C0FEDFF874904FF4807600225B
:1047F00031464846FDF7B7FEDFF864A037010022D6
:1048000039465046FDF7AFFE0024694601250820D1
:104810000090CDE9015440460394FDF789FD0096D0
:104820006946CDE9015448460394FDF781FD4FF4F4
:10483000C04069468DE831000A48FDF779FD0097D0
:104840006946CDE9015450460394FDF771FD06B069
:10485000BDE8F087E04402580010025800200258DA
:10486000001802580008025810490022104810B5DC
:1048700001F072F808B1FDF764F80E490C4801F038
:1048800088FA08B1FDF75DF80B49094800F0FEFD14
:1048900008B1FDF756F8064801F000FB08B1FDF736
:1048A00050F8BDE81040FEF7E7BC00009C00002473
:1048B000144100245C010024F0000024FEE7FEE720
:1048C0000148FEF7B5B80000105800242DE9F0416A
:1048D000044680790D462027236801284FF40046BE
:1048E00004F29C4203EB4511D3F840C0D1F8080B09
:1048F00009D0DFF89CE0F4453AD1020433D500BF7B
:10490000C1F8086B40E0234B5FEA007E04D59C456C
:104910003AD90004F4D437E05FEA806E02D5C1F8DA
:10492000087B31E010F0280F2ED19C4501D90004FE
:10493000E6D4D1F8101B05EBC50004EB8000C1F3F1
:104940001201D0F87432A3EB0101C0F8681200F52F
:104950001570ADB903691BB1C2681144C1600FE0A5
:10496000206801210AE080060AD5C1F8087B07E02B
:1049700035B9D4F8640218B90021184601F05CFE7C
:104980002046E9B2FDF73FFF0020BDE8F0810000BE
:104990000A31544F0A30544F2DE9F84F0E4605683E
:1049A000814601EBC60100EB8104D4E909201434EF
:1049B000904202D90120BDE8F88FA168101A814207
:1049C00000D20846C01C05EB461887081BE000BF54
:1049D000A268A0EB010A524500D2924699F806104F
:1049E0000AF1030000911FFA8AF3E168870828465C
:1049F000F2B202F063F9E16801EB0A00E06061697C
:104A000001EB0A006061D8F8180980B2B84205D3FA
:104A1000D4E90401814201D20028D9D1D4E90401AA
:104A2000884208D8D5F83418012006F00F029040CB
:104A30008143C5F834180020BDE700002DE9F04798
:104A4000454D044689464FF0000A2868C043800758
:104A50000AD0414E283E306820F080603060FDF77B
:104A60008DFD0746B04608E00120BDE8F08700BF95
:104A7000FDF784FDC01B022867D8D8F800000001AC
:104A8000F6D4206829684FF4FE0721F47C313E02F9
:104A900041EA00302860207AA389B4F804C04002BB
:104AA0002D4D2D495B1E227CACF1010C1035091DEA
:104AB000A0F5007080B2521ECCF3080C07EA034345
:104AC00040EA0C00184306EA0262104328600868B6
:104AD000626920F0C000104308600A68A06922F0F3
:104AE000200202430A60281D0A6822F010020A60B0
:104AF00002684FF6F873E4699A4342EAC40202601E
:104B00000868B9F1000F40F010020A6011D008687F
:104B1000B9F1010F11D040F400100860D8F800007E
:104B2000444640F08060C8F80000FDF727FD0546C8
:104B30000DE0086840F40020EFE740F48010ECE757
:104B4000FDF71CFD401B022801D903208DE72068DA
:104B50000001F5D5504688E7284402582DE9F04772
:104B6000454D044689464FF0000A2868C043800737
:104B70000AD0414E283E306820F080503060FDF76A
:104B8000FDFC0746B04608E00120BDE8F08700BF05
:104B9000FDF7F4FCC01B022867D8D8F8000080009D
:104BA000F6D4208829684FF4FE0721F07C713E027C
:104BB00041EA00502860207AA389B4F804C040027A
:104BC0002D4D2D495B1E227CACF1010C1835091DC1
:104BD000A0F5007080B2521ECCF3080C07EA034324
:104BE00040EA0C00184306EA026210432860086895
:104BF000626920F44060104308600A68A06922F4EA
:104C0000007202430A60281D0A6822F480720A605A
:104C100002684FF6F873E4699A4342EAC4020260FC
:104C20000868B9F1000F40F480720A6011D008687A
:104C3000B9F1010F11D040F080700860D8F8000081
:104C4000444640F08050C8F80000FDF797FC054648
:104C50000DE0086840F48000EFE740F40000ECE766
:104C6000FDF78CFC401B022801D903208DE720684A
:104C70008000F5D5504688E72844025802480021B4
:104C800041600170704700000C0000242DE9FF41D5
:104C900000204FF6FF760124324610256946CDE903
:104CA00002402148CDE90045FFF7B6FC08B1FCF70A
:104CB00048FE012002F083F802203246CDE90005CB
:104CC00019486946FFF7A8FC08B1FCF73AFE08212D
:104CD0003246032000901448CDE901516946FFF7A0
:104CE0009BFC08B1FCF72DFE4FF40C7003900E48AE
:104CF0000427324669460097FFF78EFC08B1FCF79F
:104D000020FE20203246CDE900756946CDE90240FB
:104D10000548FFF781FC08B1FCF713FE0349024880
:104D2000FFF762FCBDE8FF81F0030024C2EB0B003B
:104D30002DE9F04FA1B04D4E0025DFF834814FF43E
:104D4000000A0F4683464FF003092C4600900FE0FF
:104D5000307802280ED14748407818B101284548DC
:104D60003DD003E01BF80500552819D0641C6D1CCC
:104D7000BD42EDD3002C10D0307802280DD1D8F8E8
:104D80000010574645460819B84250D800982246A8
:104D900000F08EF828682044286021B0BDE8F08F2C
:104DA00094B1D8F800100A1952450DD8009822463F
:104DB00000F07EF8D8F800100BEB0500401C0090C6
:104DC0002144C8F8001000242A491BF8053001F1DD
:104DD000020C4878421C0CF800304A70C7E725499D
:104DE00002231BF80520891C4A7043700978552955
:104DF00001D1AA2A07D00BEB05010022491E009120
:104E0000A41C4270B3E764B1D8F8001045460819F5
:104E1000504506D80098224600F04AF828682044F9
:104E200028601449002086F800904870A2E7D1F568
:104E3000000406D00098224600F03AF82868204482
:104E40002860802101A8FBF766FD009780212B6870
:104E500009A201A8FBF79EFB01A8FBF70BFD81B29D
:104E600001A8FCF757FD86F8009096E70C00002497
:104E700010000024940100245B4552524F525D20E3
:104E8000534452414D2046756C6C212053746F7011
:104E900020526563762028557365643A20256C7529
:104EA0002F256C75204279746573290D0A00000066
:104EB0002DE9F041050016460C4622D04FF40000C3
:104EC00084421ED2A11981421BD84FF47A7702E0A6
:104ED000012001F074FF0C48FFF759FB012802D0B4
:104EE0007F1EF5D201E0002F0BD00020A4F18044FA
:104EF00005E000BF15F8011B401C04F8011BB0427F
:104F0000F8D3BDE8F0810000F00300240178407878
:104F100041EA0020704710B5FDF736FB02F0FAFBBE
:104F2000012803D0BDE8104002F086BB10BD000090
:104F3000F0B59DB04C216846FBF7EDFC202113A88D
:104F4000FBF7E9FC0220FEF76DF92F4900242F48FA
:104F50000A6822F001020A600A68026842F44042CC
:104F60000260026802F440421B920268D24392043B
:104F7000FBD4274A136843F002031360126802F05F
:104F800002021B92026842F44042026002680A6810
:104F900042F001020A60096801F001011B910168F9
:104FA000C9438904FBD40DF1280C02200990012388
:104FB00006930526C0278CE8C100C2030F90082580
:104FC0000D9021210E90CDE91054CDE900126846D4
:104FD0001294FFF71BF808B172B6FEE740201A9052
:104FE0003F210301CDE916500322CDE9180313AB8D
:104FF00013A883E816000421FEF71CFE002801D048
:1050000072B6FEE71DB0F0BD2C04005818480258D7
:10501000F44402582C48F0B52C4A016841F4700160
:105020000160106800F00F00072804D2106820F01B
:105030000F00C01D106026490020254C10340B685D
:10504000244D43F001030B6020600B682B400B6084
:10505000136803F00F03072B04D9136823F00F0321
:10506000DB1D13601A4C1C4A18341C4B261D371DBF
:105070002060174C1A4D28343060261D3860371DCB
:1050800023603B1D35601C1D3A60251D2E1D1860D8
:10509000331D22602860326018600A680C4B114C86
:1050A00022F4802260330A60186020686FF30F00DA
:1050B000B0F1005F03D20C490120C1F8080143F2AE
:1050C000D2000A490860F0BD88ED00E000200052DF
:1050D000004402587FEDF6EA80020101000202025C
:1050E0000000FF010010005C0080005100400052F1
:1050F0002DE9F0410C46D0F8D412D0F8C83200EBBC
:105100008101D1F8C01229B304F00F02002702EB8D
:10511000820500EB8506B5694DB102EBC20203EBD7
:105120008202D269B5FBF2F302FB1352A2B1C1F8BD
:105130001472D0F8D42200EB8200D0F8C4020369C4
:105140002BB1D1F8080201F50471224698470020DE
:10515000BDE8F0810320FBE7002321461A46B76132
:1051600000F0F9FDF3E770B50546D0F8D40205EB81
:105170008000D0F8C04294B1284600F0C8FCC4F8C2
:105180000C02D5F8D40205EB8000D0F8C412D4F894
:105190000402CA6804F503719047002070BD032023
:1051A00070BD000070B5224D0446297800F0F0FB78
:1051B0002878002600F00F0000EB800004EB800050
:1051C00086842046697800F0E3FB687800F00F00E1
:1051D00000EB800004EB8000A0F864612046A97811
:1051E00000F0D6FBA87800F00F0000EB800004EB85
:1051F00080008684C684D4F8D40204EB8000D0F802
:10520000C01299B1D0F8C40240688047D4F8D402E3
:1052100004EB8000D0F8C00200F0C5FFD4F8D4023F
:1052200004EB8000C0F8C062C4F8BC62002070BD0E
:105230000801002410B5D0F8D41200EB8100D0F89A
:10524000C04284B1D0F8C41259B194F80002FF28CA
:1052500007D08B68214694F801229847FF2084F8F4
:105260000002002010BD032010BD00000A210180B3
:10527000004870470C01002470B5822106460D4895
:1052800000F009FB012105460A4800F004FB8121DA
:105290000446084800F0FFFA0DB11021A9714FF043
:1052A000400104B1A18000B18180432030800148D9
:1052B00070BD00001801002470B5822106460D481B
:1052C00000F0E9FA012105460A4800F0E4FA8121DC
:1052D0000446084800F0DFFA0DB11021A9714FF41F
:1052E000007104B1A18000B1818043203080014869
:1052F00070BD00001801002470B5822106460D48DB
:1053000000F0C9FA012105460A4800F0C4FA8121DB
:105310000446084800F0BFFA0DB11021A9714FF002
:10532000400104B1A18000B1818043203080014858
:1053300070BD0000180100242DE9F0474FF40775F7
:105340000446284600F030FF06004FF0000965D003
:105350002946FBF7E0FAD4F8D40201273C4D4FF47C
:10536000007A4FF0100804EB8000C0F8C062C4F867
:10537000BC62207CF0B3297840230222204600F052
:1053800034FC2878402300F00F0000EB800004EB91
:105390008000878402226978204600F026FC697824
:1053A00008230322204601F00F0101EB810104EBE9
:1053B0008101A1F86471A97801F00F0101EB81016D
:1053C00004EB8101A1F82680A97800F00EFCA978F1
:1053D000C84601F00F0101EB810104EB81018F84CC
:1053E000C6F80492D4F8D40204EB8000D0F8C402CA
:1053F000006800E01AE006F501768047C6F81080E4
:10540000C6F8148032687AB1207CF8B140236978FC
:10541000204600F0F6FB0020BDE8F087D4F8D41257
:1054200004EB8101C1F8C0920220F5E7297802223D
:105430005346204600F0D9FB2878534600F00F0071
:1054400000EB800004EB80008784A3E75346DEE78F
:105450000801002410B5D0F8D41200EB8101D1F876
:10546000C01259B1027C084C002AD1F8042207D09E
:105470004023617800F0C5FB002010BD032010BD63
:105480004FF40073F5E700000801002439B1D0F8AB
:10549000D42200EB8200C0F8C41200207047032021
:1054A0007047D0F8D42200EB8200D0F8C00218B1C7
:1054B000C0F804120020704703207047D0F8D4329F
:1054C00000EB8300D0F8C00228B1C0F81022C0F869
:1054D000081200207047032070472DE9FC41064662
:1054E000D0F8D4020C46002106EB80000D46D0F81F
:1054F000C0728DF80010ADF8041037B1217811F0AA
:1055000060022CD0202A48D102E00320BDE8FC81B3
:10551000E288E2B109060BD5D0F8C40239468368A7
:1055200060789847E288072A00D9072239462CE09C
:10553000607887F80002E088402800D34020394690
:10554000C2B2304687F8012200F07FF82AE0D0F896
:10555000C4020022214683686078984722E0607880
:1055600030B101281ED00A2809D00B2815D110E02F
:1055700096F89C02032810D1022201A905E096F8B2
:105580009C02032809D101226946304600F077F8D1
:1055900008E096F89C02032804D02146304600F02B
:1055A00049F803252846B1E710B5D0F8D41200EB2E
:1055B00081020121D2F8C0221AB1D2F8143213B1FB
:1055C00016E0032010BD0B490123C2F81432D2F8B3
:1055D0001032097801F00F0404EB840400EB84041A
:1055E000A361D2F81032D2F8082200F0B4FB0021F7
:1055F000084610BD0801002410B5D0F8B8220024D8
:105600005268904700B10324204610BD0020704727
:105610000020704713460A46002110B500F0F1FA49
:10562000002010BD13460A46002110B500F093FB80
:10563000002010BD10B58021044600F06DFB20460F
:10564000BDE81040002100F067BB10B5C0F858213C
:105650000323C0F89432C0F85C2113460A460021A7
:1056600000F0CFFA002010BD10B50521C0F894124B
:1056700000231A46194600F0C4FA002010BD10B5E8
:1056800082610223C0F89432C26113460A460021A7
:1056900000F061FB002010BD10B50421C0F8941289
:1056A00000231A46194600F056FB002010BD0000EA
:1056B00004A00A46024910B500F01BF9004810BDCD
:1056C000F043002443444320436F6E666967000043
:1056D0001220088000487047C000002404A00A4639
:1056E000024910B500F005F9004810BDF043002450
:1056F00043444320496E746572666163650000002F
:105700000420088000487047BC00002404A00A461A
:10571000024910B500F0EDF8004810BDF043002438
:1057200053544D6963726F656C656374726F6E6913
:105730006373000004A00A46024910B500F0D9F8CE
:10574000004810BDF043002453544D3332205669B5
:10575000727475616C20436F6D506F72740000003D
:1057600010B51A2008800B480A490830021F096842
:1057700000681468081809D007490822FEF77EFF60
:105780000549042220461031FEF778FF0248801EAA
:1057900010BD000000E8F11FD6000024F8B5044653
:1057A0000D460020ADF800004888010A062947D0C0
:1057B00006DC01290FD0022912D0032962D11DE095
:1057C000072946D00F295DD1D4F8B402C26920E080
:1057D000694690473BE0D4F8B412207C0A68F7E7AA
:1057E000207C02260028D4F8B80205D0C16A684699
:1057F00088470146467036E0816AF8E7C0B206285D
:1058000040D2DFE800F003090D111519D4F8B402F5
:105810004268B2B3207CDBE7D4F8B4028268F8E7D0
:10582000D4F8B402C268F4E7D4F8B4020269F0E72D
:10583000D4F8B4024269ECE7D4F8B4028269E8E72C
:10584000207CF0B9D4F8B802416B6846884701461D
:1058500009E0207CA8B9D4F8B802016B68468847F3
:10586000014607204870EA888AB1BDF8000040B1BF
:10587000824200D902462046ADF80020FFF7FFFE25
:10588000F8BDFFE729462046FFF7D4FEF8E720469B
:10589000FFF702FFF4E778B542880D46017800264D
:1058A00004468A4212D9ADF800100AE0694600F0B9
:1058B00019F84178052904D181780646A94205D016
:1058C00000266188BDF800209142EFD8304678BDAF
:1058D000002102E0491C401CC9B20278002AF9D11B
:1058E000084670470A8803781A440A8001780844F9
:1058F000704770B5002816460D4620D00446FFF7C5
:10590000E7FF02220146100202EB4101814204D866
:105910002046FFF7DDFF4000801C308033780321F4
:1059200002202B700022697006E0431C2954D8B273
:10593000411C641C2A54C8B221780029F5D170BDDD
:1059400001004FF0000004D0012901D0022901D04C
:10595000032070470120704778B10023C0F8B832A7
:10596000C0F8C432C0F8D03209B1C0F8B412012175
:10597000027080F89C1200F0CFB80320704710B579
:10598000D0F8C802FCF781FFBDE81040FFF7D8BF90
:1059900010B5D0F8C802FCF753FFBDE81040FFF780
:1059A000CFBF2DE9F041174604464FF0000521B165
:1059B00094F89C02032842D04CE0D4F8941204F1ED
:1059C0001400022935D1D0E902639E4206D9F21AA9
:1059D000394682602046FFF725FE0FE0B34214D11E
:1059E0004068984211D3D4F8981288420DD2002210
:1059F00020461146FFF716FEC4F8985200231A46B7
:105A00001946204600F0FDF813E094F89C020328A4
:105A100008D1D4F8B802C16821B1C4F8D452C16821
:105A2000204688478021204600F076F92046FFF77F
:105A30001BFE94F8A00268B184F8A0520AE0D4F8E2
:105A4000B802426932B1C4F8D45242692046904744
:105A5000002800D10020BDE8F08170B5134604464F
:105A60004FF0000221B194F89C02032830D03AE0B4
:105A7000D4F8941204F5AA70032934D1D0E9025164
:105A80008D420AD96A1A82600846824200D30246D1
:105A900019462046FFF7BEFD25E094F8AA0210F053
:105AA0001F0003D0012802D0022800D0002294F861
:105AB0009C02032808D1D4F8B802016921B1C4F8C6
:105AC000D4220169204688472046FFF7E5FD0AE019
:105AD000D4F8B802836933B1C4F8D422826920466D
