:020000040800F2
:1000000008070024AD020008B9020008BB0200087E
:10001000BD020008BF020008C10200080000000085
:10002000000000000000000000000000C302000803
:10003000C502000800000000C7020008E97B0008B4
:10004000CB020008CB020008CB020008CB0200085C
:10005000CB020008CB020008CB020008CB0200084C
:10006000CB020008CB020008CB020008910900086F
:100070009D090008CB020008CB020008CB02000853
:10008000CB020008CB020008CB020008CB0200081C
:10009000CB020008CB020008CB020008CB0200080C
:1000A000CB020008CB020008CB020008CB020008FC
:1000B000CB020008CB020008CB020008CB020008EC
:1000C000CB020008CB020008CB02000861770008D1
:1000D000CB020008CB020008CB020008CB020008CC
:1000E000CB020008CB02000800000000CB02000891
:1000F000CB020008CB020008CB020008CB020008AC
:10010000CB020008CB020008CB020008CB0200089B
:10011000CB020008CB020008CB020008CB0200088B
:10012000CB020008CB020008CB020008CB0200087B
:10013000CB020008CB020008CB020008CB0200086B
:1001400000000000000000000000000000000000AF
:10015000CB020008CB020008CB020008CB0200084B
:10016000CB020008CB020008CB020008CB0200083B
:10017000CB020008CB020008CB0200080000000000
:10018000CB020008CB020008CB020008CB0200081B
:10019000CB020008CB020008CB020008CB0200080B
:1001A000CB020008CB020008CB020008CB020008FB
:1001B000CB020008CB020008CB020008CB020008EB
:1001C000CB020008CB020008CB020008CB020008DB
:1001D000CB020008CB020008CB020008CB020008CB
:1001E000CB020008CB020008CB020008CB020008BB
:1001F000CB020008CB020008CB020008CB020008AB
:10020000CB020008CB020008CB020008CB0200089A
:10021000CB020008CB020008CB020008CB0200088A
:10022000CB020008CB020008CB020008000000004F
:10023000CB020008CB02000800000000CB0200083F
:10024000CB020008CB020008CB020008CB0200085A
:10025000CB020008CB020008CB020008CB0200084A
:10026000CB020008CB020008CB020008CB0200083A
:10027000CB020008CB020008CB02000800000000FF
:10028000CB020008CB020008CB02000800000000EF
:1002900000000000CB020008DFF80CD000F046FAA6
:1002A0000048004775800008080700240748804779
:1002B0000748804707480047FEE7FEE7FEE7FEE7FE
:1002C000FEE7FEE7FEE7FEE7FEE7FEE75D0D00085E
:1002D000097D00089902000840EA01039B0703D04A
:1002E00009E008C9121F08C0042AFAD203E011F875
:1002F000013B00F8013B521EF9D27047D2B201E037
:1003000000F8012B491EFBD270470022F6E710B51A
:1003100013460A4604461946FFF7F0FF204610BD73
:10032000421C10F8011B0029FBD1801A704730B520
:100330000B46014600202022012409E021FA02F5A3
:100340009D4205D303FA02F5491B04FA02F528443D
:10035000151EA2F10102F1DC30BD2DE9F05F05466A
:10036000002092469B4688460646814640241BE074
:10037000284641464746224600F0F9F953465A4678
:10038000C01A914110D311461846224600F0E0F9F8
:100390002D1A67EB01084F4622460120002100F08C
:1003A000D7F917EB00094E41201EA4F10104DFDC50
:1003B000484631462A464346BDE8F09F2DE9FE4FA8
:1003C000804681EA0300C00F0C46009021F00041F6
:1003D00023F00045B8EB0200A94105D24046214672
:1003E00090461C460B46024623F00040104347D07F
:1003F000270DC7F30A00C3F30A510290401A019077
:1004000040286BDAC3F3130040F4801B0098924637
:1004100020B10023D2EB030A63EB0B0B0198594682
:10042000C0F14002504600F093F906460D46504692
:100430005946019A00F0ABF910EB08006141002425
:1004400087EA115284EAE7731A4340D0009A62B3F4
:10045000019A012A4FEA075215DC001B61EB0201E9
:100460004FF0004202EA0752CDE90042001C41F57C
:10047000801132462B4600F0ABF903B0BDE8F08F97
:1004800040462146F9E7001B61EB0201001C41F5E3
:10049000801300185B412018A2F5001747EB0301F9
:1004A00040EAD570B6196D4111E06D084FEA360685
:1004B00045EAC0754FEA0752001B61EB0201001CC0
:1004C00041F5801149084FEA300000195141324688
:1004D0002B4603B0BDE8F04F00F06BB90098012245
:1004E00040000023D0EB020263EBE073009821464A
:1004F0004FEAE074B8EB000061EB0401E9E783F038
:1005000000435BE781F0004158E72DE9FE4F81EAA7
:10051000030404F0004421F0004100944FF0000B6C
:1005200023F0004350EA01045ED052EA03045BD09A
:10053000C3F30A54C1F30A552C44A4F2F3340194D2
:10054000A0FB0254C1F3130141F48011C3F3130360
:1005500043F4801301FB024400FB034E840A970A14
:1005600044EA815447EA8357A4FB076802958D0A41
:1005700005FB07854FEA932C04FB0C542705029DCD
:100580004FEA065847EA1637B5EB08056EEB070C3D
:10059000870E920E47EA811742EA8312A7FB0201F7
:1005A000B6EB0B0164EB00042B0D43EA0C335E1831
:1005B00044EB1C50DA465146E7FB0201C5F3130435
:1005C0004FEA0B3343EA14534FEA0432019C43EAE7
:1005D0000603A4F10C040294009CCDE900B400F0E1
:1005E000F7F803B0BDE8F08F00200146F9E72DE9E8
:1005F000F04D81EA030404F0004B21F0004514465D
:100600004FF0000A23F0004150EA050220D054EADE
:1006100001021DD0C5F30A570246C5F31303C1F307
:100620001300C1F30A5640F4801543F48013A7EB7E
:100630000608101BD64608F2FD3873EB050002D3FE
:1006400008F1010801E092185B41B8F1000F03DAEC
:1006500000200146BDE8F08D00204FF480110646D1
:1006600084460EE0171B73EB050705D3121B63EBE3
:10067000050306434CEA010C49084FEA3000921882
:100680005B4150EA0107EDD152EA030012D082EA41
:10069000040083EA0501084305D0101BAB4106D2D4
:1006A0000122002306E000224FF0004302E06FF039
:1006B000010253101AEB06004CEB085110EB0A0034
:1006C00041EB0B01BDE8F04D00F073B8C1F30A52E5
:1006D000C1F3130140F2FF3341F480119A4202DA70
:1006E00000200146704740F233439A42A2F233425F
:1006F00002DC524200F03BB800F02AB830B5041ECC
:1007000071F1000404DB4FF00044404264EB01014E
:10071000141E73F1000405DB1C464FF000435242E7
:1007200063EB0403994208BF904230BD064C074D6D
:1007300006E0E06840F0010394E8070098471034B1
:10074000AC42F6D3FFF7ACFD600501088005010857
:10075000202A04DB203A00FA02F100207047914081
:10076000C2F1200320FA03F3194390407047202A76
:1007700004DB203A21FA02F00021704721FA02F34B
:10078000D040C2F120029140084319467047202A08
:1007900006DBCB17203A41FA02F043EAE07306E0A9
:1007A00041FA02F3D040C2F12002914008431946B9
:1007B000704710B5141E73F1000408DA401C41F1B3
:1007C000000192185B411A4301D120F0010010BDD5
:1007D0002DE9F04D92469B4611B1B1FA81F202E04B
:1007E000B0FA80F220329046FFF7B2FF04460F467F
:1007F00040EA0A0041EA0B0153465A46084313D027
:10080000114653EA010019D0C8F140025046FFF7E3
:10081000AEFF05460E46504659464246FFF798FF42
:10082000084305D0012004E020463946BDE8F08D9C
:100830000020054346EAE0762C4337430A986305D7
:10084000E40AA0EB08000022FD0A44EA47540A30FB
:1008500002D500200146E9E7010510196941DDE9EB
:10086000084500196941BDE8F04DA2E780B500F0E8
:100870000DF827200021002207F02EFE272001215D
:100880000022BDE8804007F027BE0000FEB50D49FC
:10089000002005900A6842F002020A60096801F02F
:1008A00002010091CDE90300112002904FF4C070C5
:1008B0000190009801A9044801F0EEFC07F0E6FD64
:1008C00006B080BDE04402580004025880B5FFF72E
:1008D000DDFF26200021002207F0FEFD0020BDE8FC
:1008E000804000F00EB810B50446C2B22720122195
:1008F00007F0F2FD220A27201321BDE8104007F07F
:10090000EBBD80F0FF022620122107F0E5BD0000BC
:10091000F0B51E48016889030ED4BFF34F8F002144
:10092000BFF36F8FC0F83C1206F03BFD016841F445
:100930000031016006F035FD0168C90325D40021AE
:10094000016743F6E07CBFF34F8FC36EDA08C3F351
:100950004E31C3F3C903920701330CEA4115164621
:100960001F4646EA050406F14046013FC0F84C42E6
:10097000F7D14C1E00292146EFD1BFF34F8F0168FC
:1009800041F48031016006F00CFDF0BD14ED00E093
:100990000148043000F002BE20000024014800F0AD
:1009A000FDBD00BFE001002410B50168234A91425B
:1009B00023D0234A91421CBF224A91421DD0224A91
:1009C00091421CBF214A914217D0214A91421CBF3B
:1009D000204A914211D0204A91421CBF1F4A9142A5
:1009E0000BD01F4A91421CBF1E4A914205D01E4A9D
:1009F00091421CBF1D4A914213D101F0F802182305
:100A00001EA4103AB2FBF3F303F00703E35CC365E3
:100A100040F2FF3399435F2A88BF0431816508465D
:100A200010BD134A9142E8D0124A9142E5D0124AD1
:100A30009142E2D021F0FF01F0E700BF1000024038
:100A4000280002404000024058000240700002406E
:100A500088000240A0000240B8000240100402409A
:100A6000280402404004024058040240700402403E
:100A700088040240B8040240A00402400006101698
:100A80000006101610B50168AB4A91420BD0AB4A74
:100A900091421CBFAA4A914205D0AA4A91421CBF6A
:100AA000A94A914213D101F0FC011422154B0839D7
:100AB000B1FBF2F203F1800103EB820302F01F02AB
:100AC0000124C0E9183104FA02F2826610BD9F4A7F
:100AD0009142E8D09E4A9142E5D09E4A9142E2D0AE
:100AE00001F0F8021823084C103AB2FBF3F3A142CC
:100AF0001A4688BF0832AA34A14228BF1A46034BBF
:100B0000D8E700BF005802580F0402400008024016
:100B100070B501794A1E072A1AD8144B0568864E0B
:100B200003F14404B5420BD0844EB5421CBF844E41
:100B3000B54205D0834EB5421CBF834EB54208D1A5
:100B4000012503EB8101C0E91B1405FA02F242679B
:100B500070BD7E4EB542F3D07E4EB542F0D07C4E95
:100B6000B5421CBF024B03F14404E9E7FC580258AC
:100B7000FC080240F0B5964604685F4AD0F858C0B9
:100B800094423BD05D4FBC421CBF5D4FBC4235D050
:100B90005C4FBC421CBF5C4FBC422FD05B4FBC4281
:100BA0001CBF5B4FBC4229D05A4FBC421CBF5A4F9E
:100BB000BC4223D0594FBC421CBF594FBC421DD030
:100BC000584FBC421CBF584FBC4217D0574FBC4275
:100BD0001CBF574FBC4211D0564FBC421CBF564F92
:100BE000BC420BD0554FBC421CBF554FBC4205D038
:100BF000544FBC421CBF544FBC4267D1C66ED0E9B3
:100C000019757D6016B1D0E91C566E60944229D0EA
:100C10003A4A94421CBF3A4A944223D0394A9442F9
:100C20001CBF394A94421DD0384A94421CBF384AEE
:100C3000944217D0374A94421CBF374A944211D08D
:100C4000364A94421CBF364A94420BD0354A9442ED
:100C50001CBF354A944205D0344A94421CBF344AE2
:100C6000944217D18268C06D3F2500F01F0005FA3D
:100C700000F0CCF80800206820F480202060402A92
:100C8000636003D1C4F808E0E160F0BDA160C4F87E
:100C90000CE0F0BD2E4A94421CBF274A94420BD070
:100CA000264A94421CBF264A944205D0254A9442C3
:100CB0001CBF254A944214D18268C06D012500F002
:100CC0001F0005FA00F0CCF80400D8E71F4FBC4223
:100CD00094D01F4FBC4291D01E4FBC423FF48EAF08
:100CE000D7E71A4A9442E7D01A4A9442E4D0114A0C
:100CF0009442B7D0CDE700BF100002402800024068
:100D0000400002405800024070000240880002404B
:100D1000A0000240B8000240100402402804024033
:100D2000400402405804024070040240880402401B
:100D3000A0040240B8040240085402581C5402584F
:100D40003054025844540258585402586C540258B3
:100D5000945402588054025872B6FEE7704780B52A
:100D6000FFF784FD4FF40040BDE88040FFF7BBBDB6
:100D7000FFF7B9BD2DE9F0418046D3480D468045C7
:100D800004D0D24840F2163107F026F8286802282D
:100D900004D3CE4840F2173107F01EF868680428E3
:100DA00004D3CA484FF4467107F016F8A86808281B
:100DB00002D806F0D7FA04D1C44840F2193107F03E
:100DC0000BF8E86840B1102818BF202804D0BF48AD
:100DD00040F21A3107F000F8286940F0400040283E
:100DE00004D0BA4840F21B3106F0F6FF686980284B
:100DF0000AD0B0F5807F18BFB0F5C07F04D0B348EB
:100E00004FF4477106F0E8FFA86940F40070B0F5B0
:100E1000007F04D0AD4840F21D3106F0DDFFE869E7
:100E200050B1B0F5006F18BFB0F5406F04D0A748BF
:100E300040F21E3106F0D0FF286A40F48050B0F531
:100E4000805F04D0A14840F21F3106F0C5FF686AF8
:100E500050B1B0F5005F18BFB0F5804F04D09B488B
:100E60004FF4487106F0B8FF2968D8F80000D9B1EE
:100E700005F11C0320F4F8402C1D0ECB084347F667
:100E8000FF7110431843C8F80000D8F804008843E5
:100E90001ECC084369691043184320430843A969DD
:100EA0000843C8F8040017E02F1D47F6FF71D5F876
:100EB00020E020EA010CD5E90640CECF41EA0C0142
:100EC000114319433143394321430843696A40EAD6
:100ED0000E000843C8F800000020BDE8F08100BF04
:100EE000B0B5044678480D46844204D077484FF4A4
:100EF0007C7106F071FFB5F5005F04D3734840F2D2
:100F0000F13106F069FF606943F6FE71884340EAFB
:100F1000450060610020B0BDB0B504466A480D468A
:100F2000844204D0694840F2D73106F055FF286862
:100F3000072804D365484FF4767106F04DFF6868C2
:100F4000182805D8012101FA00F01549084204D1FA
:100F50005E4840F2D93106F03FFFA86801380F28FB
:100F600004D35A4840F2DA3106F036FFE868B0F5AB
:100F7000005F05D3554840F2DB3106F02DFFE868ED
:100F80000ECD6FF01F0505EB431325696FF31505B3
:100F900029431143194341EA402020610020B0BD9C
:100FA00000010101F8B50446474816460D46844243
:100FB00004D0464840F2553106F00EFF286801384B
:100FC000102804D3414840F2563106F005FF686806
:100FD0000138102804D33D4840F2573106F0FCFE9A
:100FE000A8680138102804D338484FF4567106F029
:100FF000F3FEE8680138102804D3344840F2593130
:1010000006F0EAFE28690138102804D32F4840F280
:101010005A3106F0E1FE68690138102804D32B48E4
:1010200040F25B3106F0D8FEA8690138102804D3DD
:1010300026484FF4577106F0CFFE3EB3012E04D080
:10104000224840F25D3106F0C7FEA0682349204BDC
:101050006A696FF00F070840E96803EB0131084344
:101060001D4901EB02510843A060E06895E80E00BD
:101070002E6906F012F80843164901EB06410843B1
:10108000A969013940EA0160E0601AE0A06895E8CA
:101090004E006FF00F0706F000F80E4A08430C49A7
:1010A00001EB06310843296902EB01410A4A084372
:1010B000696902EB01510843A969013940EA0160FD
:1010C000A0600020F8BD00BF4041005278C3000876
:1010D00000F0FFFF0000FFFF0000F0FFFF0F0FFF19
:1010E000F8B5044601F024FA002C00F09080054683
:1010F00094F83500022840F08C802768A44EB7424F
:10110000386820F00100386024D0A24887421CBF14
:10111000A14887421ED0A14887421CBFA0488742F1
:1011200018D0A04887421CBF9F48874212D09F48D2
:1011300087421CBF9E4887420CD09E4887421CBFF6
:101140009D48874206D09D4887421CBF9C488742E5
:1011500040F0E380386820F01E01384640F8141B48
:101160006FF08001026811400160B7423CD0F34843
:1011700087421CBFF248874236D0F24887421CBFE4
:10118000F148874230D0F14887421CBFF04887427F
:101190002AD0F04887421CBFEF48874224D0EF484E
:1011A00087421CBFEE4887421ED0EE4887421CBFD4
:1011B000ED48874218D0ED4887421CBFED48874272
:1011C00012D0EB4887421CBFEB4887420CD0EB485B
:1011D00087421CBFEA48874206D0EA4887421CBFC4
:1011E000E948874240F0BC80206E016821F480719C
:1011F00001603868C00710D001F09AF9401B06283A
:10120000F7D320206065032084F8350003E0012037
:10121000F8BD8020606501207CE02068B04223D0CA
:10122000C64988421CBFC64988421DD0C54988426C
:101230001CBFC549884217D0C44988421CBFC44955
:10124000884211D0C34988421CBFC34988420BD091
:10125000C24988421CBFC249884205D0C149884260
:101260001CBFC149884268D1D4E916123F2302F05D
:101270001F0203FA02F28A60B0423BD0AF498842B3
:101280001CBFAF49884235D0AE4988421CBFAE4929
:1012900088422FD0AD4988421CBFAD49884229D031
:1012A000AC4988421CBFAC49884223D0AB49884234
:1012B0001CBFAB4988421DD0AA4988421CBFAA491D
:1012C000884217D0A94988421CBFAA49884211D038
:1012D000A74988421CBFA84988420BD0A749884229
:1012E0001CBFA749884205D0A64988421CBFA64911
:1012F000884242D1E06ED4E919124A6030B10168E7
:1013000021F480710160D4E91C014160012084F85E
:101310003500002006F0A9F8F8BD944887423FF454
:1013200019AF934887423FF415AF924887423FF484
:1013300011AF6FF00E01384614E78C49884293D004
:101340008B49884290D08B4988423FF48DAFD4E9D5
:101350001612012302F01F0203FA02F24A608BE721
:101360008A4887423FF440AF894887423FF43CAF08
:10137000884887423FF438AF3BE784498842B9D078
:1013800083498842B6D083498842B3D0BEE700BFC4
:101390001000024028000240400002405800024075
:1013A0007000024088000240A0000240B8000240E5
:1013B0001004024028040240400402405804024045
:1013C00070040240B0B500285CD090F835100229B6
:1013D00056D10168584A914223D0584B99421CBFBC
:1013E000574B99421DD0574B99421CBF564B9942BF
:1013F00017D0564B99421CBF554B994211D0554BB3
:1014000099421CBF544B99420BD0544B99421CBF7C
:10141000534B994205D0534B99421CBF524B9942B2
:1014200033D1042380F83530914223D043488142A0
:101430001CBF434881421DD0424881421CBF4248E4
:10144000814217D0414881421CBF4148814211D09E
:10145000404881421CBF404881420BD03F488142F6
:101460001CBF3F48814205D03E4881421CBF3E48D8
:1014700081424DD1086820F001000860002102E09F
:101480008021416501210846B0BD384B9942C8D042
:10149000374B9942C5D0374B9942C2D00A6822F0E7
:1014A00001020A600A6822F00E020A60324A914282
:1014B0000BD0324A91421CBF314A914205D0314A89
:1014C00091421CBF304A91422BD100F158041ECCEE
:1014D0001D6825F480751D6002F01F02012303FAC8
:1014E00002F24A60816E6160C16E31B10A6822F415
:1014F00080720A60D0E91C124A60002180F8341022
:10150000012280F83520026D002ABCD09047B5E753
:1015100016488142AED016488142ABD01548814270
:10152000A8E71A4A9142D0D0194A9142CDD0194A1F
:101530009142CAD0E1E700BF1000024028000240FB
:101540004000024058000240700002408800024003
:10155000A0000240B80002401004024028040240EB
:1015600040040240580402407004024088040240D3
:10157000B8040240A0040240085402581C54025807
:101580003054025844540258585402586C5402586B
:101590009454025880540258406D70472DE9F84326
:1015A000044600200090C34FDFF8F804D4F85890A8
:1015B000D0F800802068D9F80060D9F80010B8424F
:1015C0002AD0BD4A90421CBFBC4A904224D0BC4A9B
:1015D00090421CBFBB4A90421ED0BB4A90421CBFE7
:1015E000BA4A904218D0BA4A90421CBFB94A9042B7
:1015F00012D0B94A90421CBFB84A90420CD0B84AA7
:1016000090421CBFB74A904206D0B74A90421CBFD6
:10161000B64A904240F09A81E16D082201F01F0124
:101620008A40324236D004233D46B84224D0A24FED
:10163000B8421CBFA14FB8421ED0A14FB8421CBF38
:10164000A04FB84218D0A04FB8421CBF9F4FB8421D
:1016500012D09F4FB8421CBF9E4FB8420CD09E4F35
:10166000B8421CBF9D4FB84206D09D4FB8421CBF28
:101670009C4FB84240F0958107681F422F4609D021
:10168000036823F004030360C9F80820626D42F088
:101690000102626501228A4032422FD0B84224D032
:1016A000854B98421CBF854B98421ED0844B984274
:1016B0001CBF844B984218D0834B98421CBF834B6D
:1016C000984212D0824B98421CBF824B98420CD059
:1016D000814B98421CBF814B984206D0804B984268
:1016E0001CBF804B984240F0698143691B0605D5B9
:1016F000C9F80820626D42F00202626504228A4045
:1017000032422FD0B84224D06B4B98421CBF6B4B57
:1017100098421ED06A4B98421CBF6A4B984218D020
:10172000694B98421CBF694B984212D0684B984253
:101730001CBF684B98420CD0674B98421CBF674B4C
:10174000984206D0664B98421CBF664B984240F0C8
:10175000438103689B0705D5C9F80820626D42F0F4
:1017600004026265102202FA01F131423FD00822E0
:10177000B84224D0CC4B98421CBFCC4B98421ED0D0
:10178000CB4B98421CBFCB4B984218D0CA4B9842C7
:101790001CBFCA4B984212D0C94B98421CBFC94BC0
:1017A00098420CD0C84B98421CBFC84B984206D0F8
:1017B000C74B98421CBFC74B984240F01B8103683F
:1017C000134214D0C9F8081002680168520306D405
:1017D000C90506D4016821F00801016001E0080391
:1017E00001D4216C00E0A16C09B120468847E06D6E
:1017F00000F01F01202000FA01F232427CD0206864
:101800001023B84224D0A84EB0421CBFA74EB0420D
:101810001ED0A74EB0421CBFA64EB04218D0A64E56
:10182000B0421CBFA54EB04212D0A54EB0421CBF64
:10183000A44EB0420CD0A44EB0421CBFA34EB04246
:1018400006D0A34EB0421CBFA24EB04240F0DF8093
:1018500006681E4250D0C9F8082094F83530026856
:10186000042B16D122F016020260426922F0800297
:101870004261226C0AB9A26C1AB1026822F0080215
:1018800002603F208840C9F8080005F035FC216D52
:1018900057E00168520308D4C90508D4016821F053
:1018A0001001016005F028FC01E0080320D4E16B81
:1018B0001FE000BF1000024028000240400002402C
:1018C000580002407000024088000240A000024020
:1018D000B8000240100402402804024040040240C4
:1018E000580402407004024088040240A0040240F0
:1018F000616C09B120468847606D00284FD0606D4B
:10190000C0071DD04FF41650B8FBF0F1042084F846
:1019100035002068026822F001020260009A01325C
:1019200000928A4202D80268D207F7D105F09DFDE5
:101930000068C0074FF0030008BF012084F835009D
:10194000E16C61B32046BDE8F8430847644A904221
:101950001CBF644A90420CD0634A90421CBF634A49
:10196000904206D0624A90421CBF624A904240F0C8
:101970008A80E26D02F01F03042202FA03F6026875
:101980000E4201D057074FD402269E400E4201D08E
:10199000970754D4D940090701D5110760D4BDE891
:1019A000F8834D4FB8423FF467AE4C4FB8423FF416
:1019B00063AE534FB84218BF08235DE6464B9842CA
:1019C0003FF493AE454B98423FF48FAE4C4B984258
:1019D0003FF48BAE026891E63F4B98423FF4B9AEBC
:1019E0003E4B98423FF4B5AE454B98423FF4B1AE02
:1019F0000268B7E6384B98423FF4E1AE374B984265
:101A00003FF4DDAE3E4B984218BF0422D7E6324E7B
:101A1000B0423FF41DAF314EB0423FF419AF384EE3
:101A2000B04218BF022313E71104C9F8046013D4AD
:101A3000910613D4016821F0040101600EE0110445
:101A4000C9F8046019D491061BD4016821F00A0179
:101A5000016005F051FB14E0D00321D4216C70E744
:101A6000016821F00E010160012000FA03F1C9F8BC
:101A70000410606505F0F9FC60E7D00301D4616CE7
:101A80005FE7E16B5DE71C4A90423FF472AF1B4A8F
:101A900090423FF46EAF1A4988423FF4BDAD7EE7F5
:101AA000A16C4EE7000000242800024040000240E4
:101AB000580002407000024088000240A00002402E
:101AC000B8000240100402402804024040040240D2
:101AD000580402407004024088040240A0040240FE
:101AE00094540258085402581C5402583054025856
:101AF00044540258585402586C54025880540258A6
:101B0000B80402402DE9F843044600F011FD002C12
:101B100000F00F8105462068BC4FB8423CD0BC495C
:101B200088421CBFBB49884236D0BB4988421CBF93
:101B3000BA49884230D0BA4988421CBFB949884264
:101B40002AD0B94988421CBFB849884224D0B84934
:101B500088421CBFB74988421ED0B74988421CBF83
:101B6000B649884218D0B64988421CBFB549884258
:101B700012D0B54988421CBFB44988420CD0B44940
:101B800088421CBFB349884206D0B34988421CBF73
:101B9000B249884240F01882A06840B1402818BF7E
:101BA000802804D0DFF86006E72106F015F9E06828
:101BB00040F40070B0F5007F04D0DFF84C06E82157
:101BC00006F00AF9206940F48060B0F5806F04D017
:101BD000DFF83406E92106F0FFF8606950B1B0F58E
:101BE000006F18BFB0F5805F04D0DFF81C06EA2153
:101BF00006F0F2F8A06950B1B0F5005F18BFB0F57B
:101C0000804F04D0DFF80006EB2106F0E5F8E0692C
:101C100078B1202818BFB0F5807F0AD0B0F5802FAA
:101C200018BFB0F5402F04D0DFF8DC05EC2106F03A
:101C3000D3F8206A4FEA3040042804D3DFF8C805FF
:101C4000ED2106F0C9F82068B8422AD070498842D0
:101C50001CBF7049884224D06F4988421CBF6F491D
:101C600088421ED06E4988421CBF6E49884218D0F7
:101C70006D4988421CBF6D49884212D06C49884228
:101C80001CBF6C4988420CD06B4988421CBF6B4911
:101C9000884206D06A4988421CBF6A49884240F09F
:101CA00047816068742804D3DFF85C05F12106F0F1
:101CB00093F8606A40F00401042905D0DFF8480574
:101CC000F22106F089F8606AD0B1A06A042804D332
:101CD000DFF83405F72106F07FF8E06A4FEAF050AC
:101CE000042804D3DFF82005F82106F075F8206BEE
:101CF0004FEA7050042803D3C848F92106F06CF865
:101D0000022084F83500002084F83400206801683F
:101D100021F00101016020680168C9070CD000F0C2
:101D200007FC401B0628F6D320206065032084F8BA
:101D300035000120BDE8F8830168BA4AB946D4E904
:101D40000257D4E906C301EA0208D4E90462D4E9DF
:101D5000081E45EA08053D4335432A431A4311430B
:101D600041EA0C01BEF1040F03D1D4E90B231A435D
:101D70001143AD4A4F461268B2F1005F12D3656855
:101D8000A5F12902062A0BD3A5F13F02042A07D3A5
:101D9000A5F14702022A03D3A5F14F02032A01D875
:101DA00041F480110160BEF1040F416921F0070187
:101DB00041EA0E0154D1D4E90A532943002B4FD0F4
:101DC000BCF5005F08D0BCF1000F11D1022D12D07C
:101DD000012D07D07DB143E0032D41D8DFE805F0A8
:101DE0000E0B0E02A3F1C072B2FA82F2520904E0A5
:101DF000032D03D334D1C3F300628AB3402060655E
:101E0000012084F83500BDE8F88300BF10000240CF
:101E1000280002404000024058000240700002408A
:101E200088000240A0000240B800024010040240B6
:101E3000280402404004024058040240700402405A
:101E400088040240A0040240B8040240085402582A
:101E50001C540258305402584454025858540258E2
:101E6000416105F069F905F094FA2068B8423CD068
:101E7000E74988421CBFE749884236D0E649884294
:101E80001CBFE649884230D0E54988421CBFE5497D
:101E900088422AD0E44988421CBFE449884224D0C1
:101EA000E34988421CBFE34988421ED0E249884288
:101EB0001CBFE249884218D0E14988421CBFE24970
:101EC000884212D0DF4988421CBFE04988420CD0CA
:101ED000DF4988421CBFDF49884206D0DE4988427C
:101EE0001CBFDE49884240F08C802046FEF7CAFDC8
:101EF000A06804F16003802806BF0020606060686D
:101F0000C5B20ECB013807280D60536005D82046B6
:101F1000FEF7FEFD05F051FA03E00020C4E91B00C6
:101F2000606700206065012184F83510BDE8F88302
:101F3000CC4988421CBFC54988420BD0C44988425D
:101F40001CBFC449884205D0C34988421CBFC3494D
:101F500088424AD16068122804D3AB484FF4B47168
:101F600005F03AFF022084F835002D4D142604F1C7
:101F70000803002084F8340020680ECB0544B5FB2C
:101F8000F6F5AD00E56505686FF3101545EAD20278
:101F9000A1F18005B5FA85F56D09AD03402908BFAB
:101FA000102542EA0501D4E906522A4365692A430D
:101FB0001A4341EAD201226A41EA1211016005F096
:101FC000BBF805F0C7F950E7A54988423FF4E4ADF6
:101FD000A54988423FF4E0ADA24988423FF4DCAD18
:101FE0008948E62105F0F8FED6E59D498842B1D042
:101FF0009D498842AED0934988423FF452AE40207A
:1020000093E6974988423FF470AF964988423FF47F
:102010006CAF954988423FF468AF82E7FDC2000883
:10202000F8ABFDA73F8010FE0010005CF8B505F08E
:102030001BF904D3744840F2AB2105F0CDFE002C0F
:1020400000F0B68094F83400012804BF0220F8BDE7
:1020500005F084F840F0AA8005F007F820686B4985
:10206000884224D06A4A90421CBF6A4A90421ED0DD
:10207000694A90421CBF694A904218D0684A90420F
:102080001CBF684A904212D0674A90421CBF674A00
:1020900090420CD0664A90421CBF664A904206D0DD
:1020A000654A90421CBF654A904240F083800268B6
:1020B0000B2363F344020260226C1AB10822036806
:1020C0001A43026088423BD0514A90421CBF514A99
:1020D000904235D0504A90421CBF504A90422FD077
:1020E0004F4A90421CBF4F4A904229D04E4A9042DC
:1020F0001CBF4E4A904223D04D4A90421CBF4D4ACD
:1021000090421DD04C4A90421CBF4C4A904217D07E
:102110004B4A90421CBF4C4A904211D0494A9042CF
:102120001CBF4A4A90420BD0494A90421CBF494AC0
:10213000904205D0484A90421CBF484A904259D12B
:10214000226E1368DB0303D5136843F480731360B6
:10215000E26E1AB1136843F480731360884223D08F
:102160002B4988421CBF2B4988421DD02A498842EE
:102170001CBF2A49884217D0294988421CBF2949D7
:10218000884211D0284988421CBF284988420BD078
:10219000274988421CBF2749884205D026498842E2
:1021A0001CBF264988421CD105F09EB805F03BF9BA
:1021B0000120F8BD224A90423FF479AF214A904273
:1021C0003FF475AF204A90423FF471AF0268052397
:1021D00063F343020260226C002A3FF473AF0422CF
:1021E0006DE717498842DFD016498842DCD016498E
:1021F0008842D9E71A4A9042A2D01A4A90429FD008
:10220000194A90429CD0CFE7FDC20008100002405E
:102210002800024040000240580002407000024086
:1022200088000240A0000240B800024010040240B2
:102230002804024040040240580402407004024056
:1022400088040240B8040240A00402400854025826
:102250001C540258305402584454025858540258DE
:102260006C5402589454025880540258B0B5044635
:1022700000F05EF90546DA48611C007818BF044496
:1022800000F056F9401BA042FAD3B0BD014805F05A
:1022900022B800BF200400582DE9FE4F8F4F0C4696
:1022A00005468F4EB84208D0A8194FEAB0200A2838
:1022B00003D39B48B32105F08FFD20680021B1EBCB
:1022C000104F01D180B218B99548B42105F084FDB2
:1022D0006068122804D80121824A8140114215D138
:1022E000B0F5881F18BFB0F5901F0FD0B0F5041FD0
:1022F00018BFB0F5081F09D0B0F5441F18BFB0F5DE
:10230000481F03D08648B52105F066FD07F510503B
:102310000A214FF0030C4FF0000A4FF000098542EC
:1023200008BF0921A81901234FEAB022082A38BFA3
:1023300003EBB021E81B18BF0846002601900A2ACB
:102340004FF0000038BF0120E91BB1FA81F14909C3
:1023500008430090206830FA09F100F0BD800121A7
:1023600001FA09F810EA080B00F0B080606800F08C
:102370000301013901291CD8E068042806D3684804
:10238000C42105F029FD4FF0030CE0680CFA0AF1B6
:10239000AA6800FA0AF022EA01010843A86060680E
:1023A0006A6822EA0802C0F3001101FA09F1114338
:1023B000696000F00302A168032A08BF012912D056
:1023C000032906D35648D72105F006FD4FF0030C2C
:1023D000A16801FA0AF00CFA0AF1EA6822EA01019E
:1023E0000843E860606800F00301022923D10098E7
:1023F00028B94B48E42105F0EFFC4FF0030C2069AD
:10240000102806D34648E52105F0E6FC4FF0030C02
:1024100020696FF0030306F01C010F2203EA590341
:102420008A4088402B441F6A27EA02021043186240
:10243000606800F003010CFA0AF22B6801FA0AF155
:1024400023EA02021143296010F4403F3ED027499D
:10245000274F086840F00200086008680F2100F06C
:1024600002000290029A06F00C0029F0030281405B
:10247000D35923EA0101019B03FA00F00843D0512C
:102480004FF0B0473868626840EA0B01D30258BF8A
:1024900020EA0B013960144F9302386840EA0B01BF
:1024A00058BF20EA0B0139609303D7F8800040EA57
:1024B0000B0158BF20EA0B01C7F88010D203F86F58
:1024C00040EA0B0158BF20EA0B01F96704360AF114
:1024D000020A09F101093DE7BDE8FE8F000002583C
:1024E00000FCFDA70F00060004000058F444025849
:1024F0000804005870B516460C46054621B9084830
:1025000040F2AB1105F068FC3EB1012E06D0044844
:102510004FF4D67105F060FC00E02404AC6170BD9E
:102520000BC2000801480068000C70470010005CF6
:1025300005480068704700BF2948034900780A68C9
:1025400010440860704700BF0003002480B50320DA
:1025500000F06CFA01F0F8F90E490F4B0A680968AF
:1025600001F00F01C2F30322595C9A5C01F01F01D4
:1025700002F01F02D0401B4A1060C84007490860A3
:102580000F2000F00DF808B1012080BD00F002FA24
:10259000002080BD18440258908F000804000024D9
:1025A00070B50F4E04463078B0B14FF47A71B1FB7C
:1025B000F0F00C490968B1FBF0F002F067FA012570
:1025C0000F2C0AD848B94FF0FF30214600220025D1
:1025D00000F0F6F9746000E00125284670BD00BFE8
:1025E0000800002400000024F8B504F023FE04D302
:1025F0009D4840F23E3105F0EFFB3068B0F5805F5A
:1026000004D3994840F23F3105F0E6FB7068B0F51D
:10261000803F04D394484FF4507105F0DDFBB0685F
:10262000B0F5805F04D3904840F2413105F0D4FB0F
:10263000F068B0F5803F04D38B4840F2423105F09A
:10264000CBFB3069082804D3874840F2433105F0BA
:10265000C3FB7069B0F5807F04D383484FF4517198
:1026600005F0BAFBB069B0F5807F04D37E4840F234
:10267000453105F0B1FBF06940F40070B0F5C06F72
:1026800004D0794840F2463105F0A6FB306A40F0AC
:102690000200072804D0744840F2473105F09CFB43
:1026A000B06AB0F5005F04D36F484FF4527105F083
:1026B00093FBF06AB0F5006F04D36B4840F24931E8
:1026C00005F08AFB04F0C6FC07D004F058FD04F0C6
:1026D000E6FD2068476204F02FFEF8BD002800F0F8
:1026E000BF80B0B5044600685E49884203D05E48AA
:1026F000E72105F071FB6069B0F5805F03D35A48AC
:10270000E82105F069FBA069B0F5006F03D35648D6
:10271000E92105F061FBE069B0F5805F03D3524821
:10272000EA2105F059FB206AB0F5006F03D34E484B
:10273000EB2105F051FBA06AB0F5006F03D34A48C6
:10274000EC2105F049FB606AB0F5805F03D3464891
:10275000ED2105F041FB206BB0F5006F03D342483B
:10276000EE2105F039FBE06AB0F5805F03D33E4807
:10277000EF2105F031FB606840F00040B0F1004F00
:1027800003D03948F02105F027FBA06840F08040D5
:10279000B0F1804F03D03448F12105F01DFBE06813
:1027A00040F00050B0F1005F03D02F48F22105F057
:1027B00013FB206940F08050B0F1805F03D02A48BD
:1027C000F32105F009FB94F8A10028B9002084F852
:1027D000A000204600F04AF8022084F8A10094E806
:1027E0000F0011438569194325F070458561226901
:1027F0001143826911438161D4E9051242EA014122
:102800008160D4E9071242EA0141C160D4E90912AA
:1028100042EA01410161D4E90B1242EA01414161FE
:10282000C16A01F07F41C16294F8362094F83510F6
:10283000120442EA012194F834201144C26A11437F
:10284000C162416B41F006014163816941F00101C0
:1028500081610020C4F8A400012184F8A110B0BD5A
:10286000012070470010005048C200087047000067
:1028700010B504464078102804D3764840F24D1134
:1028800005F0AAFA2078022804D372484FF4A77101
:1028900005F0A2FA207B022804D36E4840F24F11C3
:1028A00005F09AFAE07A062856D8042854D0A07A7F
:1028B000032804D3674840F2511105F08DFA607B7C
:1028C000022804D363484FF4A97105F085FAA07B70
:1028D000022804D35F4840F2531105F07DFAE07BF3
:1028E000022804D35B484FF4AA7105F075FA607AA8
:1028F000FF2804D1574840F2551105F06DFA207AAF
:1029000004381C2804D353484FF4AB7105F064FA23
:102910001448627821780260826822F001028260A5
:1029200062684260E37A227B1B0643EA0272A37A62
:1029300042EAC342637B42EA8342A37B42EA4342C8
:10294000E37B42EA0342637A42EA0322237A42EAC1
:1029500043021143816010BD3E484FF4A87105F059
:102960003BFAA4E798ED00E00948BFF35F8F0168E8
:1029700021F480310160002101677047044940F073
:1029800001000867086840F48030086004F05CBC0F
:1029900024ED00E070470000B0F1FF3F0ADD00F0D9
:1029A0001F0180B2012202FA01F14009034A42F8F4
:1029B000201070472748BD2105F00EBA00E100E065
:1029C000F8B516460D460446102A03D32148A9211E
:1029D00005F002FA102D03D31E48AA2105F0FCF9D8
:1029E0001D484FF0FF330168C1F30221CA1E81F078
:1029F000070138BF002203FA02F7BE43042928BFAB
:102A0000042103FA01F104F00F0325EA0101043B5C
:102A10009140054A1844314322440901002C48BF23
:102A200000F10C021170F8BD00E400E010B504469E
:102A30000338052803D30748912105F0CDF906484E
:102A40004FF6FF0201681140044A64F30A21114362
:102A5000016010BDCCC100080CED00E00000FA05DB
:102A60002DE9F0470446C078A44D00071AD5A06EA2
:102A70004FEA305103292CD8DFE801F002070A0F92
:102A8000E96941F40031E96107E004F06EFB01E01F
:102A900004F030FC064630B9A06E296C21F44011D8
:102AA0000843286400266078AA46C00701D137464B
:102AB00020E0A06D042800F2D6803746DFE800F061
:102AC000030E0B111100E869374640F40030E8614D
:102AD00007E00126E7E704F032FB01E004F0CDFB5C
:102AE00007463D463FB9A06D04F076FB21F0070193
:102AF00004F09CFB3546607880071CD5E06D4FEAFA
:102B0000B010042800F2B280DFE800F00309060CE0
:102B10000C0004F0BAFA05E004F011FB01E004F047
:102B2000ACFB07463E463FB9E06D04F055FB21F48F
:102B3000E07104F07BFB2E46607840071ED5D4F888
:102B4000A8004FEA7050042800F29380DFE800F0FC
:102B50000309060C0C0004F098FA05E004F0EFFA03
:102B600001E004F08AFB07463D4647B9D4F8A800C7
:102B700004F012FB21F4600104F04BFB3546607851
:102B800000071ED5D4F8AC004FEA3060042800F2EC
:102B90007380DFE800F00309060C0C0004F075FAFE
:102BA00005E004F0CCFA01E004F067FB07463E467E
:102BB00047B9D4F8AC0004F0EFFA21F0E06104F07A
:102BC00028FB2E46E078800718D5E06C4FEA3010DD
:102BD000032824D8DFE800F00802050804F055FABD
:102BE00002E004F0C2FA07463D4647B9E06C04F043
:102BF00026FB21F030010843CAF83C0035466078D6
:102C0000C0061ED5206E4FEA3030042837D8DFE8E2
:102C100000F0030C090F0F0004F037FA08E0012759
:102C20000125ECE704F08BFA01E004F026FB0746EF
:102C30003E463FB9206E04F0CFFA21F4E04104F0A3
:102C4000F5FA2E466078800628D5606E4FEA30404F
:102C5000052800F25484DFE800F01803151818184E
:102C600004F007FC10E00127012544E701270126B5
:102C700062E70127012582E701270126A2E7012754
:102C80000126DFE704F0E1FB07463D463FB9606EF1
:102C900004F0A2FA21F4E02104F0C8FA3546607885
:102CA00040061BD5D4F8B0004FEA3070052800F27A
:102CB0002A84DFE800F009030609090904F0D9FBBA
:102CC00001E004F0C2FB07463E4647B9D4F8B00025
:102CD00004F062FA21F0E04104F09BFA2E4660789D
:102CE000000619D5206F70B1B0F1005F08D0B0F1C7
:102CF000805F20D104F0C9F905E000BF10440258FC
:102D000004F0B7FB07463D463FB9206F04F064FA74
:102D100021F0405104F08AFA3546E078C0071AD015
:102D2000A06C032800F20981DFE800F00B02080B19
:102D300004F0ABF905E001270125EEE704F015FAF0
:102D40000746B84647B9A06C04F079FA21F00301B0
:102D50000843CAF83C00A846A078400601D445467E
:102D6000DAE0D4F8B400B0F5807F00F0BD80B0F5B3
:102D7000007F18BFB0F50C5F00F0B680B0F54C5F77
:102D800018BFB0F5864F00F0AF80B0F5A64F18BF62
:102D9000B0F5C64F00F0A880B0F5E64F18BFB0F50B
:102DA000034F00F0A180B0F5134F18BFB0F5234FCB
:102DB00000F09A80B0F5334F18BFB0F5434F00F0E4
:102DC0009380B0F5534F18BFB0F5634F00F08C807F
:102DD000B0F5734F1CBFBD49884200F08580BC49E7
:102DE00088421CBFBB4988427ED0BB4988421CBF79
:102DF000BA49884278D0BA4988421CBFB94988424A
:102E000072D0B94988421CBFB84988426CD0B849D1
:102E100088421CBFB749884266D0B74988421CBF68
:102E2000B649884260D0B64988421CBFB54988423D
:102E30005AD0B54988421CBFB449884254D0B449DD
:102E400088421CBFB34988424ED0B34988421CBF58
:102E5000B249884248D0B24988421CBFB149884231
:102E600042D0B14988421CBFB04988423CD0B049E9
:102E700088421CBFAF49884236D0AF4988421CBF48
:102E8000AE49884230D0AE4988421CBFAD49884225
:102E90002AD0AD4988421CBFAC49884224D0AC49F5
:102EA00088421CBFAB4988421ED0AB4988421CBF38
:102EB000AA49884218D0AA4988421CBFA949884219
:102EC00012D0A94988421CBFA84988420CD0A84901
:102ED00088421CBFA749884206D0A74988421CBF28
:102EE000A649884240F03E83DAF8F003554640F4A4
:102EF0008070CAF8F003FFF71BFB0646D5F8F00315
:102F0000C00507D4FFF714FB801B6428F6D90327FC
:102F1000032501E03D46A7B12078C00749D0E06F06
:102F20004FEAF000052800F2F282DFE800F03803F3
:102F30003538383804F09DFA30E001274FF00108A9
:102F40000AE7DAF86010D4F8B4005546414011F4AD
:102F5000407F0BD0296E2A6E42F480322A6621F41B
:102F600040712A6E22F480322A662966B0F5807F8D
:102F700040F0E382FFF7DCFA064641F28839032786
:102F8000DAF86000800700F1D582FFF7D1FA801BE4
:102F900003254845F4D9BFE704F057FA07463E46F3
:102FA00047B9E06F04F03DF921F038010843CAF851
:102FB00044002E462078800718D5A06F052800F21F
:102FC000A982DFE800F009030609090904F051FAB3
:102FD00001E004F03AFA07463D4647B9A06F04F015
:102FE00020F921F007010843CAF84400354620784B
:102FF000400719D5D4F89400052800F28E82DFE846
:1030000000F009030609090904F033FA01E004F0AD
:103010001CFA0746B84647B9D4F8940004F0BCF847
:1030200021F0070104F0F5F8A846207880061CD5A9
:10303000D4F890004FEA3070052800F272825546AD
:10304000DFE800F009030609090904F016F901E0B8
:1030500004F050F907463E4647B9D4F89000696C31
:10306000002721F0E0410843686446462078400686
:103070001BD5D4F89C004FEAB020052800F25482FA
:10308000DFE800F009030609090904F0F6F801E099
:1030900004F030F907463D4647B9D4F89C0004F0E7
:1030A0007BF821F4E05104F0B4F8354620780006AE
:1030B00040F17680D4F8A0004FEA7030052800F285
:1030C0003682DFE800F0635D606363630003010044
:1030D0000013010000230100003301000043010040
:1030E0000053010000630100007301000083010030
:1030F0000093010000A3010000B3010000C3010020
:1031000000D3010000E3010000F30100000302000E
:1031100000130200002302000033020000430200FB
:1031200000530200006302000073020000830200EB
:103130000093020000A3020000B3020000C30200DB
:1031400000D3020000E3020000F3020000030300CA
:1031500000130300002303000033030000430300B7
:1031600000530300006303000073030000830300A7
:103170000093030000A3030000B3030000C3030097
:1031800004F07BF801E004F0B5F807463E4647B985
:10319000D4F8A00004F000F821F4604104F039F8FC
:1031A0002E462068010701D455461EE0D4F884005D
:1031B00055464FEA3031042907D3DFF8DC0340F2EB
:1031C0000D5104F009FED4F88400B0F5805F06D1FB
:1031D00004F090F8002818BF0126D4F88400696C28
:1031E00021F44051084368642068C1061DD5D4F815
:1031F00098004FEA3021042907D3DFF89C034FF4ED
:10320000A46104F0E9FDD4F89800B0F5807F06D100
:1032100004F070F8002818BF0126D4F89800A96CB3
:1032200021F440710843A864206800031AD5D4F83B
:10323000A400B0F5003F0BD0B0F5803F05D00028CA
:1032400040F0468104F019F801E004F053F8074615
:103250003D4647B9D4F8A40003F09EFF21F4403165
:1032600003F0D7FF3546A07840071CD5D4F8880076
:10327000B0F5401F0CD0B0F5001F06D0B0F5801F90
:1032800040F0298103F001FF02E004F0DEF8074678
:103290003E464FB9D4F8880003F0C3FF21F4401133
:1032A0000843CAF844002E46A078C00701D135462D
:1032B00022E0206D40F48031B1F5803F05D0B64862
:1032C00040F2865104F088FD206DB0F5803F03D0B8
:1032D00080B903F0DAFE02E003F047FF07463D46FF
:1032E00057B9206D03F0ABFF21F480310843CAF8D1
:1032F0003C00DCE7012701252168880001D46068D3
:1033000006E003F0F7FF002818BF0125D4E90010FC
:103310008A031DD5D4F880206FF0010303EB32231C
:10332000022B0CD34FEA32234BB1012B40F0D68055
:10333000DAF81C30564643F40033CAF81C3047B95B
:10334000DAF84430564623F440731A43CAF844204E
:103350002F46CA0214D5606F40F00041B1F1004F12
:1033600005D08D4840F2E55104F036FD606FDAF883
:10337000401021F000410843CAF84000D4E9001091
:10338000CA0016D5D4F8B80040F48041B1F5804F9A
:1033900006D0814840F2EF5104F01EFDD4F8B80089
:1033A000DAF8001021F480410843CAF80000D4E99B
:1033B00000108A0214D5E06E40F08071B1F1807F78
:1033C00005D0754840F2F95104F006FDE06EDAF8D8
:1033D000401021F080710843CAF84000D4E9001081
:1033E0004A001AD5D4F8BC0040F40040B0F5004FB4
:1033F00004D0694840F20F6104F0EEFCDAF80000F6
:1034000020F40040CAF80000D4E90010D4F8BC2031
:10341000DAF800301A43CAF80020CA0F10D0606DE5
:1034200028B1B0F1805F18BFB0F1005F58D1DAF871
:103430003C1021F040510843CAF83C00D4E9001088
:10344000090210D5D4F88C0028B1B0F5800F18BF50
:10345000B0F5000F4BD1DAF8441021F440010843D5
:10346000CAF844006068C10705D003F006FF0028D1
:1034700018BF07466068810705D503F0FAFF0028EA
:1034800018BF07466068410705D503F06EFE0028A7
:1034900018BF07466068010705D503F050FE0028F5
:1034A00018BF07466068C10605D503F0CEFF0028A7
:1034B00018BF07466068800604D503F01BFF00288C
:1034C00018BF0127002F18BF01273846BDE8F08735
:1034D00001270125C7E601270126E5E6012738E790
:1034E0002D4840F2196104F077FC606D9FE72A488F
:1034F00040F2236104F070FCD4F88C00ABE70127A4
:103500000125FFF7CCBB01270126FFF7E8BB012708
:1035100001264FE50127012569E501274FF0010844
:1035200083E501270126A1E501270125BEE5012745
:10353000012636E65546D4F8B4002A68174900F447
:10354000407322F47C5201EA1011B3F5407F6FF30F
:103550001F3008BF0A432A600027296E08432866E7
:10356000FFF7FDBB094988423FF4BEAC08498842D9
:103570003FF4BAAC074988423FF4B6AC064840F283
:103580007D3104F029FCFFF7AFBC00BF00D303007E
:1035900000E3030000F3030039C30008CFFFFF007E
:1035A0002DE9F843002800F0818104460068884630
:1035B00001383F2804D3CD4840F2A73104F00CFC79
:1035C000B8F1100F04D3C9484FF46A7104F004FC39
:1035D000C74D286800F00F00404503D203F039FEC4
:1035E00040F064812068C34F41070ED52169BA6954
:1035F00003F099FD09D903F031FF00F2C88003F010
:103600002EFD00F0C48003F019FF01070ED561699B
:10361000FA6903F088FD09D903F020FF00F2BE80AB
:1036200003F01DFD00F0BA8003F0F0FEC10610D5D6
:10363000A169FA6902F4E06291420AD94FEA3120A5
:10364000072800F2B28003F00AFD00F0AE8003F01C
:10365000ADFE810612D5E1693A6A03F064FD0DD929
:1036600003F0FCFE00F2A88003F0F9FC00F0A48057
:10367000386A20F07000084338622068810715D549
:10368000E168BA6902F00F0291420FD921F00700F8
:10369000082805D0954840F20C4104F09DFBE168F4
:1036A000B86920F00F000843B8612068C1074FD007
:1036B000A0684FEA30200F2863D8012101FA00F0FA
:1036C0004FF6017108425CD06068042804D3874833
:1036D00040F21D4104F080FBD4E90101BA6922F4F3
:1036E00070621143B961012807D0032809D002286C
:1036F0000BD1396889030CD4D8E03968C90508D4DE
:10370000D4E03968890104D4D0E03968490740F130
:10371000CD803969A9463D4621F00701084338614B
:10372000FEF706FF064641F2883729466068296998
:1037300001F03801B1EBC00F07D0FEF7F9FE801B96
:10374000B842F2D90320BDE8F8832F4620684D46E1
:10375000800741D5264656F80C0FB96901F00F01D4
:10376000884239D2102806D281B24FF6017222FA6D
:1037700001F1C90727D15D4840F25E4104F02CFBFE
:1037800024E05A4840F21C4104F026FB9CE75748CD
:103790004FF4717104F020FB216934E7534840F283
:1037A000D63104F019FB61693EE7504840F2E73139
:1037B00004F012FBA1694AE74C4840F2F93104F0E9
:1037C0000BFBE16954E74CA101EB80063068B96955
:1037D00021F00F010843B861286800F00F00404550
:1037E00002D903F036FD61D1206841070CD521696B
:1037F000BA6903F098FC07D203F030FE59D803F001
:103800002EFC56D003F01AFE01070CD56169FA6947
:1038100003F089FC07D203F021FE51D803F01FFC0E
:103820004ED003F0F3FDC1060ED5A169FA6902F48A
:10383000E062914208D24FEA3120072847D803F0CE
:103840000EFC44D003F0B2FD800614D5E069396A5D
:1038500001F0700188420ED24FEA301107293DD89D
:10386000012202FA01F111F0F10F37D0396A21F08B
:1038700070010843386200F067F8B9692E4A2F4B8F
:10388000C1F30321515C01F01F01C840B969186000
:1038900001F00F01515C01F01F01C8402849086088
:1038A00028480068BDE8F843FEF77ABE0120BDE86D
:1038B000F8830E4840F27F4104F08EFA2169A1E7B7
:1038C0000A4840F2914104F087FA6169A9E7074884
:1038D00040F2A34104F080FAA169B3E7034840F243
:1038E000B54104F079FAE069C0E700BF85C200087D
:1038F00000200052004402580000000000000000B8
:1039000000000000000000000000000000000000B7
:103910000000000000000000080000000900000096
:103920000A0000000B0000000C0000000D00000069
:103930000E0000000F000000908F0008000000241F
:10394000040000240C00002410B535490869C0F3B8
:10395000C20003280FD0022804BF334810BD40B96D
:103960000868800634485AD50968C1F3C101C840C7
:1039700010BD2C4810BD8A6A886ACC6A4B6BC0F3B4
:10398000051000B304F0010402F00302644204EAEB
:10399000D303022A6FF35F3300EE103AB8EE400A09
:1039A00013D0AAB90A68920651BF9FED221A0A687D
:1039B000C2F3C102204B42BF23FA02F201EE102AE9
:1039C000B8EE411A06E0002010BD9FED191A01E083
:1039D0009FED161A0A6B9FED193A6FF35F2202EE04
:1039E000102AB8EE422A00EE032AB7EE000A32EEA1
:1039F000000A02EE100A086BC0F34620B8EE422A15
:103A0000013081EE021A21EE000A01EE100AB8EE32
:103A1000411A80EE010ABCEEC00A10EE100A10BD79
:103A20000044025800093D0040787D010024744A9A
:103A300020BCBE4B0024744C0090D0030000003921
:103A4000F8B5002800F09B810446006848B110F0EA
:103A50003F0106D1DFF8580640F2A11104F0BCF98D
:103A60002068C007D54E33D12078800740F1C6804A
:103A7000E068192800F29080012101FA00F0D04995
:103A8000084200F089802069802805D3DFF82006ED
:103A900040F2DB1104F0A0F9306910F03801B06A8F
:103AA0003DD0182901D1800739D03068E16800295C
:103AB00064D020F01900084303F014FB0546306879
:103AC000400743D4FEF734FD401B0228F7D9B4E188
:103AD000606828B1B0F5803F18BFB0F5A02F46D17F
:103AE000306900F03801B06A102905D018290AD1D0
:103AF00000F00300022806D130688003B4D5606866
:103B00000028B1D13BE1606800284CD0B0F5A02F6F
:103B100059D0B0F5803F5AD003F014FC5AE0E06869
:103B20003168490702D5002800F02981316821F069
:103B30001901084303F0D6FA05463068400705D45A
:103B4000FEF7F6FC03F0CCFBF7D9F8BDFEF7EAFC74
:103B500041F2030188424AD82069716821F47C311E
:103B6000402814BF41EA003041F4003045E0DFF85E
:103B700040054FF4D37104F02FF9B1E720F00100B4
:103B800003F0B0FA05463068400737D5FEF7D0FCA1
:103B900003F0A6FBF7D9D8E7DFF814054FF4ED7171
:103BA00004F01AF96FE703F0CDFB03F09BFA05462A
:103BB000306880037FF558AFFEF7BAFC411B032045
:103BC0006429F5D9C1E7306840F48020306030685E
:103BD00040F4803003F086FA0546306880033FF5F4
:103BE00043AFFEF7A5FC401B6428F6D925E1206908
:103BF000716821F0FE4141EA006070602078C006E3
:103C000052D5E06940F08000802805D0DFF8A0049C
:103C100040F22B2104F0E0F8206A402805D3DFF8B9
:103C200090044FF40B7104F0D7F8306900F03801BC
:103C3000B06A082905D018291CD100F0030001281A
:103C400018D13068C00503D5E069802840F097801E
:103C5000FEF768FC41F2030188421ED8206A7168B1
:103C600021F0F841202814BF41EA806041F08040F3
:103C7000706019E03068E169002900F00C8140F0C3
:103C8000800003F02FFA05463068C005E0D4FEF747
:103C90004FFC03F025FBF7D957E7206AF16821F0C4
:103CA0007C5141EA0060F0602078000769D42078F8
:103CB000800600F187802078400700F19E80616ACD
:103CC000032906D3DFF8E8034FF43D7104F084F8CC
:103CD000616A002951D0306900F03800182840F09E
:103CE000E980B26A306B012949D0A16A02F003036E
:103CF0008B4244D1E16AC2F305128A423FD10146A8
:103D0000226B6FF35F21013A914238D1626BC0F3AD
:103D10004621013A914232D1A26BC0F30641013AE9
:103D200091422CD1E16BC0F306600139884226D163
:103D3000A06C716BC1F3CC0188421ED0B0F5005F5E
:103D400004D3DB484FF45B7104F046F8F06A20F0CE
:103D50000100F062FEF7ECFB0546FEF7E9FBA84226
:103D6000FBD0706B4FF6F8718843A16C40EAC1003C
:103D70007063F06A40F00100F0620020F8BD01209D
:103D8000F8BD6069022805D3C94840F26D2104F0EE
:103D900023F86069716F002851D041F0010070670D
:103DA000FEF7C6FB0546706F80073FF580AFFEF754
:103DB000BFFB401B0228F6D93FE000BF0044025879
:103DC00003020202A069022805D3B9484FF4267104
:103DD00004F002F8A069316800284DD041F4805009
:103DE00003F080F90546306880043FF564AFFEF7C4
:103DF0009FFB401B0228F6D91FE0A068052805D8C4
:103E0000012101FA00F010F0230F04D1A84840F27C
:103E1000C22103F0E1FFD6F8000440F48070C6F838
:103E20000004FEF785FB0546D6F80004C00516D44D
:103E3000FEF77EFB401B6428F6D90320F8BD21F075
:103E400001007067FEF774FB0546706F80077FF511
:103E50002EAFFEF76DFB03F043FAF6D975E6A068C6
:103E6000002800F09C80052800F0AC80012800F0BC
:103E7000AD8003F086FAACE021F4805003F032F913
:103E80000546306880047FF516AFFEF751FB03F05E
:103E900027FAF6D959E620F0800003F023F9054609
:103EA0003068C0057FF500AFFEF742FB03F018FA5B
:103EB000F6D94AE6022961D1A06A042804D37C48D5
:103EC00040F2FD2103F088FF206C4FEAB000042887
:103ED00004D3774840F2FE2103F07EFF606C40F08F
:103EE0000200022804D0724840F2FF2103F074FF60
:103EF000E06A01383F2804D36D484FF4407103F065
:103F00006BFF206B0438B0F5FE7F04D9684840F29F
:103F1000013103F061FF606B0138802804D36448ED
:103F200040F2023103F058FFA06B0138802804D31F
:103F30005F4840F2033103F04FFFE06B0138802807
:103F400004D35B484FF4417103F046FFA06CB0F519
:103F5000005F04D3564840F2053103F03DFF30685E
:103F600020F0807003F0BEF805463068800141D52E
:103F7000FEF7DEFA03F0B4F9F7D9E6E5306820F091
:103F8000807003F0AFF80446306880017FF5F5AE2D
:103F9000FEF7CEFA011B03200229F5D9D5E503F07F
:103FA000F0F93067FEF7C4FA054641F28837306F02
:103FB00080077FF584AEFEF7BBFA411B0320B942B0
:103FC000F5D9C2E5306F40F004003067306F40F043
:103FD00001003067FEF7ACFA054641F28837306FD2
:103FE00080073FF56CAEFEF7A3FA411B0320B942F0
:103FF000F5D9AAE504F12805B06A40F2F331884307
:104000002ECD0843591E40EA0210B0626FF35F21C3
:104010004FF4FE024FF47E4000EB452080B208448E
:10402000A16B02EB01414FF0FE4201F4FE01084496
:10403000E16B02EB016101F0FE41084430634FF691
:10404000F871F06A20F00100F062706B8843A16C97
:1040500040EAC1007063206CF16A21F00C01084352
:10406000F062F06A616C20F002000843F062F06ACE
:1040700040F48030F062F06A40F40030F062F06AA0
:1040800040F48020F062F06A40F00100F062306895
:1040900040F0807003F026F80446306880013FF558
:1040A0006CAEFEF745FA011B03200229F5D94CE559
:1040B00085C2000808B3B0B5044690F82C000D4640
:1040C00028B9002084F82D00204600F01BF80220BB
:1040D00084F82C00211D2068FCF74CFED4E9000276
:1040E0002946FCF75FFF0648016841F00041016086
:1040F000012084F82C000020B0BD0120704700BFD3
:10410000004000527047B0B5054603F0F8F801D101
:1041100002240DE095F82C000124012808D102208A
:1041200085F82C002868FCF7DBFE85F82C4000247D
:104130002046B0BDB0B5044690F82C000D460528C9
:1041400003D0022812D001280FD1022084F82C00BD
:1041500029462068FCF7E0FE286802280CBF0520ED
:10416000012084F82C000020B0BD0120B0BD00006B
:104170001CB5044690F88000012804BF02201CBD35
:10418000072084F8810045F6C051012084F88000A2
:10419000314803F0CAF820680168890524D501690F
:1041A00021F00801016103F087F803D001690907D4
:1041B000F9D401E002F0CBFF016841F480610160B5
:1041C00003F07AF803D001688905F9D401E002F020
:1041D000BEFF02F0ACFF03F06FF803D041690905A0
:1041E000F9D401E002F0B3FF806800040ED5A06F9F
:1041F00060B100210165FCF773FF38B1A06FFDF7D6
:10420000CBF9202802D14020C4F8840020688068BF
:1042100040040ED5E06F60B100210165FCF760FF3E
:1042200038B1E06FFDF7B8F9202802D14020C4F87A
:104230008400204603F00EFCD4F8840001214006DF
:104240004FF0010001D402F0C3FF002284F8802067
:1042500084F881101CBD00BF0000002400680449E0
:10426000884200D0704703480121417001707047B7
:1042700000300140200000242DE9F8430446066880
:1042800030697169D6F8089094F881800A0501D5E3
:1042900002070DD401EA000505F0400715F0600F94
:1042A00002D00020A7B120E068070AD400200FE068
:1042B000B06940F40060B0612046BDE8F84300F00A
:1042C000F7BA616F20468847216F20468847012052
:1042D00005F00501012908D1216F2046884705F026
:1042E0002600022805D0BDE8F88305F02601022942
:1042F00004D1616F2046BDE8F84308470028F2D199
:10430000280762D415F4587FEDD057B12068D4F84F
:10431000841041F00401C4F88410816941F0400127
:104320008161A8050AD52068D4F8841041F0010104
:10433000C4F88410816941F40071816105F02000A6
:10434000E9050AD52168D4F8842042F00802C4F8AF
:1043500084208A6942F480728A6150B12068D4F85E
:10436000841041F08001C4F88410816941F020017B
:104370008161D4F884000028B5D0206840F26B3207
:10438000016821F00101016001699143016109F4B3
:104390004041B1F5404F5CD1816821F440418160DA
:1043A000E06F28B1344902F0B6FF08B102F09DFE7B
:1043B000A06F002897D0304902F0ADFF00283FF4ED
:1043C00092AF02F092FEBDE8F8832068816941F067
:1043D00008018161816941F01001816102F0A7FE4D
:1043E000016921F008010161806810F4404F19D182
:1043F00014E0E068102804D32168606E096B02C0E5
:1044000009E0082804D3318E606E20F8021B02E018
:10441000206802F083FF606602F0FFFFB4F86A00D4
:104420000028E6D103F01EF8012084F88100D4F8BA
:10443000840088B9B8F1030F13D0B8F1040F15D078
:10444000B8F1050F7FF44FAF2046BDE8F84300F008
:104450000BBB012084F881002046BDE8F843FFF73C
:10446000FDBE2046BDE8F84300F0FCBA2046BDE89A
:10447000F84300F01CBA00BF897B00082DE9F04723
:10448000002800F0E88004460068B44DA84206D039
:10449000B34988421CBFB349884240F00681606836
:1044A00040F48000B0F5800F04D0DFF8A805FF21AC
:1044B00003F092FCA0684FEA7040042805D3DFF8AF
:1044C00094054FF4807103F087FCE068A0F10B01C4
:1044D000152908D30338082805D3DFF8780540F2FA
:1044E000011103F079FCE06B4FEA701104290AD343
:1044F00080384FEA70100C2805D3DFF858054FF4C8
:10450000817103F069FCA06930B1B0F1806F18BF10
:10451000B0F1005F40F0DA80606B40F08040B0F1B5
:10452000804F05D0DFF82C054FF4827103F054FC66
:10453000E0694FEA3070082804D3DB4840F20511E7
:1045400003F04AFC206A40F40000B0F5000F04D0EC
:10455000D5484FF4837103F03FFC606A40F40021BA
:10456000B1F5002F05D0D04840F2071103F034FC1C
:10457000606AA8B9206940F00070B0F1007F04D0F3
:10458000C9484FF4857103F027FC606940F08070E2
:10459000B0F1807F04D0C44840F20B1103F01CFC42
:1045A000A06A40F48001B1F5800F05D0BE484FF4F9
:1045B000877103F011FCA06AB0F5800F24D1206B45
:1045C0004FEA30401F2800F25E81012101FA00F01D
:1045D0006FF00601084200F05681E06A20B9B24847
:1045E0004FF4897103F0F8FB206C022804D3AE4825
:1045F00040F2131103F0F0FB606C022804D3AA48C8
:104600004FF48A7103F0E8FB2168A94208D0A14861
:10461000814205D0A048814202D0E0680F281AD814
:10462000E26B0123E06803EB521200F10803DB08A0
:104630005A43A9420DD0984B99420AD0954B9942C2
:1046400018BF082A07D803F57446B14218BF99422B
:1046500004D1102A02D90120BDE8F087A26AB2F580
:10466000800F39D1A94209D08A4A914206D08A4A9C
:10467000914203D0216BB1F5702FECD8D4E90B191E
:10468000B9F1000F08BF4FEA00494FEA194701226C
:1046900002EB1942D14005D0EE484FF49E7103F071
:1046A0009BFBE068B842D6D818E07C4988423FF4CA
:1046B000F6AE7B4988423FF4F2AE7A4988423FF435
:1046C000EEAEE448FE2103F087FBE8E6E14840F265
:1046D000031103F081FB1FE74FEA004994F88100C2
:1046E00028B9002084F88000204600F0DFF802207E
:1046F00084F88100D4E90008D4F818E0BEF1806F96
:10470000026822F00102026013D1B8F1000F07D055
:10471000B8F5800F0DD1A26B3AB14FF480080FE0CD
:10472000A26BB2F1805F40F0AA80026842F480522E
:1047300002605FEA482203D4AA464FF0010C15E05C
:10474000E768AA46072F0FD3226D05684FF0000CCB
:1047500025F480752A4302600DE000BF0038004058
:10476000003C0040003001404FF0000C056825F48B
:1047700080750560E768E56BE669A268D4E90431F5
:1047800035433D43A76A45EA09053D438560656AAF
:10479000666B3543A66B35432B431943236A194394
:1047A000D4E9123529431143A26D1943114341EA5B
:1047B0000E01B7F5800F41EA0801C16038D1D4E994
:1047C0001012036823F40043012908BF03F50043D6
:1047D0000360012A016821F4804108BF01F580418E
:1047E000016050450ED0A64988420BD0294B984213
:1047F00002D0B9F5702F08D003F57441884218BF74
:10480000984208D1B9F5F81F05D1016841F400516B
:104810000160E36A0BE00168022221F400510160AB
:104820004FEA194102FA01F1E26A42EA0103036424
:10483000B8F1000F0DD0016DBCF1000F21F00101A6
:10484000016515D1616DC26822F000421143C1605B
:104850000EE027B98168012262F3CC218160816872
:10486000022262F34A218160016D21F0010101659C
:1048700002F0AEFC012184F88110BDE8F087AA4661
:104880004FF0000859E7734840F2111103F0A4FA01
:10489000A3E600BF003C004000300140003401406E
:1048A0000050014000140058C1C200087047704712
:1048B000704700002DE9F041044680681D46164609
:1048C0000F4620B1634840F66B1103F085FA02F001
:1048D0008FFC05D13FB136B12DB102F09EFC05D160
:1048E0000220BDE8F0810120BDE8F081052084F8B8
:1048F00081000020C4F88400A4F86250A4F86A5033
:104900002168E268CB6823F4C023CB60A4F8605030
:10491000E765A4F868506666C4E91C00012384F8C2
:1049200080308868102A20F4404088600CD3E06F03
:104930008369B3F5804F28D1A36F9B69B3F5804F8E
:1049400023D14FF4804309E0082A20D3E06F836924
:10495000B3F5804F18BFB3F5005F16D1A76FBF69DD
:10496000B7F5005F18BFB7F5804F0ED10F2A34D8C6
:10497000B7F5804F05D1B4F8622001325208A4F88F
:104980006220B3F5804F20D027E001204BE0A06FDC
:104990008069B0F5005F05D0B0F5804F0AD10222E2
:1049A000032001E001200122B4F862301844D04015
:1049B000A4F86200E06F8269B2F5005F05D0B2F53D
:1049C000804F0AD10223032201E001220123B4F81F
:1049D0006A703A44DA40A4F86A200027DFF8788049
:1049E000C0E913871D4A1E4BC0E90F233031B4F8CC
:1049F0006A303246FDF71AFB98B92268A06FE16D64
:104A0000936843F480439360C0E90F77C0E913874C
:104A10002032B4F86230FDF709FB48B1E06FFCF7D3
:104A20005FFB02F0ECFB002184F88010BDE8F08110
:104A300002F0BEFB18BF2B4402F044FC42F4587253
:104A40000261026842F00102026001D102F02CFC16
:104A50000020E8E7C1C200089F7B0008C57B000872
:104A6000BF7B00087047000000680549884200D0FD
:104A7000704704480021417001210170704700BF58
:104A8000003001402000002470470000411E00203B
:104A9000B0EB116F01D001207047044AF023516040
:104AA00003490B70906007211160704710E000E02F
:104AB00023ED00E0FBF725BF28B14178827800792B
:104AC0001143084300E0002002490871C0B2FFF71B
:104AD000F1BF00BFA00000240648FF220021028091
:104AE00000228170082A03D083180132D970F9E7B7
:104AF000704700BF10000024A9B1014420F01F003E
:104B00001F3121F01F01091A01290CDBBFF34F8F60
:104B10002031054A1060203920302029FAD8BFF30F
:104B20004F8FBFF36F8F704768EF00E080B502F0E2
:104B300009FE00230549064A994202D0D0520233A9
:104B4000FAE71046BDE88040FFF7D6BF00B80B007B
:104B5000000020C07CB50D4619301446009240F28A
:104B60000F3281B2A5F1120086B21120334601F056
:104B7000AFFC0920CDE90004314640F20F32681E37
:104B800083B2112001F0BEFC7CBD00002DE9F04F86
:104B900093B0DFF8D06396F802A0504603F052FAC3
:104BA0007778F17996F8058096F806E0CB1B18BF68
:104BB000012398F0010C11D13278347AB2FA82F5DF
:104BC000B4FA84F162406D0949094D408EEA0A0148
:104BD00052EA010918BF4FF0010902E04FF0010944
:104BE0000125017C7489807C06970491B18AA142D9
:104BF0000FD1B189F28A8A420BD1F189328B8A4274
:104C000007D1718A728BB2EB010B18BF4FF0010B09
:104C100001E04FF0010BBEEB0A0118BF0121B6F80D
:104C200010E0B28B41EA0C01294335790591D6E9B0
:104C3000097103D000234FF0010B2AE043EA0C0373
:104C400096F809C028B1BBF1000F02D04FF0010B5C
:104C500013E00498002818BF01200DD0BBF1000F0D
:104C600083460AD182EA0E0B81EA07005BEA000B59
:104C700018BF4FF0010B00E0834653EA090001D052
:104C8000002306E0ACEB0500B0FA80F0400908EA2A
:104C9000000389F0010000EA0800012808BFBBF109
:104CA000000F00F043810698F071F168B482C6F8F5
:104CB0001610AD4CB76286F806A0A6F81CE0757217
:104CC000AA4F01207071718A307871833072002888
:104CD00004BF47F63254C0F22E04059870B1A54ABD
:104CE00048204FF4AF711D46FFF734FF4FF4B77003
:104CF0004FF4E8713A46FFF72DFF2B46B9F1000F4C
:104D000049D099460020002140F21F323723B8468F
:104D1000994F009701F0DCFB984802F02AFBB57828
:104D2000284603F057F996A1CDE90071CDE902506C
:104D3000142020226FF07F43042102F041F8B07864
:104D400003F080F940680290904B262110228E4893
:104D5000CDE900704FF4A07002F032F835788C4A3B
:104D60004FF42B70122102F02EFA8A488A4A002D45
:104D7000CDE90047474608BF02464FF4357012217F
:104D8000102301F049FF0020002140F21F32372399
:104D900001F092FE4B46BBF1000F0ED0B0781C46DE
:104DA00003F050F9C06880471220622140F20E32B1
:104DB0004FF4AE7301F080FE2346002B40F0CE800E
:104DC000B07803F03FF904467078DFF8BCA10DF12C
:104DD00034093D4652461B289ABF714951F820308C
:104DE0006E4B4846182103F0A7FBB778384603F00E
:104DF00015F90DF11C0800906AA218213B464046A7
:104E000003F09AFB94F808B0684C26204FF4D17157
:104E1000F4224FF4E1732F460095A047FE204FF493
:104E2000D27140F216224FF4E0730095A0474FF480
:104E30000C704FF4C6714FF43E724FF4E17300955D
:104E4000A0475C4A26204FF4C67110230195584CA8
:104E50000094102501F0E0FE574B26204FF4D1714D
:104E60002022CDE9007ACDF8089001F0A9FF534A3D
:104E7000FE204FF4C67102F0A6F9BBF1000FCDE998
:104E8000007ACDF8088008BF18254D4B4FF4D27139
:104E90002A46FE2001F094FFB07803F0C3FA002800
:104EA00053D048A0CDE9007096F804904FF4C67135
:104EB000102223464FF40C7001F082FFD2480027E5
:104EC000042640F2412B8246082F3ED001204FF4A9
:104ED0000C714FF4DE73B84010EA0908244804BF8F
:104EE00043F24010C0F22100CDE9006007EB47001B
:104EF00001EBC0010BEBC0008CB285B24FF4D47152
:104F000020462A4601F0FEFA5046B8F1000F1B4930
:104F10002A464FF4DE7308BF0846CDE900604FF41F
:104F2000D471204601F004F90137CDE7002B3FF49E
:104F3000BAAE82EA0E007940084318BF01200499F6
:104F400061B100287FF4AFAE08E012204FF4C471C5
:104F500040F20E324FF4E77301F0AEFD13B0BDE83E
:104F6000F08F00BFA00000242828C600241B1200D8
:104F7000327D2E002B2116002018100050402E00EC
:104F80004D25582020257300A5C40008D1C7B800BE
:104F9000058F0008348F00080B8F000815C4000827
:104FA00058C000084D25582025730000D164000822
:104FB000C3B7A800CE8E000807C1FF00A48E00086A
:104FC000FAF8F5004B4559204C4544002DE9FE4FB9
:104FD0008246A6480190029391468B460C9A102374
:104FE000A3480090A1F1180081B2504601F014FED0
:104FF0000BF1160000264FF0050884B2B14522D00F
:10500000029859462346F040C0074BF6D44004BFEF
:1050100043F24010C0F22100CDE900802C2006FBB5
:1050200000A085B2223087B228463A4601F06AFADB
:10503000F048019059463A462346CDF8008002F0E8
:10504000DBF80136DAE7BDE8FE8F00BF2DE9FC4151
:1050500005460E4690460A27CDE9007310204FF40E
:1050600044722946334601F04DFA0920E14CCDE95E
:10507000000440F20F32681C81B205F1180083B2BF
:10508000112001F03FFA102029464FF444723346B4
:10509000CDE9007401F04CF86FF07F40CDE90004D9
:1050A00042461023681D81B21C2001F0B5FDBDE809
:1050B000FC8100BF2DE9F04F85B00746C81A0E46A7
:1050C00038BF581AB7EB020801924FF0FF31824601
:1050D000C0F1000B38BFA2EB07084FF0FF32A8EB7E
:1050E000000938BF012202920493B34288BF012114
:1050F0000391BDB2B4B20E9A2846214600F0DCFFFF
:105100000498844202D10198854212D0BBEB490F2A
:105110004846B8BFA0EB0A00B8EB400F0399C4BFE4
:105120000E444044BBEB490F0299B8BF0F4481467F
:10513000DFE705B0BDE8F08F2DE9FE4F04462E48AD
:1051400001902F4A4FF4927110232C4802F082F9FB
:10515000022024F00A0106264FF0010900EA94001B
:10516000084404F0020140EA8108B9F10D0F40D073
:10517000A9F101000121234F40F257138140C0EBF8
:10518000001B262011EA080A4FF49B7104BF4DF65C
:10519000DC07C0F2CF07CDE9006700EB8B0084B2DB
:1051A0004F2000EB8B0085B220462A4601F0AAF979
:1051B000154801904FF49B712A4640F25713009610
:1051C000204600F0B5FF11A0BAF1000F0B4B00977D
:1051D000CDE901094FF49E7118BF6FF07F43302075
:1051E000102200EB8B0080B201F0EAFD09F1010909
:1051F000BBE7BDE8FE8F00BF2B211600C3B7A80098
:10520000F88E0008327D2E00AEA490004C2530327E
:10521000750000002DE9FC41E548164A8C21102359
:10522000B0F81080456A11480190E84802F012F980
:1052300000261C275824381D10D025FA07F09E217F
:105240004822842300F00F00009006FB04F0203079
:1052500080B201F03FF8043F0136ECE76FF31F38EE
:105260004046BDE8FC41FFF767BF00BF2B21160099
:10527000C3B7A800B68E000870B58CB01D4E96F866
:10528000310096F8303096F8321096F833208DE8D9
:10529000070008AD18A21021284603F04DF9738AC3
:1052A00004AC184A02F0C6F8C448CDE90150922176
:1052B0004FF4AC72EC23144800902C2001F0BCF8A1
:1052C0004BF6D440CDE90140922140F2DE22EC239E
:1052D0000E4800904FF4C27001F0AEF80C48738A8B
:1052E00000904FF4987110223020FFF76FFE0CB041
:1052F00070BD00BFA0000024255820255820255847
:105300002025580079C40008428F0008DC8E000870
:10531000D48E00082DE9F04F89B0D74C334A0821CC
:1053200094F8333007AF384603F006F9E37803AE5C
:10533000714A1021304603F0FFF8DA48CDE90170D8
:1053400094214FF4AA72F823294801F0C7FE4BF6C6
:10535000D440CDE90160942140F2C222F823D44820
:1053600000904FF4D27001F067F8964800254FF096
:10537000060B804694488246082D33D036204FF4E1
:105380008F714FF4A673CDF800B0C146CDF80480FC
:1053900005FB00F404F17C0086B204F1A40087B29E
:1053A00030463A4601F0AEF830464FF48F713A4637
:1053B0004FF4A673CDE900BA00F0BAFEAE480B492F
:1053C0002022B84BCDF80080284490F82C00CDE97D
:1053D000011004F187004FF4937180B201F0F0FCEA
:1053E0000135C9E709B0BDE8F08F00BF6DC4000802
:1053F000AE8E000850402E002DE9F04F89B03D4C94
:105400003D4A1021A37C05A803F096F8A07C002754
:105410004FF007080490082F35D001200499384C2C
:10542000B84010EA010A08BF6FF07F44CDE900845C
:105430004C208421FC2307FB00FB0BF15C0085B2B0
:105440000BF1A60086B22846324601F05BF82B48E5
:10545000019084213246FC23CDF80080814601F082
:10546000CBFE013727A0CDE90107274B00940BF1B4
:105470007600BAF1000F08BF4B4680B2D621182241
:1054800001F09EFCC7E74FF0000805274FF04C09DC
:105490000024A0B206281CD804F07B00022816D0F5
:1054A00004FB09F0CE23CDE9007800F19501BB3073
:1054B0008DB286B284212846324601F023F80F4887
:1054C000019084213246CE23009701F095FE0134ED
:1054D000DFE74BF6D44002904FF48B7140F2DE22AE
:1054E0004FF4A47305A80190084801F0F7FD09B036
:1054F000BDE8F08FA000002474C4000850402E00C6
:1055000007C1FF0025750000100B0700E48E00089E
:10551000F0B587B0264D27A210216E6A03ACB3B256
:10552000204603F009F8DB48CDE901408C214FF417
:10553000AA72E623224801F0D1FD4FF4CA708C21F3
:105540004FF43072E623C74C0827CDE9007400F011
:10555000D9FFC648CDE900708C214FF43072E623A4
:105560004FF4CA7000F0E4FDC5480090184A962137
:10557000102301944FF4D27001F04EFB4BF6D4404F
:10558000CDE90004144AF003124858BF0246AE2188
:1055900018234FF4D27001F03FFB10482B8A009083
:1055A0004FF4927110224620FFF710FD07B0F0BDB6
:1055B000A00000242530346C5800000007C1FF0013
:1055C0003A8F00084031210050402E00C3B7A80098
:1055D000BE8E0008488F0008FF8E0008728F0008FA
:1055E0002DE9F04190B0244F24A2274C102197F8C8
:1055F00025300CAE3046A04797F8243008AD23A2E2
:1056000010212846A0473B8A0DF1100822A2102144
:1056100040466FF31F33A0479E48CDE90160234EFB
:1056200084214FF48072DE231F4800902A20B04767
:105630001F48009084214FF4FD72DE234BF6D444C2
:10564000CDE901544FF49270B04740F21E208421FE
:105650004FF43D72DE23CDE90184164C0094B0472F
:105660003B8A4C204FF499710C220094FFF7AEFC5A
:1056700010B0BDE8F08100BFA00000244449473AC3
:105680002530326C58000000398500085345473AF0
:105690002530326C5800000050494F3A25303358BD
:1056A0000000000007C1FF00B68E00083964000842
:1056B000648F00082B8F00082DE9F04F97B06348E6
:1056C000634F0DF1480A634D142104463A46068A99
:1056D000504606F04903A84706F092030DA814218E
:1056E0003A46A84706F0240308A814213A46A847DA
:1056F00094F8243003A858A21421A8475A4C2A2011
:105700007A214FF48072D423564D4FF00808CDE92A
:105710000085A0475548CDE90080DFF854B17A21D3
:105720004FF48072D4232A20D84752A0CDE90050EC
:10573000534B544E862110223A209946B04752A02E
:1057400001F0A6FD3A20B047524B3A20B82118226A
:10575000CDF808A04E4FCDE900579A46B0474FF418
:1057600092707A214FF4FD72D4233F4CCDE900852D
:10577000A0473E4801907A214FF4FD72D423CDF822
:1057800000804FF49270D84743A0CDE900508621A5
:1057900010224B464FF49A70B04742A001F078FDBA
:1057A0004FF49A70B047CDE900570DA80290B82188
:1057B000182253464FF49A70B04740F21E207A21C7
:1057C0004FF43D72D423284CCDE90085A0472748EB
:1057D00001907A214FF43D72D423CDF8008040F23D
:1057E0001E20D84731A0CDE90050862110224B461B
:1057F00040F22E20B0472FA001F04AFD40F22E20AB
:10580000B047CDE9005708A80290B82118225346A6
:1058100040F22E20B0474BF6D4400290E2214FF4E4
:10582000AA724FF48F7303A80190244801F056FC2C
:1058300006484FF49D710822038A214800907C207D
:10584000FFF7C4FB17B0BDE8F08F00BFA000002435
:1058500070C4000839850008504F3A2530326C5822
:1058600000000000403121000565000850402E0076
:10587000316100084B312F4B342F4B3700000000B3
:10588000C3B7A800C16D0008535441424C45000005
:10589000A5C4000807C1FF004B322F4B352F4B38F2
:1058A0000000000053545245544348004B332F4BE3
:1058B00036000000544F47474C4500007C8F0008DD
:1058C000EE8E00082DE9F04F9BB07D48018ACA0B8F
:1058D0008A4604920022C1F38127C1F30136C1F345
:1058E000803809B26FF39F2A0792B1F1FF3F02DDC2
:1058F000002300210BE073A1012201EB8601CB5DA7
:1059000074A101EB8601C95D02FA01F189B2069129
:10591000406A039017AC73A2744D10212046A8472B
:10592000009713AF72A2102133463846A8470020D3
:1059300000900EAE72A2142143463046A847CDF81F
:1059400000A008A872A21821049BA8477548CDE9B9
:105950000140764C7821FE22BC237348009036200B
:10596000A0477348009078214FF4F772BC234BF6A0
:10597000D445CDE901754FF49370A0476D48009070
:10598000782140F2DE22BC23CDE9016540F21620E9
:10599000A0474FF00508002104293FD02A204FF0EE
:1059A000000A0591484300F1E80B00F1CA09BAF179
:1059B000040F2DD0079806991FFA8BF51FFA89F767
:1059C00050442B4621FA00F0C007564804BF43F26A
:1059D0004010C0F22100CDE900803A200AFB00F01F
:1059E00000F5927100F5A8708CB286B23946204657
:1059F000324600F087FD50480190394632462B462A
:105A0000CDF80080204600F093FB0AF1010ACEE7B2
:105A100007980599043007900131BDE70025474FED
:105A2000474E0FF220182A24042D0DD005FB04F058
:105A300010223346CDE900780295D03081B2F020B3
:105A400001F0BEF90135EFE700250FF2FC083A241A
:105A5000042D0FD005FB04F04FF4A971102233463A
:105A6000CDE90078029500F5967080B201F0A8F9B2
:105A70000135EDE735A0CDE90070374DD02110227A
:105A80003346049802904FF40970A84708A8029082
:105A9000E821102233463148CDE900704FF40970F7
:105AA000A8472FA0CDE900704FF480711022334633
:105AB000039802904FF40970A8471BB0BDE8F08F1F
:105AC000A00000240C0D0A0B08090E0F04050607A0
:105AD0000001020303070B0F090A0C0E0405060858
