:020000040800F2
:10000000D84900200D0300082D1B00082D180008FA
:10001000451A0008FB050008D52100080000000073
:100020000000000000000000000000004D02000879
:10003000B906000800000000A9020008C11D000860
:1000400027030008270300082703000827030008E8
:1000500027030008270300082703000827030008D8
:1000600027030008270300082703000827030008C8
:10007000FD050008270300080906000827030008FB
:1000800027030008270300082703000827030008A8
:100090002703000827030008270300082703000898
:1000A0002703000827030008270300082703000888
:1000B0002703000827030008270300082703000878
:1000C0002703000827030008270300082703000868
:1000D0002703000827030008270300082703000858
:1000E0002703000827030008270300082703000848
:1000F0002703000827030008270300082703000838
:100100002703000827030008270300082703000827
:100110002703000827030008270300082703000817
:100120002703000827030008270300082703000807
:1001300027030008270300082703000827030008F7
:1001400027030008270300082703000827030008E7
:1001500027030008270300082703000827030008D7
:1001600027030008270300082703000827030008C7
:1001700027030008270300082703000800000000E9
:100180002703000827030008891E0008270300082A
:100190002703000827030008270300082703000897
:1001A00027030008270300082703000800F002F8CF
:1001B00000F03CF80AA090E8000C82448344AAF1C5
:1001C0000107DA4501D100F031F8AFF2090EBAE8C3
:1001D0000F0013F0010F18BFFB1A43F0010318477B
:1001E0003031000050310000103A24BF78C878C187
:1001F000FAD8520724BF30C830C144BF04680C602D
:10020000704700000023002400250026103A28BF74
:1002100078C1FBD8520728BF30C148BF0B60704778
:100220001FB502F0EBFD1FBD10B510BD00F0AEF91B
:100230001146FFF7F5FF02F049F800F0CCF903B4DE
:10024000FFF7F2FF03BC00F0D1F900002C4B196856
:100250000868B0E8F04F80F30988BFF36F8F4FF064
:10026000000080F311887047000000000848006813
:10027000006880F308884FF0000080F3148862B6AD
:1002800061B6BFF34F8FBFF36F8F00DF00BF00BFBA
:1002900008ED00E0DFF80C00016841F47001016036
:1002A000704700BF88ED00E0EFF30980BFF36F8F68
:1002B000134B1A681EF0100F08BF20ED108A20E9BA
:1002C000F04F106009B44FF0500080F31188BFF375
:1002D0004F8FBFF36F8F02F09BFB4FF0000080F356
:1002E000118809BC19680868B0E8F04F1EF0100FBB
:1002F00008BFB0EC108A80F30988BFF36F8F704796
:100300002C000020EFF3058070470000094880476B
:1003100009480047FEE7FEE7FEE7FEE7FEE7FEE7E7
:10032000FEE7FEE7FEE7FEE704480549054A064BFF
:1003300070470000791E0008AD010008D841002078
:10034000D8490020D8450020D845002053EA020CA7
:1003500000F069802DE9F04B4FF00006002B1FBF25
:10036000B3FA83F503FA05F424FA05F65E4012BFEA
:100370001643B2FA82F502FA05F4C5F120051EBF54
:1003800022FA05FC44EA0C04203556EA044C4FEAF4
:10039000144418BF641C4FF000084FF0000990424D
:1003A00071EB030C39D3002919BFB1FA81F701FAB7
:1003B00007F6B0FA80F700FA07F6C7F120071EBF6C
:1003C00020FA07FC46EA0C062037B6FBF4FCA7EB44
:1003D0000507103F07F01F0BCBF120060CFA0BFBB3
:1003E0002CFA06F644BFB3460026202FA4BF5E4673
:1003F0004FF0000B5BEA060C08BF4FF0010B19EB46
:100400000B09ABFB027C48EB0608C01B06FB02CCC9
:100410000BFB03CC71EB0C01C1E70B4602464146D6
:100420004846BDE8F08B13B54FF000004FF00001D7
:10043000AFF30080BDE81C40704710B5203AC0F013
:100440000B80B1E81850203AA0E81850B1E81850D5
:10045000A0E81850BFF4F5AF5FEA027C24BFB1E812
:100460001850A0E8185044BF18C918C0BDE8104083
:100470005FEA827C24BF51F8043B40F8043B08BF8C
:100480007047D20728BF31F8023B48BF11F8012B53
:1004900028BF20F8023B48BF00F8012B70474FF0FF
:1004A00000020429C0F0128010F0030C00F01B8041
:1004B000CCF1040CBCF1020F18BF00F8012BA8BF4F
:1004C00020F8022BA1EB0C0100F00DB85FEAC17C13
:1004D00024BF00F8012B00F8012B48BF00F8012BC6
:1004E00070474FF0000200B51346944696462039F7
:1004F00022BFA0E80C50A0E80C50B1F12001BFF4DD
:10050000F7AF090728BFA0E80C5048BF0CC05DF842
:1005100004EB890028BF40F8042B08BF704748BF90
:1005200020F8022B11F0804F18BF00F8012B704704
:1005300010B5044610F0030F08BF11F0030F40F090
:1005400015804FF0013E121FC0F20E8051F8043B9F
:10055000A3EB0E0C2CEA030C1CEACE1C08BF40F8DF
:10056000043BF0D0A1F1040102F10402521E08DBA9
:1005700011F8013B002B00F8013BF7D11146FFF7C2
:100580008EFF204610BD704770477047754600F0DB
:1005900029F8AE4605006946534620F00700854617
:1005A00018B020B5FFF7C0FEBDE820404FF00006B0
:1005B0004FF000074FF000084FF0000B21F007014B
:1005C000AC46ACE8C009ACE8C009ACE8C009ACE88E
:1005D000C0098D4670470446AFF300802046FFF700
:1005E0002EFE000000487047744100200149182089
:1005F000ABBEFEE7260002007047FEE7014800F0B0
:10060000B9B8000018040020014800F0B3B8000099
:10061000B803002001681823CAB2103AB2FBF3F203
:10062000054B6FF30901032A9B5CC36500D9091DC3
:100630008165084670470000D032000810B50146B9
:1006400000208B698A6A4FF0C07453B1B3F5005F24
:1006500015D072B1012A0CD0022A0AD0032A09D17E
:1006600004E01AB1012A06D0022A03D1C96AC901DD
:1006700000D5012010BDC96AA142FAD010BD002AE0
:10068000F7D0012AF2D0022AF3D0032AF3D010BD0A
:1006900030B50468256825F480252560046863600A
:1006A0008368402B036803D099600068C26030BD46
:1006B0009A600068C16030BD704772B6FEE72DE9F0
:1006C000F0410446876D00F0F3FA064694F83500D1
:1006D0000025022806D08020606584F8345001206F
:1006E000BDE8F0812068016821F0160101602068F2
:1006F000416921F080014161206C08B9A06C20B1F2
:100700002068016821F0080101602068016821F07B
:10071000010101600CE000F0CBFA801B052807D92D
:1007200020206065032084F8350084F83450D7E732
:1007300020680068C007EED194F85C103F20884024
:10074000B860012084F8350084F834500020C7E7F1
:1007500090F83510022903D08021416501207047AF
:10076000052180F835100068016821F00101016061
:10077000002070472DE9F84304464FF00009CDF8FA
:10078000009063484FF41651A56D0068B0FBF1F777
:100790002E6894F85C10082000FA01F131420FD065
:1007A00021680A6852070BD50A6822F004020A6021
:1007B00094F85C108840A860606D40F001006065AE
:1007C00094F85C104FF0010808FA01F0304208D0AC
:1007D00021684969090604D5A860606D40F00200EF
:1007E000606594F85C1004208840304208D021688D
:1007F0000968890704D5A860606D40F00400606551
:1008000094F85C1010208840304218D021680968A4
:10081000090714D5A86020680168490304D5006859
:10082000000308D5A16C07E00168C90503D401687D
:1008300021F008010160216C09B12046884794F835
:100840005C1020208840304231D021680968C906F8
:100850002DD5A86094F8350005282068016806D0D9
:10086000490347D5006800031DD4616C1CE021F0EA
:10087000160101602068416921F080014161206C0E
:1008800008B9A06C20B12068016821F0080101605E
:1008900094F85C103F208840A86084F8358084F884
:1008A0003490216D1FE0E16B09B120468847606DEF
:1008B00000282BD0606DC00714D0052084F83500C7
:1008C0002068016821F0010101600098401C00903F
:1008D000B84203D820680068C007F6D184F8358094
:1008E00084F83490E16C002910D001B02046BDE8B6
:1008F000F04308470168C905D5D4016821F010010B
:10090000016084F8358084F83490CCE7BDE8F88342
:10091000280000202DE9F041044600F0C9F9064600
:100920005CB1022084F83500002584F8345020683A
:10093000016821F0010101600DE00120BDE8F081B6
:1009400000F0B6F9801B052805D92020606503203A
:1009500084F83500F2E720680068C007F0D122680B
:10096000116820480140D4E901031843D4E9033653
:100970003343184363691843A3691843E369184371
:10098000236A18430843616A042903D1D4E90B138D
:1009900019430843106020684069666A20F0070127
:1009A00030460E43012704280CD1A06A0643E06AB2
:1009B00040B12046FFF742FE20B14020606584F838
:1009C0003570BAE7206846612046FFF723FE94F8A9
:1009D0005C203F2191408160656584F8357000207E
:1009E000ACE700003F8010F02DE9F0410446866D31
:1009F00090F83400002501280DD0012084F834003F
:100A000094F835700020012F07D084F834000225B7
:100A10002846BDE8F0810220FBE7022784F8357004
:100A200060652046FFF734FE94F85C103F20884054
:100A3000B0602068016841F016010160206C20B1AF
:100A40002068016841F0080101602068016841F0F8
:100A500001010160DCE700002DE9F84FDFF8F8A1A3
:100A60000022012403254FF00F090AF1040BAAF11B
:100A7000040E00BF0B6804FA02F63340B34270D193
:100A80000F7907F00307012F01D0022F16D18768D5
:100A90004FEA420805FA08FC27EA0C07D1F80CC017
:100AA0000CFA08FC4CEA070CC0F808C04768B743CA
:100AB0000E79C6F3001696403E4346600E79F64323
:100AC000B6070AD0C7684FEA420C05FA0CF6B743DE
:100AD0008E6806FA0CF63E43C6600E7906F00306F1
:100AE000022E10D1D60800EB8608D8F820605707F0
:100AF0004FEAD76C09FA0CF7BE430F6907FA0CF7F7
:100B00003743C8F8207006684FEA420C05FA0CF724
:100B1000BE430F7907F0030707FA0CF73743076066
:100B20004E6816F4403F1CD04C4E376847F480475F
:100B30003760366822F0030706F480460096484E78
:100B400007EB060CDCF8086897073F0F09FA07F86F
:100B500026EA0806DFF80C81404503D14FF0000873
:100B600041E072E0DFF80081404502D14FF001081A
:100B700039E0DFF8F880404502D14FF0020832E05A
:100B8000DFF8EC80404502D14FF003082BE0DFF89E
:100B9000E480404502D14FF0040824E0DFF8D8801B
:100BA000404502D14FF005081DE0DFF8D0804045F8
:100BB00002D14FF0060816E0DFF8C480404502D1AC
:100BC0004FF007080FE0DFF8BC80404502D14FF03E
:100BD000080808E0DFF8B080404502D14FF009086E
:100BE00001E04FF00A0808FA07F848EA0608CCF8CE
:100BF0000888DAF800605746D1F804C09E435FEADF
:100C0000CC2C00D51E433E60DBF800605F46D1F877
:100C100004C09E435FEA8C2C00D51E433E60DEF884
:100C200000607746D1F804C09E435FEA8C3C00D553
:100C30001E433E60084F083F3E68D1F804C09E4303
:100C40005FEACC3C00D51E433E60521C102AFFF4E4
:100C500011AFBDE8F88F0000083C01404438024065
:100C60000030014000000240000402400008024041
:100C7000000C024000100240001402400018024024
:100C8000001C02400020024000240240006908408D
:100C900000D001207047426921EA02030A4043EA7A
:100CA0000241816170470AB1816170470904FBE725
:100CB00001488068704700001C00002002488168DD
:100CC00002781144816070471C0000200B4810B569
:100CD000016841F400710160016841F480610160C4
:100CE000016841F480710160032000F073F80F2067
:100CF00000F006F800F024F8002010BD003C02408F
:100D000070B50D4D04464FF47A712878B1FBF0F0C0
:100D10000A490968B1FBF0F000F048FB48B9102C13
:100D200007D200222146501E00F034F800206C60EB
:100D300070BD012070BD00001C00002028000020B4
:100D40000C4882B0016841F480410160006800F401
:100D5000804000900748001F016841F08051016009
:100D60000068002200F0805000900F21901E02B019
:100D700000F010B844380240002809DB00F01F02E0
:100D8000012191404009800000F1E020C0F80011ED
:100D900070470000F0B40E4B1B680C46C3F30223EF
:100DA000C3F10705042D00D90425191D072901D217
:100DB000002300E0DB1E012606FA05F1491E214052
:100DC00099409E40761E16403143F0BC01F003BAB4
:100DD0000CED00E0064900F0070208684FF6FF033B
:100DE000184040EA0220034A1043086070470000A0
:100DF0000CED00E00000FA052DE9F8431748016802
:100E000041F0805101600068154F00F080500126CC
:100E100000903E64FFF74CFF05464FF47A78114C82
:100E200005E000BFFFF744FF401B40450DD8606858
:100E3000C003F7D57E64FFF73BFF0546464607E053
:100E4000FFF736FF401BB04202D90320BDE8F8830C
:100E500060688003F4D50020F8E7000040380240C5
:100E600000000E42007000402DE9F0470E460500DC
:100E700065D0DFF81481D8F80000F7B200F00F0059
:100E8000B04207D288F80070D8F8000000F00F00D8
:100E9000B04254D128683D4C810712D5400703D594
:100EA000206840F4E05020602878000703D52068CF
:100EB00040F4604020602068A96820F0F0000843FA
:100EC00020602878C0072DD030496868083901288B
:100ED00012D0022813D0032811D0096889070029ED
:100EE0002DDA216821F0030101432160FFF7E0FEC4
:100EF000814641F2883A0EE009688903EFE7096804
:100F00008901ECE7FFF7D4FEA0EB0901514502D9B6
:100F10000320BDE8F0872068696800F00C00B0EBA2
:100F2000810FEFD1D8F80010404601F00F01B14217
:100F300007D90770006800F00F00B04201D001200F
:100F4000E7E72878400705D52068E96820F4E050F5
:100F5000084320602878000706D52068296920F416
:100F6000604040EAC100206000F038F82168084A7B
:100F7000C1F30311515CC840064908600648006887
:100F8000FFF7BEFE0020C4E7003C024008380240E4
:100F9000D83200082800002020000020044805491D
:100FA00000680968044AC1F38221515CC840704757
:100FB0002800002008380240E832000804480549AB
:100FC00000680968044AC1F34231515CC840704767
:100FD0002800002008380240E8320008154810B503
:100FE000006810F00C02144813D01449042A0FD0E2
:100FF000082A0ED10F4C241F2268236802F03F02FA
:101000005B0207D52068C0F38810A0FB010106E051
:10101000084610BD2168C1F38811A1FB000100231F
:10102000FFF794F92168C1F30141491C4900B0FB65
:10103000F1F010BD083802400024F40040787D0132
:101040002DE9F84F04006ED02078DFF84C93C007EC
:10105000A9F104054AD009F104000168C1F3810136
:10106000012908D00068C0F3810002280AD1D9F80C
:101070000000400206D52868800337D56068002844
:10108000E1D033E06068B0F5803F10D0B0F5A02F1C
:10109000286810D020F480302860286820F4802050
:1010A00028606068A8B1FFF703FE06460DE02868D7
:1010B00040F48030F4E740F480202860F7E700BF78
:1010C000FFF7F6FD801B642873D828688003F7D5E6
:1010D0000CE0FFF7EDFD064605E000BFFFF7E8FD79
:1010E000801B6428F0D828688003F7D42078DFF8C4
:1010F000AC8280074FF0000A3ED5A748001D01686A
:1011000011F00C0F08D00068C0F3810002280BD149
:10111000D9F80000400207D42868800716D5E06897
:10112000012800D112E033E1E068B8B10120C8F82D
:101130000000FFF7BDFD064605E000BFFFF7B8FD64
:10114000801B0228C0D828688007F7D52868216945
:1011500020F0F80040EAC10028600DE0C8F800A0C7
:10116000FFF7A6FD064604E0FFF7A2FD801B02285C
:101170001FD828688007F7D42078000722D5864F2B
:1011800087486169703771B101210160FFF790FDF7
:10119000064604E0FFF78CFD801B022809D838685A
:1011A0008007F7D50EE0C0F800A0FFF781FD0646E6
:1011B00005E082E0FFF77CFD801B02287DD83868BF
:1011C0008007F7D42078400768D5DFF8CCB1002736
:1011D0000BF13C0BDBF80000C0000BD4DBF8001077
:1011E00041F08051CBF80010DBF80000012700F03F
:1011F000805000906B4E3068C00510D4306840F4C9
:1012000080703060FFF754FD009005E0FFF750FD5F
:101210000099401A022850D83068C005F6D55E4EB5
:10122000A0686C3601280FD00528306810D020F057
:1012300001003060306820F004003060A068B8B170
:10124000FFF736FD00900FE0306840F00100F4E752
:1012500040F004003060F7E7FFF72AFD0099411ADB
:1012600041F28830814266D830688007F4D50EE0BC
:10127000FFF71EFD009007E0FFF71AFD0099411AE5
:1012800041F28830814256D830688007F4D42FB1BB
:10129000DBF8001021F08051CBF80010A069C8B332
:1012A0003D49091D0968C1F3810102294AD002287C
:1012B000504607D0C8F8600000E03CE0FFF7F8FCBB
:1012C00004463BE04746C8F86000FFF7F1FC0646DD
:1012D00005E000BFFFF7ECFC801B02282BD8286834
:1012E0008001F7D4D4E907010843A16A2E4A4908CE
:1012F00002EB0141626A41EA8211084394F82C1022
:1013000040EA0161C9F8001001203866FFF7D0FCFF
:10131000044606E03EE000BFFFF7CAFC001B0228BF
:1013200009D828688001F7D534E000BFFFF7C0FC7A
:10133000001B022802D90320BDE8F88F286880012D
:10134000F4D427E00128F7D0D9F80000E26900F4CE
:10135000800191421CD1226A00F03F01914217D1D5
:1013600047F6C071626A0140B1EB821F10D1A26AD8
:101370004FF0FF3300F4403103EB5202B1EB024F68
:1013800006D194F82C1000F07060B0EB016F01D022
:101390000120D1E70020CFE7043802400000474297
:1013A000800E4742007000400000FFFF10B5401E55
:1013B000B0F1807F01D3012010BD4FF0E0246061C7
:1013C0000F21601700F007FF0020A06107202061B7
:1013D000002010BD70477047F8B5016804460868E2
:1013E000CA684B6910F00F0F4FF000055AD003F098
:1013F000010602F49077374365D0C10705D0D105C7
:1014000003D5616C41F001016164410705D5D9073D
:1014100003D0616C41F002016164810705D5D907F1
:1014200003D0616C41F004016164010707D502F04B
:101430002001314303D0616C41F008016164616CAB
:1014400000293BD0800604D5900602D5204600F046
:10145000A8FD20684069616CC0F3801001F00801AC
:10146000014320462BD000F067FD2068406940060C
:1014700021D52068143050E8001F21F0400140E8D9
:101480000012002AF5D1E06BA8B172490165E06B4A
:10149000FFF75EF9002811D0E06B016D01B0BDE8E7
:1014A000F040084783060ED593060CD52046BDE8CC
:1014B000F84000F076BD2046FFF78DFFF8BDFFF73E
:1014C0008AFF6564F8BD266B2023012E7ED1C606F7
:1014D0007CD5D6067AD508684868009048694FF0F0
:1014E000020640064DD5E26B106840684FF48077E5
:1014F0000004000C3AD0A18D814237D9E085D06933
:10150000B8422DD020680C3050E8001F21F48071C3
:1015100040E80012002AF5D12068143050E8001F7E
:1015200021F0010140E80012002AF5D120681430B2
:1015300050E8001F21F0400140E80012002AF5D1D8
:1015400084F84230256320680C3050E8001F21F0F9
:10155000100140E80012002AF5D1E06BFFF7AFF868
:101560006663A08DE18D401A81B206E0A18D8142B3
:10157000A8D1D069B842A5D166632046FFF72AFFFB
:10158000F8BDA08DE18D401A81B2E08D0028F7D022
:101590000029F5D020680C3050E8002F22F490721A
:1015A00040E80027002FF5D12068143050E8002FC4
:1015B00022F0010240E80027002FF5D184F84230E4
:1015C000256320680C3050E8002F00E006E022F090
:1015D000100240E80023002BF3D1CDE705062BD500
:1015E000150629D594F841002128C9D1A068B0F585
:1015F000805F01D12069B0B1206A411C216221685D
:1016000000784860E08C401E0004000CE084B7D1F4
:101610002068C16821F08001C1602068C16841F084
:101620004001C160F8BD206A0088C0F3080048602E
:10163000206A801C2062E5E74006F3D55006F1D50C
:10164000CA68204622F04002CA6084F8413000F0A7
:10165000EBF8F8BD951E000870B5040004D094F8AE
:101660004100002510B106E0012070BD84F8405013
:10167000204600F023F8242084F841002068C16847
:1016800021F40051C160204600F0ECFC20680169A3
:1016900021F4904101612068416921F02A014161F2
:1016A0002068C16841F40051C1606564202084F85D
:1016B000410084F842006563002070BD2DE9F041CF
:1016C00086B0064614216846FEF70BFF2F493068A6
:1016D000884258D12E480024016841F080410160C1
:1016E000006800F08040059029481038016841F0FA
:1016F000200101600068694600F020000590C020CC
:1017000000900220CDE901040320039008200490FA
:101710002048FFF7A1F9214D1F484FF020672860AE
:10172000C5E901744FF48068C5E903486C61AC6198
:10173000EC612C6228466C62FFF7ECF808B1FEF70A
:10174000BCFFF563AE63154D134860353038E5E8EE
:1017500002074020A5E81101104845F814496030FF
:10176000AC61EC612C626C62FFF7D4F808B1FEF753
:10177000A4FFB563002205215220AE63FFF70AFBE8
:101780005220FFF7F9FA06B0BDE8F081007800407A
:10179000403802400014024058600240B803002064
:1017A0007047000070B5044690F84100202801D031
:1017B000022070BD01B3FAB12162A284E28400204C
:1017C0006064212384F84130A56B144BEB63A56B57
:1017D000134B2B64A56B134BEB64A36B186520684C
:1017E0001346A56B021D2846FFF7FEF830B1102006
:1017F0006064202084F84100012070BD21686FF0F2
:10180000400008602068143050E8001F41F080015B
:1018100040E80012002AF5D1002070BDED1E00083E
:101820002F1F0008A31E000870477047FEE7000046
:101830000D4808B5016841F40011016000680022FC
:1018400000F40010009005210C20FFF7A3FA0C20F3
:10185000FFF792FA002205210E20FFF79BFABDE860
:1018600008400E20FFF788BA3038024010B596B015
:101870001C2211496846FEF7E0FD0021684600F091
:1018800046FD0E4C0C491C2220601C3107A8FEF7B7
:10189000D4FD002107A800F03AFD074960601C2232
:1018A00038310EA8FEF7C9FD00210EA800F02FFD6B
:1018B000A06016B010BD00007C32000810000020AF
:1018C0002DE9F04786B014216846FEF70AFE494824
:1018D0000024016841F010010160016801F010016D
:1018E0000591016841F020010160016801F02001CB
:1018F0000591016841F080010160016801F08001FB
:101900000591016841F008010160016801F00801DA
:101910000591016841F001010160016801F00101D8
:101920000591016841F480710160016801F48071E2
:101930000591016841F00201016000682E4F00F03E
:1019400002000590002278213846FFF7ACF9DFF855
:10195000AC80002210214046FFF7A5F9DFF8A090E7
:101960004FF40B66002231464846FFF79CF9DFF83A
:1019700094A0002208215046FFF795F90420CDE9F4
:101980000004694638460294FFF766F87820009014
:101990000125CDE90154694638460394FFF75CF808
:1019A00010200090CDE90154694640460394FFF7AA
:1019B00053F80096CDE90154694648460394FFF771
:1019C0004BF808260096CDE9015469465046039429
:1019D000FFF742F802200096CDE9010403200390AE
:1019E0000520049069460848FFF736F806B0BDE8C0
:1019F000F08700003038024000100240001C024016
:101A0000000C024000200240000402400C4810B5C7
:101A10000A4901604FF4E1314160002181600C22EC
:101A2000C160C0E904128161C161FFF715FE0028A1
:101A300003D0BDE81040FEF740BE10BD0078004066
:101A400070030020FEE70000010C000A49B242B218
:101A5000481C022800D80021501C022800D800226F
:101A600051EA020001D0012300E000232D48002BA1
:101A7000C37055D0524253B240F2EE2211FB02F134
:101A800000EE101AF6EE000A9FED271AB8EEC00A13
:101A900040F2A51120EE200AC0EE011ABDEEE10AC7
:101AA00010EE102A13FB01F100EE101A002AB8EE16
:101AB000C00A20EE200AC0EE010ABDEEE00A10EED8
:101AC000101A01DB134600E05342012B00DA00221A
:101AD000002901DB0B4600E04B42012B00DA00211C
:101AE00012B183881A44828011B1C2881144C18026
:101AF000B0F90410002901DA002104E0B1F5F06F1B
:101B000001DB40F27F718180B0F90610002901DA13
:101B1000002104E0B1F5876F01DB40F23741C1805D
:101B200070470000000000200000C842FEE710B52A
:101B3000040004D0012C12D002281DD018E001208E
:101B400000F059FB204600F05DF8012000F053FB47
:101B500000F018F8012000F04EFB012003E0012006
:101B600000F049FB022000F04DF8012000F043FB9B
:101B7000BDE8104000F006B8012000F03CFB00205A
:101B8000F1E700002DE9F0411D4E00252A462021F5
:101B90003046FFF788F8022000F02DFB00240022D9
:101BA00008213046FFF77FF8052000F024FB6F0086
:101BB000012208213046FFF776F8012000F01BFBD8
:101BC00004213046FFF762F840EA070500220821A9
:101BD0003046FFF768F8012000F00DFB641CE4B20A
:101BE000202CDCD3012000F006FB0122202130460E
:101BF000FFF759F8012000F0FEFA2846BDE8F08111
:101C00000010024070B51C4E0546002210213046DF
:101C1000FFF749F8012000F0EEFA00240022082125
:101C20003046FFF740F8012000F0E5FA280601D51C
:101C3000012200E0002240213046FFF734F8012263
:101C400008213046FFF72FF8012000F0D4FA68068B
:101C5000050E002208213046FFF725F8641CE4B287
:101C6000082CDBD3012000F0C6FA3046BDE87040F6
:101C700001221021FFF717B800100240F0B51849F3
:101C8000C4B2020E4D78C0F30743C0F30726AC423E
:101C900001D0012500E00025334343EA0406164342
:101CA00005D0002703B10123012617B10BE001275E
:101CB000F8E78F68B84206D02B4304D00E708860D6
:101CC0008A704C70F0BD8F780023974203D112B117
:101CD0000B708A70F0BD002DF0D10B70CB70F0BD91
:101CE00000000020054C4FF4FA7508212046FEF74D
:101CF000D2FF284600F0FFFAF7E70000002002407C
:101D0000244C254EDFF8948040F201170025284628
:101D1000FFF70DFF44F82500012D02D16068FFF7A1
:101D2000ADFF6D1CEDB2032DF1D3552030701C4872
:101D3000007801280CD12068B84209D16068FFF70B
:101D400083FE18480088B08017480088F08005E0BE
:101D50002068B84202D16068000E7070201D00F04B
:101D600085FEB07094E807000C4B00F075FA60B97E
:101D700098F800003072414600200A183318401CC1
:101D80009278C0B25A720628F7D3012000F0B3FA55
:101D9000BCE70000684100200C01002094000020F6
:101DA000000000200400002006000020034800F08E
:101DB000DFF9012000F09FFAF8E700000C01002095
:101DC00010B5FEF77BFF00F043FF012803D0BDE80C
:101DD000104000F0CFBE10BD30B593B03021684642
:101DE000FEF77FFB14210CA8FEF77BFB20480025A3
:101DF000016841F080510160006800F0805011904E
:101E00001C48016841F4404101600068022400F46C
:101E10004040119001200090000401908001CDE924
:101E20000640192008904FF4B470CDE90904082049
:101E30000B906846FFF704F908B172B6FEE7FEF7AB
:101E4000DBFF08B172B6FEE70CA90F2081E8310074
:101E50004FF4A0500F904FF48050109005210CA823
:101E6000FFF702F8002801D072B6FEE713B030BDCC
:101E700040380240007000400248016841F470019F
:101E80000160704788ED00E00148FFF7A5BA000047
:101E90007003002010B5806B0021C185FFF79BFA0D
:101EA00010BD70B5846B2068406994F84110C0F390
:101EB000C0100025212904D118B1E584204600F086
:101EC00062F82068406994F84210C0F3801022291B
:101ED00004D118B1E585204600F02EF8606C40F082
:101EE000100060642046FFF776FA70BD10B5014619
:101EF000806B09680968C90516D40021C18401688E
:101F0000143151E8002F22F0800241E80023002B19
:101F1000F5D101680C3151E8002F42F0400241E850
:101F20000023002BF5D110BDFFF77EFC10BD10B5CE
:101F3000806BFFF77AFC10BD01680C3151E8002F6F
:101F400022F4907241E80023002BF5D1016814318E
:101F500051E8002F22F0010241E80023002BF5D1C7
:101F6000016B012909D101680C3151E8002F22F0E1
:101F7000100241E80023002BF5D1202180F8421007
:101F800000210163704701680C3151E8002F22F0F5
:101F9000C00241E80023002BF5D1202180F8411038
:101FA000704708B590F84210222901D0022008BDE0
:101FB00082684FF480539A4201D1016921B1816A4C
:101FC0009A421BD04AB10AE00268816A5268C2F3A1
:101FD00008020A80816A891C08E0026972B10268FD
:101FE000526802F07F020A70816A491C8162C18DC9
:101FF000491E0904090CC18503D01BE00268526820
:10200000F1E70168CA6822F02002CA600168CA6864
:1020100022F48072CA6001684A6922F001024A61B2
:10202000202180F8421000214163026B012A03D075
:10203000FFF7B6FB002008BD016301680C3151E8D1
:10204000002F22F0100241E80023002BF5D1016897
:102050000A68D20602D50A6849680091818DFFF7A7
:10206000B9F9E7E770B5044600680169E26821F450
:102070004051114301612169A068E2690843616927
:10208000114308432168CA6849F20C639A4302432A
:10209000CA6020684169A26921F44071114341611D
:1020A00031492068884202D03049884202D1FEF787
:1020B00085FF01E0FEF772FFE26900231921642524
:1020C0003226B2F5004F626828D0A0FB0101930FC1
:1020D0009200FEF73BF90146B0FBF5F06FF01802F5
:1020E000504301EB800006EB0010B0FBF5F000F070
:1020F000F002B1FBF5F002EB0012B1FBF5F06FF06E
:102100001803584301EB800006EB0010B0FBF5F01C
:1021100000F00F0021681044886070BDA0FB010131
:1021200092185B41FEF712F90146B0FBF5F002018F
:10213000B1FBF5F06FF01803584301EB800006EB9C
:10214000C000B0FBF5F000F0F80002EB4002B1FB7C
:10215000F5F0584301EB800006EBC000B0FBF5F052
:1021600000F00700D6E70000001001400014014015
:1021700030B4002826D0144902780A7042784A7098
:102180008278012A01D0FF2A03D1104B1C78641CED
:102190001C708A700279CA708288120A0A71827968
:1021A0004A71C288120A8A71027ACA710649D0F845
:1021B00009208A60B0F80D00888130BC0E220448E6
:1021C000FFF7F0BA30BC7047FD0000200C00002083
:1021D00070030020FEE70907090E002804DB00F168
:1021E000E02080F80014704700F00F0000F1E020BC
:1021F00080F8141D704702E02921491EFDD2401EBF
:10220000FAD270472DE9F041002384460E461D4660
:102210008C180E4808E0614505D103EB0311014419
:102220003046491C0BE05B1C03EB0317C15D002922
:10223000F1D107447F78002FEDD105A13046521E21
:10224000FEF776F904F8015CBDE8F081062E00087F
:10225000554E4B4E4F574E002DE9F04115460E4658
:1022600007461C004FF0FF3809D069211846FEF7D9
:1022700016F9F9B2C7F30720012900D110B1404681
:10228000BDE8F081310E300A2F0E2B0C2A0A217086
:1022900000216170A070E67027716371A271E57111
:1022A0004FEA0105661904EB0511B07810220831D8
:1022B000FFF7A8FFB07820B194F86800401C84F8BC
:1022C00068006D1C062DEDDB0020D9E7FEF7FEFC53
:1022D000FFF782FDFFF7F4FAFFF7AAFAFFF796FB84
:1022E000FFF7C4FA00F00EF8FEE70146002084294B
:1022F00000D0C81C704710B500B9012000F024FBC5
:10230000002010BD10B500F045FB002010BD7FB5CA
:102310000D4604464169B0F9080081B1A16971B167
:10232000FFF7E3FFD4E905128DE80700D4E90010B8
:102330002B46226900F061FC039004B070BDFFF7EA
:10234000D4FF03A9CDE90001208A2B4682B2D4E94B
:10235000001000F025FC012801D00020EDE70398D3
:10236000EBE700002DE9F041184C0F460546E66802
:102370002068001D00F020FA38B9206890F82C1071
:1023800001208840216981432161681C07D137B150
:102390002168BDE8F0410E48091D00F051BA2068DF
:1023A0003544B5424560216805D2A06BBDE8F041D7
:1023B000091D00F02DBA606B091D00F029FAA06A12
:1023C000854200D2A562BDE8F08100002C0000200B
:1023D000540500202DE9F041054600F03DFA2E4C51
:1023E000A068401CA06020682C4F10B1606940B309
:1023F0002DE02560A068012829D1002606EB860083
:1024000007EB800000F0F6F9761C072EF6D3234880
:102410008C3000F0EFF92148A03000F0EBF91F48B4
:10242000B43000F0E7F91D48C83000F0E3F91B486C
:10243000DC3000F0DFF919488C3060631430A063A1
:1024400005E02068E96AC06A884200D82560606AB1
:10245000401C6062E96A01202269884010432061C3
:1024600001EB810007EB8000291D00F0E9F900F085
:1024700013FA606900280CD02068E96AC06A8842B3
:1024800007D207494FF080500860BFF34F8FBFF36A
:102490006F8FBDE8F08100002C0000207804002040
:1024A00004ED00E010B5044690F8510058B1012841
:1024B0000CD002280FD0502080F31188BFF34F8F2B
:1024C000BFF36F8FFEE7206B00F0FAF92046BDE8FE
:1024D000104000F0F5B910BD10484FF4705142079C
:1024E00006D0C01D0D4920F00700411AC1F57051FA
:1024F0000B4A00230144C2E900030839183A21F0CD
:10250000070111604B600B600B1AC0E90013936068
:102510004FF0004053605061704700006805002094
:1025200080000020144E154CA6F1C8074FF08058CB
:10253000DFF84C9012E000BF00F08EF9F068C5683B
:10254000281D00F039F9A068401EA0606068401E98
:10255000606000F0A1F92846FFF7A4FF606800283A
:10256000EAD138680128F9D9C9F80080BFF34F8F44
:10257000BFF36F8FF2E70000400500202C00002021
:1025800004ED00E02DE9F0479A46DDE90984814633
:102590006FF00303206B03EB82021044089E20F0CF
:1025A0000707780707D0502080F31188BFF34F8FBB
:1025B000BFF36F8FFEE7002561B1002023180A5C8E
:1025C00083F834200A5C12B1401C1028F6D384F83A
:1025D000435001E084F83450072E00D30626E6620B
:1025E000C4E91165201D00F010F904F1180000F095
:1025F0000CF92461C6F107006462A061E56484F807
:10260000505052464946384600F0C0F82060B8F1B4
:10261000000F01D0C8F80040BDE8F08730B511497F
:1026200000E011460A688242FBD34B685C18844282
:1026300003D1406818444860084643681C18944217
:1026400009D1084C183C2468A24209D052681A44A7
:1026500042600A6812680260814200D0086030BDA2
:102660000460F9E7800000200648416B096829B141
:10267000416BC968C9684968816270474FF0FF3192
:10268000FAE700002C00002008484068401C4FF08A
:10269000500080F3118804D0BFF34F8FBFF36F8FCA
:1026A000FEE7BFF34F8FBFF36F8FFEE78800002078
:1026B0002DE9F0410546002700F0A2F9324E3068BE
:1026C00008B9FFF709FF706905424ED1C5B3083557
:1026D00068070ED005F00700C0F108000544680740
:1026E00007D0502080F31188BFF34F8FBFF36F8F57
:1026F000FEE72DB37068854237D82348183001466D
:102700000C6801E020460C466168A94202D22168AB
:102710000029F7D131688C4227D007682168016011
:1027200060680837411B10290FD96019420708D08B
:10273000502080F31188BFF34F8FBFF36F8FFEE7F8
:1027400013E041606560FFF769FF61687068401AD7
:102750007060B268904200D2B0607069014300209E
:10276000C4E90001F068401CF06000F0E5FA780769
:1027700007D0502080F31188BFF34F8FBFF36F8FC6
:10278000FEE73846BDE8F0816800002010B5031F61
:102790004FF080741C601B1F21F001011960191F8C
:1027A000044B0B6014390A60091F6FF002024438B1
:1027B0000A6010BD89260008D0E9013201699A60DB
:1027C000D0E901235A604A68824201D182684A6096
:1027D000002202610868401E086008687047000017
:1027E000034B036003F154000860802010607047C1
:1027F0001C01002000F108014FF0FF32C0E9011276
:10280000C1600161002101607047002101617047D2
:1028100030B50B685A1C02D000F1080202E00269D0
:1028200004E02246546825689D42FAD953684B60FB
:1028300099608A60516008610168491C016030BD7F
:1028400042684A6093688B60936859609160086140
:102850000168491C01607047502080F31188BFF364
:102860004F8FBFF36F8F0A494868401C48600128AA
:102870000CD10848006810F0FF0F07D0502080F3FB
:102880001188BFF34F8FBFF36F8FFEE770470000D3
:102890008800002004ED00E00849486828B1401E87
:1028A000486001D180F311887047502080F311886F
:1028B000BFF34F8FBFF36F8FFEE70000880000204B
:1028C00070B500282AD0164DA0F108046068696927
:1028D000084207D1502080F31188BFF34F8FBFF318
:1028E0006F8FFEE722683AB1502080F31188BFF362
:1028F0004F8FBFF36F8FFEE78843606000F080F872
:1029000060686968084468602046FFF787FE2869A8
:10291000401C2861BDE8704000F00EBA70BD000098
:10292000680000204FF0E02000210161816105492D
:102930004FF47A720968B1FBF2F1491E4161072137
:10294000016170472800002010B5020014D00F4824
:10295000006B38B1502080F31188BFF34F8FBFF365
:102960006F8FFEE700F04CF800211046FFF7FAFCED
:1029700000F0E2F9002807D105494FF080500860C7
:10298000BFF34F8FBFF36F8F10BD00002C000020EE
:1029900004ED00E010B586B00024039405AA04A954
:1029A00003A80494FFF71CFFDDE903010094CDE9BF
:1029B000011000230EA11048059A00F01EF90F49DE
:1029C0000028C86211D0502080F31188BFF34F8FC8
:1029D000BFF36F8F4FF0FF30886201204861CC60F9
:1029E00006B0BDE8104000F04BB806B010BD0000C6
:1029F00049444C4500000000252500082C0000201B
:102A00000248016B491C0163704700002C00002044
:102A10001448016B11B10121C16170470021C161EE
:102A20000169B1FA81F1C1F11F0101EB81020E4987
:102A300051F822306BB101EB820101F108034A68C1
:102A400052684A609A4201D152684A60D168016076
:102A50007047502080F31188BFF34F8FBFF36F8F03
:102A6000FEE700002C00002078040020002805D09C
:102A70000078012802D0FF2800D000207047000015
:102A80001CB537480168374A914207D1502080F37E
:102A90001188BFF34F8FBFF36F8FFEE70068314996
:102AA000491E884207D1502080F31188BFF34F8F11
:102AB000BFF36F8FFEE72C4908780190FF20087064
:102AC00008788DF800009DF800009DF8002000F0C7
:102AD000F000904207D0502080F31188BFF34F8F51
:102AE000BFF36F8FFEE79DF80000204C00F0500010
:102AF00020700720A06005E09DF8002052008DF8AE
:102B00000020401E9DF800201206F5D4A060032886
:102B100007D0502080F31188BFF34F8FBFF36F8F22
:102B2000FEE74FF44070A060019808700C48203018
:102B3000016841F470010160016841F07041016079
:102B4000FFF7F0FE00206060FDF7A4FB0848016875
:102B500041F040410160FDF789FB00201CBD0000F1
:102B600000ED00E071C20F4100E400E088000020A9
:102B700034EF00E010B5502080F31188BFF34F8F81
:102B8000BFF36F8F00F072F818B104494FF0805016
:102B90000860002080F3118810BD000004ED00E003
:102BA0002DE9FF5F8346DDE90E87994616468A4682
:102BB0009000FFF77DFD05001CD05420FFF778FD45
:102BC000040014D00020256384F85100CDE90240B0
:102BD000CDE900874B46324651465846FFF7D2FCB6
:102BE0002046FFF7F7FB012004B0BDE8F09F284620
:102BF000FFF766FE4FF0FF30F6E7F0B585B0DDE990
:102C00000B640A9DA6B1DCB1542700972663022607
:102C100084F85160002604AFCDE90246CDE90057A3
:102C2000FFF7B0FC2046FFF7D5FB049805B0F0BDD8
:102C3000502080F31188BFF34F8FBFF36F8FFEE7F3
:102C4000502080F31188BFF34F8FBFF36F8FFEE7E3
:102C50000548416919B1006B18B100207047012087
:102C600070470220704700002C0000202DE9F04141
:102C70002F4C0026206B28B1A069401CA061304673
:102C8000BDE8F081E5686D1CE56013D1606B0068FC
:102C900038B1502080F31188BFF34F8FBFF36F8F8F
:102CA000FEE7606BA16B6163A063206A401C206239
:102CB000FFF7DAFCA06ADFF87C80854209D3606BFD
:102CC0000068A0B1606BC068C7687868854211D29F
:102CD000A0622068C06A00EB800158F8210001283A
:102CE00000D90126E0690028C9D00126C7E74FF0C6
:102CF000FF30EDE7381DFFF75FFDB86A18B107F147
:102D00001800FFF759FDF96A012022698840104335
:102D1000206101EB810108EB8100391DFFF790FD77
:102D2000F86A2168C96A8842C9D30126C7E700004A
:102D30002C000020780400202DE9F0472C4D0024C1
:102D40002746286B38B1FFF787FD286B401E2863A4
:102D5000286B40B146E0502080F31188BFF34F8FBD
:102D6000BFF36F8FFEE7A968224E0120D1B3A6F111
:102D7000B40980463068E8B1F068C46804F118000E
:102D8000FFF71AFD201DFFF717FDE06A2A6908FA10
:102D900000F11143296100EB800109EB8100211D45
:102DA000FFF74EFDE06A2968C96A8842E2D3C5F898
:102DB0001C80DFE70CB1FFF757FCAC6944B1464615
:102DC000FFF754FF00B1EE61641EF9D10020A86145
:102DD000E86938B10849012738070860BFF34F8F09
:102DE000BFF36F8FFFF758FD3846BDE8F08700004E
:102DF0002C0000202C05002004ED00E04FF0407076
:102E0000E1EE100A7047004E4F4E450000000000F2
:102E1000000000000000000441000000000000006D
:102E2000000000000000000005420000000000005B
:102E30000000000000000000000643000000000049
:102E40000000000000000000000007440000000037
:102E50000000000000000000000000084500000025
:102E60000000000000000000000000000946000013
:102E7000000000000000000000000000000A470001
:102E800000000000000000000000000000000B48EF
:102E90000000000000000000000000000000000C26
:102EA00049000000000000000000000000000000D9
:102EB0000D4A0000000000000000000000000000BB
:102EC000000E4B00000000000000000000000000A9
:102ED00000000F4C00000000000000000000000097
:102EE000000000104D000000000000000000000085
:102EF00000000000114E0000000000000000000073
:102F00000000000000124F00000000000000000060
:102F1000000000000000135000000000000000004E
:102F2000000000000000001451000000000000003C
:102F3000000000000000000015520000000000002A
:102F40000000000000000000001653000000000018
:102F50000000000000000000000017540000000006
:102F600000000000000000000000001855000000F4
:102F700000000000000000000000000019560000E2
:102F8000000000000000000000000000001A5700D0
:102F900000000000000000000000000000001B58BE
:102FA0000000000000000000000000000000001C05
:102FB00059000000000000000000000000000000B8
:102FC0001D5A00000000000000000000000000008A
:102FD000001E3100000000000000000000000000A2
:102FE00000001F3200000000000000000000000090
:102FF000000000203300000000000000000000007E
:10300000000000002134000000000000000000006B
:103010000000000000223500000000000000000059
:103020000000000000002336000000000000000047
:103030000000000000000024370000000000000035
:103040000000000000000000253800000000000023
:103050000000000000000000002639000000000011
:103060000000000000000000000027300000000009
:10307000000000000000000000000028454E5445FC
:1030800052000000000000000000000029455343EA
:10309000000000000000000000000000002A424183
:1030A000434B5350414345000000000000002B54A7
:1030B0004142000000000000000000000000002C61
:1030C0005350414345000000000000000000000094
:1030D0002D2D000000000000000000000000000096
:1030E000002E3D0000000000000000000000000075
:1030F00000002F5B00000000000000000000000046
:10310000000000305D000000000000000000000032
:1031100000000000315C0000000000000000000022
:103120000000000000323B00000000000000000032
:103130000000000000003327000000000000000035
:1031400000000000000000346000000000000000EB
:103150000000000000000000352C0000000000000E
:10316000000000000000000000362E0000000000FB
:1031700000000000000000000000372F00000000E9
:1031800000000000000000000000003843415053E0
:103190005F4C4F434B0000000000000039463100F7
:1031A000000000000000000000000000003A46326D
:1031B00000000000000000000000000000003B468E
:1031C0003300000000000000000000000000003C90
:1031D0004634000000000000000000000000000075
:1031E0003D46350000000000000000000000000027
:1031F000003E463600000000000000000000000015
:1032000000003F4637000000000000000000000002
:1032100000000040463800000000000000000000F0
:1032200000000000414639000000000000000000DE
:1032300000000000004246313000000000000000A5
:103240000000000000004346313100000000000093
:103250000000000000000044463132000000000081
:10326000000000000000000000000000000000005E
:10327000000000000000000000000000F83200081C
:10328000E51C0008000000000000000080000000B5
:10329000000000000000000004330008AD1D00081D
:1032A000FEFF0000000000008000000000000000A1
:1032B00000000000F0320008011D0008FEFF0000C1
:1032C000000000008000000000000000000000007E
:1032D0000006101600061016000000000000000096
:1032E00001020304060708090000000001020304AC
:1032F0007370695461736B006D61696E5461736BB7
:1033000000000000756172745461736B000000006E
:10331000303300080000002094000000E80100089D
:10332000C43300089400002044490000040200084F
:1033300000000000C0031C020000000000000000AC
:10334000000000000000000000000000010000007C
:1033500010000000000000000024F4000000000045
:10336000000000000000000000000000000000005D
:10337000000000000000000000000000000000004D
:10338000000000000000000000000000000000003D
:10339000000000000000000000000000000000002D
:1033A000000000000000000000000000000000001D
:1033B000000000000000000000000000AAAAAAAA65
:0433C0000000000009
:04000005080001AD41
:00000001FF
